:020000040800F2
:10000000504E002029020008E94200088933000808
:10001000E542000841040008A14D0008000000006E
:100020000000000000000000000000000145000882
:10003000E904000800000000914400088145000820
:10004000430200084302000843020008430200087C
:10005000430200084302000843020008430200086C
:10006000430200084302000843020008430200085C
:10007000430200084302000843020008430200084C
:10008000430200084302000843020008430200083C
:100090004504000843020008430200084302000828
:1000A000430200086D4600084302000843020008AE
:1000B000430200084302000843020008430200080C
:1000C000430200088D330008430200084302000881
:1000D00043020008ED4B00084302000843020008F9
:1000E00043020008430200084302000843020008DC
:1000F00043020008430200084302000843020008CC
:1001000043020008430200084302000843020008BB
:1001100043020008430200084302000843020008AB
:1001200043020008B9040008C5040008430200089F
:10013000430200084302000843020008430200088B
:10014000510400084302000843020008430200086B
:1001500043020008D1040008DD040008F94B000840
:10016000430200084302000843020008430200085B
:100170004302000843020008430200080000000098
:10018000430200084302000800F002F800F03CF8C7
:100190000AA090E8000C82448344AAF10107DA45E2
:1001A00001D100F031F8AFF2090EBAE80F0013F0F8
:1001B000010F18BFFB1A43F001031847FC70000041
:1001C0001C710000103A24BF78C878C1FAD85207D1
:1001D00024BF30C830C144BF04680C6070470000C1
:1001E0000023002400250026103A28BF78C1FBD840
:1001F000520728BF30C148BF0B6070471FB507F0DA
:1002000032F81FBD10B510BD00F0E4F81146FFF73D
:10021000F5FF04F023FE00F002F903B4FFF7F2FF4C
:1002200003BC00F005F90000094880470948004771
:10023000FEE7FEE7FEE7FEE7FEE7FEE7FEE7FEE796
:10024000FEE7FEE704480549054A064B70470000F3
:10025000594600088901000850480020504E0020EF
:10026000504A0020504A002053EA020C00F06980F6
:100270002DE9F04B4FF00006002B1FBFB3FA83F5BA
:1002800003FA05F424FA05F65E4012BF1643B2FAEB
:1002900082F502FA05F4C5F120051EBF22FA05FC1D
:1002A00044EA0C04203556EA044C4FEA144418BFC3
:1002B000641C4FF000084FF00009904271EB030CF2
:1002C00039D3002919BFB1FA81F701FA07F6B0FA5C
:1002D00080F700FA07F6C7F120071EBF20FA07FCD7
:1002E00046EA0C062037B6FBF4FCA7EB0507103FE7
:1002F00007F01F0BCBF120062CFA06F60CFA0BFBCD
:1003000044BFB3460026202FA4BF5E464FF0000B2B
:100310005BEA060C08BF4FF0010B19EB0B0948EB29
:100320000608ABFB027C06FB02CC0BFB03CCC01B1C
:1003300071EB0C01C1E70B46024641464846BDE859
:10034000F08B13B5084318BF4FF0FF300146AFF3F1
:100350000080BDE81C4070474FF0000200B5134616
:1003600094469646203922BFA0E80C50A0E80C50D5
:10037000B1F12001BFF4F7AF090728BFA0E80C5086
:1003800048BF0CC05DF804EB890028BF40F8042B7F
:1003900008BF704748BF20F8022B11F0804F18BFEC
:1003A00000F8012B704770477047704710B500F098
:1003B00009F8006810BD10B5044600F003F80460A9
:1003C00010BD000000487047F8000020004870474A
:1003D000F80000207546FFF7F9FFAE4605006946B4
:1003E000534620F00700854618B020B5FFF72AFFD6
:1003F000BDE820404FF000064FF000074FF0000826
:100400004FF0000BAC46ACE8C009ACE8C009ACE862
:10041000C009ACE8C00921F007018D46704710B54E
:100420000446AFF300802046BDE81040FFF7F5BE5C
:1004300001491820ABBEFEE726000200704700000D
:10044000FEE7000040F28820C2F2000000F0CAB9C6
:1004500040F2B020C2F2000000F0C4B900214161B6
:10046000818301620185C0E900110172C0F80E109C
:10047000C0F80A10012180F82C10704710B588B020
:1004800040F6EC131446C2F2000301AA00F010F982
:100490000198A0F2012107290AD80138C1B2490008
:1004A00051FA80F09FED030A04EB001004F0ACFB5E
:1004B00008B010BD0000104240F29830C2F20000B7
:1004C00000F08CBC40F2D820C2F2000000F086BCE4
:1004D00040F2F830C2F2000000F080BC40F2383048
:1004E000C2F2000000F07ABC7047000072B600BF94
:1004F000FEE7000090F82020013A012A08D80068A1
:1005000000F114020020136819431160704700BF06
:1005100000F1240201204FF4802113681943116077
:100520007047000010B590F820E0D0F800C0AEF1A0
:10053000010EBEF1010FDCF808E011D81EF0E05FFB
:1005400018D0CEF3016E012000FA0EF018608B680F
:10055000D3B14868CC6844EAC000034318E000BF48
:1005600000F1240101204FF480220B681A430A6035
:1005700010BD00BF00F1240101204FF400120B68F0
:100580001A430A6010BD00BF0868CB6843EA4053B5
:100590000CEB0E10C0F880310B69C0F88431097D76
:1005A000012905D100F5C2710B6843F480730B601B
:1005B0005168C0F88C11126800F5C071C0F888212C
:1005C000002001220B681A430A6010BDB0B590F8F4
:1005D0002020013A012A2FD846F20060C4F2000020
:1005E000026842F001020260026822F47C5202605A
:1005F000D1F814E0CC694A6A0368012C43EA02226C
:1006000002600EF01F024FF0010303FA02F2C36909
:100610006FEA020C23EA0203C36113D02CBBC36848
:1006200003EA0C03C360CB688C8844EA034300EB05
:10063000CE0423640B4611E0416A41F480214162FB
:100640000120B0BDC3681343C3600B688C8844EAC3
:10065000034300EBCE04236401F10C038C681B8878
:1006600043EA044300EBCE04636443688D6943EAC4
:100670000204D1F810E0096A002D08BF03EA0C0457
:1006800044604369BEF1000F43EA020408BF03EA75
:100690000C040129446102D1C1691143C16101689F
:1006A00021F0010101600020B0BD00007047000092
:1006B00010B590F82040013C012C7BD8D0F800C048
:1006C000002900F08180DCF81040A40700F0818050
:1006D0000CEB011CDCF8B0410CF5D87E14F00404DE
:1006E0009460DCF8B04119BFE4085460640D1460F4
:1006F000DEF800400CF5DA7E04F00204D460DCF889
:10070000B44124075ABFDEF8004004F00F04082467
:100710001461DEF800400029C4F307249461DEF878
:1007200000404FEA14445461DCF8B8211A700268A2
:1007300002EB0112D2F8B8214FEA12225A70026875
:1007400002EB0112D2F8B8214FEA12429A70026805
:1007500002EB0112D2F8B8214FEA1262DA70026895
:1007600002EB0112D2F8BC211A71026802EB0112ED
:10077000D2F8BC214FEA12225A71026802EB011230
:10078000D2F8BC214FEA12429A71026802EB0112C0
:10079000D2F8BC214FEA1262DA71006814BF00F18E
:1007A000100100F10C01002020220B681A430A609E
:1007B00010BD00BF00F1240101204FF480220B681E
:1007C0001A430A6010BD00BFDCF80C40A4077FF498
:1007D0007FAF00F1240101204FF400120B681A438F
:1007E0000A6010BD2DE9F04F81B0044600684669EB
:1007F000D0F804908768D0F80CB0D0F810A0D0F8EA
:100800001880F10704D1002530071DD424E000BF73
:10081000F90710D00121BA07816009D4780700F1E7
:10082000AF80380700F1B680204600F06BFA02E096
:10083000204600F069FA0025F80500F18780F803EA
:1008400000F1B180300707D51BF0100004D02068FC
:1008500045F400751021C160700708D51BF0080031
:1008600005D020680821C160204600F0F5F9B007E6
:1008700006D52068C068800702D0204600F0EEF957
:10088000700607D51AF0100004D0206845F4806582
:1008900010210161B00608D51AF0080005D02068C3
:1008A00008210161204600F0F9F9F00606D520681C
:1008B0000069800702D0204600F0F2F9B00308D5A5
:1008C00019F0100005D0206810214160204600F08A
:1008D000E9F9F00308D519F0080005D020680821CF
:1008E0004160204600F01AFA300440F19B805FEA34
:1008F000497040F1948006F4807008EA1020284383
:100900005FEA8871014648BF41F00201B20558BF55
:1009100001465FEA48700D4648BF45F00405700582
:1009200058BF0D46300540F17A8018F0700000F095
:1009300076801038000905286CD8DFE800F00359EC
:100940005D61656945F0080564E000BF20684FF40B
:100950008071BA0581600BD4780515D438051DD493
:10096000204600F0D3F9F8037FF56CAF1BE000BF21
:10097000204600F0CDF9F8037FF564AF13E000BF27
:100980004FF4006558E700BF05F50055F8037FF503
:1009900059AF08E04FF480554EE700BF05F580459C
:1009A000F8037FF54FAF20684FF48031BA038160C0
:1009B0000AD4780310D4380314D4204600F0AAF9DE
:1009C00030073FF541AF47E7204600F0A5F9300773
:1009D0003FF53AAF40E700BF05F5004530073FF56A
:1009E00033AF39E705F5803530073FF52DAF33E7F5
:1009F00045F010050EE000BF45F020050AE000BFFD
:100A000045F0400506E000BF45F0800502E000BF6C
:100A100045F480752068816921F07001816120684A
:100A20000421416055B1606A40EA050120466162D7
:100A300001B0BDE8F04FFFF739BE00BF01B0BDE81F
:100A4000F08F0000B0B5C8B1044690F8200010B98E
:100A5000204600F071F82068016841F00101016052
:100A600000F072FC054600BF20684168C90707D145
:100A700000F06AFC401B0B28F6D312E00120B0BD49
:100A8000016821F00201016000F05EFC054600BF34
:100A90002068416889070DD500F056FC401B0B28E3
:100AA000F6D3606A052140F400306062012084F8CA
:100AB0002010B0BD217E0268012922F0800208BF0B
:100AC00080320260617E0268012922F0400208BF84
:100AD00040320260A17E0268012922F0200208BF94
:100AE00020320260E17E0268012922F0100218BF64
:100AF00010320260217F0268012922F0080208BF3B
:100B000008320260617F0268012922F0040208BFF6
:100B100004320260D4E901C2D4E9033561691A43A1
:100B20002A431143ACF101021143C16100200121AC
:100B3000606284F82010B0BD10B586B0006846F63B
:100B40000002C4F2000200219042CDE90411CDE977
:100B50000211019134D046F20041C4F200018842F2
:100B600077D140F27021C2F200010A6843F64000DA
:100B7000C4F20200531C0B6052B9002100910168BD
:100B800041F000710160016801F00071009100996D
:100B90000021009150F8101C142441F0080140F885
:100BA000101C50F8100C032100F008000090009871
:100BB00040F20040C4F2020000F5006035E000BFE2
:100BC00043F64000C4F202000091016841F08061E8
:100BD0000160016801F080610091009940F270218C
:100BE000C2F200010A68531C0B6052B90021009147
:100BF000016841F000710160016801F0007100912D
:100C000000990021009150F8101C402441F002018D
:100C100040F8101C50F8100C602100F00200009009
:100C2000009840F20040C4F20200019102210291BA
:100C300000210391032104910921059101A900F0EC
:100C4000AFFA20460521002201F0C4FA204601F047
:100C5000ADFA06B010BD000070470000B0B540F21C
:100C6000882440F29055C2F20004C2F200052046EA
:100C700000212A46FFF702FC204600212A46FFF702
:100C8000FDFB204600212A46FFF7F8FB2046002105
:100C90002A46BDE8B040FFF7F1BB000070470000F6
:100CA0007047000070470000B0B5044690F820007F
:100CB00001281DD1022084F820002068016821F05D
:100CC0000101016000F040FB054600BF206840685C
:100CD000C00713D000F038FB401B0B28F6D3606A26
:100CE00040F400306062052084F820000120B0BD8F
:100CF000606A40F4002060620120B0BD00206062A4
:100D0000B0BD000070470000704700007047000051
:100D100070470000704700007047000070470000F7
:100D200070B5866D044600F00FFB94F8351002296B
:100D300028D105462068216C026822F01602026064
:100D4000426922F08002426109B9A16C19B10168BF
:100D500021F008010160016821F00101016000BF7C
:100D600020680068C00715D000F0EEFA401B062886
:100D7000F6D320206065032084F83500002184F834
:100D8000341070BD802060650120002184F834108B
:100D900070BD00BFE06D3F2101FA00F0B06001209E
:100DA00084F835000020002184F8341070BD000064
:100DB00090F83510022909D1052180F83510006816
:100DC000016821F001010160002070478021416528
:100DD0000120704790F8350070470000F0B581B0F1
:100DE00004460020009040F21800C2F200000268A1
:100DF000D4E9166048F2B51337680821C1F64E33BE
:100E000081403942A2FB03250CD0226813685B079E
:100E100008D5136823F004031360B160616D41F0DD
:100E20000101616501218140394208D0226852697F
:100E3000120604D5B160616D41F0020161650421C3
:100E40008140394208D022681268920704D5B16007
:100E5000616D41F00401616510218140394217D074
:100E600020680268120713D5B16002680168520356
:100E700008D4C90508D4016821F008010160216C7B
:100E800021B905E008033FD4216C09B12046884709
:100E9000E16D202000FA01F23A4241D02068036857
:100EA000DB063DD5B26094F835300268052B1BD1C6
:100EB00022F016020260426922F080024261226C36
:100EC0000AB9A26C1AB1026822F0080202603F203F
:100ED0008840B060012084F83500216D0020002991
:100EE00084F8340052D157E00168520310D4C90588
:100EF00012D4016821F010010160012084F835004E
:100F0000002084F8340007E0A16C0029BED1BFE7BF
:100F1000080301D4616C00E0E16B09B12046884709
:100F2000606DC8B3606DC0072ED0052084F8350011
:100F30002068A90A026822F001020260009A0132C8
:100F40008A4200921AD80268D20717D0009A01325A
:100F50008A42009212D80268D2070FD0009A01325A
:100F60008A4200920AD80268D20707D0009A01325A
:100F70008A42009202D80268D207DFD1012084F8A9
:100F80003500002084F83400E16C29B1204601B01E
:100F9000BDE8F040084700BF01B0F0BD2DE9F041C9
:100FA000044600F0D1F9ECB10546022084F8350082
:100FB0000020216884F83400086820F001000860EF
:100FC00021680868C00711D000F0BEF9401B052851
:100FD000F6D9032520230320636584F83550BDE846
:100FE000F08100BF0120BDE8F08100BF086848F231
:100FF0003F02CFF21002D4E9013500EA020C04F1FD
:101000000C0898E8C10143EA0C032B431843D4E9C8
:10101000072E304338431043626A40EA0E00042A28
:1010200040EA08031CD1206BD4E90A2E40EA0E00E6
:10103000184308604869BEF1000F20F0030040EA41
:10104000020040F0040C11D0B8F5005F36D0B8F1C2
:10105000000F45D1022A46D0012A3BD032B942E0E6
:101060000B60486920F0070040EA020C01F0F8002C
:101070004AF6AB221038CAF6AA22A0FB02231A09AC
:1010800047F2A223C0F600039A5C40F2FF335F28C8
:101090004FF03F00C1F814C021EA030100FA02F04A
:1010A00088BF0431C4E9161288600023012500209E
:1010B000636584F83550BDE8F08100BF032AD5D8B8
:1010C000012540230120DFE802F0030E030500BFE5
:1010D00082E700BFAEF1C070B0FA80F0400904E0D2
:1010E000032A04D3C2D1CEF300600028BED001256C
:1010F00040230120636584F83550BDE8F08100008D
:1011000070B590F834C0BCF1010F46D04FF0010C1F
:1011100080F834C0D0F858E090F835C0BCF1010F29
:1011200038D14FF0020C80F835C04FF0000CC0F8F9
:1011300054C0D0F800C08468056CC06DDCF8006055
:10114000402C26F48026CCF80060CCF804300B4606
:1011500004BF13460A463F2101FA00F0CCF80830DC
:10116000CCF80C20CEF80800DCF8000040F01600A7
:10117000CCF800002DB1DCF8000040F00800CCF8FD
:101180000000DCF8000040F00100CCF80000002076
:1011900070BD00BF002180F83410022070BD000037
:1011A0002DE9F04F82B000F13E4241F6004502F1D8
:1011B000FF77C4F20205082243F6004E4FEAB72635
:1011C000A84208BF0722C4F2010E072E38BF4FEA1B
:1011D000B7220125002600274FF00008009208E002
:1011E00008F101080437B8F1100F06F1020600F00B
:1011F000A7800C6805FA08F914EA090FF0D0D1F8B5
:1012000004B003220BF0030CACF10104B240012C3A
:101210006FEA020A10D88268CC6802EA0A02B44077
:10122000224382604268CBF3001422EA090204FAE6
:1012300008F42243426005E0BCF1030F02D14FF0F5
:10124000030C20E0C2688C6802EA0A02B440224320
:10125000BCF1020FC26016D16FF0030202EA58021D
:101260000244D2F820C007F01C050F230C69AB40E4
:101270002CEA030304FA05F52B431362D1F804B0FA
:1012800001250BF0030C02680CFA06F302EA0A02CD
:101290001A431BF4403F0260A2D0002243F64403ED
:1012A0000192C4F202031A684FF6084C42F48042DD
:1012B0001A601A68CFF6FF7C02F480420192019A0C
:1012C00028F00302724452F80C3007F00C050F248A
:1012D000AC40A343009C04FA05F52B4342F80C30C4
:1012E000DEF808204B6842EA090543F60C4CDC02A4
:1012F00058BF22EA0905CEF80850C4F2010CDCF808
:1013000000209C0242EA090558BF22EA0905CCF8F0
:101310000050DEF804209C0342EA090558BF22EA87
:101320000905CEF80450DEF80020DB0342EA090587
:1013300058BF22EA0905CEF80050012550E700BF4A
:1013400002B0BDE8F08F000044F2F450C2F2000099
:10135000006870477047000070470000F0B581B02A
:10136000076804467868E26A94F83E3094F83DE0F5
:10137000402B01D0102B27D1BE697D69E90751D1DF
:10138000B2F12A4F00F0A082B2F52A0F00F09C8241
:1013900000F400724FF0010C29078CEA522C45D55D
:1013A000002A43D0606B616CC9B2396118B1C06B5F
:1013B000002840F02481A06B002800F08582C06BDB
:1013C000002840F01C817FE2216C00F400730029AA
:1013D0000CBFBE6900267D69A90753D5002B51D0EB
:1013E000206C002818BFBE6994F83D0000F028006A
:1013F000282840F093807868002320F4806078608B
:10140000012020EA960130064FF0180058BF0C204A
:10141000225A204684F83C3001B0BDE8F040FFF786
:101420009BBF00BF810557D44FF0010CA90759D5C8
:10143000BCF1000F56D194F83E30E06A226B94F86C
:101440003D10222940F0E280216D002908BF402B89
:1014500000F0DC80216D002940F032812169B1F576
:10146000404F40F02D810020009078690090B869CD
:1014700000900098386840F480703860206D01302A
:101480006BE200BFE90655D5002B53D094F83D50D0
:10149000786820F4E060786000200090786900901F
:1014A000386840F0010038600098386820F48060A7
:1014B00038607868000540F1408105F0F700264665
:1014C000222840F0198156F8380F0168496826F83B
:1014D0000E1C36F80E1C17E1E06AB0F52A0F5FD13A
:1014E000012062E07968720701F4006100F19880E0
:1014F000002940F0E981690605F0040140F1AC8162
:1015000010F4806000F0A881002940F0A5812046F9
:1015100001B0BDE8F04002F013B900BF0020009018
:1015200079690091B9690091009984F83C0001B093
:10153000F0BD00BF0EF0F70100F48062212905F034
:10154000040040F08380290640F14881002A00F021
:101550004581002840F0428194F83D00618D0029CA
:1015600000F0B281616A11F8012B3A616162618D0C
:1015700001396185618D002908BF292840F0A481C7
:101580007868282120F4806078602120206320463C
:1015900084F83D1001B0BDE8F04000F05FBD00BF31
:1015A000E06AB0F12A4F01D10820E06294F83E00D1
:1015B00040280BD1206D616C002801F0FE0018BF9F
:1015C00040F00100386101B0F0BD00BF2069B0F506
:1015D000804F65D194F83D00616C212801F0FE0137
:1015E00018BF01313961606B08B1C06B38B9A06BAD
:1015F000002800F06981C06B002800F065817868E0
:1016000040F40060786001B0F0BD00BF00200090A1
:1016100078690090B8690090009801B0F0BD00BFF3
:10162000002940F05181290605F0040140F1208194
:1016300010F4806000F01C81002940F019812046E0
:1016400001B0BDE8F04002F067B900BF690640F1A3
:10165000D780002A00F0D480002840F0D18094F890
:101660003D00618D002900F02F813969626A117097
:10167000616A01316162618D01396185618D002985
:1016800008BF2A2840F020812068416821F4806149
:101690004160222028212063204684F83D10D6E0B6
:1016A000206D002800F0BE80206D012840F00C81E4
:1016B000606C062101EAD010F130386101B0F0BD54
:1016C000618D61B1618D012940F0E280202818BF51
:1016D000082840F0FB80386820F4806038600020E3
:1016E000009078690090B86900900098386840F4DC
:1016F0000070386030E100BF56F8340F0168496867
:1017000026F80A1C36F80A1C19B1216C41F00401B4
:101710002164796821F400617960FFF75BFB01289F
:101720000BD0306843F29931C0F600010165FFF734
:101730003FFB10B13068016D8847608D60B1206853
:101740004169490730D4416949063AD4608D18B1DE
:10175000206C40F004002064206C28B1204601B0C9
:10176000BDE8F04001F0AABE2A2D07D10020206379
:10177000282084F83D00204600F06EFC94F83D00DF
:10178000282857D10020CFF6FF70E06200212020EA
:10179000216384F83D00204684F83E1001B0BDE886
:1017A000F04000F09FB900BF0069616A0870616A8B
:1017B000206801316162618D0139618541694906A5
:1017C000C4D50069616A0870606A01306062608D2A
:1017D00001386085608D0028BAD1BDE7002818BFA8
:1017E000002B71D0608D00286ED0606A10F8011B4C
:1017F00039616062608D0138608501B0F0BD00BF65
:10180000002818BF002B5FD0608D00285CD038699D
:10181000616A0870606A01306062608D01386085BD
:1018200052E000BF606C062101EAD010F030386150
:1018300001B0F0BD206B222818BF222D44D1002119
:101840002020216384F83D00204684F83E1001B03A
:10185000BDE8F04000F000BCB1FA81F0400950EA68
:101860000C0031D1204601B0BDE8F04001F0ECBEE3
:10187000B1FA81F0400950EA0C0025D1BEF1210FE8
:101880001AD1204601B0BDE8F04002F003B800BF15
:10189000618D02290CD110283CD8012114228140ED
:1018A000C0F20102114235D04FF4806238E000BF2F
:1018B000396841F4806135E0402B05D1204601B004
:1018C000BDE8F04002F082B801B0F0BD10F5803FF5
:1018D0000CD1386820F480603860786800057FF5A6
:1018E000FEAE386820F4806038602EE0122A02D103
:1018F00001287FF4F0AE1028F3D8012101FA00F09E
:101900001421C0F201010842EBD0386840F4806035
:1019100038601AE039684FF4006221F48061396060
:10192000396811433960796809050ED5421E1F2AAE
:1019300016D80121914048F28102C8F200021142FA
:101940000ED0786840F4805078600020009078696C
:101950000090B869009000980020206501B0F0BDAB
:1019600010F5803FEDD0F0E77047000070B5B8B3D8
:10197000044690F83D0028B9002084F83C00204639
:1019800000F02EFB242084F83D002068016821F03F
:1019900001010160016841F400410160016821F426
:1019A0000041016000F022FD48F28041C0F21E01BA
:1019B00040F60013D4F804E088424FF00001C0F272
:1019C0003D0348F2A16C4FF0000238BF012198425C
:1019D000C0F2010C38BF0122E64538BF0A460AB101
:1019E000012070BD4DF68361C4F21B31A0FB0112D2
:1019F0002168950C4B684FF4967623F03F0343EA39
:101A00009243754344F6D3564B60C1F262060B6AAB
:101A1000A5FB0656B50923F03F03E64538BF950CF4
:101A20006A1C1A430A62CA6948F2A0664CF6FF7340
:101A3000C0F20106B64522EA03020BD801384FEA8C
:101A40004E03B0FBF3F001306FF31F30042898BF52
:101A500004201EE0A368013863B119230EFB03F3D1
:101A6000B0FBF3F001306FF31F3078B100F5804028
:101A700008E000BF0EEB4E03B0FBF3F001306FF354
:101A80001F3028B100F5004003E000BF012000E056
:101A900001201043C8610868D4E9072320F0C00082
:101AA000104318430860886848F2FF3204F10C06BE
:101AB00090434CCE18431043A5698860C86820F055
:101AC000FF0030432843C860086840F00100086008
:101AD00000202021206484F83D10206384F83E001B
:101AE00070BD0000704700007047000070470000A4
:101AF0002DE9F04383B01F46164689460446FFF79A
:101B000023FC94F83D10202920D10546206800BF11
:101B10008169890716D5FFF717FC411B20681A2930
:101B2000F6D381698907F3D500202021206384F84A
:101B30003D1084F83E00216C41F02001216484F8BE
:101B40003C0003E094F83C10012903D1022003B0CB
:101B5000BDE8F083012184F83C100168C90703D176
:101B6000016841F001010160016840F2040821F4BC
:101B700000610160222184F83D10102184F83E109C
:101B80000021216466626785618DC0F201082185AC
:101B9000A8F500310439E162E16A02680A9F42F463
:101BA000806211F5803F026018BF012942D10168AF
:101BB00041F48071016020464FF0011100223B4644
:101BC000009501F0C3FF58B120680068C00544BF0C
:101BD0004FF400702064012003B0BDE8F08300BF23
:101BE0002069B0F5804F2BD149F00100C0B22168C7
:101BF0003A460861A8F1020120462B4602F090F80F
:101C00000028E8D1208D002850D0022866D0012875
:101C10006ED121680A6822F480620A600022029272
:101C20004A6902928A690292029A0A6842F4007230
:101C30000A6078E00829BAD0216B1129B7D0BAE739
:101C4000062000EAD916206806F1F001016108F1CA
:101C5000040120463A462B4602F062F80028BAD129
:101C600020685FFA89F10161A8F1020120463A4635
:101C70002B4602F055F80028ADD1002002902068D4
:101C8000002241693B4602918169029102990168F3
:101C900041F48071016020464FF00111009501F080
:101CA00055FF002890D146F0F100A0E700200290F7
:101CB000206841690291816902910299016841F4A9
:101CC00000710160202084F83D00002084F83E006F
:101CD00084F83C0003B0BDE8F08300BF21680A68C7
:101CE00022F480620A600A6842F4006204E000BFE5
:101CF00021680A6842F480620A60002202924A69FE
:101D000002928969029102990DE000BF1069087082
:101D1000606A218D01306062481E2085618D013925
:101D200061850104CED080B203280FD802284AD0A2
:101D300001282DD1204639462A4602F061F80028B4
:101D40007FF449AF2068616A0069E0E720463946C0
:101D50002A4602F055F800287FF43DAF2068616AFA
:101D600000690870606A2268411C208D6162013838
:101D70002085638D013B638553695B07D1D580B2B4
:101D80000328C3D1106820F480601060BEE700BF54
:101D90002046414600223B46009501F0D7FE002830
:101DA0007FF419AF2068616A026822F480620260E1
:101DB00000690870606A218D01306062481E2085CC
:101DC000608D013860852046414600223B460095E3
:101DD00001F0BCFE00287FF4FEAE2068616A026854
:101DE00042F40072026000690870606A2268411C57
:101DF0006162218D01392185618D0139618511690A
:101E0000417085E72DE9F04383B01E4617468946A9
:101E10000446FFF799FA94F83D10202920D1054691
:101E2000206800BF8169890716D5FFF78DFA411B2D
:101E300020681A29F6D381698907F3D5002020216B
:101E4000206384F83D1084F83E00216C41F02001AD
:101E5000216484F83C0003E094F83C10012903D18C
:101E6000022003B0BDE8F083012184F83C10016832
:101E7000C90703D1016841F001010160016840F226
:101E8000020821F400610160212184F83D10102135
:101E900084F83E100021216467626685618DC0F27E
:101EA00001082185A8F10211E162E16A0A9E11F59B
:101EB000803F18BF01291DD1016841F48071016084
:101EC00020464FF0011100223346009501F03EFEFE
:101ED00050B120680068C00544BF4FF40070206412
:101EE000012003B0BDE8F0832069B0F5804F07D131
:101EF000FE2015E00829DFD0216B1229DCD0DFE7B6
:101F0000062000EAD9102168F030086108F10601C6
:101F1000204632462B4601F003FF0028E0D1FF2087
:101F2000216800EA090008612046414632462B46F6
:101F300001F0F6FE0028D3D100200290206841690C
:101F4000029180690290029806E000BF2046314667
:101F50002A4601F09BFD18BB208D68B32046314610
:101F60002A4601F095FFD8B9606A2168024612F846
:101F7000013B0B616262628D013A6285228D531EC4
:101F800023854F697F07E1D51B04DFD043780230FA
:101F90000B616062608D01386085901E2085D5E7F9
:101FA000206C04289CD12068016841F40071016014
:101FB000012003B0BDE8F0832068016841F400719E
:101FC0000160202084F83D00002084F83E0084F861
:101FD0003C0003B0BDE8F08370470000704700008C
:101FE000B0B586B0016845F60000C4F20000814239
:101FF00002D006B0B0BD00BF002443F63005019406
:10200000C4F202052968122241F0200129602968E2
:1020100000F5DE3001F020010191019903210191C9
:1020200004910421059101A9CDE90224FFF7B8F834
:1020300000942869052140F4800028612869002265
:1020400000F4800000900098212000F0C3F82120C7
:1020500000F0ACF806B0B0BD70470000704700005B
:1020600040F2000044F2F451C2F20000C2F200015A
:1020700000780A68104408607047000080B543F695
:102080000040C4F20200016841F40071016001687F
:1020900041F480610160016841F4807101600320B6
:1020A00000F0C4F80F2000F005F800F05DF8002003
:1020B00080BD0000B0B586B0002543F6440101950F
:1020C000C4F202010A68044642F001020A6009688B
:1020D00001A801F0010101910199694600F066F93A
:1020E00000F098F94DF683614000C4F21B31A0FB6B
:1020F00001014FF0FF3000EB914140F2AC40002273
:10210000C2F20000C4F2010240F2E733C0E900214C
:10211000C0E902530561856100F084FB054618B1F2
:10212000284606B0B0BD00BF40F2AC40C2F200008D
:1021300000F0A8FB05460028F2D1192000F036F87F
:102140000F2C0DD8192021460022002500F042F85E
:1021500040F20400C2F200000460284606B0B0BDA0
:102160000125284606B0B0BD82B0002043F64001EC
:102170000190C4F202014A6842F480424A604A680F
:1021800002F480420192019A00900868002240F017
:102190008050086008680F2100F08050009000987F
:1021A0006FF0010002B000F015B80000002848BF31
:1021B0007047C1B200F01F00012202FA00F04EF297
:1021C0000012CEF2000242EAD10121F003010860C0
:1021D0007047000010B54EF60C5CCEF2000CDCF837
:1021E0000030C3F3022E8EF00704042C28BF042411
:1021F000BEF103034FF0FF3E0EFA04F438BF002394
:10220000A14399400EFA03F39A43114300F00F02E1
:1022100000F160430901043A03F564436244002875
:1022200048BF02F10C03197010BD00004EF60C51AE
:10223000CEF200010A684FF6FF031A4060F30A224B
:1022400042F0806040F0FD70086070472DE9F04179
:10225000002800F08B8043F60808C4F20208044608
:10226000D8F8F8030D4600F00700884207D288F836
:10227000F853D8F8F80300F00700A84276D1206898
:10228000810717D5410705D5D8F8001041F4E05172
:10229000C8F80010010705D5D8F8001041F46041D6
:1022A000C8F80010D8F80010A26821F0F00111431E
:1022B000C8F80010C0073FD1D8F8F80300F00700B5
:1022C000A84207D988F8F853D8F8F80300F00700B7
:1022D000A8424BD12068410707D5D8F80010E26822
:1022E00021F4E0511143C8F80010000708D5D8F8D0
:1022F0000000216920F4604040EAC100C8F80000F5
:1023000000F09CF8D8F8001047F28A22C1F30311BC
:10231000C0F60002515C40F2180220FA01F140F2CE
:102320000400C2F200000068C2F200021160FFF770
:10233000C1FE0020BDE8F0816068811E022907D23D
:1023400058F8081C89015CBF0120BDE8F08111E04C
:10235000012807D158F8081C89035CBF0120BDE89B
:10236000F08107E058F8081C890703D40120BDE874
:10237000F08100BFD8F8001021F003010843C8F82D
:102380000000FEF7E1FF064641F28837D8F800006A
:10239000616800F00C00B0EB810F8DD0FEF7D4FF28
:1023A000801BB842F2D90320BDE8F0810F22026001
:1023B00043F60802C4F20202136803F00303436009
:1023C000136803F0F0038360136803F4E053C36001
:1023D000D2F800C04FF4E05303EADC030361D2F803
:1023E000F80300F0070008607047000040F2180092
:1023F00043F60801C2F20000C4F202010068096855
:1024000047F29A22C1F38221C0F60002515CC84013
:102410007047000040F2180043F60801C2F20000C5
:10242000C4F202010068096847F29A22C1F34231FE
:10243000C0F60002515CC8407047000010B543F67A
:102440000404C4F20204606800F00C0008280BD0F9
:10245000042819BF42F20040C0F2F40047F64000E1
:10246000C0F27D1010BD00BF2068216823684902BA
:1024700047F64001C0F27D1100F03F02C3F388101F
:102480005CBF42F20041C0F2F401A1FB0001002355
:10249000FDF7EAFE21680222C1F3014102EB41018E
:1024A000B0FBF1F010BD00002DE9F04182B0002832
:1024B00068D00446007843F60006C007C4F202065E
:1024C0000BD0B06800F00C00042840F09F8030680A
:1024D000800302D56068002854D0207880071AD580
:1024E000B06810F00C0F09D0B06800F00C0008289C
:1024F00040F0A6807068400200F1A280306880073A
:1025000002D5E06801283DD13068216920F0F8004B
:1025100040EAC10030602078000737D420784007B7
:102520004CD4A56955B3B06800F00C00082840F001
:10253000BB80012D26D07068E16900F480028A42D8
:1025400020D1216A00F03F028A421BD147F6C071B8
:10255000626A0140B1EB821F14D1A16A4FF6FF738A
:10256000C903994300F44032A1F580318A4209D170
:10257000E16A00F07060B0EB016F03D1002002B09F
:10258000BDE8F081012002B0BDE8F081606900285B
:1025900040F20000C4F2472076D00121C0F8801E2E
:1025A000FEF7D2FE054600BF706F8007B6D4FEF777
:1025B000CBFE401B0228F7D9DDE000BF306C10F0E5
:1025C00080580AD100200190306C40F08050306477
:1025D000306C00F080500190019847F20007C4F27F
:1025E00000073868C00541D4386840F4807038600E
:1025F000FEF7AAFE054600BF3868C00536D4FEF7D0
:10260000A3FE401B0228F7D9B5E000BFB06800F078
:102610000C00082803D1706840023FF558AF60688D
:10262000B0F5803F07D0B0F5A02F40F08D80306826
:1026300040F480203060306840F4803030608DE0BD
:10264000E068002852D00020C4F247200121016038
:10265000FEF77AFE054600BF306880073FF554AFAD
:10266000FEF772FE401B0228F6D984E0A06801281C
:1026700005D005284ED1306F40F004003067306F30
:1026800040F0010030674FE00021C0F8801EFEF7E7
:102690005BFE0546706F80077FF540AFFEF754FE86
:1026A000401B0228F6D966E00027C4F24727002025
:1026B0003866FEF749FE022D05460BD130688001D1
:1026C0005ED5FEF741FE401B02284FF00300F5D90E
:1026D00055E700BF306880017FF550AFFEF734FE4C
:1026E000401B02284FF00300F4D948E70020C4F251
:1026F000472000210160FEF727FE0546306880076D
:102700007FF509AFFEF720FE401B02284FF00300C3
:10271000F4D934E7316F002821F001013167316FBE
:1027200021F0040131674DD0FEF70EFE054641F25F
:10273000883700BF306F800756D4FEF705FE401B78
:10274000B842F7D917E000BF3168002821F4803182
:102750003160316821F4802131604FD0FEF7F4FD03
:10276000054600BF306880033FF5B7AEFEF7ECFDCD
:10277000401B6428F6D9032002B0BDE8F08100BFF9
:1027800004F11C052FCD084340EA8210D9034FF60F
:10279000FF729143A1F5803140EA05600843706003
:1027A00001203866FEF7D0FD044600BF3068800186
:1027B0003FF5E4AEFEF7C8FD001B02284FF0030012
:1027C000F4D9DCE6FEF7C0FD054641F2883700BFCC
:1027D000306F800708D5FEF7B7FD401BB8424FF0B9
:1027E0000300F5D9CBE600BFB8F1000F7FF499AE36
:1027F000306C20F08050306493E600BFFEF7A4FDFB
:10280000054600BF306880037FF567AEFEF79CFD8C
:10281000401B64284FF00300F4D9B0E67047000075
:1028200070470000002804BF0120704710B504461F
:1028300090F83D0028B9002084F83C00204600F0C4
:102840001FF8022084F83D002068211D01F014FFCC
:10285000012084F8460084F83E0084F83F0084F8A4
:10286000400084F8410084F8420084F8430084F872
:10287000440084F8450084F83D00002010BD0000AD
:102880007047000090F83D1001291CBF01207047DF
:10289000022180F83D10006841F2FF72C168C4F265
:1028A0000002904241F00101C1600DDC40F2FF7175
:1028B000C4F20001884215DCB0F1804F2AD040F20A
:1028C0000041C4F2000123E040F2FF31C4F20101F3
:1028D000884213DC41F60001C4F20001884219D09D
:1028E000002113E040F60001C4F20001884211D03B
:1028F00040F60041C4F200010AE000BF44F20001CA
:10290000C4F20101884205D040F20041C4F2010145
:10291000884206D1816801F00701062904BF002022
:102920007047016841F0010101600020704700001C
:102930007047000070B504460068C5680669B107B5
:1029400016D515F0020113D06FF0020101610121CB
:1029500021778069800703D02046FFF7E9FF05E073
:10296000204600F08FF8204600F08EF800202077F7
:10297000700719D515F0040016D020686FF0040117
:10298000016102212177806910F4407F04D0204644
:10299000FFF7CEFF06E000BF204600F073F82046A8
:1029A00000F072F800202077300717D515F00800E6
:1029B00014D020686FF00801016104212177C069FB
:1029C000800703D02046FFF7B3FF05E0204600F064
:1029D00059F8204600F058F800202077F00619D565
:1029E00015F0100016D020686FF010010161082169
:1029F0002177C06910F4407F04D02046FFF798FF8C
:102A000006E000BF204600F03DF8204600F03CF80C
:102A100000202077F00718BF15F0010002D1300622
:102A200009D412E020686FF001010161204600F036
:102A30002DF8300609D515F0800006D020686FF01B
:102A4000800101612046FFF7E9FE700609D515F007
:102A5000400006D020686FF040010161204600F080
:102A60001FF8B00658BF70BD15F0200008D02168CF
:102A70006FF0200220460A61BDE87040FFF7D0BE2B
:102A800070BD000070470000704700000068002122
:102A9000C4F20101884218BF7047FFF7E1BA000095
:102AA000704700007047000070470000B0B582B06A
:102AB000044600680168C368426901F02F05202DB3
:102AC00003F0200506D12DB1204602B0BDE8B0408C
:102AD00001F094BF5FEA017C1EBF02F0010E03F417
:102AE000907212EB0E0253D1226B012A05D111F024
:102AF000100218BF13F0100236D10A0622D513F0C7
:102B000080021FD094F8411021293FD1A168B1F56E
:102B1000805F03D12169002900F08282216A4A1C6A
:102B2000226209784160E18C01390A04E1842DD1E7
:102B3000C16821F08001C160C16841F04001C160FD
:102B400002B0B0BD490621D513F040011ED0C168C6
:102B500021F04001C1602021204684F8411002B0DC
:102B6000BDE8B04000F00CBC00210191016801916A
:102B70004168019101994069400613D4A08DE18D0F
:102B8000E28D002A18BF884240F0CC8102B0B0BD6F
:102B9000CA0718BF13F4807240F0BE804A0700F1E4
:102BA000C180C6E0E06B01684A68A38D91B200293C
:102BB00000F0A881994280F0A581E285C069B0F556
:102BC000807F00F09D80206850E8030F216820F48A
:102BD000807041E80302DAB1206850E8030F2168F1
:102BE00020F4807041E8030292B1206850E8030F9E
:102BF000216820F4807041E803024AB1206850E85F
:102C0000030F216820F4807041E80302002ADAD122
:102C1000206850E8050F216820F0010041E8050216
:102C2000BAB3206850E8050F216820F0010041E8A0
:102C3000050272B3206850E8050F216820F00100FA
:102C400041E805022AB3206850E8050F216820F00A
:102C5000010041E80502002ADAD11AE0206850E8B4
:102C6000050F216820F0400041E80502DAB1206834
:102C700050E8050F216820F0400041E8050292B1BC
:102C8000206850E8050F216820F0400041E8050267
:102C90004AB1206850E8050F216820F0400041E863
:102CA0000502002ADAD1202084F8420000202063A7
:102CB000206850E8030F216820F0100041E803026B
:102CC000DAB1206850E8030F216820F0100041E8D5
:102CD000030292B1206850E8030F216820F0100031
:102CE00041E803024AB1206850E8030F216820F050
:102CF000100041E80302002ADAD1E06BFEF710F879
:102D000002206063A08DE18D401A81B2204602B09E
:102D1000BDE8B040FFF7C6BE626C42F001026264DB
:102D20004A0706D5BEF1000F03D0626C42F00202E2
:102D300062648A0706D5BEF1000F03D0626C42F0D0
:102D400004026264BCF1000F09D545EA0E02B2FA32
:102D500082F2520903D1626C42F008026264626C32
:102D6000002A3FF413AF11F0200118BF002D03D04B
:102D7000204601F043FE20684069616C00F040008D
:102D800001F00801401800F0B58000BF206850E84D
:102D9000030F216820F4907041E80302BAB3206861
:102DA00050E8030F216820F4907041E8030272B3E9
:102DB000206850E8030F216820F4907041E8030276
:102DC0002AB3206850E8030F216820F4907041E88E
:102DD0000302002ADAD11AE0206850E8050F2168C2
:102DE00020F0010041E80502DAB1206850E8050F43
:102DF000216820F0010041E8050292B1206850E806
:102E0000050F216820F0010041E805024AB1206861
:102E100050E8050F216820F0010041E80502002A72
:102E2000DAD1206B012824D1206850E8030F2168F3
:102E300020F0100041E80302DAB1206850E8030FE7
:102E4000216820F0100041E8030292B1206850E8A8
:102E5000030F216820F0100041E803024AB1206806
:102E600050E8030F216820F0100041E80302002A17
:102E7000DAD1202084F842000020206320684069D5
:102E8000400649D5206850E8050F216820F0400031
:102E900041E80502DAB1206850E8050F216820F00A
:102EA000400041E8050292B1206850E8050F216812
:102EB00020F0400041E805024AB1206850E8050FC3
:102EC000216820F0400041E80502002ADAD1E06BD9
:102ED00010B344F2BD71C0F600010165FDF768FF53
:102EE00000283FF453AEE06B016D02B0BDE8B04086
:102EF000084700BF2046FFF7D7FD0020606402B0FE
:102F0000B0BD00BF8B427FF441AEC069B0F5807F99
:102F10007FF43CAE02227CE0204602B0BDE8B04027
:102F2000FFF7C2BD401A216851E8031F226821F44F
:102F3000907142E80313DBB1216851E8031F226856
:102F400021F4907142E8031393B1216851E8031F03
:102F5000226821F4907142E803134BB1216851E8D3
:102F6000031F226821F4907142E80313002BDAD189
:102F7000216851E8051F226821F0010142E805138C
:102F8000DBB1216851E8051F226821F0010142E808
:102F9000051393B1216851E8051F226821F0010152
:102FA00042E805134BB1216851E8051F226821F062
:102FB000010142E80513002BDAD1202184F84210E8
:102FC00000212163216851E8031F226821F01001CC
:102FD00042E80313DBB1216851E8031F226821F0A6
:102FE000100142E8031393B1216851E8031F2268DE
:102FF00021F0100142E803134BB1216851E8031F8F
:10300000226821F0100142E80313002BDAD10222DA
:1030100081B22046626302B0BDE8B040FFF742BD16
:10302000216A31F8022B6FF35F22426021627AE558
:10303000002804BF0120704710B5044690F84100F5
:1030400028B9002084F84000204600F021F8242010
:1030500084F841002068C16821F40051C160204615
:1030600001F04CFD2068016921F490410161416942
:1030700021F02A014161C16841F40051C160002082
:103080002021606484F8411084F84210606310BD10
:103090002DE9F04F87B00446006841F20041C4F2C8
:1030A000010100268842CDE90566CDE90366029656
:1030B00000F0888041F20001C4F20101884240F032
:1030C000F380002743F630000197C4F20200416903
:1030D000002541F0100141614169C4F2020501F08F
:1030E0001001019101990197016802AE41F00201BE
:1030F0000160016846F2284801F00201019101993E
:10310000019701684FF0020941F001010160006878
:103110004FF0030A00F00100019001988020029016
:103120004FF0070B05F580603146C4F20208CDE987
:103130000397CDF814A0CDF818B0FEF731F84FF48E
:103140000070CDE9020904A880E8800C28463146C9
:10315000FEF726F840F2D82508F11800C2F2000563
:103160004FF000664FF4806985E8C1002846C5E944
:103170000379C5E90577C5E907776F62FDF70EFFAB
:10318000002818BFFDF7B2F9E563AC6340F23835AB
:1031900008F19000C2F200054021C5E9000605F1E2
:1031A000080080E882022846C5E90577C5E9077767
:1031B0006F62FDF7F3FE00284FF0250618BFFDF7FC
:1031C00095F967E043F630000196C4F202004169C8
:1031D00046F2284841F0200141614169C4F20208E9
:1031E00001F02001019101990196016841F040012F
:1031F0000160006802A900F04000019001984FF4BE
:10320000844002900220CDE90306032005900820A7
:1032100006900020C4F2020000F5C050FDF7C0FF88
:1032200040F29835C2F200054FF400304FF02067AD
:103230004FF48069C5E908062846C5E90087C5E955
:103240000266C5E90496C5E90666FDF7A7FE0028F3
:1032500018BFFDF74BF9E563AC6340F2F83508F1B0
:103260007800C2F200054021C5E9000705F1080019
:10327000002280E806024FF44030C5E908022846E3
:10328000C5E90522EA61FDF789FE4FF0470608B15E
:10329000FDF72CF9304605210022A563AC63FEF74B
:1032A00099FF3046FEF782FF07B0BDE8F08F0000BF
:1032B00070470000B0B5044690F8410020281CBFBC
:1032C0000220B0BD00294FF0010056D0002A13465D
:1032D00008BFB0BD4FF0000C21202162A384E3841D
:1032E000C4F844C084F84100A06B44F6451E44F67F
:1032F000F5152268C0F6000EC0F60005C0E90FE51E
:1033000044F2C975C0F600050432C0E9135CFDF74C
:10331000F7FE38B110206064202084F841000120BD
:10332000B0BD00BF20686FF040010160206850E828
:10333000050F216840F0800041E80502F2B12068E5
:1033400050E8050F216840F0800041E80502AAB16D
:10335000206850E8050F216840F0800041E8050230
:1033600062B1206850E8050F216840F0800041E814
:103370000502002A4FF00000D8D1B0BD0020B0BD3A
:103380007047000070470000FEE7000040F2584020
:10339000C2F20000FDF7E2BF10B581B0002100913C
:1033A000806B40F21801C2F2000190F83DC009683C
:1033B0004BF28952C908C1F2F842A1FB0212110A6C
:1033C000232251430091009911B3009901390091D2
:1033D0000168096889051FD50099C9B100990139AB
:1033E000009101680968890516D5009981B1009995
:1033F000013900910168096889050DD5009939B135
:10340000009901390091016809688905DBD403E05E
:10341000016C41F020010164446B4FF0000E002C60
:103420001CBF0021E163816B00291CBF0022CA631D
:103430000268002C136823F480631360A0F82AE06C
:1034400018BFC4F850E000291CBF00230B651168A9
:1034500021F00101116090F83D1060290CD120216C
:1034600080F83D10002180F83E10016401B0BDE8F5
:103470001040FDF76FBF00BF0CF02801282911D1C3
:10348000116841F001011160116841F4806111601F
:1034900000210163282180F83D1001B0BDE81040F3
:1034A000FEF762BA202180F83D10002180F83E101E
:1034B00001B0BDE81040FEF757BA000010B5044651
:1034C00090F83D1090F83E00B0F1100218BF0122B4
:1034D000403818BF0120024208BF222934D001F031
:1034E000280028283AD100202063282084F83D00B5
:1034F00020684168090542D5416821F400614160B6
:10350000606B90F83510012958D1A06B43F29931C6
:10351000C0F600010165FDF74BFC002861D0206872
:103520004169490606D50069616A0870616A2068C8
:1035300001316162016821F001010160202084F8FD
:103540003D00A06B4BE000BF2068026822F40062DF
:1035500002604268120505D50CE000BF2068426891
:10356000120507D4602905D0202184F83D100021E0
:1035700084F83E100021216341680905BCD494F809
:103580003D10602950D1202184F83D100021216494
:103590004169490606D50069616A0870616A206858
:1035A00001316162016821F0010101602046FDF7EF
:1035B000D1FE206C000717D11BE000BF43F2993108
:1035C000C0F600010165FDF7F3FB50B12168606BA7
:1035D0000A6822F001020A60202184F83D10016D82
:1035E0008847206C000704D02068416821F4E0611E
:1035F000416094F83D00216C490758BF10BD282850
:1036000010D10020CFF6FF70E0620021202021635E
:1036100084F83D00204684F83E10BDE81040FEF7D7
:1036200061BA00BF10BD00BF4169490605D50069F8
:10363000616A0870606A013060622046FEF794F9A2
:10364000206C0007D0D1D4E7C16A428D042A07D18B
:103650000168426A4B6823F480634B60096911E09A
:10366000428D032A16D102680229536823F480632D
:10367000536005D0042903D0116821F480611160E2
:103680001169426A1170416A01314162418D01390B
:1036900041857047428D022A12D14A1E0F2A19D83D
:1036A000DFE802F00812181218181818181818185D
:1036B000181818080268136823F480630EE000BF2E
:1036C0000168426ACAE700BF0268136843F4806376
:1036D00004E000BF0268136843F4007313601269CA
:1036E000436A1A70426AD0F800C0531C4362438D8B
:1036F000013B4385DCF810305370426A03680132A5
:103700004262428D013A42855A6822F440725A6000
:10371000202280F83D2090F83E300022402B80F897
:103720003E2003D10263FEF757BC00BFB1F108028F
:1037300018BF1222203918BF11460163FEF7D4B911
:1037400081B090F83D10222979D1C16A428D042AB6
:1037500014D30168426A09691170416A01314162FA
:10376000418D01394185418D032968D10068416847
:1037700021F48061416001B0704700BFC36A022B31
:1037800058D0012A56D80022009240F21802C2F204
:10379000000212684BF28953D208C1F2F843A2FB2F
:1037A00003231A0A02EB82020092009A013A009265
:1037B000009A002A46D0026813689B051AD5009A21
:1037C000013A0092009AEAB3026813689B0511D58A
:1037D000009A013A0092009AA2B3026813689B050E
:1037E00008D5009A013A0092009A5AB30268136809
:1037F0009B05DAD4136823F480631360536823F4C1
:10380000E06353601269436A1A70426A013242628D
:10381000428D013A4285202280F83D2090F83E30CA
:103820000022402B80F83E2028D1026301B0FEF731
:10383000D3BB00BF0068416821F48061416001B0E2
:10384000704700BF016C41F0200101640168426AC9
:103850004B6823F4E0634B6009691170416A0131E0
:103860004162418D01394185202180F83D100021C0
:1038700080F83E1001B0FEF777B800BFB1F1080242
:1038800018BF1222203918BF1146016301B0FEF79C
:103890002BB90000C16A90F83D20212A18BF70475B
:1038A000428D4AB1416A026811F8013B13614162DD
:1038B000418D01394185704711F5803F18BF0829B6
:1038C00018D101684A6822F4E0624A600A6842F44A
:1038D00000720A6000212022016380F83D2090F8E8
:1038E0003E2080F83E10402A08BFFEF777BBFEF767
:1038F000FDB800BF2029E4D001684A6822F4E062E4
:103900004A6011210163002180F83E10202180F8D7
:103910003D10FEF7EBB8000090F83D1090F83EC067
:10392000C26A038D002B08BF212919D0212905D097
:10393000BCF1400F08BF222900D07047418D69B308
:1039400090F83E10402908BF00F040B8416A026874
:1039500011F8013B13614162418D01394185704786
:1039600012F5803F18BF082A1ED101684A6822F468
:10397000E0624A600A6842F400720A600021202274
:10398000016380F83D2090F83E2080F83E10402AE8
:1039900008BFFEF723BBFEF7A9B800BF0068416867
:1039A00021F4806141607047202ADED001684A68B6
:1039B00022F4E0624A6011210163002180F83E1088
:1039C000202180F83D10FEF791B8000090F83D10DE
:1039D000026D5AB1026D012A14D10168826CD2B213
:1039E0000A61016D01310165704700BFC26C816CD5
:1039F000012A15D10268C9B21161016D0231016558
:103A0000704700BF026D022A12D1222918D1016825
:103A10000A6842F480720A60016D013101657047E5
:103A20000268C1F307211161016D01310165704721
:103A300000684169090644BF00210161704700BF69
:103A4000428D5AB1212909D1416A026811F8013B1E
:103A500013614162418D013941857047428D002AD1
:103A600008BF2129EAD101684A6822F4E0624A606D
:103A70000A6842F400720A6000212022016380F883
:103A80003D2080F83E10FEF7A9BA000070B503682B
:103A9000044653F8140F400711D40E46481C29D091
:103AA00086BB00BF1868400527D4FDF74DFC23688E
:103AB00053F8140F400739D518684007F2D5002095
:103AC00070BD00BF18684007F9D41868400514D4C9
:103AD00018684007F3D4186840050ED418684007EA
:103AE000EDD41868400508D4186840074FF000006E
:103AF00048BF70BD18684005E4D56FF48060186059
:103B0000042014E0154603E053F8140F4007D6D400
:103B100018684005F1D4FDF717FC401B2368B0423C
:103B2000F2D958694007EFD4202000E0202000217E
:103B30002022216384F83D2084F83E10226C10433B
:103B40002064012084F83C1070BD00002DE9F04194
:103B5000054600681E46144601F47F0201338FB209
:103B600042D0DDF81880B2F5803F40F08780406990
:103B70003840C01BB0FA80F04009A04240F0C88035
:103B80004EB924E040693840C01BB0FA80F04009CB
:103B9000A04240F0BD80FDF7D7FBA0EB08012868EC
:103BA000B142EFD941693940C91BB1FA81F14909E4
:103BB000A142E7D19BE000BF40693840C01BB0FA8A
:103BC00080F04009A0424FF0000040F0A680FDF7D1
:103BD000BBFB286841693940C91BB1FA81F1490929
:103BE000A142E9D183E000BFB2F5803F24D100BFFC
:103BF00041693940C91BB1FA81F14909A14240F03C
:103C0000878041693940C91BB1FA81F14909A14254
:103C100040F07E8041693940C91BB1FA81F1490900
:103C2000A14275D141693940C91BB1FA81F14909F5
:103C3000A142DDD06CE000BF81693940C91BB1FAF7
:103C400081F14909A14263D181693940C91BB1FAA7
:103C500081F14909A1425BD181693940C91BB1FA9F
:103C600081F14909A14253D181693940C91BB1FA97
:103C700081F14909A142DFD04AE000BF80693840A4
:103C8000C01BB0FA80F04009A04241D146B923E000
:103C900080693840C01BB0FA80F04009A0423BD197
:103CA000FDF752FBA0EB08012868B142F0D9816909
:103CB0003940C91BB1FA81F14909A142E8D116E0A6
:103CC00080693840C01BB0FA80F04009A0424FF034
:103CD000000018BFBDE8F081FDF736FB2868816958
:103CE0003940C91BB1FA81F14909A142E8D100204C
:103CF0002021286385F83D1085F83E00296C41F0AD
:103D00002001296485F83C000120BDE8F08100BF56
:103D10000020BDE8F08100BF0020BDE8F081000078
:103D2000F0B581B0044600681D4643698FB203EACE
:103D30000701B94202D1002001B0F0BD4169164629
:103D4000013201F4806125D0002940D1CEB100BFFD
:103D5000FDF7FAFA411B2068B14203D941693940A5
:103D6000B9424BD141693940B942E4D04169490572
:103D7000EED52CE041693940B942DCD041694905B2
:103D800025D4FDF7E1FA206841693940B942F1D004
:103D9000202024E0D9B941693940B942CBD04169EA
:103DA000490514D441693940B942C4D04169490533
:103DB0000DD441693940B942BDD04169490506D4A5
:103DC00041693940B942B6D041694905E3D5016836
:103DD00041F4007101606FF48061416104200021B1
:103DE0002022216384F83D2084F83E10226C104389
:103DF000206484F83C10012001B0F0BD2020EEE7E3
:103E000070B504460068154650F8143F5A063DD474
:103E10000E4629B926E000BF50F8141F490635D4D4
:103E20000168C90621D4FDF78FFA411B2068B14211
:103E3000F2D941694906EFD400202021206384F89B
:103E40003D1084F83E00206C40F0200018E000BFD8
:103E5000FDF77AFA206850F8141F4906ECD501687E
:103E6000490613D40168C906F2D56FF0100101604C
:103E700000202021206384F83D1084F83E00206C4F
:103E80002064002084F83C00012070BD002070BD3B
:103E900070B50368044653F8140F000611D40E469B
:103EA000481C29D086BB00BF1868400527D4FDF701
:103EB0004BFA236853F8140F000639D5186800062A
:103EC000F2D5002070BD00BF18680006F9D418684C
:103ED000400514D418680006F3D4186840050ED4C1
:103EE00018680006EDD41868400508D41868000664
:103EF0004FF0000048BF70BD18684005E4D56FF46E
:103F000080601860042014E0154603E053F8140F95
:103F10000006D6D418684005F1D4FDF715FA401B09
:103F20002368B042F2D958690006EFD4202000E09F
:103F3000202000212022216384F83D2084F83E10B7
:103F4000226C10432064012084F83C1070BD0000F6
:103F500070B582B040F2584504460320C2F2000515
:103F60008DF807004FF480760DF1070228462146B0
:103F700001230096FDF746FF0DF105022846214674
:103F800002230096FDF7B4FD002840F27420C2F22F
:103F9000000001D0FF2106E09DF806109DF80520E5
:103FA000C18041EA02218AB200EE102A9FED041A74
:103FB000B8EE400A20EE010A818002B070BD00BF59
:103FC0000AD7A33B70B584B0044640F28450C2F2D5
:103FD00000000021C0E9001181604FF48E4040F2E2
:103FE0005845ADF80A002720C2F200058DF80C00F4
:103FF0004FF480760DF10A022846214603230096ED
:10400000FDF700FF40F60520ADF80D0001208DF80A
:104010000F000DF10D022846214603230096FDF7FF
:10402000F1FE04B070BD000010B540F2882046F2E9
:104030000041C2F20000C4F20001032200234FF04D
:10404000807480E80E0000F10C014FF4102C4FF446
:10405000001E81E8085084618383FCF7F3FC00288C
:1040600008BF10BDBDE81040FCF740BA80B540F273
:10407000B02046F60001C2F20000C4F200010322A3
:10408000002380E80E0000F10C014FF4102C4FF4D7
:10409000001E81E8085083618383FCF7D3FC00286D
:1040A00008BF80BDBDE88040FCF720BA80B582B073
:1040B0000020019043F63000C4F2020001680022A3
:1040C00041F4800101600068052100F48000019046
:1040D00001983920FEF77EF83920FEF767F83A207C
:1040E00005210022FEF776F83A20FEF75FF845201A
:1040F00005210022FEF76EF84520FEF757F846200E
:1041000005210022FEF766F8462002B0BDE8804097
:10411000FEF74CB870B58EB0134808AC079012A0EB
:1041200000F1040E9EE80E50806984E80E500D9058
:1041300007A8002101F0F6F840F25816C2F2000676
:10414000104930600FA0051D00913ECD80690DF132
:10415000040C8CE83E0006906846002101F0E2F86D
:1041600070600EB070BD00BFAF720008914E0008C5
:1041700003000000000000008000000000000000BC
:1041800000000000AA720008A54D0008020000000F
:10419000000000008000000000000000000000009F
:1041A00081B0002143F630000091C4F202000268A1
:1041B00042F002020260026802F002020092009ADB
:1041C0000091026842F040020260026802F0400280
:1041D0000092009A0091026842F0010202600268B7
:1041E00002F001020092009A0091026842F0080277
:1041F0000260026802F008020092009A00910268D0
:1042000042F020020260026802F020020092009A4E
:104210000091016841F080010160006800F08000B9
:104220000090009801B0704780B540F2584045F6C4
:104230000001C2F20000C4F2000148F2A0620023B3
:104240004FF4804CC0F2010280E80E00C0E9033C4C
:10425000C0E90533C0E90733FDF788FB002808BF34
:1042600080BDBDE88040FCF741B9000080B540F258
:10427000F44041F20001C2F20000C4F20101002347
:104280004FF00C0C4FF4E13280E80E00C0E903332C
:10429000C0E905C3C361FEF7CBFE002808BF80BD9F
:1042A000BDE88040FCF722B980B540F23C5041F2B5
:1042B0000041C2F20000C4F2010100234FF00C0CD7
:1042C0004FF4E13280E80E00C0E90333C0E905C3D2
:1042D000C361FEF7ADFE002808BF80BDBDE8804089
:1042E000FCF704B9FEE70000FEE70000002857D005
:1042F000017890ED0F1A90ED102A80ED070A30EE4C
:10430000C00A0029C0ED060A80ED0F0A80ED101AE0
:1043100080ED112A48D0012940F09A8090ED015A91
:1043200090ED026A30EE414A31EE011A90ED037AC7
:1043300024EE054A20EE065A30EE410A32EE000A1B
:10434000D0E90C1280ED0C0A20EE070A34EE051AB3
:1043500090ED082A90ED043A80ED0B0A31EE000A48
:1043600032EE000AB4EE430AF1EE10FA80ED094A8B
:1043700080ED0A5AC0E90D1280ED080AC2BF80ED37
:10438000083AB0EE430A7047B1EE431AB4EE410A60
:10439000F1EE10FABCBF80ED081AB0EE410A70478A
:1043A0009FED2D0A704700BF90ED024A90ED0A6A1A
:1043B00090ED012A24EE004A34EE064A90ED0C6A94
:1043C00090ED053A20EE022A30EE410AB6EE001AD0
:1043D00090ED035A416B80ED0D6A26EE016A20EEE6
:1043E000010A30EE060AB4EE434A80ED0C0A20EED4
:1043F000050AF1EE10FA80ED092A80ED0A4A816380
:1044000080ED0B0A06DCB1EE433AB4EE434AF1EE1E
:1044100010FA03DAB0EE434A80ED0A3A32EE042A8B
:1044200090ED041A30EE020AB4EE410AF1EE10FAF1
:1044300080ED080A07DCB1EE411AB4EE410AF1EE54
:1044400010FAA8BF7047B0EE410A80ED081A704715
:1044500090ED080A704700BF00000000002818BF58
:10446000002A01D1704700BF80B50170116841601A
:1044700051688160916880ED040AC160C0ED050A51
:1044800020302821FBF768FF80BD000000000000FD
:10449000EFF30980BFF36F8F154B1A681EF0100FF2
:1044A00008BF20ED108A20E9F04F10602DE90900C7
:1044B0004FF0500080F31188BFF34F8FBFF36F8F21
:1044C00001F0A8FD4FF0000080F31188BDE809005D
:1044D00019680868B0E8F04F1EF0100F08BFB0EC84
:1044E000108A80F30988BFF36F8F704700BF00BF49
:1044F000600100200000000000000000000000003B
:10450000074B19680868B0E8F04F80F30988BFF3DB
:104510006F8F4FF0000080F31188704700BF00BF1D
:104520006001002080B58AB04FF4007CCDF804C053
:104530004FF0000CCDE903CC4FF0080CCDF814C0BF
:104540004FEA102C8DF82100080A8DF82200100A7D
:104550008DF82400180A8DF8260040F288208DF886
:1045600023108DF825208DF82730C2F2000001A914
:1045700008AA07AB8DF820C0FBF7D4FF0AB080BDB6
:1045800080B54FF0500080F31188BFF36F8FBFF3F9
:104590004F8F01F0A5FE30B14EF60450CEF2000070
:1045A0004FF080510160002080F3118880BD000031
:1045B000B0B592B0002443F640000B94CDE9094415
:1045C000CDE907440594CDE90344CDE901440094C5
:1045D000C4F202000168022541F0805101600068C8
:1045E00000F080500090009847F200000094C4F260
:1045F0000000016841F480410160006800F48040DF
:10460000009000980120099010200A9008200E9038
:10461000A820CDE90F050420119006A80695CDE944
:104620000C54FDF741FF18B172B600BFFEE700BFA2
:104630000F20CDE901054FF4A05004904FF48050B5
:10464000059001A805210394FDF700FE10B172B694
:10465000FEE700BF12B0B0BD4EF68850CEF20000AB
:10466000016841F4700101607047000040F2AC4005
:10467000C2F20000FEF75EB9B0B540F6FF3E056835
:10468000C4F2000E40F2004C7045C4F2010C27DC6D
:10469000B0F1804F31D040F20043C4F200039842A1
:1046A0002BD040F60003C4F20003984225D041F617
:1046B000FF73C4F2000398422ADC70453CDCB0F181
:1046C000804F5FD040F20043C4F20003984259D0BB
:1046D00040F60003C4F20003984253D057E000BFF5
:1046E00040F60043C4F20003984206D0604504D06F
:1046F0000023C4F201039842D9D14B6825F070021F
:1047000043EA020541F6FF73C4F200039842D4DD88
:1047100043F6FF73C4F20103984221DC42F2000326
:10472000C4F2000398422DD00023C4F20103984242
:1047300028D0604526D02AE040F60043C4F20003AA
:1047400098421FD041F60003C4F20003984219D0EA
:1047500041F60043C4F20003984213D017E000BFB3
:1047600044F20003C4F2010398420BD044F6000364
:10477000C4F20103984205D044F20043C4F201039D
:10478000984204D1CB6825F4407243EA02050A68D6
:104790008C684B69C46240F480648262644504BFE3
:1047A00009690163026825F0800142F0040219439F
:1047B0000260012242610160B0BD0000806B0021F7
:1047C000C185FEF771B90000806B01684A6990F8F5
:1047D0004130212B2DD112F080022AD00021C1843A
:1047E000016851E8031F026821F0C00142E8031389
:1047F000DBB1016851E8031F026821F0C00142E803
:10480000031393B1016851E8031F026821F0C0014E
:1048100042E803134BB1016851E8031F026821F01D
:10482000C00142E80313002BDAD1202180F84110A7
:104830000168496990F84220222A40F07D8011F0F9
:10484000400179D00021C185016851E8031F026849
:1048500021F4907142E80313BBB3016851E8031FD0
:10486000026821F4907142E8031373B3016851E8C0
:10487000031F026821F4907142E803132BB301680F
:1048800051E8031F026821F4907142E80313002BE2
:10489000DAD11AE0016851E8051F026821F0010130
:1048A00042E80513DBB1016851E8051F026821F0F9
:1048B000010142E8051393B1016851E8051F026840
:1048C00021F0010142E805134BB1016851E8051FD1
:1048D000026821F0010142E80513002BDAD1016BD7
:1048E000012924D1016851E8031F026821F0100159
:1048F00042E80313DBB1016851E8031F026821F0AD
:10490000100142E8031393B1016851E8031F0268E4
:1049100021F0100142E803134BB1016851E8031F75
:10492000026821F0100142E80313002BDAD12021A4
:1049300080F8421000210163416C41F01001416494
:10494000FEF7B2B80168806B0968C90548BFFEF779
:1049500017BD0021C18400BF016851E8051F02682E
:1049600021F0800142E8051383B3016851E8051F77
:10497000026821F0800142E805133BB3016851E869
:10498000051F026821F0800142E80513F3B10168B8
:1049900051E8051F026821F0800142E80513002B51
:1049A000DAD113E0016851E8031F026841F04001C9
:1049B00042E80313002B08BF7047016851E8031F4A
:1049C000026841F0400142E8031393B1016851E8E5
:1049D000031F026841F0400142E803134BB1016834
:1049E00051E8031F026841F0400142E80313002B25
:1049F000D8D17047806BFEF7C5BC000081B090F83D
:104A00004210222921D183680246B3F5805F09D183
:104A100052F8281F52F8183C002B63D003685B68DB
:104A20000AE000BF52F8281F13B90369002BF5D024
:104A300003685B6803F07F030B701168013111603C
:104A4000C18D01390A04C18502D001B0704700BF91
:104A50000168CA6822F02002CA60CA6822F4807223
:104A6000CA604A6922F001024A61202180F842109E
:104A700000214163026B012A3CD10163016851E8C6
:104A8000031F026821F0100142E80313DBB1016843
:104A900051E8031F026821F0100142E8031393B1AB
:104AA000016851E8031F026821F0100142E8031376
:104AB0004BB1016851E8031F026821F0100142E880
:104AC0000313002BDAD101680A68D20606D500224A
:104AD00000920A680092496800910099818D01B0A6
:104AE000FDF7E0BF026852686FF35F2221F8022BE6
:104AF0008162A5E701B0FEF7DBBB000010B50446FC
:104B00000068D4E902C22369016921F440511143CC
:104B10000161626943EA0C01E3691143C268194308
:104B200049F20C639A431143C1604169A26921F4BF
:104B3000407141F20043114340F48062C4F201032A
:104B40009A42416102D1FDF765FC01E0FDF74EFCA0
:104B5000E16963681922B1F5004FA0FB020123D17E
:104B60005A00DB0FFBF780FB48F21F51C5F2EB1137
:104B7000A0FB01235A094FF69C73C0F6FF7303F1A3
:104B8000805302FB0300322303EBC000A0FB0101B2
:104B90004FF4F87000EA111000EB0210C1F342115B
:104BA00008442168886010BD9A009B0FFBF75CFBEE
:104BB00048F21F51C5F2EB11A0FB01235A094FF631
:104BC0009C73C0F6FF7302FB0300322303EB00105B
:104BD000A0FB0101F02000EA511000EB0210C1F32C
:104BE000431108442168886010BD000040F2F44081
:104BF000C2F20000FDF75ABF40F23C50C2F2000082
:104C0000FDF754BF000000002DE9F04F81B02DEDFD
:104C1000028B40F6EC1BC2F2000B0446BBF800000E
:104C2000B4F802A000BA4FEA1049A4F80290BBF809
:104C30000200B0EE408AC0BA00EE100AB8EEC00A18
:104C400080EE080A2088A4F80CA06081BDEEC00A9E
:104C500010EE100A208094ED010ABBF80400BDEEAE
:104C6000C00AC0BA10EE105A01F01BFF9FED3E0BB8
:104C700053EC102B01F0A4FF9FED3D0B53EC102BD8
:104C800001F09EFF9FED3C0B53EC102B01F098FFC1
:104C900001F0D8FE01F005FF804628460F4601F0DE
:104CA00000FF9FED370B53EC102B01F089FF9FEDB8
:104CB000360B05460E4653EC102B4046394601F0A4
:104CC0007FFF2A46334601F073FC01F03FFC606031
:104CD00094F82C009BF80610217258B10020A4F81B
:104CE0002890A083206284F82C00BDEC028B01B0D8
:104CF000BDE8F08FA9EB0A0001B211F5805F03DC7B
:104D0000A08B013005E000BFA08BB1F5805F01DB17
:104D10000138A08300B2B4F9281009EB4030401AE2
:104D2000206201F0BEFE9FED1A0B53EC102B01F038
:104D300047FF9FED190B53EC102B01F041FF054687
:104D400018EE100A0E4602F0F3F902460B4628460A
:104D5000314601F0E1FC01F0F9FB6062BDEC028B31
:104D600001B0BDE8F08F00BF00000000000034403B
:104D7000000000000000103F0000000000408F40D5
:104D8000AE47E17A14AEEF3F7B14AE47E17A843F41
:104D9000000000000000203F00000000008076407E
:104DA000FEE7000040F2282840F2402940F29056E9
:104DB00040F2080740F2502440F26025C2F2000899
:104DC000C2F20009C2F20006C2F20007C2F20004F9
:104DD000C2F2000598F8000099ED000A0128384653
:104DE00008BF301DD0ED000A284608BF204690EDD0
:104DF000001A00F005F8012001F04EF8EAE7000083
:104E000040F21C0140F2F440C2F20001C2F2000084
:104E1000102281EC020A81ED021AFEF74BBA000063
:104E200010B58AB040F2882401200021C2F20004AB
:104E30000890CDE90610CDE90011CDE90211CDE9C8
:104E4000041169462046FBF7C1FB2046FBF72CFF07
:104E500020460221FBF74EFB0AB010BDFDF70EF90C
:104E6000FFF7A6FBFFF79CF9FFF720F9FFF7DCF847
:104E7000FFF71AFAFFF7D8F9FFF7F8F8FFF7F6F996
:104E8000FFF7CEFFFFF746F900F046FAFEE7000015
:104E90008EB04FF07C5100200C910021C4F2201004
:104EA000C4F2F011CDE90A014DF20A71C3F62341B3
:104EB00009910021C4F2C821CDE9070100219FED2D
:104EC000C18A9FEDC19A0D90CDE9050140F298602D
:104ED000C2F200000BAA0021B0EE480AF0EE490A27
:104EE000FFF7BCFA40F2E065C2F2000508AC2846C4
:104EF00000212246B0EE480AF0EE490AFFF7AEFA6A
:104F000005F1480000212246B0EE480AF0EE490AB9
:104F10000490FFF7A3FA05F1900000212246B0EEBD
:104F2000480AF0EE490A0390FFF798FA05F1D80B0A
:104F3000584600212246B0EE480AF0EE490AFFF733
:104F40008DFA40F25060C2F2000005AA0021B0EED6
:104F5000480AF0EE490AFFF781FA8020FFF732F89D
:104F600040F2905440F23006C2F20004C2F2000651
:104F700020463146FBF772FA06F1300804F13000A2
:104F80004146FBF76BFA04F1600006F16001019104
:104F9000FBF764FA04F1900006F190010291FBF72F
:104FA0005DFA40F20809C2F2000940F60005B9F8BE
:104FB000087004F1040AC2F2000528463146224670
:104FC0005346009700F0DCF9B9F80A7005F158066D
:104FD0003046414622465346009700F0D1F9B9F8D1
:104FE0000CC005F1B0070199384622465346CDF86A
:104FF00000C000F0C5F9B9F80EC005F58478029933
:10500000404622465346CDF800C000F0B9F940F2C0
:10501000282A9FEDBB8A9FEDBB9A9FEDBBAA9FED0F
:10502000BBFADFEDBB8ADFEDBB9AC2F2000ABBEE32
:1050300004BABAEE04CAB2EE04DAB3EE04EA56E0F9
:105040000130C9ED010ACAF80400B4F9000000EE0D
:10505000100A40F2E060B8EEC00AC2F20000FFF7AA
:1050600045F9B4F930008AED020A00EE100AD9EDD4
:10507000010A0498B8EEC00AFFF738F9B4F96000E5
:105080008AED030A00EE100AD9ED010A0398B8EE82
:10509000C00AFFF72BF9B4F990008AED040A00EE7C
:1050A000100AD9ED010AB8EEC00A5846FFF71EF9FA
:1050B0008AED050A9AED020A9AED031A9AED042A7E
:1050C000BDEEC00A9AED053A10EE100ABDEEC10A17
:1050D00010EE101ABDEEC20A10EE102ABDEEC30A81
:1050E00010EE103AFFF71EFA012000F0D5FE99ED00
:1050F000000A284684ED060A00F06EF9B4F9002093
:10510000D5E9100100EE102AB8EEC00AB0EEC00AD0
:105110008AED0A0A99ED000ACAF838003046CAF842
:10512000181084ED120A00F057F9B4F93020D5E9CF
:10513000260100EE102AB8EEC00AB0EEC00A8AEDD1
:105140000B0A99ED000ACAF83C003846CAF81C1050
:1051500084ED1E0A00F040F9B4F96020D5E93C0165
:1051600000EE102AB8EEC00AB0EEC00A8AED0C0AB2
:1051700099ED000ACAF840004046CAF8201084EDB4
:105180002A0A00F029F9D5E95210B4F99020CAF89A
:10519000240000EE102A9AF80000B8EEC00AB0EE23
:1051A000C00A02288AED0D0ACAF844100ED0012860
:1051B00050D000287FF47EAF0020CAE90200CAE97F
:1051C000040077E700401C4600803B45B4F900002E
:1051D00099ED011A95ED122A00EE100A40F2E060F6
:1051E000B8EEC00A61EE020AC2F20000FFF77EF8D4
:1051F000B4F9300099ED011A95ED282A8AED020ADA
:1052000000EE100A0498B8EEC00A61EE020AFFF739
:105210006DF8B4F9600099ED011A95ED3E2A8AED1A
:10522000030A00EE100A0398B8EEC00A61EE020A03
:10523000FFF75CF8B4F9900099ED011A95ED542A46
:105240008AED040A00EE100AB8EEC00A61EE020A06
:105250002BE700BFDAF80400F0EE480AB0F57A6FE9
:10526000FFF4EEAEB0F5FA5FF0EE490AFFF4E8AEF7
:1052700042F6E0618842F0EE4A0AFFF4E1AEB0F592
:105280007A5FF0EE4B0AFFF4DBAE44F62061884211
:10529000F0EE4C0AFFF4D4AE45F2F0518842F0EE45
:1052A0004D0AFFF4CDAE46F660518842F0EE4E0A4C
:1052B000FFF4C6AEB0F5FA4FF0EE4F0AFFF4C0AE01
:1052C00048F6A0418842F0EE680AFFF4B9AE49F60C
:1052D0004041884210D20021C4F24831C9F804107C
:1052E000411CCAF8041049F63F418842F0EE690AB1
:1052F0007FF4ABAEDEE600BF0020C9F80400D9E6BB
:10530000000048C30000C8C2000048C20000484274
:105310000000C8420000484380B500F00DFE0020A8
:1053200080BD0000B0B584B043698E4693B18469F6
:1053300084B10589D0E9001C026928B2843D18BFF8
:10534000C51CCDE9005360467346029400F08CFF03
:1053500004B0B0BD0589D0E90013028A28B2843DAB
:1053600018BFC51C03AC184673460095019400F0A5
:105370004BFF0399012818BF0021084604B0B0BDB7
:1053800091ED000B844600988CED040B91ED020B1F
:10539000CCE900238CED060B91ED040B8CF8080092
:1053A0008CED080B91ED060B8CED0A0B91ED080BC3
:1053B0008CED0C0B91ED0A0B4FF07E51CCF84810A0
:1053C00000218CED0E0BACF84C10CCF85010FEF711
:1053D000F9BD0000000000002DE9F04F81B02DED77
:1053E000088B84B0814690ED049B90ED06ABD0E92C
:1053F0000050B0EE408A006801F09AFE07460C4665
:1054000051EC1A0B3A46234601F0DAFB53EC192B08
:1054100001F0CEF88046B5F9000099ED089B8A4668
:1054200001F03FFB05460E4651EC190B2A46334668
:1054300001F0C6FB4246534601F0BAF899ED0A0B5B
:1054400080468A4651EC100B3A46234601F0B8FBE1
:105450002A46334601F0B4FB4246534601F0A8F811
:10546000804699ED0C9B8A46384621463A462346AB
:1054700001F0A6FB02460B4651EC190B01F0A0FB14
:105480004246534601F094F8044699ED0E9B0F46B0
:10549000284631462A46334601F092FB02460B4627
:1054A00051EC190B01F08CFB22463B4601F080F8D1
:1054B0000446D9F850000D4601F03AFE02460B466C
:1054C0002046294601F074F801F040F8B9F84C1074
:1054D000C9F8500001318AB2402AA9F84C100CD109
:1054E0009FED810A01EE100A21EE000A002089EDED
:1054F000100AA9F84C00C9F8500099F80800FEF706
:1055000027FD99ED101AB0EE409A31EE400AB0EE48
:10551000C00AB1EE041AB4EE410AF1EE10FA89EDB8
:10552000119A80F2C580D9E9000899ED0EABB0F967
:10553000000001F0B6FA02460B4604460D4601F0A3
:105540003FFB02460B4651EC1A0B01F039FB99ED7B
:105550000A0B039099ED08AB029151EC100B224617
:105560002B4601F02DFB0646D8F800000F4601F04F
:10557000DFFD80468B463046394642465B4601F0A9
:105580001FFB06460F4651EC1A0B22462B4601F034
:1055900017FB32463B4601F00BF8B4EE489AF1EEA9
:1055A00010FA40F38B8099ED04AB99ED06BB99EDB1
:1055B0000C9B019182464046594642465B4601F0AB
:1055C000FFFA04460D4651EC1B0B42465B4601F0C8
:1055D000F7FA53EC1A2B00F0EBFF06460F4651EC9E
:1055E000190B22462B4601F0EBFA32463B4600F0FF
:1055F000DFFF044618EE100A0D4601F099FD024641
:105600000B462046294601F0A5FC04465046CDF83D
:1056100000A05246DDF804A088460199534601F0E7
:10562000CFFA9FED2D0B039DDDF808B006460F461F
:1056300053EC102B2846594601F0C2FA2246434645
:1056400001F0BEFA32463B4600F0B2FF9FED240B5C
:1056500041EC180B53EC102B01F0B1FD40BBB0EE48
:10566000480AF0EE680A00F034FF009A51EC100B83
:10567000534601F06FFC04460E46284659462A461A
:105680005B4600F095FF02460B462046314601F08E
:1056900043F800F05BFF20F0004000EE100AB7EE88
:1056A000001AB4EE410AF1EE10FA49F8480F07DC8F
:1056B00004B0BDEC088B01B0BDE8F08F09F14809DA
:1056C0004FF07E50C9F8000004B0BDEC088B01B06B
:1056D000BDE8F08F00BF00BF00000000000010C058
:1056E00000000000000000000000803C2DE9F041B7
:1056F000044600F011FB40F26016C2F20006306969
:1057000040F66015013030613068C2F2000548B1E2
:105710007069002840D13068E16AC06A884298BF49
:10572000346039E034603069012835D1284600F012
:1057300099FA05F1140000F095FA05F1280000F03F
:1057400091FA05F13C0000F08DFA05F1500000F0EF
:1057500089FA05F1640000F085FA05F1780000F09F
:1057600081FA40F20028C2F20008404600F07AFABE
:1057700008F11407384600F075FA06F1640000F0ED
:1057800071FA06F13C0000F06DFA06F1500000F0ED
:1057900069FAC6F8308077637068B1680122013118
:1057A000B160E16A8A401043706001EB810005EB53
:1057B0008000211D00F098FA00F0D2FA706988B1DB
:1057C0003068E16AC06A884228BFBDE8F0814EF6C1
:1057D0000450CEF200004FF080510160BFF34F8FB4
:1057E000BFF36F8FBDE8F08140F2601540F66016A0
:1057F0004EF60458C2F20005C2F20006CEF20008CE
:105800004FF0805703E000BF204600F0C1FAE8687F
:10581000D0B100F081FAA86CC468201D00F002FA33
:10582000286901382861E8680138E86000F098FAD2
:1058300094F851000228EAD00128E5D070B9206B15
:1058400000F0A6FAE0E700BF30680228DFD3C8F80E
:105850000070BFF34F8FBFF36F8FD8E74FF050004A
:1058600080F31188BFF36F8FBFF34F8FFEE7000007
:105870002DE9F047DDE909878246386B089C00EB8B
:10588000820004389946002920F0070656D008788F
:1058900087F83400087800284BD0487887F835001E
:1058A0004878002845D0887887F83600887800281E
:1058B0003FD0C87887F83700C878D0B3087987F820
:1058C00038000879A8B3487987F83900487980B357
:1058D000887987F83A00887958B3C87987F83B0007
:1058E000C87930B3087A87F83C00087A08B3487A58
:1058F00087F83D00487AE0B1887A87F83E00887AD8
:10590000B8B1C87A87F83F00C87A90B1087B87F8A9
:105910004000087B68B1487B87F84100487B40B174
:10592000887B87F84200887B00281CBFC87B87F8EB
:105930004300002087F8430003E000BF002087F801
:1059400034000025381D062C28BF0624FC62C7E958
:10595000114500F093F907F1180000F08FF984F079
:105960000700B861304651464A463F617F62FD6498
:1059700087F8505000F042F9B8F1000F386018BFB6
:10598000C8F80070BDE8F08708480068006880F338
:1059900008884FF0000080F3148862B661B6BFF348
:1059A0004F8FBFF36F8F00DF00BF000008ED00E0F6
:1059B00081B00020009040F2F000C2F200000068C8
:1059C0004FF0500181F31188BFF36F8FBFF34F8FFA
:1059D000013007D0FEE700BF009830B9009820B929
:1059E000009810B900980028F6D001B07047000068
:1059F00070B5044600F006FB40F2D81CC2F2000C61
:105A0000DCF8040050B19CF80000002818BF4FF0EB
:105A100000404FF0000574BB8DE000BF40F6F4106D
:105A2000C2F20000C21D22F0070210F00701A0EB35
:105A3000020318BF104600224FF47055CCE906024D
:105A4000002918BF03F57055411921F00701A1F194
:105A50000803CCF8043041E90222191AC0E90031E8
:105A600001208CF800004FF00040CCE90211002C1E
:105A70004FF000055FD020405DD124F0070000F119
:105A80001002600708BF04F10802002A4FF0000569
:105A900051D0DCF8080082424DD8604650F818EF2B
:105AA000DEF8045095422CD2DEF80010C1B17446E5
:105AB0004D68954218D20B68B3B15D68954217D214
:105AC0001868A8B14568954216D20468A4B1656803
:105AD000954215D22168A6460029E9D111E000BF00
