:020000040800F2
:10000000E04B0020290200089D400008F131000863
:100010009940000841040008294E00080000000033
:10002000000000000000000000000000B1420008D5
:100030001505000800000000414200083143000897
:10004000430200084302000843020008430200087C
:10005000430200084302000843020008430200086C
:10006000430200084302000843020008430200085C
:10007000430200084302000843020008430200084C
:10008000430200084302000843020008430200083C
:100090004504000843020008430200084302000828
:1000A000430200081D440008430200084302000800
:1000B000430200084302000843020008430200080C
:1000C00043020008F531000843020008430200081B
:1000D00043020008430200084302000843020008EC
:1000E00043020008430200084302000843020008DC
:1000F00043020008430200084302000843020008CC
:1001000043020008430200084302000843020008BB
:1001100043020008430200084302000843020008AB
:1001200043020008FD0400084302000843020008DF
:10013000430200084302000843020008430200088B
:10014000430200084302000843020008430200087B
:100150004302000809050008430200089D49000801
:10016000430200084302000843020008430200085B
:100170004302000843020008430200080000000098
:10018000430200084302000800F002F800F03CF8C7
:100190000AA090E8000C82448344AAF10107DA45E2
:1001A00001D100F031F8AFF2090EBAE80F0013F0F8
:1001B000010F18BFFB1A43F001031847F46C00004D
:1001C000146D0000103A24BF78C878C1FAD85207DD
:1001D00024BF30C830C144BF04680C6070470000C1
:1001E0000023002400250026103A28BF78C1FBD840
:1001F000520728BF30C148BF0B6070471FB506F0DB
:100200002EFE1FBD10B510BD00F0E4F81146FFF73B
:10021000F5FF04F067FE00F002F903B4FFF7F2FF08
:1002200003BC00F005F90000094880470948004771
:10023000FEE7FEE7FEE7FEE7FEE7FEE7FEE7FEE796
:10024000FEE7FEE704480549054A064B70470000F3
:100250000944000889010008E0450020E04B002027
:10026000E0470020E047002053EA020C00F06980DC
:100270002DE9F04B4FF00006002B1FBFB3FA83F5BA
:1002800003FA05F424FA05F65E4012BF1643B2FAEB
:1002900082F502FA05F4C5F120051EBF22FA05FC1D
:1002A00044EA0C04203556EA044C4FEA144418BFC3
:1002B000641C4FF000084FF00009904271EB030CF2
:1002C00039D3002919BFB1FA81F701FA07F6B0FA5C
:1002D00080F700FA07F6C7F120071EBF20FA07FCD7
:1002E00046EA0C062037B6FBF4FCA7EB0507103FE7
:1002F00007F01F0BCBF120062CFA06F60CFA0BFBCD
:1003000044BFB3460026202FA4BF5E464FF0000B2B
:100310005BEA060C08BF4FF0010B19EB0B0948EB29
:100320000608ABFB027C06FB02CC0BFB03CCC01B1C
:1003300071EB0C01C1E70B46024641464846BDE859
:10034000F08B13B5084318BF4FF0FF300146AFF3F1
:100350000080BDE81C4070474FF0000200B5134616
:1003600094469646203922BFA0E80C50A0E80C50D5
:10037000B1F12001BFF4F7AF090728BFA0E80C5086
:1003800048BF0CC05DF804EB890028BF40F8042B7F
:1003900008BF704748BF20F8022B11F0804F18BFEC
:1003A00000F8012B704770477047704710B500F098
:1003B00009F8006810BD10B5044600F003F80460A9
:1003C00010BD000000487047F00000200048704752
:1003D000F00000207546FFF7F9FFAE4605006946BC
:1003E000534620F00700854618B020B5FFF72AFFD6
:1003F000BDE820404FF000064FF000074FF0000826
:100400004FF0000BAC46ACE8C009ACE8C009ACE862
:10041000C009ACE8C00921F007018D46704710B54E
:100420000446AFF300802046BDE81040FFF7F5BE5C
:1004300001491820ABBEFEE726000200704700000D
:10044000FEE7000040F28820C2F2000000F0E0B9B0
:1004500000220260C0F80320C0E90222026191ED8F
:10046000000B028380ED0C0B91ED020BC26180ED5D
:100470000E0B91ED040B828480ED100B91ED060BB9
:10048000012280ED120B91ED080B80F8282080ED01
:10049000140B91ED0A0B4FF07E5180ED160B816627
:1004A00070470000B0B588B040F2F815C2F2000500
:1004B00014466B1C01AA00F011F90198A0F2012169
:1004C00007290BD801380106287009D0C0B20128CD
:1004D00004D19FED090A204604F066FA08B0B0BDC9
:1004E0009FED040A204604F05FFA2878C0B2012884
:1004F000F4D1EEE72CA099410000104240F2B02068
:10050000C2F2000000F02EBC40F21030C2F2000037
:1005100000F028BC7047000072B600BFFEE7000084
:1005200090F82020013A012A08D8006800F114024E
:100530000020136819431160704700BF00F12402C6
:1005400001204FF4802113681943116070470000A7
:1005500010B590F820E0D0F800C0AEF1010EBEF169
:10056000010FDCF808E011D81EF0E05F18D0CEF3E0
:10057000016E012000FA0EF018608B68D3B1486854
:10058000CC6844EAC000034318E000BF00F1240136
:1005900001204FF480220B681A430A6010BD00BF8F
:1005A00000F1240101204FF400120B681A430A6085
:1005B00010BD00BF0868CB6843EA40530CEB0E1037
:1005C000C0F880310B69C0F88431097D012905D15B
:1005D00000F5C2710B6843F480730B605168C0F87A
:1005E0008C11126800F5C071C0F88821002001222A
:1005F0000B681A430A6010BDB0B590F82020013A8C
:10060000012A2FD846F20060C4F20000026842F0CE
:1006100001020260026822F47C520260D1F814E008
:10062000CC694A6A0368012C43EA022202600EF098
:100630001F024FF0010303FA02F2C3696FEA020CD2
:1006400023EA0203C36113D02CBBC36803EA0C0383
:10065000C360CB688C8844EA034300EBCE04236478
:100660000B4611E0416A41F4802141620120B0BD96
:10067000C3681343C3600B688C8844EA034300EBF0
:10068000CE04236401F10C038C681B8843EA044305
:1006900000EBCE04636443688D6943EA0204D1F839
:1006A00010E0096A002D08BF03EA0C0444604369A6
:1006B000BEF1000F43EA020408BF03EA0C0401295B
:1006C000446102D1C1691143C161016821F0010196
:1006D00001600020B0BD00007047000010B590F828
:1006E0002040013C012C7BD8D0F800C0002900F04C
:1006F0008180DCF81040A40700F081800CEB011C25
:10070000DCF8B0410CF5D87E14F004049460DCF8F9
:10071000B04119BFE4085460640D1460DEF8004075
:100720000CF5DA7E04F00204D460DCF8B44124074E
:100730005ABFDEF8004004F00F0408241461DEF80C
:1007400000400029C4F307249461DEF800404FEA1A
:1007500014445461DCF8B8211A70026802EB0112EB
:10076000D2F8B8214FEA12225A70026802EB011245
:10077000D2F8B8214FEA12429A70026802EB0112D5
:10078000D2F8B8214FEA1262DA70026802EB011265
:10079000D2F8BC211A71026802EB0112D2F8BC2116
:1007A0004FEA12225A71026802EB0112D2F8BC2100
:1007B0004FEA12429A71026802EB0112D2F8BC2190
:1007C0004FEA1262DA71006814BF00F1100100F103
:1007D0000C01002020220B681A430A6010BD00BFE4
:1007E00000F1240101204FF480220B681A430A60B3
:1007F00010BD00BFDCF80C40A4077FF47FAF00F110
:10080000240101204FF400120B681A430A6010BD46
:100810002DE9F04F81B0044600684669D0F8049095
:100820008768D0F80CB0D0F810A0D0F81880F10785
:1008300004D1002530071DD424E000BFF90710D0F3
:100840000121BA07816009D4780700F1AF80380729
:1008500000F1B680204600F019FA02E0204600F0D0
:1008600017FA0025F80500F18780F80300F1B18040
:10087000300707D51BF0100004D0206845F4007540
:100880001021C160700708D51BF0080005D0206852
:100890000821C160204600F0A1F9B00706D5206804
:1008A000C068800702D0204600F09AF9700607D58C
:1008B0001AF0100004D0206845F480651021016111
:1008C000B00608D51AF0080005D02068082101619B
:1008D000204600F0A7F9F00606D5206800698007D9
:1008E00002D0204600F0A0F9B00308D519F010009E
:1008F00005D0206810214160204600F097F9F003F0
:1009000008D519F0080005D020680821416020466C
:1009100000F0C8F9300440F19B805FEA497040F173
:10092000948006F4807008EA102028435FEA8871FA
:10093000014648BF41F00201B20558BF01465FEAD7
:1009400048700D4648BF45F00405700558BF0D4678
:10095000300540F17A8018F0700000F07680103891
:10096000000905286CD8DFE800F003595D6165696E
:1009700045F0080564E000BF20684FF48071BA05B7
:1009800081600BD4780515D438051DD4204600F0BD
:1009900081F9F8037FF56CAF1BE000BF204600F043
:1009A0007BF9F8037FF564AF13E000BF4FF40065F7
:1009B00058E700BF05F50055F8037FF559AF08E08B
:1009C0004FF480554EE700BF05F58045F8037FF5ED
:1009D0004FAF20684FF48031BA0381600AD47803A6
:1009E00010D4380314D4204600F058F930073FF5EE
:1009F00041AF47E7204600F053F930073FF53AAFE3
:100A000040E700BF05F5004530073FF533AF39E754
:100A100005F5803530073FF52DAF33E745F010057C
:100A20000EE000BF45F020050AE000BF45F040059C
:100A300006E000BF45F0800502E000BF45F4807588
:100A40002068816921F07001816120680421416082
:100A500055B1606A40EA05012046616201B0BDE817
:100A6000F04FFFF739BE00BF01B0BDE8F08F0000C6
:100A7000B0B5C8B1044690F8200010B9204600F087
:100A800071F82068016841F00101016000F020FC6C
:100A9000054600BF20684168C90707D100F018FC6F
:100AA000401B0B28F6D312E00120B0BD016821F0F5
:100AB0000201016000F00CFC054600BF206841689F
:100AC00089070DD500F004FC401B0B28F6D3606AA3
:100AD000052140F400306062012084F82010B0BD90
:100AE000217E0268012922F0800208BF8032026064
:100AF000617E0268012922F0400208BF4032026094
:100B0000A17E0268012922F0200208BF2032026083
:100B1000E17E0268012922F0100218BF1032026043
:100B2000217F0268012922F0080208BF0832026012
:100B3000617F0268012922F0040208BF04320260CA
:100B4000D4E901C2D4E9033561691A432A43114348
:100B5000ACF101021143C16100200121606284F8FF
:100B60002010B0BD80B586B0016846F20040C4F2E6
:100B70000000814202D006B080BD00BF002143F6D4
:100B800030020191C4F20202136900F5D43043F03F
:100B900000731361136903F000730193019B0191CA
:100BA000136843F0080313601268022302F008027E
:100BB0000192019ACDE9023109210322059101A98F
:100BC0000192049200F0B0FA14200521002201F0F5
:100BD000C5FA142001F0AEFA06B080BD70470000DF
:100BE000B0B540F2882440F26045C2F20004C2F27F
:100BF0000005204600212A46FFF754FC05F170024B
:100C000020460021FFF74EFC05F1E00220460021BE
:100C1000FFF748FC05F5A87220460021BDE8B0406A
:100C2000FFF740BC704700007047000070470000AD
:100C3000B0B5044690F8200001281DD1022084F8A8
:100C400020002068016821F00101016000F040FBF4
:100C5000054600BF20684068C00713D000F038FB8D
:100C6000401B0B28F6D3606A40F400306062052018
:100C700084F820000120B0BD606A40F4002060626A
:100C80000120B0BD00206062B0BD000070470000D0
:100C90007047000070470000704700007047000078
:100CA000704700007047000070B5866D044600F084
:100CB0000FFB94F83510022928D105462068216CD5
:100CC000026822F016020260426922F0800242614C
:100CD00009B9A16C19B1016821F00801016001682E
:100CE00021F00101016000BF20680068C00715D035
:100CF00000F0EEFA401B0628F6D3202060650320A2
:100D000084F83500002184F8341070BD80206065BF
:100D10000120002184F8341070BD00BFE06D3F2138
:100D200001FA00F0B060012084F8350000200021B5
:100D300084F8341070BD000090F83510022909D1F4
:100D4000052180F835100068016821F0010101607B
:100D500000207047802141650120704790F83500E0
:100D600070470000F0B581B004460020009040F2CA
:100D70001000C2F200000268D4E9166048F2B51310
:100D800037680821C1F64E3381403942A2FB032562
:100D90000CD0226813685B0708D5136823F004039E
:100DA0001360B160616D41F0010161650121814015
:100DB000394208D022685269120604D5B160616DCB
:100DC00041F00201616504218140394208D0226866
:100DD0001268920704D5B160616D41F0040161654C
:100DE00010218140394217D020680268120713D5BC
:100DF000B16002680168520308D4C90508D40168CB
:100E000021F008010160216C21B905E008033FD4FD
:100E1000216C09B120468847E16D202000FA01F2DB
:100E20003A4241D020680368DB063DD5B26094F8B1
:100E300035300268052B1BD122F016020260426990
:100E400022F080024261226C0AB9A26C1AB10268D7
:100E500022F0080202603F208840B060012084F840
:100E60003500216D0020002984F8340052D157E06C
:100E70000168520310D4C90512D4016821F0100191
:100E80000160012084F83500002084F8340007E078
:100E9000A16C0029BED1BFE7080301D4616C00E05A
:100EA000E16B09B120468847606DC8B3606DC0072B
:100EB0002ED0052084F835002068A90A026822F0A7
:100EC00001020260009A01328A4200921AD8026836
:100ED000D20717D0009A01328A42009212D80268D3
:100EE000D2070FD0009A01328A4200920AD80268D3
:100EF000D20707D0009A01328A42009202D80268D3
:100F0000D207DFD1012084F83500002084F83400B6
:100F1000E16C29B1204601B0BDE8F040084700BFB0
:100F200001B0F0BD2DE9F041044600F0D1F9ECB17B
:100F30000546022084F835000020216884F834003A
:100F4000086820F00100086021680868C00711D017
:100F500000F0BEF9401B0528F6D903252023032005
:100F6000636584F83550BDE8F08100BF0120BDE81D
:100F7000F08100BF086848F23F02CFF21002D4E9C6
:100F8000013500EA020C04F10C0898E8C10143EABB
:100F90000C032B431843D4E9072E30433843104346
:100FA000626A40EA0E00042A40EA08031CD1206B62
:100FB000D4E90A2E40EA0E00184308604869BEF1E1
:100FC000000F20F0030040EA020040F0040C11D0B2
:100FD000B8F5005F36D0B8F1000F45D1022A46D0EF
:100FE000012A3BD032B942E00B60486920F007008B
:100FF00040EA020C01F0F8004AF6AB221038CAF6BB
:10100000AA22A0FB02231A0946F69A63C0F600033F
:101010009A5C40F2FF335F284FF03F00C1F814C0E4
:1010200021EA030100FA02F088BF0431C4E9161274
:101030008860002301250020636584F83550BDE8F1
:10104000F08100BF032AD5D8012540230120DFE825
:1010500002F0030E030500BF82E700BFAEF1C070CF
:10106000B0FA80F0400904E0032A04D3C2D1CEF3E1
:1010700000600028BED0012540230120636584F86C
:101080003550BDE8F081000070B590F834C0BCF177
:10109000010F46D04FF0010C80F834C0D0F858E072
:1010A00090F835C0BCF1010F38D14FF0020C80F838
:1010B00035C04FF0000CC0F854C0D0F800C08468B0
:1010C000056CC06DDCF80060402C26F48026CCF85E
:1010D0000060CCF804300B4604BF13460A463F219B
:1010E00001FA00F0CCF80830CCF80C20CEF808005B
:1010F000DCF8000040F01600CCF800002DB1DCF860
:10110000000040F00800CCF80000DCF8000040F0DF
:101110000100CCF80000002070BD00BF002180F865
:101120003410022070BD00002DE9F04F82B000F1B4
:101130003E4241F6004502F1FF77C4F20205082263
:1011400043F6004E4FEAB726A84208BF0722C4F272
:10115000010E072E38BF4FEAB722012500260027CF
:101160004FF00008009208E008F101080437B8F1D8
:10117000100F06F1020600F0A7800C6805FA08F9C6
:1011800014EA090FF0D0D1F804B003220BF0030CDD
:10119000ACF10104B240012C6FEA020A10D8826857
:1011A000CC6802EA0A02B440224382604268CBF370
:1011B000001422EA090204FA08F42243426005E01E
:1011C000BCF1030F02D14FF0030C20E0C2688C6821
:1011D00002EA0A02B4402243BCF1020FC26016D1F7
:1011E0006FF0030202EA58020244D2F820C007F06E
:1011F0001C050F230C69AB402CEA030304FA05F528
:101200002B431362D1F804B001250BF0030C0268E4
:101210000CFA06F302EA0A021A431BF4403F02608A
:10122000A2D0002243F644030192C4F202031A68DA
:101230004FF6084C42F480421A601A68CFF6FF7CE1
:1012400002F480420192019A28F00302724452F89B
:101250000C3007F00C050F24AC40A343009C04FAAB
:1012600005F52B4342F80C30DEF808204B6842EAC3
:10127000090543F60C4CDC0258BF22EA0905CEF8FA
:101280000850C4F2010CDCF800209C0242EA090577
:1012900058BF22EA0905CCF80050DEF804209C0370
:1012A00042EA090558BF22EA0905CEF80450DEF8E3
:1012B0000020DB0342EA090558BF22EA0905CEF8FF
:1012C0000050012550E700BF02B0BDE8F08F0000DC
:1012D00044F28830C2F20000006870477047000096
:1012E00070470000F0B581B0076804467868E26A8C
:1012F00094F83E3094F83DE0402B01D0102B27D1DC
:10130000BE697D69E90751D1B2F12A4F00F0A08290
:10131000B2F52A0F00F09C8200F400724FF0010C2D
:1013200029078CEA522C45D5002A43D0606B616CAA
:10133000C9B2396118B1C06B002840F02481A06B9C
:10134000002800F08582C06B002840F01C817FE2FD
:10135000216C00F4007300290CBFBE6900267D6972
:10136000A90753D5002B51D0206C002818BFBE69A7
:1013700094F83D0000F02800282840F09380786819
:10138000002320F480607860012020EA9601300676
:101390004FF0180058BF0C20225A204684F83C30E9
:1013A00001B0BDE8F040FFF79BBF00BF810557D4F7
:1013B0004FF0010CA90759D5BCF1000F56D194F894
:1013C0003E30E06A226B94F83D10222940F0E28022
:1013D000216D002908BF402B00F0DC80216D002921
:1013E00040F032812169B1F5404F40F02D8100205D
:1013F000009078690090B86900900098386840F4CF
:1014000080703860206D01306BE200BFE90655D571
:10141000002B53D094F83D50786820F4E060786059
:101420000020009078690090386840F00100386032
:101430000098386820F4806038607868000540F1D2
:10144000408105F0F7002646222840F0198156F821
:10145000380F0168496826F80E1C36F80E1C17E193
:10146000E06AB0F52A0F5FD1012062E07968720767
:1014700001F4006100F19880002940F0E9816906DB
:1014800005F0040140F1AC8110F4806000F0A88107
:10149000002940F0A581204601B0BDE8F04002F0EF
:1014A00083B800BF0020009079690091B96900916C
:1014B000009984F83C0001B0F0BD00BF0EF0F701C8
:1014C00000F48062212905F0040040F083802906A1
:1014D00040F14881002A00F04581002840F0428117
:1014E00094F83D00618D002900F0B281616A11F825
:1014F000012B3A616162618D01396185618D00293D
:1015000008BF292840F0A4817868282120F4806051
:10151000786021202063204684F83D1001B0BDE8AA
:10152000F04000F05FBD00BFE06AB0F12A4F01D18A
:101530000820E06294F83E0040280BD1206D616CD9
:10154000002801F0FE0018BF40F00100386101B032
:10155000F0BD00BF2069B0F5804F65D194F83D0023
:10156000616C212801F0FE0118BF01313961606B07
:1015700008B1C06B38B9A06B002800F06981C06B5E
:10158000002800F06581786840F40060786001B060
:10159000F0BD00BF0020009078690090B86900900D
:1015A000009801B0F0BD00BF002940F0518129062C
:1015B00005F0040140F1208110F4806000F01C81EE
:1015C000002940F01981204601B0BDE8F04002F04A
:1015D000D7B800BF690640F1D780002A00F0D48058
:1015E000002840F0D18094F83D00618D002900F082
:1015F0002F813969626A1170616A01316162618D9E
:1016000001396185618D002908BF2A2840F02081B9
:101610002068416821F480614160222028212063F4
:10162000204684F83D10D6E0206D002800F0BE80F2
:10163000206D012840F00C81606C062101EAD01079
:10164000F130386101B0F0BD618D61B1618D01296A
:1016500040F0E280202818BF082840F0FB8038685E
:1016600020F4806038600020009078690090B869AC
:1016700000900098386840F40070386030E100BF96
:1016800056F8340F0168496826F80A1C36F80A1C17
:1016900019B1216C41F004012164796821F40061E1
:1016A0007960FFF75BFB01280BD0306843F2012122
:1016B000C0F600010165FFF73FFB10B13068016D16
:1016C0008847608D60B120684169490730D441691D
:1016D00049063AD4608D18B1206C40F004002064B3
:1016E000206C28B1204601B0BDE8F04001F01ABEE0
:1016F0002A2D07D100202063282084F83D002046B1
:1017000000F06EFC94F83D00282857D10020CFF659
:10171000FF70E06200212020216384F83D00204614
:1017200084F83E1001B0BDE8F04000F09FB900BF62
:101730000069616A0870616A206801316162618DC7
:101740000139618541694906C4D50069616A08703B
:10175000606A01306062608D01386085608D0028AC
:10176000BAD1BDE7002818BF002B71D0608D0028CA
:101770006ED0606A10F8011B39616062608D0138BB
:10178000608501B0F0BD00BF002818BF002B5FD0FE
:10179000608D00285CD03869616A0870606A013029
:1017A0006062608D0138608552E000BF606C062188
:1017B00001EAD010F030386101B0F0BD206B222872
:1017C00018BF222D44D100212020216384F83D0040
:1017D000204684F83E1001B0BDE8F04000F000BCA7
:1017E000B1FA81F0400950EA0C0031D1204601B035
:1017F000BDE8F04001F05CBEB1FA81F0400950EA6A
:101800000C0025D1BEF1210F1AD1204601B0BDE850
:10181000F04001F073BF00BF618D02290CD1102888
:101820003CD8012114228140C0F20102114235D07E
:101830004FF4806238E000BF396841F4806135E0E0
:10184000402B05D1204601B0BDE8F04001F0F2BFC9
:1018500001B0F0BD10F5803F0CD1386820F48060F5
:101860003860786800057FF5FEAE386820F4806047
:1018700038602EE0122A02D101287FF4F0AE102841
:10188000F3D8012101FA00F01421C0F2010108424D
:10189000EBD0386840F4806038601AE039684FF463
:1018A000006221F4806139603968114339607968D8
:1018B00009050ED5421E1F2A16D80121914048F273
:1018C0008102C8F2000211420ED0786840F48050C4
:1018D00078600020009078690090B86900900098C6
:1018E0000020206501B0F0BD10F5803FEDD0F0E79D
:1018F0007047000070B5B8B3044690F83D0028B9B1
:10190000002084F83C00204600F02EFB242084F8C0
:101910003D002068016821F001010160016841F487
:1019200000410160016821F40041016000F022FDE6
:1019300048F28041C0F21E0140F60013D4F804E0E2
:1019400088424FF00001C0F23D0348F2A16C4FF015
:10195000000238BF01219842C0F2010C38BF0122B9
:10196000E64538BF0A460AB1012070BD4DF68361D5
:10197000C4F21B31A0FB01122168950C4B684FF497
:10198000967623F03F0343EA9243754344F6D356D9
:101990004B60C1F262060B6AA5FB0656B50923F03F
:1019A0003F03E64538BF950C6A1C1A430A62CA69B0
:1019B00048F2A0664CF6FF73C0F20106B64522EA73
:1019C00003020BD801384FEA4E03B0FBF3F00130AD
:1019D0006FF31F30042898BF04201EE0A36801386D
:1019E00063B119230EFB03F3B0FBF3F001306FF387
:1019F0001F3078B100F5804008E000BF0EEB4E03C9
:101A0000B0FBF3F001306FF31F3028B100F5004058
:101A100003E000BF012000E001201043C861086816
:101A2000D4E9072320F0C0001043184308608868F9
:101A300048F2FF3204F10C0690434CCE1843104399
:101A4000A5698860C86820F0FF0030432843C8605B
:101A5000086840F00100086000202021206484F81C
:101A60003D10206384F83E0070BD00007047000008
:101A700070470000704700002DE9F04383B01F4617
:101A8000164689460446FFF723FC94F83D102029AA
:101A900020D10546206800BF8169890716D5FFF768
:101AA00017FC411B20681A29F6D381698907F3D5F1
:101AB00000202021206384F83D1084F83E00216C32
:101AC00041F02001216484F83C0003E094F83C10CC
:101AD000012903D1022003B0BDE8F083012184F87D
:101AE0003C100168C90703D1016841F001010160A0
:101AF000016840F2040821F400610160222184F8A9
:101B00003D10102184F83E10002121646662678533
:101B1000618DC0F201082185A8F500310439E16228
:101B2000E16A02680A9F42F4806211F5803F026018
:101B300018BF012942D1016841F48071016020463B
:101B40004FF0011100223B46009501F033FF58B1E0
:101B500020680068C00544BF4FF400702064012075
:101B600003B0BDE8F08300BF2069B0F5804F2BD1F2
:101B700049F00100C0B221683A460861A8F10201AB
:101B800020462B4602F000F80028E8D1208D0028DE
:101B900050D0022866D001286ED121680A6822F44C
:101BA00080620A60002202924A6902928A69029265
:101BB000029A0A6842F400720A6078E00829BAD0F2
:101BC000216B1129B7D0BAE7062000EAD9162068A0
:101BD00006F1F001016108F1040120463A462B4666
:101BE00001F0D2FF0028BAD120685FFA89F10161C3
:101BF000A8F1020120463A462B4601F0C5FF002815
:101C0000ADD1002002902068002241693B4602913C
:101C1000816902910299016841F480710160204656
:101C20004FF00111009501F0C5FE002890D146F05B
:101C3000F100A0E7002002902068416902918169CB
:101C400002910299016841F400710160202084F83A
:101C50003D00002084F83E0084F83C0003B0BDE85D
:101C6000F08300BF21680A6822F480620A600A6873
:101C700042F4006204E000BF21680A6842F4806216
:101C80000A60002202924A690292896902910299CD
:101C90000DE000BF10690870606A218D013060623C
:101CA000481E2085618D013961850104CED080B246
:101CB00003280FD802284AD001282DD120463946C2
:101CC0002A4601F0D1FF00287FF449AF2068616AFD
:101CD0000069E0E7204639462A4601F0C5FF0028A2
:101CE0007FF43DAF2068616A00690870606A22680D
:101CF000411C208D616201382085638D013B638525
:101D000053695B07D1D580B20328C3D1106820F492
:101D100080601060BEE700BF2046414600223B467F
:101D2000009501F047FE00287FF419AF2068616A32
:101D3000026822F48062026000690870606A218D86
:101D400001306062481E2085608D01386085204624
:101D5000414600223B46009501F02CFE00287FF40E
:101D6000FEAE2068616A026842F400720260006997
:101D70000870606A2268411C6162218D01392185E9
:101D8000618D013961851169417085E72DE9F04365
:101D900083B01E46174689460446FFF799FA94F821
:101DA0003D10202920D10546206800BF81698907A0
:101DB00016D5FFF78DFA411B20681A29F6D38169E1
:101DC0008907F3D500202021206384F83D1084F892
:101DD0003E00216C41F02001216484F83C0003E0C6
:101DE00094F83C10012903D1022003B0BDE8F08330
:101DF000012184F83C100168C90703D1016841F052
:101E000001010160016840F2020821F400610160F3
:101E1000212184F83D10102184F83E100021216416
:101E200067626685618DC0F201082185A8F1021103
:101E3000E162E16A0A9E11F5803F18BF01291DD1B8
:101E4000016841F48071016020464FF001110022C9
:101E50003346009501F0AEFD50B120680068C00522
:101E600044BF4FF400702064012003B0BDE8F0834C
:101E70002069B0F5804F07D1FE2015E00829DFD09A
:101E8000216B1229DCD0DFE7062000EAD910216897
:101E9000F030086108F10601204632462B4601F079
:101EA00073FE0028E0D1FF20216800EA09000861E4
:101EB0002046414632462B4601F066FE0028D3D12B
:101EC0000020029020684169029180690290029886
:101ED00006E000BF204631462A4601F00BFD18BB44
:101EE000208D68B3204631462A4601F005FFD8B957
:101EF000606A2168024612F8013B0B616262628DE2
:101F0000013A6285228D531E23854F697F07E1D5F3
:101F10001B04DFD0437802300B616062608D0138B2
:101F20006085901E2085D5E7206C04289CD1206810
:101F3000016841F400710160012003B0BDE8F08345
:101F40002068016841F400710160202084F83D00A0
:101F5000002084F83E0084F83C0003B0BDE8F08324
:101F60007047000070470000B0B586B0016845F6C4
:101F70000000C4F20000814202D006B0B0BD00BF34
:101F8000002443F630050194C4F2020529681222A8
:101F900041F020012960296800F5DE3001F02001C0
:101FA000019101990321019104910421059101A955
:101FB000CDE90224FFF7B8F800942869052140F420
:101FC000800028612869002200F4800000900098B9
:101FD000212000F0C3F8212000F0ACF806B0B0BD1D
:101FE000704700007047000040F2000044F2883162
:101FF000C2F20000C2F2000100780A6810440860D2
:102000007047000080B543F60040C4F2020001684A
:1020100041F400710160016841F480610160016870
:1020200041F480710160032000F0C4F80F2000F03B
:1020300005F800F05DF8002080BD0000B0B586B066
:10204000002543F644010195C4F202010A680446E2
:1020500042F001020A60096801A801F00101019142
:102060000199694600F066F900F098F94DF6836130
:102070004000C4F21B31A0FB01014FF0FF3000EB28
:10208000914140F2C4300022C2F20000C4F20102C9
:1020900040F2E733C0E90021C0E9025305618561E0
:1020A00000F084FB054618B1284606B0B0BD00BF5D
:1020B00040F2C430C2F2000000F0A8FB0546002840
:1020C000F2D1192000F036F80F2C0DD81920214636
:1020D0000022002500F042F840F20400C2F20000A5
:1020E0000460284606B0B0BD0125284606B0B0BD44
:1020F00082B0002043F640010190C4F202014A6818
:1021000042F480424A604A6802F480420192019A95
:1021100000900868002240F08050086008680F2195
:1021200000F08050009000986FF0010002B000F0C5
:1021300015B80000002848BF7047C1B200F01F006A
:10214000012202FA00F04EF20012CEF2000242EA40
:10215000D10121F0030108607047000010B54EF670
:102160000C5CCEF2000CDCF80030C3F3022E8EF0D3
:102170000704042C28BF0424BEF103034FF0FF3EE4
:102180000EFA04F438BF0023A14399400EFA03F37A
:102190009A43114300F00F0200F160430901043A31
:1021A00003F564436244002848BF02F10C03197030
:1021B00010BD00004EF60C51CEF200010A684FF639
:1021C000FF031A4060F30A2242F0806040F0FD7085
:1021D000086070472DE9F041002800F08B8043F63D
:1021E0000808C4F202080446D8F8F8030D4600F0C7
:1021F0000700884207D288F8F853D8F8F80300F0AF
:102200000700A84276D12068810717D5410705D578
:10221000D8F8001041F4E051C8F80010010705D5C6
:10222000D8F8001041F46041C8F80010D8F8001048
:10223000A26821F0F0011143C8F80010C0073FD197
:10224000D8F8F80300F00700A84207D988F8F85337
:10225000D8F8F80300F00700A8424BD120684107E6
:1022600007D5D8F80010E26821F4E0511143C8F80E
:102270000010000708D5D8F80000216920F460405C
:1022800040EAC100C8F8000000F09CF8D8F800103F
:1022900046F68262C1F30311C0F60002515C40F2BF
:1022A000100220FA01F140F20400C2F200000068BE
:1022B000C2F200021160FFF7C1FE0020BDE8F0810C
:1022C0006068811E022907D258F8081C89015CBF8A
:1022D0000120BDE8F08111E0012807D158F8081C61
:1022E00089035CBF0120BDE8F08107E058F8081CB5
:1022F000890703D40120BDE8F08100BFD8F80010A1
:1023000021F003010843C8F80000FEF7E1FF06468C
:1023100041F28837D8F80000616800F00C00B0EB9B
:10232000810F8DD0FEF7D4FF801BB842F2D9032075
:10233000BDE8F0810F22026043F60802C4F20202F7
:10234000136803F003034360136803F0F003836032
:10235000136803F4E053C360D2F800C04FF4E053B5
:1023600003EADC030361D2F8F80300F00700086019
:102370007047000040F2100043F60801C2F200006E
:10238000C4F202010068096846F69262C1F3822134
:10239000C0F60002515CC8407047000040F21000D7
:1023A00043F60801C2F20000C4F2020100680968A5
:1023B00046F69262C1F34231C0F60002515CC84059
:1023C0007047000010B543F60404C4F202046068CC
:1023D00000F00C0008280BD0042819BF42F200407E
:1023E000C0F2F40047F64000C0F27D1010BD00BFFF
:1023F000206821682368490247F64001C0F27D1138
:1024000000F03F02C3F388105CBF42F20041C0F20B
:10241000F401A1FB00010023FDF726FF2168022241
:10242000C1F3014102EB4101B0FBF1F010BD00002E
:102430002DE9F04182B0002868D00446007843F6C8
:102440000006C007C4F202060BD0B06800F00C0012
:10245000042840F09F803068800302D5606800281F
:1024600054D0207880071AD5B06810F00C0F09D02E
:10247000B06800F00C00082840F0A68070684002A8
:1024800000F1A2803068800702D5E06801283DD1C4
:102490003068216920F0F80040EAC10030602078FF
:1024A000000737D4207840074CD4A56955B3B068ED
:1024B00000F00C00082840F0BB80012D26D0706889
:1024C000E16900F480028A4220D1216A00F03F02D3
:1024D0008A421BD147F6C071626A0140B1EB821F8C
:1024E00014D1A16A4FF6FF73C903994300F4403237
:1024F000A1F580318A4209D1E16A00F07060B0EB49
:10250000016F03D1002002B0BDE8F081012002B0CC
:10251000BDE8F0816069002840F20000C4F2472065
:1025200076D00121C0F8801EFEF7D2FE054600BF1E
:10253000706F8007B6D4FEF7CBFE401B0228F7D998
:10254000DDE000BF306C10F080580AD1002001900F
:10255000306C40F080503064306C00F0805001905E
:10256000019847F20007C4F200073868C00541D45B
:10257000386840F480703860FEF7AAFE054600BF58
:102580003868C00536D4FEF7A3FE401B0228F7D9F1
:10259000B5E000BFB06800F00C00082803D17068F7
:1025A00040023FF558AF6068B0F5803F07D0B0F506
:1025B000A02F40F08D80306840F48020306030687B
:1025C00040F4803030608DE0E068002852D0002078
:1025D000C4F2472001210160FEF77AFE054600BFE4
:1025E000306880073FF554AFFEF772FE401B0228AB
:1025F000F6D984E0A068012805D005284ED1306FB7
:1026000040F004003067306F40F0010030674FE069
:102610000021C0F8801EFEF75BFE0546706F800744
:102620007FF540AFFEF754FE401B0228F6D966E066
:102630000027C4F2472700203866FEF749FE022D26
:1026400005460BD1306880015ED5FEF741FE401B88
:1026500002284FF00300F5D955E700BF306880012C
:102660007FF550AFFEF734FE401B02284FF0030009
:10267000F4D948E70020C4F2472000210160FEF7AA
:1026800027FE0546306880077FF509AFFEF720FE7C
:10269000401B02284FF00300F4D934E7316F0028C3
:1026A00021F001013167316F21F0040131674DD014
:1026B000FEF70EFE054641F2883700BF306F8007F7
:1026C00056D4FEF705FE401BB842F7D917E000BF0D
:1026D0003168002821F480313160316821F4802193
:1026E00031604FD0FEF7F4FD054600BF306880032F
:1026F0003FF5B7AEFEF7ECFD401B6428F6D903208A
:1027000002B0BDE8F08100BF04F11C052FCD0843E5
:1027100040EA8210D9034FF6FF729143A1F5803150
:1027200040EA05600843706001203866FEF7D0FD7E
:10273000044600BF306880013FF5E4AEFEF7C8FDF7
:10274000001B02284FF00300F4D9DCE6FEF7C0FDC1
:10275000054641F2883700BF306F800708D5FEF785
:10276000B7FD401BB8424FF00300F5D9CBE600BFE0
:10277000B8F1000F7FF499AE306C20F080503064D7
:1027800093E600BFFEF7A4FD054600BF3068800356
:102790007FF567AEFEF79CFD401B64284FF00300F9
:1027A000F4D9B0E67047000070470000002804BF6D
:1027B0000120704710B5044690F83D0028B900206C
:1027C00084F83C00204600F01FF8022084F83D0009
:1027D0002068211D01F028FE012084F8460084F8BD
:1027E0003E0084F83F0084F8400084F8410084F8FB
:1027F000420084F8430084F8440084F8450084F8DB
:102800003D00002010BD00007047000090F83D1012
:1028100001291CBF01207047022180F83D1000688B
:1028200041F2FF72C168C4F20002904241F001011E
:10283000C1600DDC40F2FF71C4F20001884215DC7A
:10284000B0F1804F2AD040F20041C4F2000123E0F1
:1028500040F2FF31C4F20101884213DC41F600016D
:10286000C4F20001884219D0002113E040F60001B3
:10287000C4F20001884211D040F60041C4F20001C8
:102880000AE000BF44F20001C4F20101884205D011
:1028900040F20041C4F20101884206D1816801F092
:1028A0000701062904BF00207047016841F00101BB
:1028B00001600020704700007047000070B50446BA
:1028C0000068C5680669B10716D515F0020113D076
:1028D0006FF002010161012121778069800703D037
:1028E0002046FFF7E9FF05E0204600F08FF820467C
:1028F00000F08EF800202077700719D515F004003D
:1029000016D020686FF004010161022121778069EF
:1029100010F4407F04D02046FFF7CEFF06E000BF52
:10292000204600F073F8204600F072F8002020776F
:10293000300717D515F0080014D020686FF0080193
:10294000016104212177C069800703D02046FFF789
:10295000B3FF05E0204600F059F8204600F058F893
:1029600000202077F00619D515F0100016D0206849
:102970006FF01001016108212177C06910F4407FD8
:1029800004D02046FFF798FF06E000BF204600F085
:102990003DF8204600F03CF800202077F00718BFF3
:1029A00015F0010002D1300609D412E020686FF062
:1029B00001010161204600F02DF8300609D515F01F
:1029C000800006D020686FF0800101612046FFF78B
:1029D000E9FE700609D515F0400006D020686FF0BA
:1029E00040010161204600F01FF8B00658BF70BDDD
:1029F00015F0200008D021686FF0200220460A61FF
:102A0000BDE87040FFF7D0BE70BD00007047000009
:102A10007047000000680021C4F20101884218BF1D
:102A20007047FFF7E1BA00007047000070470000F0
:102A300070470000B0B582B0044600680168C36802
:102A4000426901F02F05202D03F0200506D12DB19C
:102A5000204602B0BDE8B04001F0A8BE5FEA017CAC
:102A60001EBF02F0010E03F4907212EB0E0253D15E
:102A7000226B012A05D111F0100218BF13F01002C9
:102A800036D10A0622D513F080021FD094F84110E7
:102A900021293FD1A168B1F5805F03D121690029C7
:102AA00000F08282216A4A1C226209784160E18C2E
:102AB00001390A04E1842DD1C16821F08001C1608F
:102AC000C16841F04001C16002B0B0BD490621D5E6
:102AD00013F040011ED0C16821F04001C1602021E7
:102AE000204684F8411002B0BDE8B04000F07CBB45
:102AF00000210191016801914168019101994069AA
:102B0000400613D4A08DE18DE28D002A18BF8842C3
:102B100040F0CC8102B0B0BDCA0718BF13F4807278
:102B200040F0BE804A0700F1C180C6E0E06B01685A
:102B30004A68A38D91B2002900F0A881994280F0E3
:102B4000A581E285C069B0F5807F00F09D80206896
:102B500050E8030F216820F4807041E80302DAB1E5
:102B6000206850E8030F216820F4807041E80302D8
:102B700092B1206850E8030F216820F4807041E88A
:102B800003024AB1206850E8030F216820F48070E6
:102B900041E80302002ADAD1206850E8050F2168D5
:102BA00020F0010041E80502BAB3206850E8050FA3
:102BB000216820F0010041E8050272B3206850E866
:102BC000050F216820F0010041E805022AB32068C2
:102BD00050E8050F216820F0010041E80502002AB5
:102BE000DAD11AE0206850E8050F216820F0400093
:102BF00041E80502DAB1206850E8050F216820F0AD
:102C0000400041E8050292B1206850E8050F2168B4
:102C100020F0400041E805024AB1206850E8050F65
:102C2000216820F0400041E80502002ADAD1202086
:102C300084F8420000202063206850E8030F2168D8
:102C400020F0100041E80302DAB1206850E8030FD9
:102C5000216820F0100041E8030292B1206850E89A
:102C6000030F216820F0100041E803024AB12068F8
:102C700050E8030F216820F0100041E80302002A09
:102C8000DAD1E06BFEF710F802206063A08DE18DD1
:102C9000401A81B2204602B0BDE8B040FFF7C6BE80
:102CA000626C42F0010262644A0706D5BEF1000F71
:102CB00003D0626C42F0020262648A0706D5BEF15C
:102CC000000F03D0626C42F004026264BCF1000F9A
:102CD00009D545EA0E02B2FA82F2520903D1626CBA
:102CE00042F008026264626C002A3FF413AF11F0F4
:102CF000200118BF002D03D0204601F057FD2068A9
:102D00004069616C00F0400001F00801401800F0DB
:102D1000B58000BF206850E8030F216820F4907050
:102D200041E80302BAB3206850E8030F216820F499
:102D3000907041E8030272B3206850E8030F2168E5
:102D400020F4907041E803022AB3206850E8030F92
:102D5000216820F4907041E80302002ADAD11AE0D9
:102D6000206850E8050F216820F0010041E80502C5
:102D7000DAB1206850E8050F216820F0010041E831
:102D8000050292B1206850E8050F216820F001008B
:102D900041E805024AB1206850E8050F216820F09B
:102DA000010041E80502002ADAD1206B012824D174
:102DB000206850E8030F216820F0100041E803026A
:102DC000DAB1206850E8030F216820F0100041E8D4
:102DD000030292B1206850E8030F216820F0100030
:102DE00041E803024AB1206850E8030F216820F04F
:102DF000100041E80302002ADAD1202084F84200C2
:102E00000020206320684069400649D5206850E8CA
:102E1000050F216820F0400041E80502DAB1206882
:102E200050E8050F216820F0400041E8050292B10A
:102E3000206850E8050F216820F0400041E80502B5
:102E40004AB1206850E8050F216820F0400041E8B1
:102E50000502002ADAD1E06B10B344F26D51C0F6DE
:102E600000010165FDF768FF00283FF453AEE06BF9
:102E7000016D02B0BDE8B040084700BF2046FFF733
:102E8000D7FD0020606402B0B0BD00BF8B427FF46C
:102E900041AEC069B0F5807F7FF43CAE02227CE099
:102EA000204602B0BDE8B040FFF7C2BD401A21681D
:102EB00051E8031F226821F4907142E80313DBB14B
:102EC000216851E8031F226821F4907142E803133E
:102ED00093B1216851E8031F226821F4907142E800
:102EE00003134BB1216851E8031F226821F490714C
:102EF00042E80313002BDAD1216851E8051F22684C
:102F000021F0010142E80513DBB1216851E8051FFA
:102F1000226821F0010142E8051393B1216851E8CC
:102F2000051F226821F0010142E805134BB1216819
:102F300051E8051F226821F0010142E80513002B2A
:102F4000DAD1202184F8421000212163216851E860
:102F5000031F226821F0100142E80313DBB121684E
:102F600051E8031F226821F0100142E8031393B1D6
:102F7000216851E8031F226821F0100142E8031381
:102F80004BB1216851E8031F226821F0100142E88B
:102F90000313002BDAD1022281B22046626302B011
:102FA000BDE8B040FFF742BD216A31F8022B6FF354
:102FB0005F22426021627AE5002804BF0120704749
:102FC00010B5044690F8410028B9002084F840006C
:102FD000204600F021F8242084F841002068C168D0
:102FE00021F40051C160204601F060FC20680169B5
:102FF00021F490410161416921F02A014161C168D8
:1030000041F40051C16000202021606484F8411027
:1030100084F84210606310BD2DE9F04385B004468A
:10302000016841F20040C4F20100814202D005B0C3
:10303000BDE8F083002643F630010096C4F2020199
:103040004A6946F2284842F020024A614A6900F57E
:10305000823002F020020092009A00960A68C4F2C0
:10306000020842F040020A60096801F04001009144
:1030700000994FF4844100910221CDE9011603210A
:103080000391082104916946FEF74EF840F2B025FD
:10309000C2F200054FF400304FF020674FF4806912
:1030A000C5E908062846C5E90087C5E90266C5E9FD
:1030B0000496C5E90666FDF735FF002818BFFDF741
:1030C0002BFAE563AC6340F2103508F17800C2F2E8
:1030D00000054021C5E9000705F1080080E842022B
:1030E0004FF44030C5E908062846C5E90566EE619B
:1030F000FDF718FF002818BFFDF70EFA472005213D
:103100000022A563AC63FFF729F84720FFF712F808
:1031100005B0BDE8F083000070470000B0B504467C
:1031200090F8410020281CBF0220B0BD00294FF0BC
:10313000010056D0002A134608BFB0BD4FF0000C66
:1031400021202162A384E384C4F844C084F84100B0
:10315000A06B44F2F56E44F2A5752268C0F6000E2D
:10316000C0F60005C0E90FE544F27955C0F6000548
:103170000432C0E9135CFDF787FF38B110206064AA
:10318000202084F841000120B0BD00BF20686FF00E
:1031900040010160206850E8050F216840F0800080
:1031A00041E80502F2B1206850E8050F216840F0BF
:1031B000800041E80502AAB1206850E8050F2168A7
:1031C00040F0800041E8050262B1206850E8050F38
:1031D000216840F0800041E80502002A4FF000001D
:1031E000D8D1B0BD0020B0BD7047000070470000CE
:1031F000FEE7000040F27030C2F20000FEF772B845
:1032000010B581B000210091806B40F21001C2F234
:10321000000190F83DC009684BF28952C908C1F21B
:10322000F842A1FB0212110A232251430091009996
:1032300011B30099013900910168096889051FD50A
:103240000099C9B10099013900910168096889059F
:1032500016D5009981B1009901390091016809687A
:1032600089050DD5009939B100990139009101689E
:1032700009688905DBD403E0016C41F02001016499
:10328000446B4FF0000E002C1CBF0021E163816BEA
:1032900000291CBF0022CA630268002C136823F4B3
:1032A00080631360A0F82AE018BFC4F850E000293A
:1032B0001CBF00230B65116821F00101116090F81B
:1032C0003D1060290CD1202180F83D10002180F8AC
:1032D0003E10016401B0BDE81040FDF7FFBF00BF24
:1032E0000CF02801282911D1116841F00101116069
:1032F000116841F48061116000210163282180F888
:103300003D1001B0BDE81040FEF7F2BA202180F870
:103310003D10002180F83E1001B0BDE81040FEF7DE
:10332000E7BA000010B5044690F83D1090F83E0052
:10333000B0F1100218BF0122403818BF012002422C
:1033400008BF222934D001F0280028283AD10020D3
:103350002063282084F83D0020684168090542D593
:10336000416821F400614160606B90F835100129DB
:1033700058D1A06B43F20121C0F600010165FDF7B1
:10338000DBFC002861D020684169490606D5006948
:10339000616A0870616A206801316162016821F028
:1033A00001010160202084F83D00A06B4BE000BFCC
:1033B0002068026822F4006202604268120505D5A6
:1033C0000CE000BF20684268120507D4602905D0D0
:1033D000202184F83D10002184F83E100021216353
:1033E00041680905BCD494F83D10602950D12021D2
:1033F00084F83D10002121644169490606D5006921
:10340000616A0870616A206801316162016821F0B7
:10341000010101602046FDF761FF206C000717D114
:103420001BE000BF43F20121C0F600010165FDF77A
:1034300083FC50B12168606B0A6822F001020A60C7
:10344000202184F83D10016D8847206C000704D0CE
:103450002068416821F4E061416094F83D00216CEE
:10346000490758BF10BD282810D10020CFF6FF70A3
:10347000E06200212020216384F83D00204684F88A
:103480003E10BDE81040FEF7F1BA00BF10BD00BF0E
:103490004169490605D50069616A0870606A0130B2
:1034A00060622046FEF724FA206C0007D0D1D4E7F2
:1034B000C16A428D042A07D10168426A4B6823F42D
:1034C00080634B60096911E0428D032A16D10268BE
:1034D0000229536823F48063536005D0042903D084
:1034E000116821F4806111601169426A1170416AAA
:1034F00001314162418D013941857047428D022A77
:1035000012D14A1E0F2A19D8DFE802F00812181249
:1035100018181818181818181818180802681368B6
:1035200023F480630EE000BF0168426ACAE700BF6F
:103530000268136843F4806304E000BF0268136804
:1035400043F4007313601269436A1A70426AD0F838
:1035500000C0531C4362438D013B4385DCF81030AF
:103560005370426A036801324262428D013A4285D9
:103570005A6822F440725A60202280F83D2090F868
:103580003E300022402B80F83E2003D10263FEF73C
:10359000E7BC00BFB1F1080218BF1222203918BFE2
:1035A00011460163FEF764BA81B090F83D102229FC
:1035B00079D1C16A428D042A14D30168426A09692B
:1035C0001170416A01314162418D01394185418D5E
:1035D000032968D10068416821F48061416001B02D
:1035E000704700BFC36A022B58D0012A56D8002268
:1035F000009240F21002C2F2000212684BF28953AC
:10360000D208C1F2F843A2FB03231A0A02EB82029A
:103610000092009A013A0092009A002A46D002686D
:1036200013689B051AD5009A013A0092009AEAB3F2
:10363000026813689B0511D5009A013A0092009A1E
:10364000A2B3026813689B0508D5009A013A00925C
:10365000009A5AB3026813689B05DAD4136823F4FE
:1036600080631360536823F4E06353601269436A14
:103670001A70426A01324262428D013A428520222A
:1036800080F83D2090F83E300022402B80F83E200C
:1036900028D1026301B0FEF763BC00BF0068416837
:1036A00021F48061416001B0704700BF016C41F0BE
:1036B000200101640168426A4B6823F4E0634B60B7
:1036C00009691170416A01314162418D01394185B9
:1036D000202180F83D10002180F83E1001B0FEF757
:1036E00007B900BFB1F1080218BF1222203918BF74
:1036F0001146016301B0FEF7BBB90000C16A90F842
:103700003D20212A18BF7047428D4AB1416A0268A4
:1037100011F8013B13614162418D013941857047C8
:1037200011F5803F18BF082918D101684A6822F4B2
:10373000E0624A600A6842F400720A6000212022B6
:10374000016380F83D2090F83E2080F83E10402A2A
:1037500008BFFEF707BCFEF78DB900BF2029E4D0F3
:1037600001684A6822F4E0624A6011210163002185
:1037700080F83E10202180F83D10FEF77BB9000054
:1037800090F83D1090F83EC0C26A038D002B08BF30
:10379000212919D0212905D0BCF1400F08BF2229C9
:1037A00000D07047418D69B390F83E10402908BFA2
:1037B00000F040B8416A026811F8013B13614162B0
:1037C000418D01394185704712F5803F18BF082AA5
:1037D0001ED101684A6822F4E0624A600A6842F435
:1037E00000720A6000212022016380F83D2090F8D9
:1037F0003E2080F83E10402A08BFFEF7B3BBFEF71C
:1038000039B900BF0068416821F4806141607047A8
:10381000202ADED001684A6822F4E0624A60112161
:103820000163002180F83E10202180F83D10FEF752
:1038300021B9000090F83D10026D5AB1026D012AC5
:1038400014D10168826CD2B20A61016D0131016547
:10385000704700BFC26C816C012A15D10268C9B2E1
:103860001161016D02310165704700BF026D022ACE
:1038700012D1222918D101680A6842F480720A60C4
:10388000016D0131016570470268C1F307211161C3
:10389000016D01310165704700684169090644BF47
:1038A00000210161704700BF428D5AB1212909D121
:1038B000416A026811F8013B13614162418D01398F
:1038C00041857047428D002A08BF2129EAD101684D
:1038D0004A6822F4E0624A600A6842F400720A60B0
:1038E00000212022016380F83D2080F83E10FEF781
:1038F00039BB000070B50368044653F8140F400745
:1039000011D40E46481C29D086BB00BF186840055C
:1039100027D4FDF7DDFC236853F8140F400739D591
:1039200018684007F2D5002070BD00BF1868400736
:10393000F9D41868400514D418684007F3D41868FF
:1039400040050ED418684007EDD41868400508D427
:10395000186840074FF0000048BF70BD1868400568
:10396000E4D56FF480601860042014E0154603E08D
:1039700053F8140F4007D6D418684005F1D4FDF76A
:10398000A7FC401B2368B042F2D958694007EFD426
:10399000202000E0202000212022216384F83D2007
:1039A00084F83E10226C10432064012084F83C10FF
:1039B00070BD00002DE9F041054600681E46144622
:1039C00001F47F0201338FB242D0DDF81880B2F5E6
:1039D000803F40F0878040693840C01BB0FA80F0DB
:1039E0004009A04240F0C8804EB924E04069384008
:1039F000C01BB0FA80F04009A04240F0BD80FDF746
:103A000067FCA0EB08012868B142EFD94169394051
:103A1000C91BB1FA81F14909A142E7D19BE000BF7E
:103A200040693840C01BB0FA80F04009A0424FF016
:103A3000000040F0A680FDF74BFC28684169394042
:103A4000C91BB1FA81F14909A142E9D183E000BF64
:103A5000B2F5803F24D100BF41693940C91BB1FA9A
:103A600081F14909A14240F0878041693940C91B71
:103A7000B1FA81F14909A14240F07E8041693940A3
:103A8000C91BB1FA81F14909A14275D14169394097
:103A9000C91BB1FA81F14909A142DDD06CE000BF38
:103AA00081693940C91BB1FA81F14909A14263D149
:103AB00081693940C91BB1FA81F14909A1425BD141
:103AC00081693940C91BB1FA81F14909A14253D139
:103AD00081693940C91BB1FA81F14909A142DFD09E
:103AE0004AE000BF80693840C01BB0FA80F040094E
:103AF000A04241D146B923E080693840C01BB0FAEA
:103B000080F04009A0423BD1FDF7E2FBA0EB0801A9
:103B10002868B142F0D981693940C91BB1FA81F1F5
:103B20004909A142E8D116E080693840C01BB0FACB
:103B300080F04009A0424FF0000018BFBDE8F081BE
:103B4000FDF7C6FB286881693940C91BB1FA81F1CC
:103B50004909A142E8D100202021286385F83D10C1
:103B600085F83E00296C41F02001296485F83C006D
:103B70000120BDE8F08100BF0020BDE8F08100BF5A
:103B80000020BDE8F0810000F0B581B00446006877
:103B90001D4643698FB203EA0701B94202D10020F2
:103BA00001B0F0BD41691646013201F4806125D0B3
:103BB000002940D1CEB100BFFDF78AFB411B206830
:103BC000B14203D941693940B9424BD141693940C9
:103BD000B942E4D041694905EED52CE0416939404C
:103BE000B942DCD04169490525D4FDF771FB206855
:103BF00041693940B942F1D0202024E0D9B9416966
:103C00003940B942CBD04169490514D441693940A2
:103C1000B942C4D0416949050DD441693940B9421E
:103C2000BDD04169490506D441693940B942B6D091
:103C300041694905E3D5016841F4007101606FF401
:103C400080614161042000212022216384F83D200D
:103C500084F83E10226C1043206484F83C1001204C
:103C600001B0F0BD2020EEE770B5044600681546AF
:103C700050F8143F5A063DD40E4629B926E000BF3D
:103C800050F8141F490635D40168C90621D4FDF740
:103C90001FFB411B2068B142F2D941694906EFD4AC
:103CA00000202021206384F83D1084F83E00206C21
:103CB00040F0200018E000BFFDF70AFB206850F834
:103CC000141F4906ECD50168490613D40168C906DA
:103CD000F2D56FF01001016000202021206384F8EC
:103CE0003D1084F83E00206C2064002084F83C00E5
:103CF000012070BD002070BD70B50368044653F804
:103D0000140F000611D40E46481C29D086BB00BFF4
:103D10001868400527D4FDF7DBFA236853F8140F21
:103D2000000639D518680006F2D5002070BD00BF26
:103D300018680006F9D41868400514D418680006FD
:103D4000F3D4186840050ED418680006EDD418683E
:103D5000400508D4186800064FF0000048BF70BD49
:103D600018684005E4D56FF480601860042014E002
:103D7000154603E053F8140F0006D6D41868400522
:103D8000F1D4FDF7A5FA401B2368B042F2D9586977
:103D90000006EFD4202000E0202000212022216313
:103DA00084F83D2084F83E10226C104320640120EA
:103DB00084F83C1070BD000070B582B040F27035E0
:103DC00004460320C2F200058DF807004FF4807608
:103DD0000DF107022846214601230096FDF7D6FF84
:103DE0000DF105022846214602230096FDF744FE08
:103DF000002840F27420C2F2000001D0FF2106E04A
:103E00009DF806109DF80520C18041EA02218AB282
:103E100000EE102A9FED041AB8EE400A20EE010AC7
:103E2000818002B070BD00BF0AD7A33BF0B583B05C
:103E3000044640F25440C2F200000026C0E9006689
:103E400086604FF48E4040F27035ADF806002720B2
:103E5000C2F200058DF808004FF480770DF10602DC
:103E60002846214603230097FDF790FF40F60520E2
:103E7000ADF809000DF109022846214603238DF80B
:103E80000B600097FDF782FF03B0F0BD10B540F264
:103E9000882046F20041C2F20000C4F20001032271
:103EA00000234FF0807480E80E0000F10C014FF405
:103EB000102C4FF4001E81E8085084618383FCF7C6
:103EC000D7FD002808BF10BDBDE81040FCF724BB9B
:103ED00080B582B00020019043F63000C4F20200A9
:103EE0000168002241F4800101600068052100F4AE
:103EF0008000019001983920FEF730F93920FEF753
:103F000019F9452005210022FEF728F9452002B0C5
:103F1000BDE88040FEF70EB970B58EB0134808AC0E
:103F2000079012A000F1040E9EE80E50806984E80C
:103F30000E500D9007A8002101F0A6F940F250168E
:103F4000C2F20006104930600FA0051D00913ECD61
:103F500080690DF1040C8CE83E0006906846002153
:103F600001F092F970600EB070BD00BFA76E00083E
:103F7000114F000803000000000000008000000056
:103F80000000000000000000A26E00082D4E000896
:103F9000020000000000000080000000000000009F
:103FA0000000000081B0002143F630000091C4F20F
:103FB0000200026842F040020260026802F0400221
:103FC0000092009A0091026842F0010202600268C9
:103FD00002F001020092009A0091026842F0080289
:103FE0000260026802F008020092009A00910268E2
:103FF00042F020020260026802F020020092009A61
:104000000091016841F080010160006800F08000CB
:104010000090009801B0704780B540F2703045F6CE
:104020000001C2F20000C4F2000148F2A0620023C5
:104030004FF4804CC0F2010280E80E00C0E9033C5E
:10404000C0E90533C0E90733FDF754FC002808BF79
:1040500080BDBDE88040FCF75FBA000080B540F24B
:104060000C4041F20041C2F20000C4F20101002301
:104070004FF00C0C4FF4E13280E80E00C0E903333E
:10408000C0E905C3C361FEF797FF002808BF80BDE4
:10409000BDE88040FCF740BAFEE70000FEE7000004
:1040A000002857D0017890ED0F1A90ED102A80ED7E
:1040B000070A30EEC00A0029C0ED060A80ED0F0A9B
:1040C00080ED101A80ED112A48D0012940F09A8025
:1040D00090ED015A90ED026A30EE414A31EE011A3C
:1040E00090ED037A24EE054A20EE065A30EE410A9E
:1040F00032EE000AD0E90C1280ED0C0A20EE070A1D
:1041000034EE051A90ED082A90ED043A80ED0B0A82
:1041100031EE000A32EE000AB4EE430AF1EE10FA74
:1041200080ED094A80ED0A5AC0E90D1280ED080AB7
:10413000C2BF80ED083AB0EE430A7047B1EE431AB1
:10414000B4EE410AF1EE10FABCBF80ED081AB0EEF1
:10415000410A70479FED2D0A704700BF90ED024A5B
:1041600090ED0A6A90ED012A24EE004A34EE064AE8
:1041700090ED0C6A90ED053A20EE022A30EE410AED
:10418000B6EE001A90ED035A416B80ED0D6A26EEF3
:10419000016A20EE010A30EE060AB4EE434A80EDD1
:1041A0000C0A20EE050AF1EE10FA80ED092A80EDE6
:1041B0000A4A816380ED0B0A06DCB1EE433AB4EEA5
:1041C000434AF1EE10FA03DAB0EE434A80ED0A3AC0
:1041D00032EE042A90ED041A30EE020AB4EE410ADF
:1041E000F1EE10FA80ED080A07DCB1EE411AB4EEE8
:1041F000410AF1EE10FAA8BF7047B0EE410A80ED17
:10420000081A704790ED080A704700BF00000000D0
:10421000002818BF002A01D1704700BF80B5017087
:104220001168416051688160916880ED040AC16045
:10423000C0ED050A20302821FCF78EF880BD000073
:10424000EFF30980BFF36F8F154B1A681EF0100F44
:1042500008BF20ED108A20E9F04F10602DE9090019
:104260004FF0500080F31188BFF34F8FBFF36F8F73
:1042700001F0CCFC4FF0000080F31188BDE809008C
:1042800019680868B0E8F04F1EF0100F08BFB0ECD6
:10429000108A80F30988BFF36F8F704700BF00BF9B
:1042A0005801002000000000000000000000000095
:1042B000074B19680868B0E8F04F80F30988BFF32E
:1042C0006F8F4FF0000080F31188704700BF00BF70
:1042D0005801002080B58AB04FF4007CCDF804C0AE
:1042E0004FF0000CCDE903CC4FF0080CCDF814C012
:1042F0004FEA102C8DF82100080A8DF82200100AD0
:104300008DF82400180A8DF8260040F288208DF8D8
:1043100023108DF825208DF82730C2F2000001A966
:1043200008AA07AB8DF820C0FCF712F90AB080BDCF
:1043300080B54FF0500080F31188BFF36F8FBFF34B
:104340004F8F01F0C9FD30B14EF60450CEF200009F
:104350004FF080510160002080F3118880BD000083
:10436000B0B592B0002443F640000B94CDE9094467
:10437000CDE907440594CDE90344CDE90144009417
:10438000C4F202000168022541F08051016000681A
:1043900000F080500090009847F200000094C4F2B2
:1043A0000000016841F480410160006800F4804031
:1043B000009000980120099010200A9008200E908B
:1043C000A820CDE90F050420119006A80695CDE997
:1043D0000C54FEF72DF818B172B600BFFEE700BF0F
:1043E0000F20CDE901054FF4A05004904FF4805008
:1043F000059001A805210394FDF7ECFE10B172B6FB
:10440000FEE700BF12B0B0BD4EF68850CEF20000FD
:10441000016841F4700101607047000040F2C4304F
:10442000C2F20000FEF74ABAB0B540F6FF3E05689A
:10443000C4F2000E40F2004C7045C4F2010C27DCBF
:10444000B0F1804F31D040F20043C4F200039842F3
:104450002BD040F60003C4F20003984225D041F669
:10446000FF73C4F2000398422ADC70453CDCB0F1D3
:10447000804F5FD040F20043C4F20003984259D00D
:1044800040F60003C4F20003984253D057E000BF47
:1044900040F60043C4F20003984206D0604504D0C1
:1044A0000023C4F201039842D9D14B6825F0700271
:1044B00043EA020541F6FF73C4F200039842D4DDDB
:1044C00043F6FF73C4F20103984221DC42F2000379
:1044D000C4F2000398422DD00023C4F20103984295
:1044E00028D0604526D02AE040F60043C4F20003FD
:1044F00098421FD041F60003C4F20003984219D03D
:1045000041F60043C4F20003984213D017E000BF05
:1045100044F20003C4F2010398420BD044F60003B6
:10452000C4F20103984205D044F20043C4F20103EF
:10453000984204D1CB6825F4407243EA02050A6828
:104540008C684B69C46240F480648262644504BF35
:1045500009690163026825F0800142F004021943F1
:104560000260012242610160B0BD0000806B002149
:10457000C185FEF75DBA0000806B01684A6990F85A
:104580004130212B2DD112F080022AD00021C1848C
:10459000016851E8031F026821F0C00142E80313DB
:1045A000DBB1016851E8031F026821F0C00142E855
:1045B000031393B1016851E8031F026821F0C001A1
:1045C00042E803134BB1016851E8031F026821F070
:1045D000C00142E80313002BDAD1202180F84110FA
:1045E0000168496990F84220222A40F07D8011F04C
:1045F000400179D00021C185016851E8031F02689C
:1046000021F4907142E80313BBB3016851E8031F22
:10461000026821F4907142E8031373B3016851E812
:10462000031F026821F4907142E803132BB3016861
:1046300051E8031F026821F4907142E80313002B34
:10464000DAD11AE0016851E8051F026821F0010182
:1046500042E80513DBB1016851E8051F026821F04B
:10466000010142E8051393B1016851E8051F026892
:1046700021F0010142E805134BB1016851E8051F23
:10468000026821F0010142E80513002BDAD1016B29
:10469000012924D1016851E8031F026821F01001AB
:1046A00042E80313DBB1016851E8031F026821F0FF
:1046B000100142E8031393B1016851E8031F026837
:1046C00021F0100142E803134BB1016851E8031FC8
:1046D000026821F0100142E80313002BDAD12021F7
:1046E00080F8421000210163416C41F010014164E7
:1046F000FEF79EB90168806B0968C90548BFFEF7DF
:1047000073BD0021C18400BF016851E8051F026824
:1047100021F0800142E8051383B3016851E8051FC9
:10472000026821F0800142E805133BB3016851E8BB
:10473000051F026821F0800142E80513F3B101680A
:1047400051E8051F026821F0800142E80513002BA3
:10475000DAD113E0016851E8031F026841F040011B
:1047600042E80313002B08BF7047016851E8031F9C
:10477000026841F0400142E8031393B1016851E837
:10478000031F026841F0400142E803134BB1016886
:1047900051E8031F026841F0400142E80313002B77
:1047A000D8D17047806BFEF721BD000081B090F832
:1047B0004210222921D183680246B3F5805F09D1D6
:1047C00052F8281F52F8183C002B63D003685B682E
:1047D0000AE000BF52F8281F13B90369002BF5D077
:1047E00003685B6803F07F030B701168013111608F
:1047F000C18D01390A04C18502D001B0704700BFE4
:104800000168CA6822F02002CA60CA6822F4807275
:10481000CA604A6922F001024A61202180F84210F0
:1048200000214163026B012A3CD10163016851E818
:10483000031F026821F0100142E80313DBB1016895
:1048400051E8031F026821F0100142E8031393B1FD
:10485000016851E8031F026821F0100142E80313C8
:104860004BB1016851E8031F026821F0100142E8D2
:104870000313002BDAD101680A68D20606D500229C
:1048800000920A680092496800910099818D01B0F8
:10489000FEF7CCB8026852686FF35F2221F8022B52
:1048A0008162A5E701B0FEF737BC000010B50446F1
:1048B0000068D4E902C22369016921F4405111431F
:1048C0000161626943EA0C01E3691143C26819435B
:1048D00049F20C639A431143C1604169A26921F412
:1048E000407141F20043114340F48062C4F201037D
:1048F0009A42416102D1FDF751FD01E0FDF73AFD19
:10490000E16963681922B1F5004FA0FB020123D1D0
:104910005A00DB0FFBF7A8FC48F21F51C5F2EB1160
:10492000A0FB01235A094FF69C73C0F6FF7303F1F5
:10493000805302FB0300322303EBC000A0FB010104
:104940004FF4F87000EA111000EB0210C1F34211AD
:1049500008442168886010BD9A009B0FFBF784FC17
:1049600048F21F51C5F2EB11A0FB01235A094FF683
:104970009C73C0F6FF7302FB0300322303EB0010AD
:10498000A0FB0101F02000EA511000EB0210C1F37E
:10499000431108442168886010BD000040F20C40BB
:1049A000C2F20000FEF746B82DE9F04F81B02DEDC0
:1049B000028B40F2F81BC2F2000B0446BBF8010068
:1049C000B4F802A000BA4FEA1049A4F80290BBF86C
:1049D0000300B0EE408AC0BA00EE100AB8EEC00A7A
:1049E00080EE080A2088B4F904502081A4F80AA0B7
:1049F000BDEEC00A10EE100A2080BBF80500C0BA58
:104A000001F04BFE9FED3E0B53EC102B01F0D4FE5A
:104A10009FED3D0B53EC102B01F0CEFE9FED3C0BB8
:104A200053EC102B01F0C8FE01F008FE01F035FE3A
:104A3000804628460F4601F030FE9FED370B53ECC1
:104A4000102B01F0B9FE9FED360B05460E4653ECD8
:104A5000102B4046394601F0AFFE2A46334601F09E
:104A6000A3FB01F0EBFDA08094F828009BF8071051
:104A7000A17158B10020A4F824902083E06184F84B
:104A80002800BDEC028B01B0BDE8F08FA9EB0A0055
:104A900001B211F5805F03DC208B013005E000BF1F
:104AA000208BB1F5805F01DB0138208300B2B4F9BF
:104AB000241009EB4030401AE06101F0EEFD9FED5B
:104AC0001A0B53EC102B01F077FE9FED190B53ECF2
:104AD000102B01F071FE054618EE100A0E4602F08A
:104AE00023F902460B462846314601F011FC01F03D
:104AF00029FB2062BDEC028B01B0BDE8F08F00BF46
:104B00000000000000003440000000000000103FE2
:104B10000000000000408F40AE47E17A14AEEF3F46
:104B20007B14AE47E17A843F000000000000203F84
:104B300000000000008076402DE9F04F81B02DED9F
:104B4000088B84B0814690ED0C8B90ED0E9BB0F9F4
:104B50000050B0F9040001F0A0FD07460C4651ECEE
:104B6000190B3A46234601F027FE53EC182B01F0AF
:104B70001BFB804699ED108B28468A4601F08DFD7F
:104B800005460E4651EC180B2A46334601F014FE3A
:104B90004246534601F008FB99ED120B80468A46C7
:104BA00051EC100B3A46234601F006FE2A463346E6
:104BB00001F002FE4246534601F0F6FA804699EDB6
:104BC000148B8A46384621463A46234601F0F4FDC6
:104BD00002460B4651EC180B01F0EEFD42465346DF
:104BE00001F0E2FA044699ED168B0F46284631464D
:104BF0002A46334601F0E0FD02460B4651EC180B05
:104C000001F0DAFD22463B4601F0CEFA01F09AFAB5
:104C1000C9F860008020FFF7CFF899ED181AB0EEC0
:104C2000408A31EE400AB0EEC00AB1EE041AB4EE8A
:104C3000410AF1EE10FA89ED198A80F2CF80B9F9B4
:104C4000000099ED169BB9F9048001F026FD02469B
:104C50000B4604460D4601F0AFFD02460B4651ECF3
:104C6000190B01F0A9FD99ED120B029099ED109B23
:104C7000039151EC100B22462B4601F09DFD064698
:104C800040460F4601F009FD80468B4630463946C6
:104C900042465B4601F090FD06460F4651EC190B6B
:104CA00022462B4601F088FD32463B4601F07CFA55
:104CB00099ED059AB4EE498AF1EE10FA40F39C8022
:104CC00099ED0CAB99ED0EBB99ED148B01918246D9
:104CD0004046594642465B4601F06EFD04460D468D
:104CE00051EC1B0B42465B4601F066FD53EC1A2B60
:104CF00001F05AFA06460F4651EC180B22462B4695
:104D000001F05AFD32463B4601F04EFA044619EED8
:104D1000100A0D4602F008F802460B4620462946C6
:104D200001F014FF9FED3A0B53EC102B01F03CFA0D
:104D300004465046CDF800A05246DDF804A088464F
:104D40000199534601F038FD9FED330BDDF808B0B3
:104D50000F460399064653EC102B584601F02CFDE4
:104D60002246434601F028FD32463B4601F01CFA3C
:104D70009FED2B0B044656EC107B3A4633460D460E
:104D800041EC180B02F017F870BBB0EE480AF0EED9
:104D9000680A01F09AF9009A51EC100B534601F0A1
:104DA000D5FE0D460399044658465A460B4601F077
:104DB000FBF902460B462046294601F0A9FA01F00C
:104DC000C1F920F0004000EE100AB7EE001AB4EE70
:104DD000410AF1EE10FA49F8680F0FDC04B0BDEC9F
:104DE000088B01B0BDE8F08F204629463A4633468D
:104DF00001F0DAFF0028F1D109F168094FF07E5087
:104E0000C9F8000004B0BDEC088B01B0BDE8F08F1C
:104E1000000000000000F03F00000000000010C093
:104E20000000000000000000FEE7000040F22C2817
:104E300040F2442940F2206640F2080740F2542430
:104E400040F26425C2F20008C2F20009C2F2000674
:104E5000C2F20007C2F20004C2F2000598F8000096
:104E600099ED000A0128384608BF3046D0ED000A07
:104E7000284608BF204690ED001A00F005F80120F2
:104E800000F006FEEAE7000040F2140140F20C4098
:104E9000C2F20001C2F20000102281EC020A81ED90
:104EA000021AFEF73BB9000010B58AB040F2882420
:104EB00001200021C2F200040890CDE90610CDE9DE
:104EC0000011CDE90211CDE9041169462046FBF736
:104ED00093FB2046FBF7ACFE20460221FBF720FBAC
:104EE0000AB010BDFDF78EF8FFF73AFAFFF75AF84F
:104EF000FEF7EEFFFEF7CAFFFFF7B0F8FFF78CF8FA
:104F0000FFF7D2FFFFF708F800F0B8F9FEE700005E
:104F10008AB04FF07C51002008910021C4F220108B
:104F2000C4F2F011CDE906014DF20A71C3F6234136
:104F300005910021C4F2F0214FF0000A9FEDC78ACD
:104F40009FEDC79A0990CDE90301CDE9010A40F22E
:104F50006C60C2F2000007AA0021B0EE480AF0EE31
:104F6000490AFFF755F940F2B468C2F2000804AAF2
:104F700040460021B0EE480AF0EE490AFFF748F932
:104F800040F22460C2F2000001AA0021B0EE480AFB
:104F9000F0EE490AFFF73CF98020FEF747FF40F2A8
:104FA000604540F22806C2F20005C2F2000628461B
:104FB0003146FBF74DFA05F1700B06F1300158460A
:104FC000FBF746FA05F1E00906F160014846FBF7F8
:104FD0003FFA05F5A87406F190012046FBF738FA70
:104FE00040F2080640F22C279FED9E8A9FED9E9A84
:104FF0009FED9EAA9FED9EFADFED9E8ADFED9E9AC1
:10500000C2F20006C2F20007BBEE04BABAEE04CA4E
:10501000B2EE04DAB3EE04EA49E000BF0130C6EDB7
:10502000010A786097ED0A0A4046FFF739F897EDD4
:105030000B1AD6ED010A87ED020A4046B0EE410A8E
:10504000FFF72EF897ED0C1AD6ED010A87ED030A4B
:105050004046B0EE410AFFF723F897ED0D1AD6ED62
:10506000010A87ED040A4046B0EE410AFFF718F83E
:1050700087ED050A97ED020A97ED031A97ED042ACA
:10508000BDEEC00A97ED053A10EE100ABDEEC10A5A
:1050900010EE101ABDEEC20A10EE102ABDEEC30AC1
:1050A00010EE103AFFF716F9012000F0F1FC30681D
:1050B00068612846FFF740FDD5E91810B5F90020D2
:1050C000B861306800EE102AB8EEC00AC5F8840056
:1050D000584687ED0A0AB963FFF72EFDD5E934106B
:1050E000B5F97020F861306800EE102AB8EEC00AF9
:1050F000C5F8F400484687ED0B0AF963FFF71CFD7D
:10510000D5E95010B5F9E0203862306800EE102A79
:10511000B8EEC00AC5F86401204687ED0C0A396470
:10512000FFF70AFDD5E96C10B5F95021786238789F
:1051300000EE102AB8EEC00A87ED0D0A7964A8B314
:10514000012839D0022895D196ED011A95ED1A2A39
:1051500097ED0A0A61EE020A4046FEF7A1FF96EDBE
:10516000011A95ED362A87ED020A97ED0B0A61EEDA
:10517000020A4046FEF794FF96ED011A95ED522A79
:1051800087ED030A97ED0C0A61EE020A4046FEF72E
:1051900087FF96ED011A95ED6E2A87ED040A97EDCB
:1051A0000D0A61EE020A404660E700BFC7E902AAA5
:1051B000C7E904AA5EE700BF7868F0EE480AB0F5D8
:1051C0007A6FFFF42BAFB0F5FA5FF0EE490AFFF407
:1051D00025AF42F6E0618842F0EE4A0AFFF41EAFC6
:1051E000B0F57A5FF0EE4B0AFFF418AF44F6206199
:1051F0008842F0EE4C0AFFF411AF45F2F0518842BC
:10520000F0EE4D0AFFF40AAF46F660518842F0EE28
:105210004E0AFFF403AFB0F5FA4FF0EE4F0AFFF479
:10522000FDAE48F6A0418842F0EE680AFFF4F6AE03
:1052300049F6404188420DD20021C4F248317160E4
:10524000411C796049F63F418842F0EE690A7FF4DB
:10525000E9AE0FE7C6F804A00CE700BF00401C460B
:1052600000803B45000048C30000C8C2000048C29F
:10527000000048420000C8420000484380B500F0EA
:1052800057FC002080BD0000B0B584B043698E4655
:1052900093B1846984B10589D0E9001C026928B200
:1052A000843D18BFC51CCDE9005360467346029487
:1052B00000F0D6FD04B0B0BD0589D0E90013028A24
:1052C00028B2843D18BFC51C03AC18467346009530
:1052D000019400F095FD0399012818BF00210846AC
:1052E00004B0B0BD2DE9F041044600F011FB40F2DE
:1052F0005816C2F20006306940F2FC650130306198
:105300003068C2F2000548B17069002840D13068A9
:10531000E16AC06A884298BF346039E0346030691D
:10532000012835D1284600F099FA05F1140000F063
:1053300095FA05F1280000F091FA05F13C0000F023
:105340008DFA05F1500000F089FA05F1640000F0D3
:1053500085FA05F1780000F081FA40F20428C2F2E3
:105360000008404600F07AFA08F11407384600F0C9
:1053700075FA06F1640000F071FA06F13C0000F0E5
:105380006DFA06F1500000F069FAC6F830807763D4
:105390007068B16801220131B160E16A8A4010434E
:1053A000706001EB810005EB8000211D00F098FA90
:1053B00000F0D2FA706988B13068E16AC06A884248
:1053C00028BFBDE8F0814EF60450CEF200004FF049
:1053D00080510160BFF34F8FBFF36F8FBDE8F08145
:1053E00040F2581540F2FC664EF60458C2F2000531
:1053F000C2F20006CEF200084FF0805703E000BF73
:10540000204600F0C1FAE868D0B100F081FAA86C3B
:10541000C468201D00F002FA286901382861E86894
:105420000138E86000F098FA94F851000228EAD0B8
:105430000128E5D070B9206B00F0A6FAE0E700BFC4
:1054400030680228DFD3C8F80070BFF34F8FBFF376
:105450006F8FD8E74FF0500080F31188BFF36F8F44
:10546000BFF34F8FFEE700002DE9F047DDE9098724
:105470008246386B089C00EB82000438994600296C
:1054800020F0070656D0087887F8340008780028FE
:105490004BD0487887F835004878002845D0887880
:1054A00087F83600887800283FD0C87887F837001A
:1054B000C878D0B3087987F838000879A8B3487954
:1054C00087F83900487980B3887987F83A00887975
:1054D00058B3C87987F83B00C87930B3087A87F8A1
:1054E0003C00087A08B3487A87F83D00487AE0B172
:1054F000887A87F83E00887AB8B1C87A87F83F0082
:10550000C87A90B1087B87F84000087B68B1487B77
:1055100087F84100487B40B1887B87F84200887B50
:1055200000281CBFC87B87F84300002087F8430091
:1055300003E000BF002087F834000025381D062C4A
:1055400028BF0624FC62C7E9114500F093F907F172
:10555000180000F08FF984F00700B861304651461A
:105560004A463F617F62FD6487F8505000F042F97F
:10557000B8F1000F386018BFC8F80070BDE8F087B8
:1055800008480068006880F308884FF0000080F346
:10559000148862B661B6BFF34F8FBFF36F8F00DF21
:1055A00000BF000008ED00E081B00020009040F254
:1055B000E800C2F2000000684FF0500181F311884A
:1055C000BFF36F8FBFF34F8F013007D0FEE700BFEF
:1055D000009830B9009820B9009810B900980028B8
:1055E000F6D001B07047000070B5044600F006FB2D
:1055F00040F2D01CC2F2000CDCF8040050B19CF860
:105600000000002818BF4FF000404FF0000574BBA9
:105610008DE000BF40F28870C2F20000C21D22F08F
:10562000070210F00701A0EB020318BF104600228A
:105630004FF47055CCE90602002918BF03F57055E8
:10564000411921F00701A1F10803CCF8043041E928
:105650000222191AC0E9003101208CF800004FF035
:105660000040CCE90211002C4FF000055FD0204033
:105670005DD124F0070000F11002600708BF04F1BB
:105680000802002A4FF0000551D0DCF808008242E1
:105690004DD8604650F818EFDEF8045095422CD2F1
:1056A000DEF80010C1B174464D68954218D20B68FF
:1056B000B3B15D68954217D21868A8B145689542A4
:1056C00016D20468A4B16568954215D22168A64631
:1056D0000029E9D111E000BF0CF118000DE000BF76
:1056E0008E46204609E000BF9E46084605E000BF02
:1056F0008646184601E000BFA646DCF804108E4539
:1057000014D00168DEF80040AB1A112B04604DD3B1
:105710000EEB0205680719D04FF0500080F3118896
:10572000BFF36F8FBFF34F8FFEE700BF002500F080
:1057300057FC68075BD04FF0500080F31188BFF32F
:105740006F8FBFF34F8F00BFFEE700BF0CF1180053
:105750006B60CEF8042000BF0368AB420AD2186821
:10576000A8420BD20368AB4204D218681A46A8427A
:10577000F2D304E00246184601E000BF1A4653681F
:105780006C68D618AE4202D11C44154654602B19E1
:10579000834207D1DCF80430984203D0D0E90003FB
:1057A00023446B60AA42286018BF156001F1080508
:1057B000DEF80400DCE90212091A9142CCF8081064
:1057C00038BFCCF80C109CF80010002918BF40F02E
:1057D0000040CEF80400DCF8100000210130CEF8C3
:1057E0000010CCF8100000F0FBFB6807A3D128469E
:1057F00070BD0000034645F2A950C0F600004FF00E
:10580000807C21F0010103E903106FF0020043F8EE
:10581000240CA3F1440043F8202C7047D0E9013256
:1058200001699A60D1F804C082688445536008BF5A
:105830004A60002202610868013808600868704701
:1058400044F28C53C2F20003036044F28C30C2F283
:105850000000086080201060704700004FF0FF31AA
:10586000024642F8081F00214260C0E9032201609D
:1058700070470000002101617047000010B5D1F8A9
:1058800000E01EF1010213D000F108046268136801
:10589000734511D853681C68744511D85A68146848
:1058A00074450FD854682368A4467345EED90BE0BD
:1058B0000269D2F804C007E09446224604E000BF23
:1058C0009C4601E094461A46C1F804C0CCF8081082
:1058D0008A605160086101680131016010BD0000FB
:1058E000D0F800C0436808619A684B608A609A6883
:1058F000996051600CF1010101607047DFF80C0004
:10590000016841F4700101607047000088ED00E01B
:105910004FF0500080F31188BFF36F8FBFF34F8FAC
:1059200040F2E800C2F2000001684A1C026009B1BE
:10593000704700BF4EF60450CEF20000006800062B
:1059400008BF70474FF0500080F31188BFF36F8F8E
:10595000BFF34F8FFEE7000040F2E800C2F2000004
:10596000016839B10139016018BF7047002080F328
:10597000118870474FF0500080F31188BFF36F8F8C
:10598000BFF34F8FFEE7000070B5002808BF70BD61
:1059900040F2D015C2F200050446287854F8041CE1
:1059A000002818BF4FF0004008420DD0A4F10806AF
:1059B00032689AB14FF0500080F31188BFF36F8FB7
:1059C000BFF34F8FFEE700BF4FF0500080F3118808
:1059D000BFF36F8FBFF34F8FFEE700BF21EA0000D8
:1059E00044F8040C00F00AF954F8041CA8680844B0
:1059F000A86005F1180000BF0368B3420AD2186816
:105A0000B04225D20368B34204D218681A46B042A5
:105A1000F2D301E0024618465368D418B44202D1CA
:105A20001944164651607318834206D16B68984238
:105A300003D0D0E9000319447160B242306018BF4E
:105A40001660686901306861BDE8704000F0C8BA4E
:105A50001A465368D418B442E5D1E1E74EF210007B
:105A6000CEF2000000210160816040F21001C2F21C
:105A70000001096844F6D352C1F26202A1FB02128E
:105A80004FF0FF3101EB9211416007210160704737
:105A900070B500283FD040F25815C2F20005044608
:105AA000A86948B14FF0500080F31188BFF36F8FA1
:105AB000BFF34F8FFEE700BFA8690130A8616E6A8F
:105AC00028680430FFF7AAFE50B12868A419446082
:105AD00013D3686B29680431FFF7D0FE16E000BFCE
