:020000040800F2
:1000000060AA002069020008F58D0008117500083B
:100010004D8D00084909000895E90008000000001E
:10002000000000000000000000000000B1A6000871
:10003000F11700080000000091940008FDB30008CB
:10004000830200088302000883020008830200087C
:10005000830200088302000899190008830200083F
:1000600083020008A1190008A919000883020008EA
:10007000E1120008830200088302000883020008DE
:10008000830200088302000883020008830200083C
:100090004D0900088302000883020008B119000816
:1000A000830200088302000883020008830200081C
:1000B000E9B40008F5B400088302000883020008D0
:1000C00083020008830200088302000883020008FC
:1000D0008302000875BA00088302000835BC0008D6
:1000E00083020008830200088302000883020008DC
:1000F00083020008830200088302000883020008CC
:1001000083020008830200088302000883020008BB
:1001100083020008830200088302000883020008AB
:1001200083020008ED120008F9120008C117000848
:10013000830200088302000883020008830200088B
:100140005909000883020008830200082191000871
:10015000CD170008D9170008E517000851BE0008A0
:10016000830200088302000883020008830200085B
:1001700083020008830200088302000800000000D8
:10018000830200088302000800F002F800F05CF827
:100190000AA090E8000C82448344AAF10107DA45E2
:1001A00001D100F051F8AFF2090EBAE80F0013F0D8
:1001B000010F18BFFB1A43F001031847E06F01005D
:1001C000007001000A444FF0000C10F8013B13F0DE
:1001D000070408BF10F8014B1D1108BF10F8015BA0
:1001E000641E05D010F8016B641E01F8016BF9D193
:1001F00013F0080F1EBF10F8014BAD1C0C1B09D1EA
:100200006D1E58BF01F801CBFAD505E014F8016B5B
:1002100001F8016B6D1EF9D59142D6D370470000ED
:100220000023002400250026103A28BF78C1FBD8FF
:10023000520728BF30C148BF0B6070471FB516F08A
:1002400000F81FBD10B510BD00F083F91146FFF78F
:10025000F5FF10F027FA00F0A1F903B4FFF7F2FF61
:1002600003BC00F0A5F90000094880470948004791
:10027000FEE7FEE7FEE7FEE7FEE7FEE7FEE7FEE756
:10028000FEE7FEE704480549054A064B70470000B3
:10029000D5B400088901000860A4002060AA0020ED
:1002A00060A6002060A6002053EA020C00F06980DE
:1002B0002DE9F04B4FF00006002B1FBFB3FA83F57A
:1002C00003FA05F424FA05F65E4012BF1643B2FAAB
:1002D00082F502FA05F4C5F120051EBF22FA05FCDD
:1002E00044EA0C04203556EA044C4FEA144418BF83
:1002F000641C4FF000084FF00009904271EB030CB2
:1003000039D3002919BFB1FA81F701FA07F6B0FA1B
:1003100080F700FA07F6C7F120071EBF20FA07FC96
:1003200046EA0C062037B6FBF4FCA7EB0507103FA6
:1003300007F01F0BCBF120062CFA06F60CFA0BFB8C
:1003400044BFB3460026202FA4BF5E464FF0000BEB
:100350005BEA060C08BF4FF0010B19EB0B0948EBE9
:100360000608ABFB027C06FB02CC0BFB03CCC01BDC
:1003700071EB0C01C1E70B46024641464846BDE819
:10038000F08B13B5084318BF4FF0FF300146AFF3B1
:100390000080BDE81C40704710B5431C02E010F817
:1003A000011B71B18107FAD14FF0013202C88C1ADA
:1003B0008C4314EAC211F9D0C01A0A0603D0C01E39
:1003C00010BDC01A10BD0A0401D0801E10BD090264
:1003D000FCD0401E10BD032A40F2308010F0030C08
:1003E00000F0158011F8013BBCF1020F624498BF88
:1003F00011F801CB00F8013B38BF11F8013BA2F125
:10040000040298BF00F801CB38BF00F8013B11F09F
:10041000030300F02580083AC0F0088051F8043B3F
:10042000083A51F804CBA0E80810F5E7121D5CBFAC
:1004300051F8043B40F8043BAFF30080D20724BFDF
:1004400011F8013B11F801CB48BF11F8012B24BF73
:1004500000F8013B00F801CB48BF00F8012B7047C2
:1004600010B5203AC0F00B80B1E81850A0E8185041
:10047000B1E81850A0E81850203ABFF4F5AF5FEA91
:10048000027C24BFB1E81850A0E8185044BF18C936
:1004900018C0BDE810405FEA827C24BF51F8043BDD
:1004A00040F8043B08BF7047D20728BF31F8023B31
:1004B00048BF11F8012B28BF20F8023B48BF00F8C5
:1004C000012B704702F0FF0343EA032242EA024293
:1004D00000F002B84FF0000200B51346944696466D
:1004E000203922BFA0E80C50A0E80C50B1F1200147
:1004F000BFF4F7AF090728BFA0E80C5048BF0CC0F5
:100500005DF804EB890028BF40F8042B08BF704752
:1005100048BF20F8022B11F0804F18BF00F8012BC4
:10052000704770477047704710B500F00DF80068CD
:1005300010BD10B5044600F007F8046010BD0000BF
:1005400000487047C801002000487047C8010020DB
:1005500070477546FFF7F4FFAE46050069465346FF
:1005600020F00700854618B020B5FFF78BFEBDE8E8
:1005700020404FF000064FF000074FF000084FF00A
:10058000000BAC46ACE8C009ACE8C009ACE8C00957
:10059000ACE8C00921F007018D46704710B504464C
:1005A000AFF300802046BDE81040FFF756BE0000C4
:1005B00001491820ABBEFEE72600020013F09EB9E9
:1005C00013F032BA0EF022BA00281CBF00210160DD
:1005D0007047000000281EBF0021C4F2B011016066
:1005E00070470000B1EEC00AB7EE001A81EE000AB3
:1005F000704700000EF054BA0020C4F2020010212F
:10060000012203F047BC00000020C4F202001021C8
:10061000002203F03FBC00007047000040F20040A1
:10062000C4F202000121012203F034BC40F2004078
:10063000C4F202000121002203F02CBCB0F900300A
:1006400040F2180CC2F2000C00EE103A9CED001AB9
:10065000B8EEC00A21EE000A81ED000AB0F90230BE
:100660009CED001A00EE103AB8EEC00A21EE000A26
:1006700081ED010AB0F9043000EE103AB8EEC00A7C
:1006800021EE000A81ED020AC3798179007A1B020A
:1006900043EA0040084400EE100A9FED041AB8EE49
:1006A000400A20EE010A82ED000A704700401C4219
:1006B0007047000010F0F4B80FF08CBAB0F90020C9
:1006C00000EE102A40F21802C2F2000292ED011A66
:1006D000B8EEC00A21EE000A81ED000AB0F902303E
:1006E00092ED011A00EE103AB8EEC00A21EE000AAF
:1006F00081ED010AB0F9040000EE100AB8EEC00A5C
:1007000021EE000A81ED020A7047000010B5FFF7E4
:1007100083FFFFF7CDFF0EF057FB08B1802402E006
:100720000EF004FA04460EF085FE00281CBF44F0CB
:10073000400010BD0EF074FD204310BD2DE9F04FB8
:1007400083B002920E460190FFF75EFF922000F008
:10075000C5F8922000F0C2F8552000F0BFF880469E
:10076000552000F0BBF88346552000F0B7F88246CC
:10077000552000F0B3F80446552000F0AFF80746C6
:10078000552000F0ABF80546FFF736FF48EA0B208E
:1007900040F2180900B2C2F2000900EE100A99ED09
:1007A000001AB8EEC00A4AEA042021EE000A00B29C
:1007B00086ED000A00EE100A47EA052000B299ED26
:1007C000001A02EE100AB8EEC00AB8EEC22A21EEF4
:1007D000000A21EE021A86ED010A86ED021AFFF7E1
:1007E00025FF802000F07AF8552000F077F80646C3
:1007F000552000F073F8552000F070F8824655201F
:1008000000F06CF80546552000F068F88346552046
:1008100000F064F80446552000F060F807465520C3
:1008200000F05CF88046FFF7F9FE0F2E25D14AEA6A
:10083000052000B200EE100A99ED011AB8EEC00AC8
:1008400001994BEA042021EE000A00B281ED000A72
:1008500000EE100A47EA082000B299ED011A02EEF4
:10086000100AB8EEC00AB8EEC22A21EE000A21EE44
:10087000021A81ED010A81ED021AFFF7C5FEA220DE
:1008800000F02CF8A22000F029F8552000F026F8FE
:100890000446552000F022F80546FFF7ADFEE000C3
:1008A00040EA55114FF600020023CFF6FF72B3EB7A
:1008B000902F18BF114300EE101AB8EEC00AB4EE24
:1008C000001A20EE010AB3EE071A029830EE010A70
:1008D00080ED000A03B0BDE8F08F000080B582B063
:1008E0008DF8070043F26C604FF47A7CC2F200008E
:1008F0000DF107010DF106020123CDF800C005F04E
:10090000D3FA9DF8060002B080BD0000027840785E
:10091000D20042EA50104FF6000C0023CFF6FF7CC5
:10092000B3EB922F18BF40EA0C0000EE100AB8EEAD
:10093000C00AB4EE001A20EE010AB3EE071A30EE38
:10094000010A81ED000A7047FEE7000042F63C60B4
:10095000C2F2000002F02EBC42F66460C2F2000057
:1009600002F028BC10B58AB00024CDE90314082198
:10097000DDE90CECCDE907440791110A8DF804106C
:10098000190A8DF806104FEA1E218DF808104FEA5B
:100990001C218DF805208DF807308DF80A1003A969
:1009A00001AA09ABCDE905448DF809E08DF80BC02B
:1009B00002F08CFA0AB010BD80B58AB04FF0000E7C
:1009C000CDE9031E0821DDF830C0CDE907EE07911F
:1009D000110A8DF80410190A8DF806104FEA1C61EF
:1009E0008DF808104FEA1C418DF809104FEA1C21C0
:1009F0008DF805208DF807308DF80A1003A901AA9B
:100A000009ABCDE905EE8DF80BC002F05FFA0AB034
:100A100080BD00002DE9F0418AB00DF1480E0024A0
:100A2000DDF854C09EE82041DDE91076CDE90314DD
:100A30000821CDE9074407918DF804208DF8053091
:100A400003A901AA09ABCDE905448DF806708DF81C
:100A500007608DF808508DF809808DF80AE08DF850
:100A60000BC002F033FA0AB0BDE8F08180B58AB05D
:100A70004FF6EC23CFF6FF739A42C8BF134640F2FD
:100A8000145201F5A0719342A8BF134600220391AE
:100A900008210892CDE906220791A121CDE904227F
:100AA0008DF80410ADF8083003A901AA09AB02F0D3
:100AB0000DFA0AB080BD000080B58AB001F5A071C2
:100AC0000022039108210892CDE90622079188218E
:100AD000CDE904228DF80410CDF80520029203A977
:100AE00001AA09AB02F0F2F90AB080BD00207047FC
:100AF0000020704710B542F6D024C2F2000441F63F
:100B00007441C2F20001204600220BF01BFD41F2AD
:100B10007441C2F2000120460BF006FD002010BD1A
:100B200070B542F6D02549F6EC46C2F20005C2F295
:100B300000060C46284631460BF0F6FC28460BF022
:100B4000CDFC20680121A6F84000002086F8421064
:100B500070BD00000020704710B542F6D022C2F2EE
:100B60000002D2F8BC22D2F81432002B1CBF0120A4
:100B700010BD42F6D024C2F200040A4601462046C7
:100B80000BF0E0FC2046BDE810400BF06BBD000010
:100B9000B0B500284FF6FF7318BF002902D198B2F4
:100BA000B0BD00BF4A1E46F2D06501F0030C032A17
:100BB000C0F6010528D321F0030100BF10F8042B73
:100BC000043982EA0302D2B235F8122010F8034C3D
:100BD00082EA132383EA0403DBB235F8133010F8FA
:100BE000024C83EA122282EA0402D2B235F81220C1
:100BF00010F8014C82EA132383EA0403DBB235F8D0
:100C0000133083EA1223D9D1BCF1000FC7D0017889
:100C10009AB25940C9B235F81110BCF1010F81EAFE
:100C20001223BCD04278DBB25A4035F812E0BCF156
:100C3000020F8EEA1123B2D08078D9B2484035F83D
:100C4000100080EA1E2398B2B0BD0000B0B559B1C3
:100C50004A1E92B2032A46F2D05201F0030CC0F6AB
:100C6000010205D2FF211CE0FF21C8B2B0BD00BFC8
:100C700021F0030E0023FF2110F8044BC9B261409C
:100C800010F8035C515C10F8024C6940515C10F89C
:100C9000015C6140515C04336940515C9CB2744515
:100CA000EAD1BCF1000F10D00378BCF1010F81EA4A
:100CB0000301515C09D04378BCF1020F81EA0301C2
:100CC000515C02D080784840115CC8B2B0BD0000D1
:100CD000B0B582B040F20D3188421DDC40F24111C6
:100CE000884200F0738040F20121884200F08A803F
:100CF00040F20D31884240F0EB8040F24C40C2F2AD
:100D0000000040F28C31D0E90620C2F200010A60F6
:100D1000486002B0B0BD00BFA0F2016103292DD828
:100D20000FF20400DFE811F00400D6009600F8008E
:100D300040F24C40C2F20000018B09BA090CB1F537
:100D4000037F4180C0F23681A1F503710B2900F2C7
:100D5000BF80DFE811F00D00C101BD00BD00CF0173
:100D6000D501DD01E501ED01F501FD01050200BF41
:100D7000807E40F22B31C2F2000175E140F20E316B
:100D8000884200F09B8040F20F31884240F0A08002
:100D900040F24C40C2F20000017E42F2B45301EB3B
:100DA0008102C2F2000303F81210418B03EB4202EE
:100DB00009BA838BC08B090C518019BA00BA090C8F
:100DC000000C9180D08002B0B0BD00BF40F24C401A
:100DD000C2F20000B0F91C109FEDBA1A00EE101A12
:100DE000B8EEC00A80EE010AC18F428B8187C18BA9
:100DF000A0F84420C187417E80F8461080ED100A9B
:100E000002B0B0BD43F6E01140F24C43C2F2000123
:100E1000C2F2000348881A8B088010BA5A8B000C63
:100E20004880D0BA00EE100A988BB8EEC00A00BA1B
:100E3000000C0881987F81ED010A887208688A6831
:100E400010EE101A03F1040CCDF800C007F080FF7B
:100E500002B0B0BD40F24C40C2F20000018B6FF016
:100E6000C8030ABA110C03EB12420A2A418000F2AD
:100E70007B80DFE812F00B00EB002D002D002D0031
:100E8000EF002D002D002D002D00FD0040F2B4518B
:100E9000C2F200010A7BC37E90F81FC0808B03F072
:100EA000010302F0FB0200BA42EA8302000C0A735B
:100EB000088181F800C002B0B0BD00BF40F24C40D4
:100EC000C2F20000806940F28C31C2F200018860F9
:100ED00002B0B0BD40F24C40C2F20000018B09BA32
:100EE000090C0429418033DC032900F08F80042998
:100EF000EED1418B40F21A7209BA838BC08B090C78
:100F0000C2F20002D18019BA00BA090C000C51815A
:100F1000D08102B0B0BD00BF40F24C40C2F2000030
:100F2000018B09BA090CB1F5997F418056D040F286
:100F3000311291422AD0CC29CAD140F25C31827E52
:100F4000C07EC2F200018A71887002B0B0BD00BFDD
:100F500005296DD0D129BBD1C06940F2403100BA1A
:100F6000C2F2000126E100BF40F22F12914200F0D0
:100F7000AB80B1F5987FABD1C06940F2983100BA2F
:100F8000C2F20001486002B0B0BD00BF40F60401EB
:100F9000827EC2F20001C37E057F447FCA72827FD7
:100FA000C07F0B744D758C76CA7781F8240002B02F
:100FB000B0BD00BF012900F0DB80652900F0F4809E
:100FC000D0297FF485AF418B40F2703209BA808B13
:100FD000090CC2F20002118025E000BF40F60401B6
:100FE000827EC2F20001C37E057F447F81F8292002
:100FF000827FC07F81F82E3081F8335081F83840ED
:1010000081F84220887102B0B0BD00BF418B40F230
:101010001A7209BA838B090CC2F20002118019BA44
:10102000090CC08B518000BA000C908002B0B0BD9A
:10103000418B808B09BA40F21A7200BA090CC2F2D5
:101040000002000CD181908102B0B0BD827EC37ECF
:10105000017F23E0C17E407F01F00F0141EA0010D3
:1010600040F22A31C2F20001087002B0B0BD00BFE8
:1010700040F2B45CC2F2000C827E9CF80CE0C37EAD
:1010800002F001050EF0F804017F44EA450503F083
:101090000104254461F382058CF80C5043EA0222D6
:1010A00040F2C453C2F200035A81427F807F42EA79
:1010B0000121198140F29831C2F20001087202B098
:1010C000B0BD00BF00007042C06940F2983100BA64
:1010D000C2F200016EE000BF418BC06909BA40F264
:1010E0005032090CC2F2000200BA9180106002B0C6
:1010F000B0BD00BFC06940F2DC71C2F2000159E02E
:10110000C06940F2DC71C2F20001486002B0B0BDBB
:10111000C06940F2DC71C2F20001886002B0B0BD6B
:10112000C06940F2DC71C2F20001C86002B0B0BD1B
:10113000C06940F2DC71C2F20001086102B0B0BDCA
:10114000C06940F2DC71C2F20001486102B0B0BD7A
:10115000C06940F2DC71C2F20001886102B0B0BD2A
:10116000C06940F2DC71C2F20001C86102B0B0BDDA
:1011700040F28031C2F200010A78C37E02F00F0211
:1011800042EA0312838B0A701ABAC08B120CA1F8C0
:10119000012000BA40F23331000CC2F20001A1F884
:1011A000010002B0B0BD00BFC06940F2383100BAE2
:1011B000C2F20001086002B0B0BD000040F24C4035
:1011C000C2F20000016A40F20222914220DC1129A1
:1011D00044D0122948D0B1F5A17F49D1B0F91C10F3
:1011E0009FED3E1A00EE101AB8EEC00A80EE010A1A
:1011F000B0F84A10428BA0F84810C18BA0F85020DC
:10120000A0F84A10417E80F8521080ED130A704712
:1012100040F2072291422DD0B1F5017F44D040F237
:101220000322914218BF704743F6E011C2F2000159
:101230004A8B038B0A831ABA438B120C4A83DABA9D
:1012400000EE102A828B807F12BAB8EEC00A120C10
:1012500081ED070A0A8481F822007047D0E906125E
:10126000C0E90212704700BFD0E90612C0E90412BB
:10127000704700BFB0F85610028BA0F8541011BA96
:10128000428B090CA0F85610D1BA00EE101A818BCF
:10129000B8EEC00A09BA090CA0F85C10817F80ED95
:1012A000160A80F85E10704743F6E011C2F20001A2
:1012B000CA8C038B8A841ABA438B120CCA84DABA9A
:1012C00000EE102A828B807F12BAB8EEC00A120C90
:1012D00081ED0A0A8A8581F82E007047000070426D
:1012E00043F21400C2F2000002F090BA43F274001C
:1012F000C2F2000002F08ABA80B500F009F842F6A6
:101300009460C2F20000BDE8804002F07FBA0000A5
:10131000B0B543F26C60C2F20000C16C46F2A0406E
:10132000C4F202000968A0F14802914226D946F2AF
:101330009F0350F89C2CC4F2020399424FF0200303
:101340006CDD46F23F45C4F20205A94200F38080FD
:1013500046F2A005C4F20205A94200F0AF8046F2B1
:101360001045C4F20205A94200F0D58046F2284398
:10137000C4F20203994200F0CC808BE146F258029D
:10138000C4F2020202F16003994223D946F29F039C
:10139000D2F8A823C4F2020399424FF0200340F38D
:1013A000938046F23F45C4F20205A94200F3D6807D
:1013B00046F2A005C4F20205A94200F0F78046F209
:1013C0001045C4F20205A94200F03E8146F22843CE
:1013D00034E100BF46F29F059142C4F202054FD9A5
:1013E00052F854CCA9424FF020044FDC46F23F059E
:1013F000C4F20205A94240F3E58046F24005C4F27A
:101400000205A94200F0D88046F27005C4F2020538
:10141000A94200F0E68046F28805DBE046F23F058F
:10142000C4F20205A94267DD46F24005C4F2020596
:10143000A94243D046F27005C4F20205A9426AD01F
:1014400046F28803C4F20203994214D022E100BF9D
:1014500046F24045C4F20205A9422FD046F270453B
:10146000C4F20205A94256D046F28843C4F20203F0
:10147000994240F00F814FF4006313424ED140E196
:1014800052F858CCA9424FF02004AFDD46F23F4558
:10149000C4F20205A94279DC46F2A005C4F20205B5
:1014A000A94200F0898046F21045C4F20205A94223
:1014B00000F0978046F228458CE000BF4FF40013FF
:1014C00013422BD11DE100BF46F23F05C4F20205D5
:1014D000A94240F3AB8046F24005C4F20205A9429E
:1014E00064D046F27005C4F20205A94200F0AC8057
:1014F00046F2880340E000BF46F21005C4F2020540
:10150000A94208D046F22803C4F20203994240F0EF
:10151000C1804FF40063134200F0F38046F2704242
:10152000C4F2020291420BD046F28842C4F2020297
:10153000914209D14FF4006240F8942CF2E000BFD0
:10154000202240F8942CEDE04FF00062814208BF69
:101550004FF4001240F8942CE4E000BF46F24045FE
:10156000C4F20205A94221D046F27045C4F2020538
:10157000A94269D046F28843C4F20203994240F07E
:10158000AB804FF40063134260D1BAE046F24045AD
:10159000C4F20205A9420FD046F27045C4F202051A
:1015A000A9421ED046F2884514E000BF4FF4001354
:1015B00013424BD1A5E000BF4FF4001404EA0C0520
:1015C000A5B99EE046F21005C4F20205A94208D072
:1015D00046F22805C4F20205A94240F087804FF484
:1015E000006404EA0C05002D00F08B8099422DD890
:1015F000914259D946F27000C4F20200814200F0D3
:10160000818046F28800C4F20200814200F07E80B0
:1016100046F2A000C4F2020081420CBF4FF4001059
:101620004FF0006042F84C0C7CE000BF46F2100521
:10163000C4F20205A94207D046F22803C4F202030D
:10164000994249D14FF4006313425AD046F21042F6
:10165000C4F20202914219D046F22842C4F20202B8
:1016600091420DD046F24042C4F2020291420CBFB8
:101670004FF400114FF0006140F8981C52E000BF99
:101680004FF4006140F8981C4CE000BF202140F866
:10169000981C47E04FF00063814208BF4FF40013ED
:1016A00013427FF43BAF2CE046F21000C4F202007C
:1016B000814231D046F22800C4F2020081422DD08E
:1016C00046F24000C4F2020081420CBF4FF4001009
:1016D0004FF0006024E000BF4FF00063814208BF7C
:1016E0004FF400131342B1D10BE000BF4FF0006480
:1016F000814208BF4FF4001404EA0C05002D7FF46A
:1017000075AFB0BD202042F84C0C0BE04FF40060E8
:1017100042F84C0C06E000BF202001E04FF40060CE
:1017200042F8500C40F28465C2F20005287800248B
:101730008007C4F2020421D4687880072FD4A878E7
:1017400080070CD5A878102100F0FD00A870A878BB
:10175000012240F00400A870204602F09BFB0EF02E
:10176000A3FD2878400758BFB0BD43F61040C4F22F
:101770000100016841F001010160B0BD287801213C
:1017800000F0FD0028702878012240F00400287045
:1017900004F5806002F07EFB68788007CFD568781A
:1017A000102100F0FD0068706878012240F004000C
:1017B0006870204602F06EFBA8788007CFD5C1E79D
:1017C00042F6F460C2F2000002F020B842F6547013
:1017D000C2F2000002F01AB843F2D400C2F20000D4
:1017E00002F014B842F6B470C2F2000002F00EB873
:1017F00070470000B0B540F25450C2F200000078CB
:10180000032800F2B98042F2FC44C2F20004DFE88F
:1018100000F00345113500BF94ED000ADFED570AD3
:10182000002504F11C00656084F8B45007F050FDF9
:10183000A1E000BF40F22040C2F20000017801297F
:1018400058D140F2C451C2F200014989B6EE082ACB
:1018500000EE101A40F2B451C2F200010989B8EE4C
:10186000400A01EE101AB8EE411A21EE021AB4EE47
:10187000401AF1EE10FA6DDD008C04E040F2BE106B
:10188000C2F2000000784FF48771484300EE100A5E
:10189000F8EEC00AC4ED010A5EE000BF40F220404D
:1018A000C2F200000078012818BFB0BD40F2C45059
:1018B000C2F2000040899FED322A00EE100A40F289
:1018C000B450C2F200000089B8EE401A00EE100ACF
:1018D000B8EE400A20EE022A94ED020AB4EE412A44
:1018E000F1EE10FA0CDD9FED271A30EE011A84EDAF
:1018F000031A07E00020DFED210A60602CE000BF42
:1019000094ED031A9FED202A30EE410AB4EE420A0C
:101910000120F1EE10FA84F8B40003DD9FED1D1AEA
:1019200009E000BF9FED191AB4EE410AF1EE10FA7A
:1019300003DA9FED171A30EE010ADFED100AB1EE5F
:10194000400A04F1680007F0C3FC94ED000AD4EDEE
:10195000230A06E0D4ED010A94ED000A002084F881
:10196000B40004F11C0007F0B3FC94ED100ABDEEC6
:10197000C00A10EE105AE582B0BD00BF00000000A2
:101980009A99593F000080C400008045000080C53E
:1019900000000046000000C6012002F09BB90000D4
:1019A000082002F097B90000102002F093B900005F
:1019B000202002F08FB9000072B600BFFEE70000E1
:1019C00070B52DED028B044690F8C00001280DD0B3
:1019D000002878D194ED010AD4ED020A04F1280020
:1019E00007F076FC94ED130A68E000BF94ED080A56
:1019F000DFED390A04F1740007F098FB40F2200093
:101A0000C2F2000094ED030A94ED081A90ED013A39
:101A100094ED262A90ED004A23EE003AB0EEC10A7A
:101A2000B2EE0E1A22EE442AB4EE410AF1EE10FA9A
:101A300032EE438A02DDB5EE001A15E010EE100A10
:101A400014F064FB9FED220B024656EC105B0B4634
:101A50002846314614F06CFA2A46334613F0F6FE57
:101A600013F00EFE01EE100A94ED010A04F12800B5
:101A700068EE010A07F02CFCB0EEC80A4FF4C870FB
:101A8000B5EE408AB6EE001AF1EE10FAC4BF4FF67A
:101A90007060CFF6FF70B4EE410AF1EE10FAD8BFD5
:101AA000002094ED130A01EE100A42F2C471B8EE60
:101AB000C11AC2F2000130EE010A0860BDEEC00A90
:101AC00010EE100AE084BDEC028B70BD00BF00BFB9
:101AD0000000000000002E40000000000000000098
:101AE0002DE9F04F81B02DED028B84B040F6480017
:101AF000C2F2000090ED070A9FEDAF1A42F684098A
:101B000040F2884BC2F20009C2F2000B20EE010A3B
:101B100099ED011A9FEDA92A9FEDA93ABBF81A0089
:101B200040F6DC2121EE021A20EE030A081A30EEFC
:101B3000010A01EE100A9FEDA32AB8EEC11A81EE48
:101B4000021A40F2D860C2F2000089ED010A90ED5D
:101B5000010ABBF802A0B1EE400A89ED060A00EEC8
:101B600010AA9FED998AB8EE400A89ED040A01682F
:101B7000BBF8080031EE011A21EE080AB4EE480A5B
:101B8000F1EE10FAC9F81410A9F8240002DD9FED57
:101B9000910A08E09FED8D2AB4EE420AF1EE10FAA8
:101BA00005DA9FED8B0A21EE081A31EE000A40F2A9
:101BB0005C40C2F20000006889ED660A14F0A6FAE3
:101BC0000546D9F88C01D9F8C8400E4614F09EFAA3
:101BD0009FED6F0B53EC102BCDE9022314F09EF810
:101BE0009FED6D0B0746884653EC102B2846314677
:101BF000CDE9002314F092F83A46434613F072FD03
:101C000013F03EFD40F25441C9F88C0140F26040AF
:101C1000C2F20001C2F2000009680068C9F89C1114
:101C200014F074FA054620460E4614F06FFA9FED44
:101C30005C0B53EC102B14F071F89FED5B0B04461A
:101C40000F4653EC102B2846314614F067F8224615
:101C50003B4613F047FD13F013FDBBF80E1048F29E
:101C60001372511A01EE101A9FED5B0AB8EEC11AF9
:101C700081EE001AC9F8C800BBF81400A9F8E80002
:101C800031EE012A22EE081AB4EE481AF1EE10FAEB
:101C900002DD9FED501A08E09FED4C3AB4EE431A76
:101CA000F1EE10FA05DA9FED4A1A22EE082A32EE1A
:101CB000011A42F2F840A0EB0A0002EE100AB8EE58
:101CC000C22A82EE000A89ED351A9FED441A40F2CD
:101CD0005840C2F200000068C9F8D80030EE002A6F
:101CE00022EE010AB4EE410AF1EE10FA06DD9FED94
:101CF0003E0A22EE011A31EE000A0CE09FED383A5E
:101D0000B4EE430AF1EE10FA05DA9FED360A22EE40
:101D1000011A31EE000A10EE100A14F0F7F942F23F
:101D2000C878C2F200080446D8F808000D4614F03E
:101D3000EDF9DDE9022313F0F1FFDDE900230646AA
:101D40000F462046294613F0E9FF32463B4613F082
:101D5000C9FC13F095FC08EE100A20F0004014F0C6
:101D6000D5F99FED130B53EC102B14F01DFA9FEDDA
:101D70001F0A002818BFB0EE408A88ED028A04B01E
:101D8000BDEC028B01B0BDE8F08F00BF00BF00BF0B
:101D9000666666666666E63F333333333333D33F76
:101DA0009A9999999999E93F9A9999999999C93FD5
:101DB0009A9999999999A93FE12E65423333333F16
:101DC0009A99993E00F8FF4500003443000034C35F
:101DD0000000B4430000B4C300FF7F47DB0F49405D
:101DE000DB0F49C0DB0FC940DB0FC9C0000000009A
:101DF0002DE9F04F81B02DED048B82B040F20C67DD
:101E00000021C2F20007C4F248410020C7E90010D7
:101E100043F23331C4F20311BB464BF80C1F49F6B1
:101E20009A11C4F2A111BA464AF8181F0021C4F24F
:101E300020210025C7E90701C4F2A0053946002288
:101E40004CF6CD4641F8305F0024C4F2C822C3F6F8
:101E5000CC560191C4F2E00443F23331BA6000255C
:101E6000C4F223114CF6CD420023C7E90F4607F117
:101E70004404C4F22015C3F64C52C4F28C230FC4A0
:101E80000021C7E90460C7E90D05C4F2E1314DF254
:101E90000A7200234CF28F2507F1540640F2000825
:101EA0004CF28F2EC3F6A342C4F2FA334FF07D54A6
:101EB000C3F6F5453EC607F16801C4F22008C3F633
:101EC000755E81E8084140F25C7446F2666100226A
:101ED000C2F20004C4F2A601C4F2A0120023C4E9B5
:101EE0000010A26000214DF20A72C4F27A4342F659
:101EF000840540F2000CC4F22031C3F6234226468A
:101F0000C4E907034FF08240C2F20005B946C4F2AB
:101F1000482CC4E9042344F80C1F46F8180F28463F
:101F2000BC2149F8248FC7E90AECC7F874C0FEF752
:101F3000D1FA05F1C400BC21FEF7CCFA05F5C47056
:101F4000BC21FEF7C7FA42F2C8789FED498AC2F277
:101F500000089FED460A08F1240000213A46F0EE01
:101F6000480A07F07DFA9FED430ADFED430A05F1C9
:101F7000280000215A4607F073FA9FED409A05F1B8
:101F8000740000215246B0EE490AF0EE480A07F00C
:101F900067FA9FED3B0ADFED3B0A05F5D87000219B
:101FA000224607F05DFA9FED380A05F5FE70002124
:101FB0003246F0EE480A07F053FADFED340A05F135
:101FC000EC0000214A46B0EE490A07F049FA9FEDBD
:101FD000300A019A05F59C700021F0EE480A07F0DE
:101FE0003FFA40F28840C2F20000408B9FED291A70
:101FF00000EE100AB8EE400A9FED272A31EE400AA3
:1020000080EE020A9FED251A4CF20000C4F22D501A
:10201000C8F8040041F20030C4F20770C8F810009C
:1020200030EE002A22EE010AB4EE410AF1EE10FA77
:1020300006DD9FED1D0A22EE011A31EE000A0CE0CA
:102040009FED173AB4EE430AF1EE10FA05DA9FED70
:10205000150A22EE011A31EE000A88ED050A02B0D7
:10206000BDEC048B01B0BDE8F08F00BF00A08C4533
:10207000000000000000E1440000DC420080BB449E
:102080000000804600007A440000A04300000243A4
:1020900000002F4400C02D4500F8FF4500003443E8
:1020A000000034C30000B4430000B4C300000000CB
:1020B000B0B5D0ED020AB6EE000A044690F8C000B2
:1020C000F4EE400AF1EE10FA0CDABEEE000AF4EE7D
:1020D000400AF1EE10FA05DD20B9012084F8C000B5
:1020E00002E000BF012873D194ED070A9FED6C1A3E
:1020F000B4EE410AF1EE10FA06DC9FED6A1AB4EE76
:10210000410AF1EE10FA03DAB0EE410A84ED071A43
:1021100040F2A430C2F2000094ED051AC07A30EE0D
:10212000410A022884ED080A5BD094ED080ADFED2D
:102130005E0A04F1740007F0CBF840F22005C2F209
:10214000000594ED031A94ED262A95ED013A95EDDC
:10215000004A94ED010A21EE031A24EE422A72EE9F
:10216000410A04F1280007F0B3F8606920F000404C
:1021700013F0CCFF02460B4613F0B4FA9FED420B6E
:1021800053EC102B13F0AEFA9FED410B53EC102BD8
:1021900013F0C4FD41EC100B11F09EFD51EC100B3F
:1021A0009FED3D0B53EC102B13F0B8FD13F0E4FC46
:1021B000A86094ED130A01EE100AB8EEC11A31EED0
:1021C000400ABDEEC00A10EE100AE08411E000BF24
:1021D00040F2A431C2F20001C97A62690229E261C7
:1021E0001ED104F1280007F031F904F1740007F062
:1021F0002DF9B4F9261046F2A810814202DDE084E0
:10220000B0BD00BF49F65760CFF6FF708142C8BF2E
:10221000B0BD49F65860CFF6FF70E084B0BD00BF96
:102220000028E6D194ED010A04F1280007F050F8E7
:10223000606920F0004013F069FF02460B4613F07E
:1022400051FA9FED110B53EC102B13F04BFA9FED4D
:10225000100B53EC102B13F061FD41EC100B11F03F
:102260003BFD51EC100B9FED0C0B53EC102B13F0BE
:1022700055FD13F081FC40F22001C2F2000188609C
:1022800097E700BF00BF00BF00000000008048C00B
:102290005F40D42247DF91BF0000000000006EC005
:1022A00000004842000020C20000000000000000C2
:1022B0002DE9F0412DED068B90ED01AA0446B5EE17
:1022C00040AAB0EE609AF1EE10FAB0EE408A05D165
:1022D00000209FED59AAC4F2842060609FED570A48
:1022E00040F20008B4EE408AF1EE10FAA8BFB0EE5A
:1022F000408ABAEE0E0AB4EE409AF1EE10FAD8BF58
:10230000B0EE409AB4EE498ACCF24838F1EE10FAB9
:10231000C4F8008026D142F2C87042F68404C2F2AA
:1023200000000021C2F2000480F8221094F8840119
:1023300084F8C010E161C4F8088038B9D4F8D80036
:10234000C4F8E00004F59C7007F080F8012084F8E0
:10235000840184ED389A84ED34AABDEC068BBDE887
:10236000F08100BF42F68407C2F20007D7F8D80018
:1023700013F0CCFE054619EE100A0E4613F0C6FE09
:102380009FED290B53EC102B13F0ACF92A46334682
:1023900013F003FF30B997ED320A9FED2D1A9FED30
:1023A0002D2A14E018EE100A13F0B0FE9FED200B5A
:1023B00053EC102B13F096F92A46334613F0E6FE41
:1023C00000BB97ED320A9FED201A9FED202A20EEE8
:1023D000010A30EE02AA84ED01AA42F2C870C2F2EC
:1023E0000000002180F8221087F8C010F961C7F8BA
:1023F000088087F8841187ED33AABDEC068BBDE811
:10240000F08100BFB5EE40AAF1EE10FA08DAB5EEA1
:1024100040AAF1EE10FAE0DC9FED0AAADBE700BF6C
:102420009FED07AAD7E700BF000000000000F03FC3
:10243000000000000000F0BF0000844200000042E5
:102440009A992B429A992BC2CDCC0C3F9999EDC108
:10245000CDCCCC3E67661E428AB042F66460C2F2C2
:10246000000002210224FEF727FBFFF7C1FC40F227
:10247000A430C2F20000C47264200FF015FBFFF715
:102480002FFB42F68405C2F200056869D5F8D81022
:10249000E86105F1C400079005F5C470069005F5E4
:1024A0009C70099005F1EC00089005F17400D5F8D6
:1024B0009C2140F27056059005F128009FEDC08ADE
:1024C0009FEDC09A9FEDC0AA9FEDC0BA9FEDC0CA14
:1024D0009FEDC0DA9FEDC0EA9FEDC0FADFEDC08A44
:1024E000DFEDC09ADFEDC0AADFEDC0BADFEDC0CAF4
:1024F000C2F200064FF0000B049005F5FE7005F5E2
:10250000D87AC5F8E010C5F8A4210390CDF808A04A
:102510004FE000BF42F63C60C2F200000121002201
:10252000FEF7A4FA01200FF0BFFA42F66464C2F28B
:102530000004204602210022FEF798FA01200FF045
:10254000B3FA20464FF4FF7100220023CDF800B00B
:10255000CDF804B0FEF706FA099806F077FF089860
:1025600006F074FFD5F8D800A5F8EAB0C5F8E00089
:10257000059806F06BFF049806F068FF6869A5F8F7
:1025800026B0E861039806F061FF504606F05EFF52
:10259000D5ED671AA5F8AEB1B0EE611AC5ED691AAE
:1025A00095ED630AD5ED730A0CF0F6F901200FF0F2
:1025B0007BFAFFF795FA307B717B884200F0BB8095
:1025C00000285FD1DDF81080404606F03FFFDDF8BF
:1025D0001490DDF80CA0484606F038FF029806F08B
:1025E00035FF504606F032FF089806F02FFF099895
:1025F00006F02CFF40F20C64C2F2000404F10C025D
:1026000040460021B0EE480AF0EE490A06F028FFE5
:1026100004F1180248465746DDF808A00021B0EE44
:102620004A0AF0EE4B0AA04606F01AFF40F25C742C
:10263000C2F2000404F10C0250460021B0EE4C0A34
:10264000F0EE4D0A06F00CFF04F1180238460021A6
:10265000B0EE4E0AF0EE4B0A06F002FF089808F1C1
:1026600024020021B0EE4A0AF0EE4F0A06F0F8FE0E
:10267000099808F130020021B0EE680AF0EE4B0A2A
:1026800006F0EEFE40F25650C2F20000007802283A
:1026900051D1504606F0DAFEDDF80C80404606F0D7
:1026A000D5FE089F384606F0D1FE099C204606F06C
:1026B000CDFE40F20C69C2F20009049809F13C0217
:1026C0000021B0EE480AF0EE490A06F0C9FE05986E
:1026D00009F148020021B0EE4A0AF0EE4B0A06F07A
:1026E000BFFE09F1540250460021B0EE4C0AF0EE54
:1026F000690A06F0B5FE09F1600240460021B0EE1D
:102700004E0AF0EE6A0A06F0ABFE09F16C0238469A
:102710000021B0EE6B0AF0EE6C0A06F0A1FE40F26A
:102720005C7220460021C2F20002B0EE6B0AF0EEAD
:102730004B0A06F095FE307B70730798FFF7B8FCE4
:102740000699284600F056F840F2A430C2F2000084
:10275000C07A00F0FD0001287FF4DCAEB5F9262038
:1027600042F63C60B5F9EAB0B5F9AE71C2F20000CC
:102770000121FEF77BF901200FF096F92C46354632
:1027800042F66466C2F20006304602215A464FF015
:10279000000BFEF76BF901200FF086F930464FF47D
:1027A000FF710022002300972E462546CDF804B085
:1027B000FEF7D8F894ED671AD4ED691AF0E600BF79
:1027C0000000E1440000DC420080BB440000000047
:1027D0000000804600007A440000A043000002434D
:1027E00000002F440080A2440000484300401C45E4
:1027F0000000C84270B542F2C876C2F2000696F8F0
:1028000022200C46022A054642D0012A24D0002A62
:1028100018BF70BDD5ED020AB6EE000AF4EE400A0C
:102820000020F1EE10FA85F8C1004BDABEEE000A86
:10283000F4EE400AF1EE10FA44DD0121284600F8DA
:10284000C01F50F8AC1CDFEDBB0A40F8A41C0021EF
:1028500040F8B81C3BE000BF012094ED020A85F867
:10286000C000B6EE001A94F8C000B4EE410AF1EED2
:1028700010FA6FDABEEE001AB4EE410AF1EE10FA69
:1028800068DD002866D1012084F8C00064E000BF44
:1028900096ED020ADFEDA70A06F1240006F018FD06
:1028A00094ED040A9FEDA42A96ED121AB4EE420AA2
:1028B000F1EE410AF1EE10FAC5ED020A5CDD9FED82
:1028C000A11A62E0284610F8C01F01291FD195ED1A
:1028D000050A95ED071A9FED982A31EE400AB4EEED
:1028E000420AF1EE10FA03DD9FED961A09E000BFEF
:1028F0009FED921AB4EE410AF1EE10FA03DA9FED61
:10290000901A30EE010A002185ED080AE96094ED85
:10291000040A9FED891AB4EE410AF1EE10FA03DDC4
:102920009FED881A09E000BF9FED841AB4EE410ABA
:10293000F1EE10FA03DA9FED821A30EE010A01215E
:1029400084F8C0100078002184ED080AE16018BB0B
:1029500037E000BF012844D194ED050A94ED071A31
:102960009FED752A31EE400AB4EE420AF1EE10FAFC
:102970002ADD9FED741A30E09FED701AB4EE410A23
:10298000F1EE10FA03DA9FED6E1A30EE010A95F8B7
:10299000C00084ED080AA0B1012840F0C68095ED82
:1029A000080ADFED640A05F1740006F091FC42F6B6
:1029B0008400C2F2000095ED260A90ED631A70EED5
:1029C000410A95ED010AA5E09FED5C1AB4EE410ABB
:1029D000F1EE10FA03DA9FED5A1A30EE010A84ED97
:1029E000080A94ED040A9FED581AB4EE410AF1EE7C
:1029F00010FA23DA9FED552AB4EE420AF1EE10FAEE
:102A00001CDD95F8C10038BBB4EE410AF1EE10FAB6
:102A100022DAB4EE420AF1EE10FA1DDD95ED050A58
:102A2000002084F8C1000120B0EE401A85ED070AAD
:102A300085F8C00085F8C10012E000BF9FED3F1A85
:102A40000120B4EE410AF1EE10FA84F8C10013DA65
:102A50009FED3C1A19E000BF95ED050A95ED071AA8
:102A60009FED3B2A31EE400AB4EE420AF1EE10FA35
:102A70000EDD9FED321A14E09FED2F1AB4EE410ADD
:102A8000F1EE10FA24DD9FED2E1A31EE400A21E01E
:102A90009FED301AB4EE410AF1EE10FA03DA9FED21
:102AA000261A30EE010A95F8C01085F8C20094F895
:102AB000C100B1EE400A012985ED080A84F8C20080
:102AC00016D091BB95ED010AD5ED020A22E000BFB8
:102AD000B1EE400A0120A5F8C000002085F8C20030
:102AE00094F8C100B1EE400A85ED080A84F8C200EE
:102AF000DFED100A05F1740006F0EAFB42F68400EF
:102B0000C2F2000095ED261A90ED632A95ED010AB8
:102B100071EE420A05F1280006F0DAFB95ED130A82
:102B2000BDEEC00A10EE100AE8842046BDE87040F1
:102B3000FEF746BF0000000000003443000034C32D
:102B40000000B4430000B4C300008242000082C20F
:102B50000000B4420000B4C270B581B000220092FF
:102B600090F83C20012A03D10221084601B070BD33
:102B70000E6801220A2E80F83C2009D3B2B252001E
:102B8000D0F800E012FA86F21E3A0EF10C0305E0CE
:102B9000D0F800E006EB46020EF110034FF0070CF0
:102BA0001D680CFA02F4A5431D608D681C6805FAC7
:102BB00002F222431A60496806290FD801EB81010D
:102BC0004A1F71461F2351F8345F934025EA0303DF
:102BD0000B60B3B203FA02F214E000BF01EB810311
:102BE0000C29B2B204D8714651F8304F233B03E0B0
:102BF000714651F82C4F413B1F259D4024EA0505A5
:102C00009A400D600B6842F2043CC4F2010C1A4376
:102C1000ACF541739E450A603BD1122E06D1DCF81B
:102C2000001041F48001CCF8001032E026F00101E0
:102C300010292ED1DCF80010102E41F40001CCF840
:102C4000001026D140F2AC01C2F2000109684DF635
:102C50008362C4F21B32A1FB0212910C01EB8101D1
:102C6000490000910099A1B10099013900910099A2
:102C700079B1009901390091009951B10099013958
:102C80000091009929B1009901390091009900291A
:102C9000EAD1002180F83C10084601B070BD000068
:102CA000002804BF0120704710B50446006C0028BE
:102CB0003ED0206CC00645D4206C41F202118843FE
:102CC000023042F204312064C4F20101086820F4A9
:102CD000403008600A6894E809101A43D4F810E0FC
:102CE0000A604168012321F4807141604168C0F6A7
:102CF000007341EA0E214160416821F0407141605A
:102D0000416841EA0C014160816821F40061816001
:102D1000E168826811438160A16A8268994222F069
:102D200070628260826813D122F0405119E000BFC6
:102D3000204600F065F80020606484F83C00206CB8
:102D4000C006B9D50120002184F83C1010BD00BF99
:102D500011438160816821F040518160E16A82689D
:102D600011438160816821F0020181608168227EC7
:102D700094F8203041EA42018160416883B141F416
:102D80000061416041684EF2000221F460414160FF
:102D9000616ACFF6FF72436802EB4131194301E0EB
:102DA00021F400614160C16A40F2000C21F470011D
:102DB000C162E2696169CFF6F07CC36A0CEB025232
:102DC0001A43C262826822F40072826094F8302052
:102DD000836843EA42228260826822F480628260D1
:102DE000826842EA8121816000206064216C0122B6
:102DF00062F301012164002184F83C1010BD000041
:102E000080B586B0006842F20022C4F201020021BF
:102E100090420591049117D042F20001C4F20101E1
:102E2000884239D10020009043F64400C4F20200E9
:102E3000016841F480710160006800F480700090C6
:102E4000009806B080BD00BF43F644000091C4F274
:102E50000200026842F480620260026802F480624A
:102E60000092009A009150F8142C42F0200240F891
:102E7000142C50F8140C00F02000009000984FF42F
:102E8000806001900320CDE9020141F20040C4F2CC
:102E9000020001A900F02AFF06B080BD90F82020B2
:102EA000013A012A08D8006800F1140200201368D2
:102EB00019431160704700BF00F1240201204FF454
:102EC00080211368194311607047000010B590F815
:102ED00020E0D0F800C0AEF1010EBEF1010FDCF829
:102EE00008E011D81EF0E05F18D0CEF3016E01208B
:102EF00000FA0EF018608B68D3B14868CC6844EAD9
:102F0000C000034318E000BF00F1240101204FF48A
:102F100080220B681A430A6010BD00BF00F1240133
:102F200001204FF400120B681A430A6010BD00BF65
:102F30000868CB6843EA40530CEB0E10C0F88031B0
:102F40000B69C0F88431097D012905D100F5C271F2
:102F50000B6843F480730B605168C0F88C111268E1
:102F600000F5C071C0F88821002001220B681A43C7
:102F70000A6010BDB0B590F82020013A012A2FD880
:102F800046F20060C4F20000026842F001020260F2
:102F9000026822F47C520260D1F814E0CC694A6ADB
:102FA0000368012C43EA022202600EF01F024FF078
:102FB000010303FA02F2C3696FEA020C23EA020377
:102FC000C36113D02CBBC36803EA0C03C360CB6896
:102FD0008C8844EA034300EBCE0423640B4611E0E3
:102FE000416A41F4802141620120B0BDC3681343AE
:102FF000C3600B688C8844EA034300EBCE0423646F
:1030000001F10C038C681B8843EA044300EBCE04F7
:10301000636443688D6943EA0204D1F810E0096AE9
:10302000002D08BF03EA0C0444604369BEF1000FA1
:1030300043EA020408BF03EA0C040129446102D1F7
:10304000C1691143C161016821F0010101600020E3
:10305000B0BD00007047000010B590F82040013C62
:10306000012C7BD8D0F800C0002900F08180DCF86A
:103070001040A40700F081800CEB011CDCF8B0418B
:103080000CF5D87E14F004049460DCF8B04119BF4C
:10309000E4085460640D1460DEF800400CF5DA7E3C
:1030A00004F00204D460DCF8B44124075ABFDEF80F
:1030B000004004F00F0408241461DEF800400029E9
:1030C000C4F307249461DEF800404FEA14445461CD
:1030D000DCF8B8211A70026802EB0112D2F8B821AC
:1030E0004FEA12225A70026802EB0112D2F8B8219C
:1030F0004FEA12429A70026802EB0112D2F8B8212C
:103100004FEA1262DA70026802EB0112D2F8BC21B7
:103110001A71026802EB0112D2F8BC214FEA1222A6
:103120005A71026802EB0112D2F8BC214FEA124236
:103130009A71026802EB0112D2F8BC214FEA1262C6
:10314000DA71006814BF00F1100100F10C010020D9
:1031500020220B681A430A6010BD00BF00F1240151
:1031600001204FF480220B681A430A6010BD00BF93
:10317000DCF80C40A4077FF47FAF00F124010120AC
:103180004FF400120B681A430A6010BD90F820102B
:103190000139012984BF0020704700688168826876
:1031A0008068C1F38061C2F3C0621144C0F3007053
:1031B000084470472DE9F04F81B004460068466925
:1031C000D0F804908768D0F80CB0D0F810A0D0F8F0
:1031D0001880F10704D1002530071DD424E000BF7A
:1031E000F90710D00121BA07816009D4780700F1EE
:1031F000AF80380700F1B680204600F06FFA02E099
:10320000204600F06DFA0025F80500F18780F803EC
:1032100000F1B180300707D51BF0100004D0206802
:1032200045F400751021C160700708D51BF0080037
:1032300005D020680821C160204600F0F5F9B007EC
:1032400006D52068C068800702D0204600F0EEF95D
:10325000700607D51AF0100004D0206845F4806588
:1032600010210161B00608D51AF0080005D02068C9
:1032700008210161204600F0FDF9F00606D520681E
:103280000069800702D0204600F0F6F9B00308D5A7
:1032900019F0100005D0206810214160204600F090
:1032A000EDF9F00308D519F0080005D020680821D1
:1032B0004160204600F01EFA300440F19B805FEA36
:1032C000497040F1948006F4807008EA1020284389
:1032D0005FEA8871014648BF41F00201B20558BF5C
:1032E00001465FEA48700D4648BF45F00405700589
:1032F00058BF0D46300540F17A8018F0700000F09C
:1033000076801038000905286CD8DFE800F00359F2
:103310005D61656945F0080564E000BF20684FF411
:103320008071BA0581600BD4780515D438051DD499
:10333000204600F0D7F9F8037FF56CAF1BE000BF23
:10334000204600F0D1F9F8037FF564AF13E000BF29
:103350004FF4006558E700BF05F50055F8037FF509
:1033600059AF08E04FF480554EE700BF05F58045A2
:10337000F8037FF54FAF20684FF48031BA038160C6
:103380000AD4780310D4380314D4204600F0AEF9E0
:1033900030073FF541AF47E7204600F0A9F9300775
:1033A0003FF53AAF40E700BF05F5004530073FF570
:1033B00033AF39E705F5803530073FF52DAF33E7FB
:1033C00045F010050EE000BF45F020050AE000BF03
:1033D00045F0400506E000BF45F0800502E000BF73
:1033E00045F480752068816921F070018161206851
:1033F0000421416055B1606A40EA050120466162DE
:1034000001B0BDE8F04FFFF725BE00BF01B0BDE839
:10341000F08F0000B0B5C8B1044690F8200010B994
:10342000204600F071F82068016841F00101016058
:1034300000F036FD054600BF20684168C90707D186
:1034400000F02EFD401B0B28F6D312E00120B0BD8A
:10345000016821F00201016000F022FD054600BF75
:103460002068416889070DD500F01AFD401B0B2824
:10347000F6D3606A052140F400306062012084F8D0
:103480002010B0BD217E0268012922F0800208BF11
:1034900080320260617E0268012922F0400208BF8A
:1034A00040320260A17E0268012922F0200208BF9A
:1034B00020320260E17E0268012922F0100218BF6A
:1034C00010320260217F0268012922F0080208BF41
:1034D00008320260617F0268012922F0040208BFFD
:1034E00004320260D4E901C2D4E9033561691A43A8
:1034F0002A431143ACF101021143C16100200121B3
:10350000606284F82010B0BD10B586B0006846F641
:103510000002C4F2000200219042CDE90411CDE97D
:103520000211019134D046F20041C4F200018842F8
:1035300077D140F69001C2F200010A6843F64000DC
:10354000C4F20200531C0B6052B9002100910168C3
:1035500041F000710160016801F000710091009973
:103560000021009150F8101C142441F0080140F88B
:10357000101C50F8100C032100F008000090009877
:1035800040F20040C4F2020000F5006035E000BFE8
:1035900043F64000C4F202000091016841F08061EE
:1035A0000160016801F080610091009940F690018E
:1035B000C2F200010A68531C0B6052B9002100914D
:1035C000016841F000710160016801F00071009133
:1035D00000990021009150F8101C402441F0020194
:1035E00040F8101C50F8100C602100F00200009010
:1035F000009840F20040C4F20200019102210291C1
:1036000000210391032104910921059101A900F0F2
:103610006DFB20460521002200F0F0FF204600F05F
:10362000D9FF06B010BD000070470000B0B540F2F1
:103630004C45C2F2000505F1200205F118030021F6
:103640000446FFF709FD42F63C60C2F200008442E6
:103650000AD042F66460C2F20000844218BFB0BDD6
:10366000BDE8B040FDF7AABD286ABDE8B040FDF74F
:103670002FBB00007047000070470000704700003B
:10368000B0B5044690F8200001281DD1022084F82E
:1036900020002068016821F00101016000F000FCB9
:1036A000054600BF20684068C00713D000F0F8FB53
:1036B000401B0B28F6D3606A40F40030606205209E
:1036C00084F820000120B0BD606A40F400206062F0
:1036D0000120B0BD00206062B0BD00007047000056
:1036E00070470000704700007047000070470000FE
:1036F0007047000070470000002804BF0120704799
:1037000010B50446407918B101206071002010BD49
:1037100000202071204600F005F801206071002093
:1037200010BD000081B043F63001C4F20201006810
:10373000A1F50362904201D001B0704700200090D3
:10374000086840F480500860086800F480500090D9
:10375000009801B07047000070B5866D044600F017
:103760009FFB94F83510022928D105462068216C6A
:10377000026822F016020260426922F08002426171
:1037800009B9A16C19B1016821F008010160016853
:1037900021F00101016000BF20680068C00715D05A
:1037A00000F07EFB401B0628F6D320206065032036
:1037B00084F83500002184F8341070BD80206065E5
:1037C0000120002184F8341070BD00BFE06D3F215E
:1037D00001FA00F0B060012084F8350000200021DB
:1037E00084F8341070BD000090F83510022909D11A
:1037F000052180F835100068016821F001010160A1
:10380000002070478021416501207047F0B581B0EC
:1038100004460020009040F2AC00C2F200000268B2
:10382000D4E9166048F2B51337680821C1F64E3363
:1038300081403942A2FB03250CD0226813685B0744
:1038400008D5136823F004031360B160616D41F083
:103850000101616501218140394208D02268526925
:10386000120604D5B160616D41F002016165042169
:103870008140394208D022681268920704D5B160AD
:10388000616D41F00401616510218140394217D01A
:1038900020680268120713D5B160026801685203FC
:1038A00008D4C90508D4016821F008010160216C21
:1038B00021B905E008033FD4216C09B120468847AF
:1038C000E16D202000FA01F23A4241D020680368FD
:1038D000DB063DD5B26094F835300268052B1BD16C
:1038E00022F016020260426922F080024261226CDC
:1038F0000AB9A26C1AB1026822F0080202603F20E5
:103900008840B060012084F83500216D0020002936
:1039100084F8340052D157E00168520310D4C9052D
:1039200012D4016821F010010160012084F83500F3
:10393000002084F8340007E0A16C0029BED1BFE765
:10394000080301D4616C00E0E16B09B120468847AF
:10395000606DC8B3606DC0072ED0052084F83500B7
:103960002068A90A026822F001020260009A01326E
:103970008A4200921AD80268D20717D0009A013200
:103980008A42009212D80268D2070FD0009A013200
:103990008A4200920AD80268D20707D0009A013200
:1039A0008A42009202D80268D207DFD1012084F84F
:1039B0003500002084F83400E16C29B1204601B0C4
:1039C000BDE8F040084700BF01B0F0BD2DE9F0416F
:1039D000044600F065FAECB10546022084F8350093
:1039E0000020216884F83400086820F00100086095
:1039F00021680868C00711D000F052FA401B052862
:103A0000F6D9032520230320636584F83550BDE8EB
:103A1000F08100BF0120BDE8F08100BF086848F2D6
:103A20003F02CFF21002D4E9013500EA020C04F1A2
:103A30000C0898E8C10143EA0C032B431843D4E96E
:103A4000072E304338431043626A40EA0E00042ACE
:103A500040EA08031CD1206BD4E90A2E40EA0E008C
:103A6000184308604869BEF1000F20F0030040EAE7
:103A7000020040F0040C11D0B8F5005F36D0B8F168
:103A8000000F45D1022A46D0012A3BD032B942E08C
:103A90000B60486920F0070040EA020C01F0F800D2
:103AA0004AF6AB221038CAF6AA22A0FB02231A0952
:103AB00046F6FA03C0F601039A5C40F2FF335F2832
:103AC0004FF03F00C1F814C021EA030100FA02F0F0
:103AD00088BF0431C4E91612886000230125002044
:103AE000636584F83550BDE8F08100BF032AD5D85E
:103AF000012540230120DFE802F0030E030500BF8B
:103B000082E700BFAEF1C070B0FA80F0400904E077
:103B1000032A04D3C2D1CEF300600028BED0012511
:103B200040230120636584F83550BDE8F081000032
:103B300070B590F834C0BCF1010F46D04FF0010CC5
:103B400080F834C0D0F858E090F835C0BCF1010FCF
:103B500038D14FF0020C80F835C04FF0000CC0F89F
:103B600054C0D0F800C08468056CC06DDCF80060FB
:103B7000402C26F48026CCF80060CCF804300B46AC
:103B800004BF13460A463F2101FA00F0CCF8083082
:103B9000CCF80C20CEF80800DCF8000040F016004D
:103BA000CCF800002DB1DCF8000040F00800CCF8A3
:103BB0000000DCF8000040F00100CCF8000000201C
:103BC00070BD00BF002180F83410022070BD0000DD
:103BD000B0B5044600F064F9054640F21000C2F2A8
:103BE00000000078611C18BF044400BF00F058F9C1
:103BF000401BA042FAD3B0BD10B501381F2800F217
:103C00006780DFE800F01165656565656547656596
:103C10006565656565316565656565656565656588
:103C200065656565655300BF40F28464C2F20004B7
:103C3000012060710FF03EFA012849D0E06904F1DB
:103C400024010DF097FF606A002808BF10BD4EF6F2
:103C50000450CEF200004FF080510160BFF34F8F4F
:103C6000BFF36F8F34E000BF09200BF0DDFF40F29F
:103C70008460C2F20000417841F001014170817816
:103C800041F001018170007910B3BDE810400CF0E3
:103C90000BBB00BF0A200BF0C7FF40F28460C2F2EA
:103CA0000000C17841F00101C17010BD08200BF087
:103CB000BBFF40F28460C2F20000017841F00101D4
:103CC0000170007920B1BDE810400CF0EDBA00BFE2
:103CD00010BD000043F61441C4F201010A6802421B
:103CE00014BF08607047FFF787BF00002DE9F04F51
:103CF00082B000F13E4241F6004502F1FF77C4F286
:103D00000205082243F6004E4FEAB726A84208BF34
:103D10000722C4F2010E072E38BF4FEAB722012551
:103D2000002600274FF00008009208E008F1010883
:103D30000437B8F1100F06F1020600F0A7800C68F6
:103D400005FA08F914EA090FF0D0D1F804B00322FB
:103D50000BF0030CACF10104B240012C6FEA020A33
:103D600010D88268CC6802EA0A02B440224382601A
:103D70004268CBF3001422EA090204FA08F4224351
:103D8000426005E0BCF1030F02D14FF0030C20E0CC
:103D9000C2688C6802EA0A02B4402243BCF1020FF6
:103DA000C26016D16FF0030202EA58020244D2F850
:103DB00020C007F01C050F230C69AB402CEA03035D
:103DC00004FA05F52B431362D1F804B001250BF07A
:103DD000030C02680CFA06F302EA0A021A431BF407
:103DE000403F0260A2D0002243F644030192C4F295
:103DF00002031A684FF6084C42F480421A601A68AF
:103E0000CFF6FF7C02F480420192019A28F003026F
:103E1000724452F80C3007F00C050F24AC40A34359
:103E2000009C04FA05F52B4342F80C30DEF808201C
:103E30004B6842EA090543F60C4CDC0258BF22EA03
:103E40000905CEF80850C4F2010CDCF800209C02F1
:103E500042EA090558BF22EA0905CCF80050DEF80D
:103E600004209C0342EA090558BF22EA0905CEF85E
:103E70000450DEF80020DB0342EA090558BF22EABD
:103E80000905CEF80050012550E700BF02B0BDE89B
:103E9000F08F0000002A08BF09048161704700000C
:103EA00049F67050C2F200000068704770B5B8B3B0
:103EB000044690F83D0028B9002084F83C002046D4
:103EC00000F08AFA242084F83D002068016821F07F
:103ED00001010160016841F400410160016821F4C1
:103EE0000041016001F0DCFC48F28041C0F21E019B
:103EF00040F60013D4F804E088424FF00001C0F20D
:103F00003D0348F2A16C4FF0000238BF01219842F6
:103F1000C0F2010C38BF0122E64538BF0A460AB19B
:103F2000012070BD4DF68361C4F21B31A0FB01126C
:103F30002168950C4B684FF4967623F03F0343EAD3
:103F40009243754344F6D3564B60C1F262060B6A46
:103F5000A5FB0656B50923F03F03E64538BF950C8F
:103F60006A1C1A430A62CA6948F2A0664CF6FF73DB
:103F7000C0F20106B64522EA03020BD801384FEA27
:103F80004E03B0FBF3F001306FF31F30042898BFED
:103F900004201EE0A368013863B119230EFB03F36C
:103FA000B0FBF3F001306FF31F3078B100F58040C3
:103FB00008E000BF0EEB4E03B0FBF3F001306FF3EF
:103FC0001F3028B100F5004003E000BF012000E0F1
:103FD00001201043C8610868D4E9072320F0C0001D
:103FE000104318430860886848F2FF3204F10C0659
:103FF00090434CCE18431043A5698860C86820F0F0
:10400000FF0030432843C860086840F001000860A2
:1040100000202021206484F83D10206384F83E00B5
:1040200070BD00002DE9F04784B0994616460F4652
:104030000446FFF735FF94F83D10202927D10546A7
:10404000206800BF816989071CD5FFF729FF411B44
:1040500020681A29F6D381698907F3D50020202129
:10406000206384F83D1084F83E00206C04F13C0A83
:1040700040F020002064022000218AF8001004B0E3
:10408000BDE8F087A2461AF83C1F012904D102209E
:1040900004B0BDE8F08700BF01228AF80020036861
:1040A000DDE90D180C9ADB0703D1036843F0010327
:1040B0000360036823F400630360222084F83D005A
:1040C000402084F83E000020206462626185608D9B
:1040D000394620850020CFF6FF70E0622046324648
:1040E0004B46CDF80080019503F014FA20B1012071
:1040F00004B0BDE8F08700BF208DA8B102282BD006
:10410000012835D121680A6822F480620A60002201
:1041100003924A6903928A690392039A0A6842F4F5
:1041200000720A602CE000BF002003902068416903
:104130000391816903910399016841F40071016061
:10414000202084F83D00002084F83E0000218AF8F9
:10415000001004B0BDE8F08721680A6822F480628C
:104160000A600A6842F400620A600022039202E0D8
:104170000021039121684A69039289690391039997
:104180000427C0F201070CE010690870606A218DF5
:1041900001306062481E2085618D0139618501040E
:1041A000CED080B203280FD802284AD001282DD1C2
:1041B000204641462A4603F057FC002897D1206844
:1041C000616A0069E1E700BF204641462A4603F0E4
:1041D0004BFC00287FF48BAF2068616A006908708F
:1041E000606A2268411C208D616201382085638DE0
:1041F000013B638553695B07D1D580B20328C3D1E6
:10420000106820F480601060BEE700BF2046394689
:1042100000224346009503F0CDFA00287FF467AFF3
:104220002068616A026822F4806202600069087096
:10423000606A218D01306062481E2085608D0138E2
:1042400060852046394600224346009503F0B2FAC5
:1042500000287FF44CAF2068616A026842F4007263
:10426000026000690870606A2268411C6162218DE9
:1042700001392185618D013961851169417085E7B9
:104280002DE9F04383B0994616460F460446FFF7E2
:1042900007FE94F83D10202920D10546206800BF74
:1042A0008169890716D5FFF7FBFD411B20681A2994
:1042B000F6D381698907F3D500202021206384F893
:1042C0003D1084F83E00216C41F02001216484F807
:1042D0003C0003E094F83C10012903D1022003B014
:1042E000BDE8F083012284F83C200368DDE90B1867
:1042F0000A9ADB0703D1036843F0010303600368F4
:1043000023F400630360212084F83D00402084F8FA
:104310003E000020206462626185608D3946208500
:104320000020CFF6FF70E062204632464B46CDF8C3
:104330000080019503F07AF920B1012003B0BDE8B7
:10434000F08300BF208D98B9204641462A4603F0ED
:10435000D1F988B3206C0428EFD12068016841F4BA
:1043600000710160012003B0BDE8F0830004EBD0D0
:10437000204641462A4603F0BFFB0028EAD1616A85
:104380002268084610F8013B1361238D6062581EB5
:104390002085678D013F678557697F07E6D507044C
:1043A000E4D048781061881C6062981E2085618D79
:1043B00001396185DAE700BF2068016841F40071C6
:1043C0000160202084F83D00002084F83E0084F83D
:1043D0003C0003B0BDE8F0832DE9F04786B00068EB
:1043E00045F60047C4F20007B84203D006B0BDE866
:1043F000F08700BF002643F630050196C4F202059F
:10440000286801AC40F00400286028684FF01208CA
:1044100000F0040001900198019628684FF003090C
:1044200040F00100286028684FF0040A00F0010005
:10443000019001984FF40070019007F5D6302146A5
:10444000CDE90286CDF81090CDF814A0FFF74EFC10
:104450004FF48070CDE9010803A880E8400607F515
:10446000D2302146FFF742FC0096286940F4000054
:104470002861286900F400000090009806B0BDE8AB
:10448000F087000040F2100049F67051C2F20000BF
:10449000C2F2000100780A6810440860704700000A
:1044A00080B543F60040C4F20200016841F4007197
:1044B0000160016841F480610160016841F480712C
:1044C0000160032000F0C6F80F2000F005F800F0AE
:1044D0005FF8002080BD000070B586B0002543F66F
:1044E00040010195C4F202010A68044642F001024B
:1044F0000A60096801A801F001010191019969466A
:1045000001F0A8F9049E002E18BF012601F0C8F999
:104510004DF68361B040C4F21B31A0FB01014FF0A6
:10452000FF3000EB914143F25470C2F200004FF0B3
:10453000804240F2E733C0E90021C0E9025305613F
:10454000856101F0B9FE054610B1284606B070BD80
:1045500043F25470C2F2000001F032FF0546002819
:10456000F3D11C2000F036F80F2C0DD81C2021466A
:104570000022002500F042F840F21400C2F20000D0
:104580000460284606B070BD0125284606B070BDFF
:1045900082B0002043F640010190C4F202014A6853
:1045A00042F480424A604A6802F480420192019AD1
:1045B00000900868002240F08050086008680F21D1
:1045C00000F08050009000986FF0010002B000F001
:1045D00015B80000002848BF7047C1B200F01F00A6
:1045E000012202FA00F04EF20012CEF2000242EA7C
:1045F000D10121F0030108607047000010B54EF6AC
:104600000C5CCEF2000CDCF80030C3F3022E8EF00E
:104610000704042C28BF0424BEF103034FF0FF3E1F
:104620000EFA04F438BF0023A14399400EFA03F3B5
:104630009A43114300F00F0200F160430901043A6C
:1046400003F564436244002848BF02F10C0319706B
:1046500010BD00004EF60C51CEF200010A684FF674
:10466000FF031A4060F30A2242F0806040F0FD70C0
:104670000860704770470000026800205162704770
:104680002DE9F043D0F80090D9F82400A1B1D9F871
:104690002830B1F1010800EB13435DD0A8F101000F
:1046A000C0B2032808F0030C0ED24FF0010E002711
:1046B000BCF1000F33D14FE040EA0240C9F82800B6
:1046C0000020BDE8F08300BF08F0FC0E09F1F404FF
:1046D000002009F5827500BF54F8107F064603EBF1
:1046E000174046F00103DBB246F0020755F82330CD
:1046F000FFB255F8277000EB134000EB174346F06C
:104700000300C0B255F82010301DC7B2774503EB47
:104710001143E1D106F1050EBCF1000F1CD009EBED
:104720008700D0F80401BCF1010F03EB104313D054
:104730005FFA8EF009EB8000D0F80401BCF1020FA3
:1047400003EB104308D00EF10100C0B209EB80006A
:10475000D0F8040103EB104343EA024009EB88015F
:10476000C1F804010020BDE8F0830000D0F8E004A7
:1047700008F0A8BA01EBC102D0F8E03400EB8200E7
:10478000026A184608F000BA01EBC102D0F8E03422
:1047900000EB8200D0F86022184608F053BA0000FF
:1047A000D0F8E00408F090BA10B5044648B2B0F171
:1047B000FF3F01F00F0000EBC00104EB810205DDBB
:1047C00002F51571002382F8553203E0012302F14E
:1047D0001401537594F894240870012A04BF022030
:1047E00010BD2068012284F8942409F077F8002095
:1047F00084F8940410BD0000B0B50279044601F0BD
:104800000F00904284BF0120B0BD49B2B1F1FF3F1B
:104810000ADD00EBC00104EB810202F515710023F3
:1048200082F8553208E000BF00EBC00104EB8102C2
:10483000012302F11401537594F894240025012AF0
:104840008D70087004BF0220B0BD2068012284F87A
:10485000942409F02FFB284684F89454B0BD00003E
:1048600001F00F0101EBC10100EB8100D0F86802FB
:104870007047000070B5064648B2B0F1FF3F01F046
:104880000F0000EBC00107DD06EB810404F5157194
:10489000002584F8555206E006EB810C01240CF14A
:1048A00014018CF815404D786FF3DF22002D08704D
:1048B0008A600B7118BF4883022B04BF0020487127
:1048C00096F89404012804BF022070BD30680122CC
:1048D00086F8942408F074FE002086F8940470BDD5
:1048E00010B501F00F0404EBC40100EB810E4FF092
:1048F000000CCEF868C28EF855C290F806C0CEF80B
:104900006022CEF86432BCF1010F8EF8544208BF29
:10491000CEF8702200680EF51571624609F014FB9E
:10492000002010BDB0B50446007901F00F058542A6
:1049300084BF0120B0BD48B2B0F1FF3F0ADD01EBFA
:10494000C10004EB800000F51571002280F85522AB
:1049500008E000BF05EBC50004EB8000012200F178
:104960001401427594F89404012201288A700D7094
:1049700004BF0220B0BD206884F8942409F0C4FA72
:1049800025B1002084F89404B0BD00BF2068A1794F
:1049900004F29C4209F060FA002084F89404B0BD4F
:1049A00080B501F00F0C0CEBCC0100EB810E7146D1
:1049B00001F814CF4FF0000CC1F814C04FF0010CF7
:1049C00081F801C090F806C0CA60BCF1010F0B610C
:1049D00008BFCEF830200068624609F0B5FA002022
:1049E00080BD00002DE9F04F89B0056806462846D5
:1049F00009F0BCFC10B109B0BDE8F08F306809F0D7
:104A0000E3FC0028F7D0D5F80808C0F30D21306882
:104A1000C6F8D41409F0D8FC01463068890703D5DC
:104A2000416901F00201416105F5006709F0CCFC24
:104A300001463068C906089604953CD5816921F085
:104A4000100181612C6AC4F34340062804F00F056D
:104A50001AD0022829D147F6F07014EA000824D0B1
:104A600005EBC50006EB8009D9F860124FEA18146F
:104A70000498224609F0ACFCD9F8600200EB18104B
:104A8000C9F8600208E000BF049806F29C410822C1
:104A900009F09EFCC4F30A1405EBC50006EB800088
:104AA000D0F868122144C0F868123068816941F07A
:104AB00010018161049D039709F086FC000340F119
:104AC000EB800898006809F05DFC002800F0E480A5
:104AD000064608984FF4306400F29C4100F51D78BA
:104AE0004FF0000B079118E02819022181605FEA5E
:104AF0008A6042BF2819202181605FEA8A4042BF54
:104B000028194FF4005181600BF1010B760804F174
:104B1000200408F1240800F0BF80F007F4D00898C2
:104B20005FFA8BF90068494609F046FC8246C007E7
:104B300062D0281901218160089F38682118036C10
:104B40008A68BF79012F29D1170735D4970600F15C
:104B50009B8012F0280F4FD143F20B07C4F6547715
:104B6000BB4202D312F400422FD1D8F800200969C9
:104B7000BBF1000F6FF3DF41A2EB010148F80C1C01
:104B800035D1089BD3F86422002A00F08380D3F843
:104B900060020844C3F8600229E000BF43F20B073B
:104BA000C4F65477FF37BB4216D110040DD49006DB
:104BB00044BF202088601AE043F20B00C4F6547012
:104BC000834219D312F4004016D04FF4004088609D
:104BD0005FEA0A7013D437E0BBF1000F07D10899E0
:104BE000D1F8641219B90021079A09F035F908982B
:104BF0004946FFF7C9FD00BF5FEA0A7024D52819AE
:104C000008218160089843F20B020068C4F65472D0
:104C1000056C20448168571EBD4205D911F400413E
:104C20001CBF4FF400418160089800F021FDBD4297
:104C3000049D09D908988079012805D10898079A18
:104C40000068012109F008F95FEACA6042BF28192B
:104C5000102181605FEA8A707FF549AF68690006BC
:104C600004D50399486840F48060486018F81D0C2A
:104C700001287FF439AF002008F81D0C0898494638
:104C800000F046FB30E700BF202088605FEA0A7032
:104C9000B5D4D9E70121A7E7DDF820B0DBF80000A3
:104CA00009F092FB400340F1D580DBF8000009F0E9
:104CB00061FB002800F0CE80824605F5106002906E
:104CC0000BF29C400027019006E000BF5FEA5A0A01
:104CD00007F1010700F0BE805FEACA70F6D0DBF88A
:104CE0000000F9B2079109F055FB029E0446C00787
:104CF00026D0039A07F00F00516B012303FA00F04E
:104D000021EA0000506306EB471083609BF8060021
:104D1000012811D107EBC7000BEB8000D0E9071287
:104D20001144016247B9DBF8240028B9DBF8000020
:104D3000019A012109F090F807995846FFF71AFDEA
:104D4000200742BF06EB471008218160E00642BF02
:104D500006EB471010218160600642BF06EB47104A
:104D600040218160A00715D52846394609F090FA00
:104D700007EBC7000BEB800010F8171F012905D1C6
:104D8000002101700799584600F0BEFA06EB471063
:104D900002218160200699D507EBC7000BEB80024A
:104DA000914659F8241FC84658F8040F81428DD304
:104DB000DBF8006093465BF81C5F0B1AAB4238BF10
:104DC0001D46069606EB4713D3F818C905F1030EE6
:104DD0001FFA8CF5B5EB9E0F28D303F5106102F195
:104DE00020050591D9F8001081421FD9DBF8004059
:104DF000089A081AA0422968967938BF0446DDE966
:104E00000602A3B2009609F08FFD2868D8F80010BA
:104E10002044286008190599C8F800008969E21C37
:104E200089B2B1EB920FDDD2D9F80010DDF820B0D5
:104E3000049D81423FF64AAF069B07F00F00D3F86E
:104E40003418012202FA00F021EA0000C3F8340805
:104E50003CE700BFDBF8000009F0B6FA002827D4D1
:104E6000DBF80000DDF80C8009F0AEFA000540D454
:104E7000DBF8000009F0A8FAC0044BD5D8F804000C
:104E8000102120F00100C8F80400DBF8000009F050
:104E9000FFF99BF80400010600F0F9804FF0FF31A4
:104EA00051FA80F1032900F0030C37D20021A1E070
:104EB000DDF80C80D8F8040020F00100C8F80400E8
:104EC0009BF8CC04012807D100208BF8CC0458466D
:104ED0000021FFF7CFFB02E0584600F0ADFBDBF806
:104EE0000000416901F00041416109F06DFA0005DF
:104EF000BED5D8F80800C00702D0584600F0E0FB45
:104F0000DBF80000416901F40061416109F05CFADD
:104F1000C004B3D4DBF80000EDE000BFC0B200F085
:104F2000FC0E05F536634FF6A0564FF6C0554FF60A
:104F3000E0544FF6006000214FF67F37CFF6FF7642
:104F4000CFF6FF75CFF6FF74CFF6FF70A3F518729A
:104F500097609A59043122F400129A5143F8587C10
:104F600053F8602C8E4522F4001243F8602C53F85D
:104F7000602C42F0006243F8602CA3F51072976039
:104F80005A5922F400125A5143F8387C53F8402CF5
:104F900022F4001243F8402C53F8402C42F00062F7
:104FA00043F8402CA3F5087297601A5922F40012B6
:104FB0001A5143F8187C53F8202C22F4001243F8BD
:104FC000202C53F8202C42F0006243F8202CA3F54B
:104FD000007297601A5822F400121A509F601A68E3
:104FE00022F400121A601A6842F000621A6003F19B
:104FF0008003ABD1049DBCF1000F48D005F51060D3
:1050000000EB41124FF67F334F019360C65905F50F
:10501000306226F40016C65102EB4116B360D65931
:10502000BCF1010F26F40016D651D65946F00066A1
:10503000D6512CD04F1C00EB47157E01AB60855933
:1050400002EB471725F400158551BB609359BCF15D
:10505000020F23F400139351935943F000639351CB
:1050600015D0023100EB41174FF67F364B01BE6081
:10507000C75827F40017C75002EB41108660D0587C
:1050800020F40010D050D05840F00060D050D8F834
:105090001C0040F00110C8F81C009BF80F0048B13C
:1050A000D8F8840040F00B00C8F8840008F14400F0
:1050B00009E000BFD8F8140042F22B010843C8F8F9
:1050C000140008F1100001680BF29C4241F00B0142
:1050D0000160D8F8000020F4FE60C8F80000DBF89A
:1050E00000009BF8061008F0B7FEDBF800004169ED
:1050F00001F48051416109F067F90146DBF80000D5
:1051000089041AD508F09EFADBF8000009F020F9AE
:10511000DBF800408BF8070000F0BCFB9BF8072091
:105120000146204609F070FB584600F06FFADBF8A4
:105130000000416901F40051416109F045F900079F
:1051400006D4DBF8000009F03FF900060DD435E085
:10515000584600F075FADBF80000416901F00801DB
:10516000416109F031F9000628D50499886920F0D9
:10517000800088619BF8040002281FD3012440F2BC
:105180007B2504E00134844205F1240516D21BF886
:1051900005100129F6D104F00F0000EBC0000BEB65
:1051A00080022006DBF8000002F1140158BF02F56E
:1051B000157108F0DDFF9BF80400E3E7DBF8000061
:1051C00009F002F9C0024BD4DBF8000009F0FCF84A
:1051D000049D80027AD59BF80410022927D305F597
:1051E000326001390BF51F72012304E020300139D0
:1051F00002F124021BD007681678012EF6D1B7F110
:10520000FF3FF3DCDBF8D46486EA1747FF07EDD1F4
:1052100002F8013CAF6947F08007AF616F693F0654
:10522000E4D4D8F8040040F40070C8F80400DBF8B7
:105230000000416901F40011416109F0C5F8400026
:105240004AD55846FFF792FADBF80000416901F0B1
:105250008041416109F0B8F840077FF5CCAB42E0EE
:105260009BF80400022825D304990BF13C0501F5B5
:1052700012640126012705E001372034874205F139
:10528000240517D221682A78012AF5D1B1F1FF3F10
:10529000F2DC07F00F0000EBC0000BEB8001DBF845
:1052A0000000143105F8016C08F062FF9BF804005F
:1052B000E2E700BFDBF80000416901F480114161C1
:1052C00009F082F8049D80023FF585AFDBF800000D
:1052D00009F07AF84000B4D4DBF8000009F074F863
:1052E00040077FF588ABDBF800004468610704D510
:1052F0005846FFF755FADBF800004168214341604A
:1053000009B0BDE8F08F0000D0F8E00407F038BD28
:10531000D0F8E00407F048BDF0B581B0002800F0F7
:1053200025810446056890F8950428B9002084F882
:105330009404204600F02AF90320B5F1A04F84F828
:10534000950404BF0020A071206808F07DFD94E85A
:105350000F00267C009608F085F9002840F00381B4
:105360002068002109F08AF8002840F0FC802179AB
:10537000002900F0F180A1F1010C01F0030EBCF155
:10538000030F4FF0000045D301F0FC0504F19A0231
:10539000012600235F1C02F8627C22F8487C9F1CD7
:1053A00002F8863C22F86C3C02F83E7C22F8247C11
:1053B000DF1C043302F8856C02F8820C42F87E0C84
:1053C00042F87A0C42F8760C02F8616C02F85E0C36
:1053D00042F85A0C42F8560C42F8520C02F83D6C56
:1053E00002F83A0C42F8360C42F8320C42F82E0C15
:1053F00002F8196C02F81A7C178002F8160C42F8B1
:10540000120C42F80E0C42F80A0CAB4202F1900268
:10541000C0D11846BEF1000F2CD000EBC00204EB47
:10542000820501230022BEF1010F6B752875E88506
:105430002A76C5E907226A621CD0451C05EBC50621
:1054400004EB8606BEF1020F73753575F58532766D
:10545000C6E9072272620DD0023000EBC00204EBF5
:10546000820201231075D085002053751076C2E9A1
:105470000700506200296FD0BCF1030F4FF000020B
:1054800033D301F0FC0004F5347100235F1C01F8F4
:10549000587C9F1C01F87C3C01F8347CDF1C0433F1
:1054A00001F87B2C01F8782C41E91D2241F86C2C85
:1054B00001F8572C01F8542C41E9142241F8482CEA
:1054C00001F8332C01F8302C41E90B2241F8242C4F
:1054D00001F80F2C01F8107C01F80C2C41E9022294
:1054E00041F8902B8342D1D11A46BEF1000F33D040
:1054F00002EBC20004EB80010020BEF1010F81F835
:10550000550281F8542281F85802C1E99700C1F888
:10551000640221D0511C01EBC10304EB8303BEF1F3
:10552000020F83F8550283F8541283F85802C3E936
:105530009700C3F864020FD0901C00EBC00104EB8D
:105540008101002281F8552281F8540281F8582205
:10555000C1E99722C1F8642294E80F00277C0097E4
:1055600008F020FA30B1022084F89504012528467D
:1055700001B0F0BD00250120657484F89504206811
:1055800008F000FA284601B0F0BD0000B0B586B0C2
:105590000068B0F1A04F01D006B0B0BD002543F6C1
:1055A00030040195C4F20204206801A940F0010012
:1055B0002060206800F00100019001984FF4C05075
:1055C00001900220CDE90205032004900A200590F5
:1055D0000020C4F20200FEF789FB6068052140F05C
:1055E0008000606000956069002240F48040606146
:1055F000606900F48040009000984320FEF7FEFFB1
:105600004320FEF7E7FF06B0B0BD000010B504462A
:10561000C07928B1022818BFFCF7CEF9012100E0BB
:105620000021D4F8E00407F045FCD4F8E004BDE81C
:10563000104007F0F3BB0000D0F8E00407F022BCF4
:10564000D0F8E00407F028BC10B5044690F89404A4
:10565000012804BF022010BD012084F89404617465
:10566000206809F0BFF8002084F8940410BD000001
:10567000D0F8E02400F29C41104607F031BC000055
:1056800010B5044690F89404012804BF022010BD10
:105690002068012184F89414C168490606D5617B0D
:1056A000012903D1816B41F48031816308F0E8FD69
:1056B000206808F057F9002084F8940410BD000019
:1056C00010B50446D0F8E00407F060FC2068D0F87C
:1056D000001E41F00101C0F8001EE07A002808BF5A
:1056E00010BD4EF61050CEF20000016841F00601E8
:1056F000016010BD2DE9F041002800F08B8043F6D9
:105700000808C4F202080446D8F8F8030D4600F071
:105710000700884207D288F8F853D8F8F80300F059
:105720000700A84276D12068810717D5410705D523
:10573000D8F8001041F4E051C8F80010010705D571
:10574000D8F8001041F46041C8F80010D8F80010F3
:10575000A26821F0F0011143C8F80010C0073FD142
:10576000D8F8F80300F00700A84207D988F8F853E2
:10577000D8F8F80300F00700A8424BD12068410791
:1057800007D5D8F80010E26821F4E0511143C8F8B9
:105790000010000708D5D8F80000216920F4604007
:1057A00040EAC100C8F8000000F0A2F8D8F80010E4
:1057B00046F2B852C1F30311C0F60102515C40F247
:1057C000AC0220FA01F140F21400C2F200000068BD
:1057D000C2F200021160FEF77FFE0020BDE8F081FA
:1057E0006068811E022907D258F8081C89015CBF35
:1057F0000120BDE8F08111E0012807D158F8081C0C
:1058000089035CBF0120BDE8F08107E058F8081C5F
:10581000890703D40120BDE8F08100BFD8F800104B
:1058200021F003010843C8F80000FEF739FB0646E3
:1058300041F28837D8F80000616800F00C00B0EB46
:10584000810F8DD0FEF72CFB801BB842F2D90320CC
:10585000BDE8F0810F22026043F60802C4F20202A2
:10586000136803F003034360136803F0F0038360DD
:10587000136803F4E053C360D2F800C04FF4E05360
:1058800003EADC030361D2F8F80300F007000860C4
:105890007047000040F2AC00C2F2000000687047A0
:1058A00040F2AC0043F60801C2F20000C4F202016B
:1058B0000068096846F2C852C1F38221C0F60102AD
:1058C000515CC8407047000040F2AC0043F608014C
:1058D000C2F20000C4F202010068096846F2C85230
:1058E000C1F34231C0F60102515CC840704700006C
:1058F00010B543F60404C4F20204606800F00C0022
:1059000008280BD0042819BF42F20040C0F2F4006E
:1059100041F60030C0F2B70010BD00BF206821681A
:105920002368490241F60031C0F2B70100F03F029E
:10593000C3F388105CBF42F20041C0F2F401A1FB46
:1059400000010023FAF7B0FC21680222C1F30141F3
:1059500002EB4101B0FBF1F010BD00002DE9F04178
:1059600082B0002868D00446007843F60006C007DD
:10597000C4F202060BD0B06800F00C00042840F01E
:105980009F803068800302D56068002854D020785A
:1059900080071AD5B06810F00C0F09D0B06800F07D
:1059A0000C00082840F0A6807068400200F1A28038
:1059B0003068800702D5E06801283DD13068216950
:1059C00020F0F80040EAC10030602078000737D4AA
:1059D000207840074CD4A56955B3B06800F00C009E
:1059E000082840F0BB80012D26D07068E16900F4E2
:1059F00080028A4220D1216A00F03F028A421BD1F4
:105A000047F6C071626A0140B1EB821F14D1A16AEE
:105A10004FF6FF73C903994300F44032A1F580317A
:105A20008A4209D1E16A00F07060B0EB016F03D1E6
:105A3000002002B0BDE8F081012002B0BDE8F08195
:105A40006069002840F20000C4F2472076D00121AE
:105A5000C0F8801EFEF724FA054600BF706F80076D
:105A6000B6D4FEF71DFA401B0228F7D9DDE000BFCF
:105A7000306C10F080580AD100200190306C40F05A
:105A800080503064306C00F080500190019847F2F3
:105A90000007C4F200073868C00541D4386840F4F4
:105AA00080703860FEF7FCF9054600BF3868C00515
:105AB00036D4FEF7F5F9401B0228F7D9B5E000BF50
:105AC000B06800F00C00082803D1706840023FF570
:105AD00058AF6068B0F5803F07D0B0F5A02F40F018
