:020000040800F2
:10000000D88C002029020008217C000831650008F6
:100010001D7C000809090008D5A90008000000009F
:1000200000000000000000000000000071840008D3
:10003000D512000800000000918100085D8E0008C4
:10004000430200084302000843020008430200087C
:10005000430200084302000843020008430200086C
:10006000430200084302000843020008430200085C
:1000700081120008430200084302000843020008FE
:10008000430200084302000843020008430200083C
:100090000D0900084302000843020008430200085B
:1000A000430200084302000843020008430200081C
:1000B000498F000843020008430200084302000879
:1000C00043020008430200084302000843020008FC
:1000D00043020008C994000843020008D5940008B0
:1000E00043020008430200084302000843020008DC
:1000F00043020008430200084302000843020008CC
:1001000043020008430200084302000843020008BB
:1001100043020008430200084302000843020008AB
:100120008D12000899120008A5120008B1120008EB
:10013000430200084302000843020008430200088B
:10014000190900084302000843020008C57F00089F
:1001500043020008BD120008C9120008E19400081B
:10016000430200084302000843020008430200085B
:100170004302000843020008430200080000000098
:10018000430200084302000800F002F800F03CF8C7
:100190000AA090E8000C82448344AAF10107DA45E2
:1001A00001D100F031F8AFF2090EBAE80F0013F0F8
:1001B000010F18BFFB1A43F0010318479C240100EC
:1001C000BC240100103A24BF78C878C1FAD852077D
:1001D00024BF30C830C144BF04680C6070470000C1
:1001E0000023002400250026103A28BF78C1FBD840
:1001F000520728BF30C148BF0B6070471FB511F0D0
:1002000070FB1FBD10B510BD00F083F91146FFF75C
:10021000F5FF0CF037F800F0A1F903B4FFF7F2FF97
:1002200003BC00F0A5F900000948804709480047D1
:10023000FEE7FEE7FEE7FEE7FEE7FEE7FEE7FEE796
:10024000FEE7FEE704480549054A064B70470000F3
:10025000358F000889010008D8860020D88C00203E
:10026000D8880020D888002053EA020C00F069806A
:100270002DE9F04B4FF00006002B1FBFB3FA83F5BA
:1002800003FA05F424FA05F65E4012BF1643B2FAEB
:1002900082F502FA05F4C5F120051EBF22FA05FC1D
:1002A00044EA0C04203556EA044C4FEA144418BFC3
:1002B000641C4FF000084FF00009904271EB030CF2
:1002C00039D3002919BFB1FA81F701FA07F6B0FA5C
:1002D00080F700FA07F6C7F120071EBF20FA07FCD7
:1002E00046EA0C062037B6FBF4FCA7EB0507103FE7
:1002F00007F01F0BCBF120062CFA06F60CFA0BFBCD
:1003000044BFB3460026202FA4BF5E464FF0000B2B
:100310005BEA060C08BF4FF0010B19EB0B0948EB29
:100320000608ABFB027C06FB02CC0BFB03CCC01B1C
:1003300071EB0C01C1E70B46024641464846BDE859
:10034000F08B13B5084318BF4FF0FF300146AFF3F1
:100350000080BDE81C40704710B5431C02E010F857
:10036000011B71B18107FAD14FF0013202C88C1A1A
:100370008C4314EAC211F9D0C01A0A0603D0C01E79
:1003800010BDC01A10BD0A0401D0801E10BD0902A4
:10039000FCD0401E10BD032A40F2308010F0030C48
:1003A00000F0158011F8013BBCF1020F624498BFC8
:1003B00011F801CB00F8013B38BF11F8013BA2F165
:1003C000040298BF00F801CB38BF00F8013B11F0E0
:1003D000030300F02580083AC0F0088051F8043B80
:1003E000083A51F804CBA0E80810F5E7121D5CBFED
:1003F00051F8043B40F8043BAFF30080D20724BF20
:1004000011F8013B11F801CB48BF11F8012B24BFB3
:1004100000F8013B00F801CB48BF00F8012B704702
:1004200010B5203AC0F00B80B1E81850A0E8185081
:10043000B1E81850A0E81850203ABFF4F5AF5FEAD1
:10044000027C24BFB1E81850A0E8185044BF18C976
:1004500018C0BDE810405FEA827C24BF51F8043B1D
:1004600040F8043B08BF7047D20728BF31F8023B71
:1004700048BF11F8012B28BF20F8023B48BF00F805
:10048000012B704702F0FF0343EA032242EA0242D3
:1004900000F002B84FF0000200B5134694469646AD
:1004A000203922BFA0E80C50A0E80C50B1F1200187
:1004B000BFF4F7AF090728BFA0E80C5048BF0CC035
:1004C0005DF804EB890028BF40F8042B08BF704793
:1004D00048BF20F8022B11F0804F18BF00F8012B05
:1004E000704770477047704710B500F00DF800680E
:1004F00010BD10B5044600F007F8046010BD000000
:1005000000487047B800002000487047B80000203D
:1005100070477546FFF7F4FFAE460500694653463F
:1005200020F00700854618B020B5FFF78BFEBDE828
:1005300020404FF000064FF000074FF000084FF04A
:10054000000BAC46ACE8C009ACE8C009ACE8C00997
:10055000ACE8C00921F007018D46704710B504468C
:10056000AFF300802046BDE81040FFF756BE000004
:1005700001491820ABBEFEE7260002000FF060B86C
:100580000FF0F4B80AF028BA00281CBF002101605F
:100590007047000000281EBF0021C4F2B0110160A6
:1005A00070470000B1EEC00AB7EE001A81EE000AF3
:1005B000704700000AF05ABA0020C4F2020010216D
:1005C000012203F04FB800000020C4F20200102105
:1005D000002203F047B800007047000040F20040DE
:1005E000C4F202000121012203F03CB840F20040B5
:1005F000C4F202000121002203F034B8B0F9003047
:1006000040F2180CC2F2000C00EE103A9CED001AF9
:10061000B8EEC00A21EE000A81ED000AB0F90230FE
:100620009CED001A00EE103AB8EEC00A21EE000A66
:1006300081ED010AB0F9043000EE103AB8EEC00ABC
:1006400021EE000A81ED020AC3798179007A1B024A
:1006500043EA0040084400EE100A9FED041AB8EE89
:10066000400A20EE010A82ED000A704700401C4259
:10067000704700000BF07EBF0BF036BBB0F90020D6
:1006800000EE102A40F21802C2F2000292ED011AA6
:10069000B8EEC00A21EE000A81ED000AB0F902307E
:1006A00092ED011A00EE103AB8EEC00A21EE000AEF
:1006B00081ED010AB0F9040000EE100AB8EEC00A9C
:1006C00021EE000A81ED020A7047000010B5FFF725
:1006D00083FFFFF7CDFF0AF05DFB08B1802402E045
:1006E0000AF00AFA04460AF08BFE00281CBF44F008
:1006F000400010BD0AF07AFD204310BD2DE9F04FF7
:1007000083B002920E460190FFF75EFF922000F048
:10071000C5F8922000F0C2F8552000F0BFF88046DE
:10072000552000F0BBF88346552000F0B7F882460C
:10073000552000F0B3F80446552000F0AFF8074606
:10074000552000F0ABF80546FFF736FF48EA0B20CE
:1007500040F2180900B2C2F2000900EE100A99ED49
:10076000001AB8EEC00A4AEA042021EE000A00B2DC
:1007700086ED000A00EE100A47EA052000B299ED66
:10078000001A02EE100AB8EEC00AB8EEC22A21EE34
:10079000000A21EE021A86ED010A86ED021AFFF721
:1007A00025FF802000F07AF8552000F077F8064603
:1007B000552000F073F8552000F070F8824655205F
:1007C00000F06CF80546552000F068F88346552087
:1007D00000F064F80446552000F060F80746552004
:1007E00000F05CF88046FFF7F9FE0F2E25D14AEAAB
:1007F000052000B200EE100A99ED011AB8EEC00A09
:1008000001994BEA042021EE000A00B281ED000AB2
:1008100000EE100A47EA082000B299ED011A02EE34
:10082000100AB8EEC00AB8EEC22A21EE000A21EE84
:10083000021A81ED010A81ED021AFFF7C5FEA2201E
:1008400000F02CF8A22000F029F8552000F026F83E
:100850000446552000F022F80546FFF7ADFEE00003
:1008600040EA55114FF600020023CFF6FF72B3EBBA
:10087000902F18BF114300EE101AB8EEC00AB4EE64
:10088000001A20EE010AB3EE071A029830EE010AB0
:1008900080ED000A03B0BDE8F08F000080B582B0A3
:1008A0008DF8070041F674204FF47A7CC2F2000004
:1008B0000DF107010DF106020123CDF800C004F08F
:1008C00095FC9DF8060002B080BD000002784078DB
:1008D000D20042EA50104FF6000C0023CFF6FF7C06
:1008E000B3EB922F18BF40EA0C0000EE100AB8EEEE
:1008F000C00AB4EE001A20EE010AB3EE071A30EE79
:10090000010A81ED000A7047FEE7000041F2442031
:10091000C2F2000002F0F2B841F26C20C2F2000014
:1009200002F0ECB810B58AB00024CDE90314082118
:10093000DDE90CECCDE907440791110A8DF80410AC
:10094000190A8DF806104FEA1E218DF808104FEA9B
:100950001C218DF805208DF807308DF80A1003A9A9
:1009600001AA09ABCDE905448DF809E08DF80BC06B
:1009700001F0D4FF0AB010BD2DE9F0418AB00DF1AD
:10098000480E0024DDF854C09EE82041DDE91076D1
:10099000CDE903140821CDE9074407918DF804201F
:1009A0008DF8053003A901AA09ABCDE905448DF8FE
:1009B00006708DF807608DF808508DF809808DF865
:1009C0000AE08DF80BC001F0A9FF0AB0BDE8F08184
:1009D00080B58AB04FF6EC22CFF6FF729142C8BFC5
:1009E0000A4640F214518A42A8BF0A4600210891E3
:1009F000CDE90611CDE9041100F5A071039108219C
:100A00000791A12101288DF80410ADF8082007D026
:100A100003280ED141F26C20C2F2000004E000BFB6
:100A200041F24420C2F2000003A901AA09AB01F07F
:100A300075FF0AB080BD000010B540F6D862C2F262
:100A40000002D2F8BC22D2F81432002B1CBF0120C5
:100A500010BD40F6D864C2F200040A4601462046A2
:100A600008F05AFE2046BDE8104008F065BE0000C0
:100A7000B0B500284FF6FF7318BF002902D198B215
:100A8000B0BD00BF4A1E41F6C43501F0030C032A75
:100A9000C0F6010528D321F0030100BF10F8042B94
:100AA000043982EA0302D2B235F8122010F8034C5E
:100AB00082EA132383EA0403DBB235F8133010F81B
:100AC000024C83EA122282EA0402D2B235F81220E2
:100AD00010F8014C82EA132383EA0403DBB235F8F1
:100AE000133083EA1223D9D1BCF1000FC7D00178AB
:100AF0009AB25940C9B235F81110BCF1010F81EA20
:100B00001223BCD04278DBB25A4035F812E0BCF177
:100B1000020F8EEA1123B2D08078D9B2484035F85E
:100B2000100080EA1E2398B2B0BD0000B0B559B1E4
:100B30004A1E92B2032A41F6C42201F0030CC0F609
:100B4000010205D2FF211CE0FF21C8B2B0BD00BFE9
:100B500021F0030E0023FF2110F8044BC9B26140BD
:100B600010F8035C515C10F8024C6940515C10F8BD
:100B7000015C6140515C04336940515C9CB2744536
:100B8000EAD1BCF1000F10D00378BCF1010F81EA6B
:100B90000301515C09D04378BCF1020F81EA0301E3
:100BA000515C02D080784840115CC8B2B0BD0000F2
:100BB000B0B540F20D3188421CDC40F24111884250
:100BC00000F0728040F20121884200F0878040F2FC
:100BD0000D31884240F0068140F24430C2F20000FC
:100BE00040F27421D0E90320C2F200010A6048609B
:100BF000B0BD00BFA0F2016103292FD80FF204009D
:100C0000DFE811F00400F200B4001A0140F24430B1
:100C1000C2F20000818909BA090CB1F5037F818015
:100C2000C0F28081A1F503710B2900F2DB80DFE8BF
:100C300011F00D002B02D900D90037023F02470204
:100C40004F0257025F0267026F0200BF807B40F2D3
:100C50001321C2F200010870B0BD00BF40F20E3196
:100C6000884200F0B58040F20F31884240F0BA80EF
:100C700040F24430C2F20000017B40F6B43301EB95
:100C80008102C2F2000303F81210C18903EB420291
:100C900009BA038A408A090C518019BA00BA090CB2
:100CA000000C9180D080B0BD40F24430C2F2000010
:100CB000B0F910109FEDE81A00EE101AB8EEC00A55
:100CC00080EE010A418EC2890186418A02874186EF
:100CD000417B80F83A1080ED0D0AB0BD41F65451C9
:100CE00040F2443CC2F20001C2F2000C4A88BCF857
:100CF0000C300A801ABABCF80E30120C4A80DABAEC
:100D000000EE102ABCF810209CF8123012BAB8EE8F
:100D1000C00A120C81ED010A0A818B720968002257
:100D2000C1F67D4291424FEA014307D3B3F1617F9F
:100D300004DA9CF8002001320BE000BF9CF8002090
:100D4000880CE02807D80120C1F67C40834202DBF2
:100D5000013A8CF8002050B2002800F18980D0B20E
:100D60002428C0F08980DC2383E000BF40F24430B7
:100D7000C2F2000081896FF0C8030ABA110C03EBBC
:100D800012420A2A818000F29D80DFE812F00B00F7
:100D9000F7002B002B002B00FB002B002B002B005F
:100DA0002B00070140F21851C2F200010A7BC37BFD
:100DB00090F813C0008A03F0010302F0FB0200BAAE
:100DC00042EA8302000C0A73088181F800C0B0BDBA
:100DD00040F24430C2F20000C06840F27421C2F216
:100DE00000018860B0BD00BF40F24430C2F2000094
:100DF00081896FF002030ABA110C03EB1242042A34
:100E0000818071D8DFE812F00600F20004011601BB
:100E10002A0100BFC18940F2966209BA038A408A5A
:100E2000090CC2F20002118219BA00BA090C000CB6
:100E300051829082B0BD00BF40F24430C2F2000047
:100E4000818909BA090CB1F5997F818000F0808011
:100E500040F23112914253D0CC2918BFB0BD40F2BC
:100E60004421827BC07BC2F200018A718870B0BDD0
:100E700024231A448CF80020080C51B201EE100A09
:100E80009FEDB82A00EE101AB8EEC11AB8EEC00AEB
:100E900021EE021A9FEDB42A31EE000A20EE020A7A
:100EA000BDEEC00A10EE100A014610F5805FB8BF13
:100EB00001F50051B0F5805FC8BFA0F50051CCF836
:100EC0000810B0BD40F22F12914200F0D580B1F56C
:100ED000987F7FF487AF006940F2802100BAC2F2A8
:100EE00000014860B0BD00BFD1297FF47BAF00692D
:100EF00040F2282100BAC2F200010860B0BD00BF74
:100F000040F25C71827BC2F20001C37B057C447CB1
:100F1000CA72827CC07C0B744D758C76CA7781F85E
:100F20002400B0BD012900F0FB80652900F012818A
:100F3000D0297FF457AFC189008A09BA40F25822FC
:100F400000BA090CC2F20002000C11809080B0BD02
:100F500040F25C71827BC2F20001C37B057C447C61
:100F600081F82920827CC07C81F82E3081F83350B2
:100F700081F8384081F842208871B0BD827BC37B04
:100F8000017C21E0C17B407C01F00F0141EA0010AF
:100F900040F21221C2F200010870B0BD40F2185CAC
:100FA000C2F2000C827B9CF80CE0C37B02F00105CE
:100FB0000EF0F804017C44EA450503F001042544E1
:100FC00061F382058CF80C5043EA022240F2285368
:100FD000C2F200035A81427C807C42EA01211981DD
:100FE00040F28021C2F200010872B0BDC18940F216
:100FF000966209BA038A408A090CC2F20002D182C1
:1010000019BA00BA090C000C5183D083B0BD00BFDF
:10101000C18940F2966209BA038A408A090CC2F279
:101020000002918319BA00BA090C000C118050809B
:10103000B0BD00BFC18940F2966209BA038A408AF6
:10104000090CC2F20002918019BA00BA090C000C16
:10105000D1805081B0BD00BF00007042C189008ABC
:1010600009BA40F2966200BA090CC2F20002000C02
:10107000D1819081B0BD00BF006940F2802100BAEB
:10108000C2F200010860B0BDC189006909BA40F22E
:101090003822090CC2F2000200BA91801060B0BD83
:1010A000006940F23471C2F200010860B0BD00BFB7
:1010B000006940F23471C2F200014860B0BD00BF67
:1010C000006940F23471C2F200018860B0BD00BF17
:1010D000006940F23471C2F20001C860B0BD00BFC7
:1010E000006940F23471C2F200010861B0BD00BF76
:1010F000006940F23471C2F200014861B0BD00BF26
:10110000006940F23471C2F200018861B0BD00BFD5
:10111000006940F23471C2F20001C861B0BD00BF85
:1011200040F26821C2F200010A78C37B02F00F028C
:1011300042EA0312038A0A701ABA408A120CA1F812
:10114000012000BA40F21B21000CC2F20001A1F8FC
:101150000100B0BD006940F2202100BAC2F20001D6
:101160000860B0BD00000039398E634340F244305E
:10117000C2F200004169A1F20122062A0AD8DFE882
:1011800002F005782B4578785F0000BF012141709F
:10119000704700BF11296DD040F24312914218BF31
:1011A0007047B0F910109FED351A00EE101AB8EE26
:1011B000C00A80EE010AC18FC27C8187817C827067
:1011C00041EA0221C187C189427BA0F8441080F81E
:1011D000462080ED100A704741F65451C2F20001DA
:1011E0004A8B83890A831ABAC389120C4A83DABAF2
:1011F00000EE102A028A807C12BAB8EEC00A120CE5
:1012000081ED070A0A8481F82200704741F65451A3
:10121000C2F20001CA8C83898A841ABAC389120C6B
:10122000CA84DABA00EE102A028A807C12BAB8EEBA
:10123000C00A120C81ED0A0A8A8581F82E007047D7
:10124000B0F84A108289A0F8481011BAC289090C76
:10125000A0F84A10D1BA00EE101A018AB8EEC00AFE
:1012600009BA090CA0F85010817C80ED130A80F8AF
:10127000521070470C3005F0AFBC00BF0000704248
:1012800041F21C40C2F2000001F036BF41F29C2046
:10129000C2F2000001F030BF41F27C40C2F2000017
:1012A00001F02ABF41F25C30C2F2000001F024BF1D
:1012B00041F2FC20C2F2000001F01EBF41F2DC400E
:1012C000C2F2000001F018BF41F2BC30C2F20000CF
:1012D00001F012BF7047000072B600BFFEE70000C9
:1012E00070B52DED048B10EE100A10F05FFA9FED33
:1012F000460B53EC102B0FF079FC9FED450B53EC94
:10130000102B0FF08FFF9FED440B53EC102B0FF0C1
:1013100021FD0FF039FC00EE100A09F05DFB9FED96
:10132000421A9FED422A20EE010A30EE020AB1EE87
:10133000C08A9FED3F0A9FED3F1A9FED3F2A28EE9E
:10134000089A39EE000A30EE010A28EE021A80EE01
:10135000010A10EE100A10F029FA41EC100B0DF002
:10136000C3FF51EC100B0FF00FFC9FED340A9FED03
:10137000341A9FED342A39EE000A30EE010A28EEC5
:10138000021A80EE010A08EE100A10EE100A10F0A0
:101390000DFA41EC100B0DF0A7FF51EC100B0FF004
:1013A000F3FB00EE100A9FED281A38EE000A80EEDB
:1013B000010A9FED261A9FED262A20EE010A30EE43
:1013C000020A10EE100A10F0F1F99FED150B53EC24
:1013D000102B0FF00BFC40F6A446C2F200060446A8
:1013E000B0690D4610F0E2F902460B462046294648
:1013F0000FF0FCFB0FF0C8FBC6F8D000BDEC048B6F
:1014000070BD00BF00BF00BF5C8FC2F528DC464046
:1014100000000060FB2109400000000000806640E1
:101420005C8FC2F528DC31C0009805C600A80A46CA
:1014300000C8AF4500104BC5000016430020FD4416
:10144000000884C50000B442DB0F4940000034436B
:101450000000E2C2B0B52DED028B40F2A070C2F2E6
:10146000000090ED071A9FED770A40F6A440C2F203
:10147000000040F2743521EE003A90ED014A9FEDF4
:10148000721A9FED722AC2F2000540F6F034698BA1
:1014900024EE014A23EE023AC2F2000433EE043A8B
:1014A00094ED014A05EE101AB8EE455A9FED686AB0
:1014B00034EE454A84EE065A40F2E451C2F200018D
:1014C00080ED013A91ED004A91ED013A6988B1EE63
:1014D000433A06EE101AB8EE466A80ED063A9FEDE2
:1014E0005D3A80ED046A298935EE056A26EE035AD5
:1014F000B4EE435AF1EE10FA80ED054A818403DD23
:101500009FED575A09E000BF9FED537AB4EE475A5A
:10151000F1EE10FA05DA9FED515A26EE036A36EE27
:10152000055AE96994ED056AC0F8781136EE456A06
:1015300041F6C44134EE064AC2F2000180ED625A1F
:1015400080ED634A91ED044A91ED055AE98994EDE5
:10155000047A06EE101AB8EE466A9FED448A37EE1A
:10156000466A86EE086A90ED5F7A25EE005A27EE0D
:10157000011A25EE022A32EE011A90ED307A80ED42
:101580005F1A9FED381A9FED382A24EE000A27EEE5
:10159000011A20EE020A30EE010A36EE061A80ED3C
:1015A000300A21EE030AA98AB4EE430AF1EE10FADA
:1015B000A0F8E01002DD9FED2A0A08E09FED262A40
:1015C000B4EE420AF1EE10FA05DA9FED240A21EE9C
:1015D000031A31EE000A80ED330AFFF781FE6888B6
:1015E00043F6FB31081A00EE100AB8EEC00A80EE8E
:1015F000080A9FED1F1A30EE002A22EE010AB4EE0F
:10160000410AF1EE10FA0BDD9FED1C0A22EE011AE1
:1016100031EE000A84ED020ABDEC028BB0BD00BFC2
:101620009FED143AB4EE430AF1EE10FAF2DA9FEDB0
:10163000120A22EE011A31EE000A84ED020ABDEC14
:10164000028BB0BDE12E6542CDCC4C3ECDCC4C3FA3
:1016500000F8FF4500003443000034C30000B443E9
:101660000000B4C3CDCC4C3D3333733F00FF7F4704
:10167000DB0F4940DB0F49C0DB0FC940DB0FC9C09E
:101680002DE9F04F81B02DED048B40F2A037002101
:10169000C2F20007C4F248410020C7E9001043F23B
:1016A0003331C4F22311BB464FF6F4544BF80C1FF0
:1016B0004CF6CD4149F69A13C3F6D4440022C3F642
:1016C000CC51C4F2A113BA46C7E90A40B84649F65C
:1016D0009A14C4F2C822C7E904104AF8183F48F81F
:1016E000303F43F23333C4F2811407F1340CC7E9BD
:1016F00010100021BA600026C4F203138CE80D001C
:10170000C7E91240C4F261314FF07E5246F67F24A1
:10171000C4F28C260025C3F63C54C7E9151207F124
:101720006401C7E90706C4F270153E6500234FF057
:10173000834661C1C7E91C4040F2705449F69A11D2
:10174000B946C4F2B413C2F20004C4F2911149F8CC
:10175000245FC7E917030023C4E90010002140F605
:10176000A445C4F2A023C4F29631C4E9040026467D
:10177000C4E907024FF08240C2F20005A36044F8BA
:101780000C1F46F8180F2846B421FEF783FE05F11A
:10179000BC00B421FEF77EFE05F5BC70B421FEF757
:1017A00079FE40F6F0309FED4C8AC2F200009FEDCA
:1017B000490A243000213A46F0EE480A06F0D0FCEF
:1017C0009FED460ADFED460A05F1280000215A4642
:1017D00006F0C6FC9FED439A05F1700000215246C9
:1017E000B0EE490AF0EE480A06F0BAFC9FED3E0A58
:1017F000DFED3E0A05F5D0700021224606F0B0FC70
:101800009FED3B0A05F5F47000213246F0EE480AE0
:1018100006F0A6FCDFED370A05F1E40000214A4698
:10182000B0EE490A06F09CFC05F596700021424690
:10183000B0EE490AF0EE480A06F092FC40F274302D
:10184000C2F20000408B9FED2C1A00EE100AB8EE99
:10185000400A9FED2A2A31EE400A80EE020A48F63D
:10186000000040F6F0319FED261AC4F2FF50C2F29C
:101870000001486044F60000C4F28960086108462F
:1018800030EE002A22EE010AB4EE410AF1EE10FA1F
:101890000CDD9FED1E0A22EE011A31EE000A80EDEA
:1018A000050ABDEC048B01B0BDE8F08F9FED153A41
:1018B000B4EE430AF1EE10FAF1DA9FED130A22EECC
:1018C000011A31EE000A80ED050ABDEC048B01B06F
:1018D000BDE8F08F00A08C45000000000000E1444E
:1018E0000000DC420080BB4400606A460000FA450C
:1018F0000000FA430000C8420088FF4500F8FF4599
:1019000000003443000034C30000B4430000B4C3FB
:101910002DE9F0412DED068B90ED01AA0446B5EEC0
:1019200040AAB0EE609AF1EE10FAB0EE408A05D10E
:1019300000209FED5BAAC4F2842060609FED590AED
:1019400040F20008B4EE408AF1EE10FAA8BFB0EE03
:10195000408ABAEE0E0AB4EE409AF1EE10FAD8BF01
:10196000B0EE409AB4EE498ACCF24838F1EE10FA63
:10197000C4F8008026D140F6F03040F6A444C2F20C
:1019800000000021C2F2000480F8221094F87401D3
:1019900084F8B810E161C4F8088038B9D4F8D000F0
:1019A000C4F8D80004F5967006F0D0FB012084F846
:1019B000740184ED369A84ED32AABDEC068BBDE845
:1019C000F08100BF40F6A447C2F20007D7F8D0006C
:1019D0000FF0ECFE054619EE100A0E460FF0E6FE7B
:1019E0009FED2B0B53EC102B0FF000F92A463346DA
:1019F0000FF023FF30B997ED300A9FED2F1A9FEDBE
:101A00002F2A14E018EE100A0FF0D0FE9FED220BE3
:101A100053EC102B0FF0EAF82A4633460FF006FF7E
:101A200010BB97ED300A9FED221A9FED222A20EE7F
:101A3000010A30EE02AA84ED01AA40F6F030C2F2AB
:101A40000000002180F8221087F8B810F961C7F86B
:101A5000088087F87411C7F8D81087ED31AABDEC5B
:101A6000068BBDE8F08100BFB5EE40AAF1EE10FA9A
:101A700008DAB5EE40AAF1EE10FADEDC9FED0BAA13
:101A8000D9E700BF9FED08AAD5E700BF00BF00BFA0
:101A9000000000000000F03F000000000000F0BF68
:101AA00000008442000000429A992B429A992BC26E
:101AB000CDCC0C3F9999EDC1CDCCCC3E67661E4292
:101AC0008CB0FFF7DDFD40F28C28C2F20008022046
:101AD00088F80B00C8200BF04DFDFFF7BBFC40F66B
:101AE000A444C2F200046069D4F8D0109FEDDC0B6E
:101AF0009FEDDD1BC4F8D810E06151EC100B9FED99
:101B0000DC0BCDE90A1051EC110B9FEDDB1BD4F877
:101B10008C2140F2A07ADFEDDAAADFEDDABADFED50
:101B2000DACA40F2E45B40F27437DFEDD8EA9FEDA9
:101B3000D89ACDE908109FEDD7FADFEDD79A9FED3F
:101B4000D7BADFEDD7DADFEDD7FA9FEDD7EADFEDD1
:101B5000D78A9FEDD78A9FEDD7AA51EC100BC2F21E
:101B6000000AC2F2000BC2F20007CDE9061051ECE8
:101B7000110BC4F89421CDE904103EE001200021AE
:101B8000FEF726FF03200021FEF722FF41F26C2022
:101B90000025C2F200004FF4FF71002200230095DF
:101BA0000195FEF7BFFE04F5967006F0CFFA04F13A
:101BB000E40006F0CBFAD4F8D000A4F8E250C4F860
:101BC000D80004F1700006F0C1FA04F1280006F014
:101BD000BDFA6069E584E06104F5F47006F0B6FAD8
:101BE00004F5D07006F0B2FAD4F88C01A4F89E5136
:101BF000C4F8940101200BF0BDFC788B40F6F03165
:101C0000C2F2000191ED010A01EE100AB8EE411A8C
:101C10009FEDA93A30EE410A80EE033A9AED071A99
:101C200094ED012A21EE2A1A22EE2B2A21EE2C0A0B
:101C300078889BED011A30EE020A84ED010A00EE6D
:101C4000100AB1EE411AB8EE400A84ED061A33EEDE
:101C5000032A22EE2E1A84ED040A9BED000A38892D
:101C6000B4EE6E1AF1EE10FA84ED050AA08405DDDB
:101C700022EE2E1A9FED912A09E000BFB4EE4A1A17
:101C8000F1EE10FA05DA22EE2E1A9FED8D2A31EED2
:101C9000021A40F6F031C2F2000191ED052AF889EE
:101CA00032EE412A30EE020A84ED621A84ED630AB4
:101CB00091ED040A01EE100AB8EE411A30EE410A25
:101CC00080EE090A41F6C440C2F2000090ED051A08
:101CD00094ED5F2A21EE2A1A22EE2B2A21EE2C1AED
:101CE00031EE021A94ED302A9FED763A84ED5F1AB8
:101CF00090ED041A22EE032A9FED733A21EE2A1A80
:101D000021EE031A31EE021AF86984ED301A30EE32
:101D1000001A21EE2E0AC4F87801B88AB4EE6E0AD1
:101D2000F1EE10FAA4F8E00004DD21EE2E0A9FED9A
:101D3000631A08E0B4EE4A0AF1EE10FA05DA21EE71
:101D40002E0A9FED5F1A30EE010A10EE100A84EDA4
:101D5000330A0FF02BFDDDE90A320EF047FFDDE913
:101D600008320FF05FFADDE906320EF0F3FF0EF0F5
:101D70000BFF00EE100A08F02FFE9FEDD71A20EEA1
:101D8000010A9FEDD61A30EE010AB1EEC0CA9FEDEE
:101D9000D40A2CEE0CDA3DEE000A30EE0F0A2CEEDF
:101DA000291A80EE010A10EE100A0FF0FFFC41EC38
:101DB000100B0DF099FA51EC100B0EF0E5FE3DEE14
:101DC0000B0A30EE2D0A2CEE2F1A80EE010A0CEED3
:101DD000100A10EE100A0FF0E9FC41EC100B0DF0A8
:101DE00083FA51EC100B0EF0CFFE00EE100A3CEE21
:101DF000000A80EE0E0A20EE2E0A30EE280A10EEBF
:101E0000100A0FF0D3FCDDE904320EF0EFFE0546B8
:101E1000A0690E460FF0CAFC02460B462846314622
:101E20000EF0E4FE0EF0B0FE798843F6FB32511A54
:101E300000EE101AB8EEC00A80EE090AC4F8D0000D
:101E400030EE001A21EE0E0AB4EE4E0AF1EE10FA50
:101E50003CDD21EE0E0A9FEDCC1A42E000BF00BF30
:101E60005C8FC2F528DC464000000060FB21094081
:101E700000000000008066405C8FC2F528DC31C0A5
:101E8000E12E6542CDCC4C3ECDCC4C3F00003443DE
:101E900000FF7F4700104BC5000016430020FD44A3
:101EA000000884C50000B442DB0F49400000E2C2D4
:101EB00000000000000034C300F8FF450000B4C378
:101EC0000000B443CDCC4C3D3333733F9FEDAC2A7F
:101ED000B4EE420AF1EE10FA05DA21EE0E0A9FED99
:101EE000A91A30EE010A40F2D440C2F2000090F884
:101EF0000C90407B814540F6F030C2F2000080ED4E
:101F0000020A00F0B78004F12808404606F01EF9E6
:101F100004F1700A504606F019F904F5D0763046FF
:101F200006F014F904F5F477384606F00FF904F1D9
:101F3000E40B584606F00AF904F59670039006F093
:101F400005F9B9F1000F3FD040F2A035C2F200050B
:101F50009FED8E0ADFED8E0A05F13C02404600211E
:101F600006F0FEF89FED8B0A05F14802504600216D
:101F7000F0EE480A06F0F4F89FED870ADFED870AD5
:101F800005F154023046002106F0EAF89FED840A7C
:101F900005F1600238460021F0EE480A06F0E0F84C
:101FA0009FED80CADFED800A05F16C0258460021E2
:101FB000B0EE4C0A06F0D4F8039840F270520021BB
:101FC000C2F2000240E000BF40F2A039C2F20009B4
:101FD0009FED6E0ADFED6E0A09F10C02404600210A
:101FE00006F0BEF89FED6BCA09F1180250460021B9
:101FF000B0EE4C0AF0EE480A06F0B2F840F2705526
:10200000C2F200059FED640ADFED640A05F10C02DF
:102010003046002106F0A4F89FED640A05F118028D
:1020200038460021F0EE480A06F09AF8DFED5E0A25
:1020300009F1240258460021B0EE4C0A06F090F84F
:10204000039809F130020021B0EE4C0AF0EE480A84
:1020500006F086F840F28C2840F2A07A40F2E45B69
:1020600040F27437C2F20008C2F2000AC2F2000B5A
:10207000C2F2000740F2D44294F87401C2F20002A6
:10208000117B517370B3012844D194ED360A9FED52
:10209000481AB4EE410AF1EE10FA06DCBBEE071A5C
:1020A000B4EE410AF1EE10FA03DAB0EE410A84ED23
:1020B000361A94ED341A04F5967030EE410AF0EEBB
:1020C000480A84ED370A05F083FF94ED320A94ED57
:1020D000531A70EE410A07E0009805C600A80A46A8
:1020E00000C8AF45D4ED310A94ED300A04F1E400A4
:1020F00005F06EFF94ED410ABDEEC00A10EE100A25
:10210000A4F8E20001B246F2A810814209DDA4F869
:10211000E2000EE0B4F8E20001B246F2A8108142FB
:10212000F5DC49F65860CFF6FF708142B8BFA4F8DD
:10213000E20004F5BC71204600F03CF898F80B0072
:1021400000F0FD0001287FF419ADB4F92610B4F9B0
:10215000E250B4F99E610120FEF73AFC03202946C3
:10216000FEF736FC41F26C200096C2F200004FF4FC
:10217000FF710022002300260196FEF7D3FB39E50C
:10218000DB0F49C0DB0FC940DB0FC9C00000E144D1
:102190000000DC420080BB4400606A460000FA4553
:1021A00000007A4400401C450000C8420000FA4389
:1021B0000000084270B540F6F036C2F2000696F80C
:1021C00022200D46022A04463CD0012A1CD0002AB7
:1021D00040F0F681D4ED020AB6EE000AF4EE400AB1
:1021E000F1EE10FA5EDABEEE000AF4EE400AF1EE0D
:1021F00010FA57DD6069DFEDE30AE0610020A060BE
:10220000012084F8B80052E0D5ED020AB6EE000ACB
:10221000F4EE400AF1EE10FA2EDABEEE000AF4EE09
:10222000400AF1EE10FA27DD0121284600F8B81F18
:1022300050F8A41CDFEDE30A40F89C1C002140F894
:10224000B01C1EE096ED020ADFEDDE0A06F1240066
:1022500005F0BEFE95ED040A9FEDDB2A96ED111AFE
:10226000B4EE420AB1EE411AF1EE10FA84ED021A10
:102270002EDD9FEDD81A34E0284610F8B81F01294A
:1022800052D195ED050A95ED071A9FEDCF2A31EE53
:10229000400AB4EE420AF1EE10FA35DD9FEDCD1A98
:1022A0003BE000BF94F8B800012840F08A8094ED2C
:1022B000050A94ED071A9FEDC42A31EE400AB4EEE8
:1022C000420AF1EE10FA6DDD9FEDC21A73E000BF15
:1022D0009FEDBE1AB4EE410AF1EE10FA03DA9FED5B
:1022E000BC1A30EE010A85ED080A95F8B80061685D
:1022F0000128E96000F09080002840F0368195EDDB
:10230000010AD5ED020A25E19FEDB01AB4EE410AAB
:10231000F1EE10FA03DA9FEDAE1A30EE010A002159
:10232000E960012185ED080A95ED040AB3EE091A6A
:10233000B4EE410AF1EE10FA28DABBEE091AB4EE57
:10234000410AF1EE10FA21DD40F2E870C2F200001D
:102350000278012A00F0A480B9EE041AB4EE410A12
:10236000F1EE10FA80F29C80B1EE041AB4EE410A4C
:10237000F1EE10FA40F3948094ED050A0122B0EEDC
:10238000401A84ED070A02708EE000BF9FED8F1A9D
:10239000B4EE410AF1EE10FA80F294809FED8D1AAE
:1023A00099E000BF9FED891AB4EE410AF1EE10FAF0
:1023B00003DA9FED871A30EE010A002084ED080A47
:1023C000E06095ED040A9FED801AB4EE410AF1EE4B
:1023D00010FA03DD9FED7F1A09E000BF9FED7B1A25
:1023E000B4EE410AF1EE10FA03DA9FED791A30EEFD
:1023F000010A012085F8B80094F8B80094ED011A9C
:10240000012885ED080A85ED031A15D0C0BB04F13B
:102410002800B0EE410A21E0DFED6A0A05F1700004
:1024200005F0D6FD95ED031A95ED242A95ED010AE8
:1024300071EE420A8EE000BF94ED080ADFED610AFA
:1024400004F1700005F0C4FD94ED031A94ED242A04
:1024500094ED010A71EE420A04F1280005F0B8FD7E
:1024600094ED120A95F8B800BDEEC00A10EE101AED
:102470000028E18442D0012840F0A28095ED080AAE
:10248000DFED500A05F1700005F0A2FD95ED031A8D
:1024900095ED242A95ED010A71EE420A32E000BF63
:1024A00094ED050A94ED071A9FED472A31EE400A94
:1024B000B4EE420A0020F1EE10FAE0600EDD9FED6E
:1024C000451A14E09FED401AB4EE410AF1EE10FAFD
:1024D0001EDD9FED3F1A31EE400A1BE09FED3B1AD7
:1024E000B4EE410AF1EE10FA03DA9FED391A30EE3C
:1024F000010A84ED080AD9B92AE000BF95ED010A66
:10250000D5ED020A05F1280005F062FD51E000BF9B
:10251000B1EE400A012184F8B81040F2E8710022BF
:10252000C2F200010A70017884ED080AE26079B114
:1025300001291AD195ED080ADFED220A05F1700094
:1025400005F046FD95ED030A95ED241A70EE410A5B
:1025500095ED010A05F1280005F03AFD95ED120A06
:10256000BDEEC00A10EE100AE88494F8B800012805
:102570000AD0002818BF70BD94ED010AD4ED020AFC
:1025800012E000BF0000000094ED080ADFED0D0A24
:1025900004F1700005F01CFD94ED031A94ED242A5B
:1025A00094ED010A71EE420A04F1280005F010FDD5
:1025B000254695ED120ABDEEC00A10EE100AE88419
:1025C00070BD00BF0000000000003443000034C3B1
:1025D0000000B4430000B4C370B581B00022009283
:1025E00090F83C20012A03D10221084601B070BDB9
:1025F0000E6801220A2E80F83C2009D3B2B25200A4
:10260000D0F800E012FA86F21E3A0EF10C0305E053
:10261000D0F800E006EB46020EF110034FF0070C75
:102620001D680CFA02F4A5431D608D681C6805FA4C
:1026300002F222431A60496806290FD801EB810192
:102640004A1F71461F2351F8345F934025EA030364
:102650000B60B3B203FA02F214E000BF01EB810396
:102660000C29B2B204D8714651F8304F233B03E035
:10267000714651F82C4F413B1F259D4024EA05052A
:102680009A400D600B6842F2043CC4F2010C1A43FC
:10269000ACF541739E450A603BD1122E06D1DCF8A1
:1026A000001041F48001CCF8001032E026F0010166
:1026B00010292ED1DCF80010102E41F40001CCF8C6
:1026C000001026D140F28401C2F2000109684DF6E3
:1026D0008362C4F21B32A1FB0212910C01EB810157
:1026E000490000910099A1B1009901390091009928
:1026F00079B1009901390091009951B100990139DE
:102700000091009929B1009901390091009900299F
:10271000EAD1002180F83C10084601B070BD0000ED
:10272000002804BF0120704710B50446006C002843
:102730003ED0206CC00645D4206C41F20211884383
:10274000023042F204312064C4F20101086820F42E
:10275000403008600A6894E809101A43D4F810E081
:102760000A604168012321F4807141604168C0F62C
:10277000007341EA0E214160416821F040714160DF
:10278000416841EA0C014160816821F40061816087
:10279000E168826811438160A16A8268994222F0EF
:1027A00070628260826813D122F0405119E000BF4C
:1027B000204600F065F80020606484F83C00206C3E
:1027C000C006B9D50120002184F83C1010BD00BF1F
:1027D00011438160816821F040518160E16A826823
:1027E00011438160816821F0020181608168227E4D
:1027F00094F8203041EA42018160416883B141F49C
:102800000061416041684EF2000221F46041416084
:10281000616ACFF6FF72436802EB4131194301E070
:1028200021F400614160C16A40F2000C21F47001A2
:10283000C162E2696169CFF6F07CC36A0CEB0252B7
:102840001A43C262826822F40072826094F83020D7
:10285000836843EA42228260826822F48062826056
:10286000826842EA8121816000206064216C01223B
:1028700062F301012164002184F83C1010BD0000C6
:1028800080B586B0006842F20022C4F20102002145
:1028900090420591049117D042F20001C4F2010167
:1028A000884239D10020009043F64400C4F202006F
:1028B000016841F480710160006800F4807000904C
:1028C000009806B080BD00BF43F644000091C4F2FA
:1028D0000200026842F480620260026802F48062D0
:1028E0000092009A009150F8142C42F0200240F817
:1028F000142C50F8140C00F02000009000984FF4B5
:10290000806001900320CDE9020141F20040C4F251
:10291000020001A900F0D2FD06B080BD10B590F80C
:1029200020E0D0F800C0AEF1010EBEF1010FDCF8DE
:1029300008E011D81EF0E05F18D0CEF3016E012040
:1029400000FA0EF018608B68D3B14868CC6844EA8E
:10295000C000034318E000BF00F1240101204FF440
:1029600080220B681A430A6010BD00BF00F12401E9
:1029700001204FF400120B681A430A6010BD00BF1B
:102980000868CB6843EA40530CEB0E10C0F8803166
:102990000B69C0F88431097D012905D100F5C271A8
:1029A0000B6843F480730B605168C0F88C11126897
:1029B00000F5C071C0F88821002001220B681A437D
:1029C0000A6010BD7047000010B590F82040013C2F
:1029D000012C7BD8D0F800C0002900F08180DCF801
:1029E0001040A40700F081800CEB011CDCF8B04122
:1029F0000CF5D87E14F004049460DCF8B04119BFE3
:102A0000E4085460640D1460DEF800400CF5DA7ED2
:102A100004F00204D460DCF8B44124075ABFDEF8A5
:102A2000004004F00F0408241461DEF8004000297F
:102A3000C4F307249461DEF800404FEA1444546163
:102A4000DCF8B8211A70026802EB0112D2F8B82142
:102A50004FEA12225A70026802EB0112D2F8B82132
:102A60004FEA12429A70026802EB0112D2F8B821C2
:102A70004FEA1262DA70026802EB0112D2F8BC214E
:102A80001A71026802EB0112D2F8BC214FEA12223D
:102A90005A71026802EB0112D2F8BC214FEA1242CD
:102AA0009A71026802EB0112D2F8BC214FEA12625D
:102AB000DA71006814BF00F1100100F10C01002070
:102AC00020220B681A430A6010BD00BF00F12401E8
:102AD00001204FF480220B681A430A6010BD00BF2A
:102AE000DCF80C40A4077FF47FAF00F12401012043
:102AF0004FF400120B681A430A6010BD2DE9F04F25
:102B000081B0044600684669D0F804908768D0F820
:102B10000CB0D0F810A0D0F81880F10704D100252F
:102B200030071DD424E000BFF90710D00121BA07F7
:102B3000816009D4780700F1AF80380700F1B680D2
:102B4000204600F041FA02E0204600F03FFA00255E
:102B5000F80500F18780F80300F1B180300707D550
:102B60001BF0100004D0206845F400751021C160EE
:102B7000700708D51BF0080005D020680821C16047
:102B8000204600F0F5F9B00706D52068C068800738
:102B900002D0204600F0EEF9700607D51AF01000BA
:102BA00004D0206845F4806510210161B00608D585
:102BB0001AF0080005D0206808210161204600F0C5
:102BC000FDF9F00606D520680069800702D020468E
:102BD00000F0F6F9B00308D519F0100005D0206810
:102BE00010214160204600F0EDF9F00308D519F0FE
:102BF000080005D0206808214160204600F0F0F967
:102C0000300440F19B805FEA497040F1948006F403
:102C1000807008EA102028435FEA8871014648BFA7
:102C200041F00201B20558BF01465FEA48700D4607
:102C300048BF45F00405700558BF0D46300540F10A
:102C40007A8018F0700000F07680103800090528AE
:102C50006CD8DFE800F003595D61656945F008054F
:102C600064E000BF20684FF48071BA0581600BD426
:102C7000780515D438051DD4204600F0A9F9F803CD
:102C80007FF56CAF1BE000BF204600F0A3F9F8030E
:102C90007FF564AF13E000BF4FF4006558E700BF55
:102CA00005F50055F8037FF559AF08E04FF480555E
:102CB0004EE700BF05F58045F8037FF54FAF20686C
:102CC0004FF48031BA0381600AD4780310D43803FA
:102CD00014D4204600F080F930073FF541AF47E7B4
:102CE000204600F07BF930073FF53AAF40E700BFE0
:102CF00005F5004530073FF533AF39E705F5803579
:102D000030073FF52DAF33E745F010050EE000BF6B
:102D100045F020050AE000BF45F0400506E000BF91
:102D200045F0800502E000BF45F4807520688169A8
:102D300021F07001816120680421416055B1606A11
:102D400040EA05012046616201B0BDE8F04FFFF79F
:102D500039BE00BF01B0BDE8F08F0000B0B5C8B10A
:102D6000044690F8200010B9204600F071F8206861
:102D7000016841F00101016000F07AFC054600BFE6
:102D800020684168C90707D100F072FC401B0B287E
:102D9000F6D312E00120B0BD016821F0020101600C
:102DA00000F066FC054600BF2068416889070DD524
:102DB00000F05EFC401B0B28F6D3606A052140F44E
:102DC00000306062012084F82010B0BD217E0268CE
:102DD000012922F0800208BF80320260617E026811
:102DE000012922F0400208BF40320260A17E026841
:102DF000012922F0200208BF20320260E17E026831
:102E0000012922F0100218BF10320260217F0268EF
:102E1000012922F0080208BF08320260617F0268BF
:102E2000012922F0040208BF04320260D4E901C281
:102E3000D4E9033561691A432A431143ACF1010215
:102E40001143C16100200121606284F82010B0BDEF
:102E500010B586B0006846F60002C4F200020021F8
:102E60009042CDE90411CDE90211019134D046F22E
:102E70000041C4F20001884277D140F2EC71C2F205
:102E800000010A6843F64000C4F20200531C0B60C4
:102E900052B900210091016841F0007101600168A0
:102EA00001F00071009100990021009150F8101C70
:102EB000142441F0080140F8101C50F8100C0321B4
:102EC00000F008000090009840F20040C4F20200B8
:102ED00000F5006035E000BF43F64000C4F2020098
:102EE0000091016841F080610160016801F080613A
:102EF0000091009940F2EC71C2F200010A68531C83
:102F00000B6052B900210091016841F0007101602D
:102F1000016801F00071009100990021009150F8C2
:102F2000101C402441F0020140F8101C50F8100C15
:102F3000602100F002000090009840F20040C4F2CE
:102F400002000191022102910021039103210491C9
:102F50000921059101A900F0B1FA204605210022BE
:102F600000F034FF204600F01DFF06B010BD000049
:102F700070470000B0B540F24435C2F2000505F1DB
:102F8000140205F10C0300210446FFF71DFD41F278
:102F90004420C2F2000084420AD041F26C20C2F206
:102FA0000000844218BFB0BDBDE8B040FEF7DEB8F7
:102FB0006869BDE8B040FDF7FBBD00007047000048
:102FC0007047000070470000704700007047000025
:102FD0007047000070470000704700007047000015
:102FE00070470000002804BF0120704710B5044658
:102FF000407918B101206071002010BD00202071BF
:10300000204600F005F801206071002010BD00008E
:1030100081B043F63001C4F202010068A1F50362F9
:10302000904201D001B0704700200090086840F441
:1030300080500860086800F480500090009801B04B
:103040007047000070B5866D044600F011FB94F8DF
:103050003510022928D105462068216C026822F02B
:1030600016020260426922F08002426109B9A16C35
:1030700019B1016821F008010160016821F0010126
:10308000016000BF20680068C00715D000F0F0FAAA
:10309000401B0628F6D320206065032084F8350005
:1030A000002184F8341070BD80206065012000216B
:1030B00084F8341070BD00BFE06D3F2101FA00F0CC
:1030C000B060012084F835000020002184F834101D
:1030D00070BD000090F83510022909D1052180F853
:1030E00035100068016821F001010160002070477F
:1030F0008021416501207047F0B581B00446002071
:10310000009040F28400C2F200000268D4E9166028
:1031100048F2B51337680821C1F64E338140394271
:10312000A2FB03250CD0226813685B0708D513683F
:1031300023F004031360B160616D41F0010161652A
:1031400001218140394208D022685269120604D513
:10315000B160616D41F00201616504218140394235
:1031600008D022681268920704D5B160616D41F001
:103170000401616510218140394217D0206802683E
:10318000120713D5B16002680168520308D4C9055B
:1031900008D4016821F008010160216C21B905E023
:1031A00008033FD4216C09B120468847E16D2020F7
:1031B00000FA01F23A4241D020680368DB063DD5AF
:1031C000B26094F835300268052B1BD122F016024C
:1031D0000260426922F080024261226C0AB9A26C4C
:1031E0001AB1026822F0080202603F208840B060F5
:1031F000012084F83500216D0020002984F8340076
:1032000052D157E00168520310D4C90512D40168A5
:1032100021F010010160012084F83500002084F8BD
:10322000340007E0A16C0029BED1BFE7080301D438
:10323000616C00E0E16B09B120468847606DC8B35E
:10324000606DC0072ED0052084F835002068A90ADB
:10325000026822F001020260009A01328A42009262
:103260001AD80268D20717D0009A01328A42009217
:1032700012D80268D2070FD0009A01328A42009217
:103280000AD80268D20707D0009A01328A42009217
:1032900002D80268D207DFD1012084F8350000206F
:1032A00084F83400E16C29B1204601B0BDE8F0405B
:1032B000084700BF01B0F0BD2DE9F041044600F021
:1032C000D7F9ECB10546022084F8350000202168CA
:1032D00084F83400086820F001000860216808685C
:1032E000C00711D000F0C4F9401B0528F6D903250A
:1032F00020230320636584F83550BDE8F08100BFCA
:103300000120BDE8F08100BF086848F23F02CFF21B
:103310001002D4E9013500EA020C04F10C0898E827
:10332000C10143EA0C032B431843D4E9072E304371
:1033300038431043626A40EA0E00042A40EA080358
:103340001CD1206BD4E90A2E40EA0E001843086015
:103350004869BEF1000F20F0030040EA020040F08F
:10336000040C11D0B8F5005F36D0B8F1000F45D18C
:10337000022A46D0012A3BD032B942E00B604869AC
:1033800020F0070040EA020C01F0F8004AF6AB22F8
:103390001038CAF6AA22A0FB02231A0941F6D65316
:1033A000C0F601039A5C40F2FF335F284FF03F0004
:1033B000C1F814C021EA030100FA02F088BF043109
:1033C000C4E916128860002301250020636584F893
:1033D0003550BDE8F08100BF032AD5D80125402330
:1033E0000120DFE802F0030E030500BF82E700BF03
:1033F000AEF1C070B0FA80F0400904E0032A04D3B3
:10340000C2D1CEF300600028BED0012540230120A8
:10341000636584F83550BDE8F081000070B590F820
:1034200034C0BCF1010F46D04FF0010C80F834C01D
:10343000D0F858E090F835C0BCF1010F38D14FF00A
:10344000020C80F835C04FF0000CC0F854C0D0F822
:1034500000C08468056CC06DDCF80060402C26F468
:103460008026CCF80060CCF804300B4604BF13462D
:103470000A463F2101FA00F0CCF80830CCF80C20C5
:10348000CEF80800DCF8000040F01600CCF8000090
:103490002DB1DCF8000040F00800CCF80000DCF8AA
:1034A000000040F00100CCF80000002070BD00BF1B
:1034B000002180F83410022070BD00002DE9F04F8B
:1034C00082B000F13E4241F6004502F1FF77C4F2BE
:1034D0000205082243F6004E4FEAB726A84208BF6D
:1034E0000722C4F2010E072E38BF4FEAB72201258A
:1034F000002600274FF00008009208E008F10108BC
:103500000437B8F1100F06F1020600F0A7800C682E
:1035100005FA08F914EA090FF0D0D1F804B0032233
:103520000BF0030CACF10104B240012C6FEA020A6B
:1035300010D88268CC6802EA0A02B4402243826052
:103540004268CBF3001422EA090204FA08F4224389
:10355000426005E0BCF1030F02D14FF0030C20E004
:10356000C2688C6802EA0A02B4402243BCF1020F2E
:10357000C26016D16FF0030202EA58020244D2F888
:1035800020C007F01C050F230C69AB402CEA030395
:1035900004FA05F52B431362D1F804B001250BF0B2
:1035A000030C02680CFA06F302EA0A021A431BF43F
:1035B000403F0260A2D0002243F644030192C4F2CD
:1035C00002031A684FF6084C42F480421A601A68E7
:1035D000CFF6FF7C02F480420192019A28F00302A8
:1035E000724452F80C3007F00C050F24AC40A34392
:1035F000009C04FA05F52B4342F80C30DEF8082055
:103600004B6842EA090543F60C4CDC0258BF22EA3B
:103610000905CEF80850C4F2010CDCF800209C0229
:1036200042EA090558BF22EA0905CCF80050DEF845
:1036300004209C0342EA090558BF22EA0905CEF896
:103640000450DEF80020DB0342EA090558BF22EAF5
:103650000905CEF80050012550E700BF02B0BDE8D3
:10366000F08F0000002A08BF090481617047000044
:1036700047F6E870C2F200000068704770B5B8B352
:10368000044690F83D0028B9002084F83C0020460C
:1036900000F08AFA242084F83D002068016821F0B7
:1036A00001010160016841F400410160016821F4F9
:1036B0000041016001F096FA48F28041C0F21E011B
:1036C00040F60013D4F804E088424FF00001C0F245
:1036D0003D0348F2A16C4FF0000238BF012198422F
:1036E000C0F2010C38BF0122E64538BF0A460AB1D4
:1036F000012070BD4DF68361C4F21B31A0FB0112A5
:103700002168950C4B684FF4967623F03F0343EA0B
:103710009243754344F6D3564B60C1F262060B6A7E
:10372000A5FB0656B50923F03F03E64538BF950CC7
:103730006A1C1A430A62CA6948F2A0664CF6FF7313
:10374000C0F20106B64522EA03020BD801384FEA5F
:103750004E03B0FBF3F001306FF31F30042898BF25
:1037600004201EE0A368013863B119230EFB03F3A4
:10377000B0FBF3F001306FF31F3078B100F58040FB
:1037800008E000BF0EEB4E03B0FBF3F001306FF327
:103790001F3028B100F5004003E000BF012000E029
:1037A00001201043C8610868D4E9072320F0C00055
:1037B000104318430860886848F2FF3204F10C0691
:1037C00090434CCE18431043A5698860C86820F028
:1037D000FF0030432843C860086840F001000860DB
:1037E00000202021206484F83D10206384F83E00EE
:1037F00070BD00002DE9F04784B0994616460F468B
:103800000446FFF735FF94F83D10202927D10546DF
:10381000206800BF816989071CD5FFF729FF411B7C
:1038200020681A29F6D381698907F3D50020202161
:10383000206384F83D1084F83E00206C04F13C0ABB
:1038400040F020002064022000218AF8001004B01B
:10385000BDE8F087A2461AF83C1F012904D10220D6
:1038600004B0BDE8F08700BF01228AF80020036899
:10387000DDE90D180C9ADB0703D1036843F001035F
:103880000360036823F400630360222084F83D0092
:10389000402084F83E000020206462626185608DD3
:1038A000394620850020CFF6FF70E0622046324680
:1038B0004B46CDF80080019502F03CFE20B101207E
:1038C00004B0BDE8F08700BF208DA8B102282BD03E
:1038D000012835D121680A6822F480620A6000223A
:1038E00003924A6903928A690392039A0A6842F42E
:1038F00000720A602CE000BF00200390206841693C
:103900000391816903910399016841F40071016099
:10391000202084F83D00002084F83E0000218AF831
:10392000001004B0BDE8F08721680A6822F48062C4
:103930000A600A6842F400620A600022039202E010
:103940000021039121684A690392896903910399CF
:103950000427C0F201070CE010690870606A218D2D
:1039600001306062481E2085618D01396185010446
:10397000CED080B203280FD802284AD001282DD1FA
:10398000204641462A4603F07FF8002897D1206858
:10399000616A0069E1E700BF204641462A4603F01C
:1039A00073F800287FF48BAF2068616A00690870A3
:1039B000606A2268411C208D616201382085638D18
:1039C000013B638553695B07D1D580B20328C3D11E
:1039D000106820F480601060BEE700BF20463946C2
:1039E00000224346009502F0F5FE00287FF467AF01
:1039F0002068616A026822F48062026000690870CF
:103A0000606A218D01306062481E2085608D01381A
:103A100060852046394600224346009502F0DAFED2
:103A200000287FF44CAF2068616A026842F400729B
:103A3000026000690870606A2268411C6162218D21
:103A400001392185618D013961851169417085E7F1
:103A50002DE9F04383B0994616460F460446FFF71A
:103A600007FE94F83D10202920D10546206800BFAC
:103A70008169890716D5FFF7FBFD411B20681A29CC
:103A8000F6D381698907F3D500202021206384F8CB
:103A90003D1084F83E00216C41F02001216484F83F
:103AA0003C0003E094F83C10012903D1022003B04C
:103AB000BDE8F083012284F83C200368DDE90B189F
:103AC0000A9ADB0703D1036843F00103036003682C
:103AD00023F400630360212084F83D00402084F833
:103AE0003E000020206462626185608D3946208539
:103AF0000020CFF6FF70E062204632464B46CDF8FC
:103B00000080019502F0A2FD20B1012003B0BDE8C4
:103B1000F08300BF208D98B9204641462A4602F026
:103B2000F9FD88B3206C0428EFD12068016841F4C6
:103B300000710160012003B0BDE8F0830004EBD008
:103B4000204641462A4602F0E7FF0028EAD1616A92
:103B50002268084610F8013B1361238D6062581EED
:103B60002085678D013F678557697F07E6D5070484
:103B7000E4D048781061881C6062981E2085618DB1
:103B800001396185DAE700BF2068016841F40071FE
:103B90000160202084F83D00002084F83E0084F875
:103BA0003C0003B0BDE8F0832DE9F04786B0006823
:103BB00045F60047C4F20007B84203D006B0BDE89E
:103BC000F08700BF002643F630050196C4F20205D7
:103BD000286801AC40F00400286028684FF0120803
:103BE00000F0040001900198019628684FF0030945
:103BF00040F00100286028684FF0040A00F001003E
:103C0000019001984FF40070019007F5D6302146DD
:103C1000CDE90286CDF81090CDF814A0FFF74EFC48
:103C20004FF48070CDE9010803A880E8400607F54D
:103C3000D2302146FFF742FC0096286940F400008C
:103C40002861286900F400000090009806B0BDE8E3
:103C5000F087000040F2100047F6E871C2F2000061
:103C6000C2F2000100780A68104408607047000042
:103C700080B543F60040C4F20200016841F40071CF
:103C80000160016841F480610160016841F4807164
:103C90000160032000F0C6F80F2000F005F800F0E6
:103CA0005FF8002080BD000070B586B0002543F6A7
:103CB00040010195C4F202010A68044642F0010283
:103CC0000A60096801A801F00101019101996946A2
:103CD00000F062FF049E002E18BF012600F082FF54
:103CE0004DF68361B040C4F21B31A0FB01014FF0DF
:103CF000FF3000EB914141F61430C2F200004FF06A
:103D0000804240F2E733C0E90021C0E90253056177
:103D1000856101F073FC054610B1284606B070BD00
:103D200041F61430C2F2000001F0B2FC0546002852
:103D3000F3D11C2000F036F80F2C0DD81C202146A2
:103D40000022002500F042F840F21400C2F2000008
:103D50000460284606B070BD0125284606B070BD37
:103D600082B0002043F640010190C4F202014A688B
:103D700042F480424A604A6802F480420192019A09
:103D800000900868002240F08050086008680F2109
:103D900000F08050009000986FF0010002B000F039
:103DA00015B80000002848BF7047C1B200F01F00DE
:103DB000012202FA00F04EF20012CEF2000242EAB4
:103DC000D10121F0030108607047000010B54EF6E4
:103DD0000C5CCEF2000CDCF80030C3F3022E8EF047
:103DE0000704042C28BF0424BEF103034FF0FF3E58
:103DF0000EFA04F438BF0023A14399400EFA03F3EE
:103E00009A43114300F00F0200F160430901043AA4
:103E100003F564436244002848BF02F10C031970A3
:103E200010BD00004EF60C51CEF200010A684FF6AC
:103E3000FF031A4060F30A2242F0806040F0FD70F8
:103E40000860704770470000D0F8E00405F088BDB6
:103E500001EBC102D0F8E03400EB8200026A1846A0
:103E600005F0E0BC01EBC102D0F8E03400EB8200C9
:103E7000D0F86022184605F033BD0000D0F8E00409
:103E800005F070BDB0B50279044601F00F00904214
:103E900084BF0120B0BD49B2B1F1FF3F0ADD00EBA4
:103EA000C00104EB810202F51571002382F855323E
:103EB00008E000BF00EBC00104EB8102012302F126
:103EC0001401537594F894240025012A8D7008700C
:103ED00004BF0220B0BD2068012284F8942406F0BB
:103EE000C5F9284684F89454B0BD000070B5064664
:103EF00048B2B0F1FF3F01F00F0000EBC00107DD59
:103F000006EB810404F51571002584F8555206E08E
:103F100006EB810C01240CF114018CF815404D784E
:103F20006FF3DF22002D08708A600B7118BF488381
:103F3000022B04BF0020487196F89404012804BFA6
:103F4000022070BD3068012286F8942406F00EF934
:103F5000002086F8940470BD10B501F00F0404EB46
:103F6000C40100EB810E4FF0000CCEF868C28EF851
:103F700055C290F806C0CEF86022CEF86432BCF18B
:103F8000010F8EF8544208BFCEF8702200680EF57B
:103F90001571624606F0B4F9002010BDB0B50446B4
:103FA000007901F00F05854284BF0120B0BD48B201
:103FB000B0F1FF3F0ADD01EBC10004EB800000F52A
:103FC0001571002280F8552208E000BF05EBC500FE
:103FD00004EB8000012200F11401427594F894046E
:103FE000012201288A700D7004BF0220B0BD206834
:103FF00084F8942406F064F925B1002084F8940430
:10400000B0BD00BF2068A17904F29C4206F000F91F
:10401000002084F89404B0BD80B501F00F0C0CEBC7
:10402000CC0100EB810E714601F814CF4FF0000C6B
:10403000C1F814C04FF0010C81F801C090F806C01F
:10404000CA60BCF1010F0B6108BFCEF830200068D8
:10405000624606F055F9002080BD00002DE9F04FC2
:1040600089B005680646284606F054FB10B109B031
:10407000BDE8F08F306806F07BFB0028F7D0D5F85C
:104080000808C0F30D213068C6F8D41406F070FBA0
:1040900001463068890703D5416901F00201416199
:1040A00005F5006706F064FB01463068C90608960E
:1040B00004953CD5816921F0100181612C6AC4F31B
:1040C0004340062804F00F051AD0022829D147F6EC
:1040D000F07014EA000824D005EBC50006EB800957
:1040E000D9F860124FEA18140498224606F044FBEF
:1040F000D9F8600200EB1810C9F8600208E000BFB0
:10410000049806F29C41082206F036FBC4F30A1418
:1041100005EBC50006EB8000D0F868122144C0F81A
:1041200068123068816941F010018161049D039734
:1041300006F01EFB000340F1EB800898006806F0D3
:10414000F5FA002800F0E480064608984FF4306441
:1041500000F29C4100F51D784FF0000B079118E02C
:104160002819022181605FEA8A6042BF2819202154
:1041700081605FEA8A4042BF28194FF40051816094
:104180000BF1010B760804F1200408F1240800F07B
:10419000BF80F007F4D008985FFA8BF900684946B1
:1041A00006F0DEFA8246C00762D02819012181603C
:1041B000089F38682118036C8A68BF79012F29D1BC
:1041C000170735D4970600F19B8012F0280F4FD1C6
:1041D00043F20B07C4F65477BB4202D312F40042F9
:1041E0002FD1D8F800200969BBF1000F6FF3DF4130
:1041F000A2EB010148F80C1C35D1089BD3F86422CE
:10420000002A00F08380D3F860020844C3F86002FB
:1042100029E000BF43F20B07C4F65477FF37BB42D7
:1042200016D110040DD4900644BF202088601AE0F7
:1042300043F20B00C4F65470834219D312F40040C9
:1042400016D04FF4004088605FEA0A7013D437E05C
:10425000BBF1000F07D10899D1F8641219B90021F8
:10426000079A05F0D5FF08984946FFF7FBFD00BF08
:104270005FEA0A7024D5281908218160089843F262
:104280000B020068C4F65472056C20448168571E06
:10429000BD4205D911F400411CBF4FF400418160BB
:1042A000089800F0A7FBBD42049D09D908988079C1
:1042B000012805D10898079A0068012105F0A8FF98
:1042C0005FEACA6042BF2819102181605FEA8A70E4
:1042D0007FF549AF6869000604D50399486840F442
:1042E0008060486018F81D0C01287FF439AF002069
:1042F00008F81D0C0898494600F046FB30E700BF5F
:10430000202088605FEA0A70B5D4D9E70121A7E7C9
:10431000DDF820B0DBF8000006F02AFA400340F197
:10432000D580DBF8000006F0F9F9002800F0CE8017
:10433000824605F5106002900BF29C400027019028
:1043400006E000BF5FEA5A0A07F1010700F0BE80ED
:104350005FEACA70F6D0DBF80000F9B2079106F008
:10436000EDF9029E0446C00726D0039A07F00F001D
:10437000516B012303FA00F021EA0000506306EBC1
:10438000471083609BF80600012811D107EBC70096
:104390000BEB8000D0E907121144016247B9DBF84A
:1043A000240028B9DBF80000019A012105F030FF54
:1043B00007995846FFF74CFD200742BF06EB471010
:1043C00008218160E00642BF06EB471010218160A2
:1043D000600642BF06EB471040218160A00715D55B
:1043E0002846394606F028F907EBC7000BEB80009A
:1043F00010F8171F012905D10021017007995846AF
:1044000000F0BEFA06EB471002218160200699D524
:1044100007EBC7000BEB8002914659F8241FC846F2
:1044200058F8040F81428DD3DBF8006093465BF8A7
:104430001C5F0B1AAB4238BF1D46069606EB4713AE
:10444000D3F818C905F1030E1FFA8CF5B5EB9E0FD2
:1044500028D303F5106102F120050591D9F8001069
:1044600081421FD9DBF80040089A081AA042296847
:10447000967938BF0446DDE90602A3B2009606F03D
:1044800073FA2868D8F800102044286008190599A4
:10449000C8F800008969E21C89B2B1EB920FDDD245
:1044A000D9F80010DDF820B0049D81423FF64AAFF4
:1044B000069B07F00F00D3F83418012202FA00F02F
:1044C00021EA0000C3F834083CE700BFDBF8000035
:1044D00006F04EF9002827D4DBF80000DDF80C8048
:1044E00006F046F9000540D4DBF8000006F040F97C
:1044F000C0044BD5D8F80400102120F00100C8F802
:104500000400DBF8000006F097F89BF804000106B1
:1045100000F0F9804FF0FF3151FA80F1032900F0EB
:10452000030C37D20021A1E0DDF80C80D8F804009C
:1045300020F00100C8F804009BF8CC04012807D142
:1045400000208BF8CC0458460021FFF77BFC02E0EA
:10455000584600F033FADBF80000416901F00041F1
:10456000416106F005F90005BED5D8F80800C0077E
:1045700002D0584600F046FADBF80000416901F429
:104580000061416106F0F4F8C004B3D4DBF8000028
:10459000EDE000BFC0B200F0FC0E05F536634FF64B
:1045A000A0564FF6C0554FF6E0544FF6006000217C
:1045B0004FF67F37CFF6FF76CFF6FF75CFF6FF7455
:1045C000CFF6FF70A3F5187297609A59043122F460
:1045D00000129A5143F8587C53F8602C8E4522F40F
:1045E000001243F8602C53F8602C42F0006243F84C
:1045F000602CA3F5107297605A5922F400125A5198
:1046000043F8387C53F8402C22F4001243F8402C35
:1046100053F8402C42F0006243F8402CA3F5087296
:1046200097601A5922F400121A5143F8187C53F873
:10463000202C22F4001243F8202C53F8202C42F0B6
:10464000006243F8202CA3F5007297601A5822F4F8
:1046500000121A509F601A6822F400121A601A6839
:1046600042F000621A6003F18003ABD1049DBCF1FB
:10467000000F48D005F5106000EB41124FF67F3374
:104680004F019360C65905F5306226F40016C651F5
:1046900002EB4116B360D659BCF1010F26F40016A7
:1046A000D651D65946F00066D6512CD04F1C00EB9F
:1046B00047157E01AB60855902EB471725F40015BD
:1046C0008551BB609359BCF1020F23F40013935141
:1046D000935943F00063935115D0023100EB411719
:1046E0004FF67F364B01BE60C75827F40017C750FE
:1046F00002EB41108660D05820F40010D050D05802
:1047000040F00060D050D8F81C0040F00110C8F80C
:104710001C009BF80F0048B1D8F8840040F00B0053
:10472000C8F8840008F1440009E000BFD8F814007C
:1047300042F22B010843C8F8140008F11000016888
:104740000BF29C4241F00B010160D8F8000020F40C
:10475000FE60C8F80000DBF800009BF8061005F0CA
:1047600057FDDBF80000416901F48051416105F01B
:10477000FFFF0146DBF8000089041AD505F038FD7B
:10478000DBF8000005F0B8FFDBF800408BF807000D
:1047900000F022FA9BF807200146204606F054F864
:1047A000584600F0F5F8DBF80000416901F40051CB
:1047B000416105F0DDFF000706D4DBF8000005F0DD
:1047C000D7FF00060DD435E0584600F0FBF8DBF8C3
:1047D0000000416901F00801416105F0C9FF0006D0
:1047E00028D50499886920F0800088619BF804002E
:1047F00002281FD3012440F27B2504E001348442C7
:1048000005F1240516D21BF805100129F6D104F094
:104810000F0000EBC0000BEB80022006DBF800006D
:1048200002F1140158BF02F5157105F07DFE9BF8E9
:104830000400E3E7DBF8000005F09AFFC0024BD468
:10484000DBF8000005F094FF049D80027AD59BF808
:104850000410022927D305F5326001390BF51F72C8
:10486000012304E02030013902F124021BD0076843
:104870001678012EF6D1B7F1FF3FF3DCDBF8D464F4
:1048800086EA1747FF07EDD102F8013CAF6947F010
:104890008007AF616F693F06E4D4D8F8040040F4A4
:1048A0000070C8F80400DBF80000416901F4001151
:1048B000416105F05DFF40004AD55846FFF7C4FA54
:1048C000DBF80000416901F08041416105F050FFD3
:1048D00040077FF5CCAB42E09BF80400022825D3CB
:1048E00004990BF13C0501F512640126012705E04E
:1048F00001372034874205F1240517D221682A7830
:10490000012AF5D1B1F1FF3FF2DC07F00F0000EB17
:10491000C0000BEB8001DBF80000143105F8016CDE
:1049200005F002FE9BF80400E2E700BFDBF80000A0
:10493000416901F48011416105F01AFF049D800274
:104940003FF585AFDBF8000005F012FF4000B4D45E
:10495000DBF8000005F00CFF40077FF588ABDBF8C3
:1049600000004468610704D55846FFF787FADBF872
:10497000000041682143416009B0BDE8F08F0000AC
:10498000D0F8E00405F010B8D0F8E00405F020B845
:1049900010B50446C07928B1022818BFFCF79CFC6A
:1049A000012100E00021D4F8E00405F097F8D4F8E4
:1049B000E004BDE8104005F045B80000D0F8E00480
:1049C00005F074B8D0F8E00405F07AB810B50446E4
:1049D00090F89404012804BF022010BD012084F83F
:1049E00094046174206805F01DFF002084F894048D
:1049F00010BD0000D0F8E02400F29C41104605F004
:104A000083B8000010B50446D0F8E00405F0C0F803
:104A10002068D0F8001E41F00101C0F8001EE07AC5
:104A2000002808BF10BD4EF61050CEF200000168FD
:104A300041F00601016010BD2DE9F041002800F0B1
:104A40008B8043F60808C4F202080446D8F8F8033D
:104A50000D4600F00700884207D288F8F853D8F8CE
:104A6000F80300F00700A84276D12068810717D527
:104A7000410705D5D8F8001041F4E051C8F80010FE
:104A8000010705D5D8F8001041F46041C8F80010BE
:104A9000D8F80010A26821F0F0011143C8F8001006
:104AA000C0073FD1D8F8F80300F00700A84207D9A3
:104AB00088F8F853D8F8F80300F00700A8424BD163
:104AC0002068410707D5D8F80010E26821F4E051CA
:104AD0001143C8F80010000708D5D8F80000216974
:104AE00020F4604040EAC100C8F8000000F0A2F8DD
:104AF000D8F8001041F6AC22C1F30311C0F6010250
:104B0000515C40F2840220FA01F140F21400C2F23A
:104B100000000068C2F200021160FFF7C5F8002033
:104B2000BDE8F0816068811E022907D258F8081C90
:104B300089015CBF0120BDE8F08111E0012807D1A7
:104B400058F8081C89035CBF0120BDE8F08107E02C
:104B500058F8081C890703D40120BDE8F08100BF84
:104B6000D8F8001021F003010843C8F80000FEF750
:104B70007FFD064641F28837D8F80000616800F0F2
:104B80000C00B0EB810F8DD0FEF772FD801BB84298
:104B9000F2D90320BDE8F0810F22026043F608023B
:104BA000C4F20202136803F003034360136803F0C6
:104BB000F0038360136803F4E053C360D2F800C0CD
:104BC0004FF4E05303EADC030361D2F8F80300F08A
:104BD000070008607047000040F28400C2F2000045
:104BE0000068704740F2840043F60801C2F20000FA
:104BF000C4F202010068096841F6BC22C1F38221B7
:104C0000C0F60102515CC8407047000040F28400C9
:104C100043F60801C2F20000C4F20201006809680C
:104C200041F6BC22C1F34231C0F60102515CC840DA
:104C30007047000010B543F60404C4F20204606833
:104C400000F00C0008280BD0042819BF42F20040E5
:104C5000C0F2F40041F60030C0F2B70010BD00BF52
:104C6000206821682368490241F60031C0F2B7018B
:104C700000F03F02C3F388105CBF42F20041C0F273
:104C8000F401A1FB00010023FBF7EEFA21680222E8
:104C9000C1F3014102EB4101B0FBF1F010BD000096
:104CA0002DE9F04182B0002868D00446007843F630
:104CB0000006C007C4F202060BD0B06800F00C007A
:104CC000042840F09F803068800302D56068002887
:104CD00054D0207880071AD5B06810F00C0F09D096
:104CE000B06800F00C00082840F0A6807068400210
:104CF00000F1A2803068800702D5E06801283DD12C
:104D00003068216920F0F80040EAC1003060207866
:104D1000000737D4207840074CD4A56955B3B06854
:104D200000F00C00082840F0BB80012D26D07068F0
:104D3000E16900F480028A4220D1216A00F03F023A
:104D40008A421BD147F6C071626A0140B1EB821FF3
:104D500014D1A16A4FF6FF73C903994300F440329E
:104D6000A1F580318A4209D1E16A00F07060B0EBB0
:104D7000016F03D1002002B0BDE8F081012002B034
:104D8000BDE8F0816069002840F20000C4F24720CD
:104D900076D00121C0F8801EFEF76AFC054600BFF0
:104DA000706F8007B6D4FEF763FC401B0228F7D96A
:104DB000DDE000BF306C10F080580AD10020019077
:104DC000306C40F080503064306C00F080500190C6
:104DD000019847F20007C4F200073868C00541D4C3
:104DE000386840F480703860FEF742FC054600BF2A
:104DF0003868C00536D4FEF73BFC401B0228F7D9C3
:104E0000B5E000BFB06800F00C00082803D170685E
:104E100040023FF558AF6068B0F5803F07D0B0F56D
:104E2000A02F40F08D80306840F4802030603068E2
:104E300040F4803030608DE0E068002852D00020DF
:104E4000C4F2472001210160FEF712FC054600BFB5
:104E5000306880073FF554AFFEF70AFC401B02287C
:104E6000F6D984E0A068012805D005284ED1306F1E
:104E700040F004003067306F40F0010030674FE0D1
:104E80000021C0F8801EFEF7F3FB0546706F800717
:104E90007FF540AFFEF7ECFB401B0228F6D966E039
:104EA0000027C4F2472700203866FEF7E1FB022DF9
:104EB00005460BD1306880015ED5FEF7D9FB401B5B
:104EC00002284FF00300F5D955E700BF3068800194
:104ED0007FF550AFFEF7CCFB401B02284FF00300DC
:104EE000F4D948E70020C4F2472000210160FEF712
:104EF000BFFB0546306880077FF509AFFEF7B8FBBA
:104F0000401B02284FF00300F4D934E7316F00282A
:104F100021F001013167316F21F0040131674DD07B
:104F2000FEF7A6FB054641F2883700BF306F8007C9
:104F300056D4FEF79DFB401BB842F7D917E000BFDF
:104F40003168002821F480313160316821F48021FA
:104F500031604FD0FEF78CFB054600BF3068800300
:104F60003FF5B7AEFEF784FB401B6428F6D903205B
:104F700002B0BDE8F08100BF04F11C052FCD08434D
:104F800040EA8210D9034FF6FF729143A1F58031B8
:104F900040EA05600843706001203866FEF768FB50
:104FA000044600BF306880013FF5E4AEFEF760FBC9
:104FB000001B02284FF00300F4D9DCE6FEF758FB93
:104FC000054641F2883700BF306F800708D5FEF7ED
:104FD0004FFB401BB8424FF00300F5D9CBE600BFB2
:104FE000B8F1000F7FF499AE306C20F0805030643F
:104FF00093E600BFFEF73CFB054600BF3068800328
:105000007FF567AEFEF734FB401B64284FF00300CA
:10501000F4D9B0E670B538B10446406A30B100202A
:10502000206104F1140007E0012070BD6068B0F554
:10503000827F03D004F11C00002101600026A662DB
:1050400094F8510020B9204684F8506000F03CF8F4
:10505000022084F8510094E80F0001F48271056881
:1050600002F4044225F040050560114403F4006297
:105070002369114403F002026369114403F0010241
:10508000A369E569114403F40072114405F0380284
:10509000256A114405F08002A56A114305F4005207
:1050A00011430160626A042101EA134102F0100217
:1050B00011444160C16921F40061C161012066654C
:1050C00084F85100304670BD2DE9F04F85B004469C
:1050D000006843F20007C4F20107B84202D005B0ED
:1050E000BDE8F08F002643F630000096C4F20200BF
:1050F00041696D4641F480514161416946F2104871
:1051000001F4805100910099009601684FF0020966
:1051100041F00201016001684FF0030A01F0020151
:1051200000910099009601684FF0050B41F00101D4
:1051300001600068294600F00100009000981820E6
:10514000009007F55440C4F20208CDE90196CDF86D
:105150000CA0CDF810B0FEF7B1F98020CDE9000920
:1051600002A880E8400C07F550402946FEF7A6F952
:1051700041F29C25C2F200054FF440304FF0C06769
:105180004FF48069C5E908062846C5E90087C5E9E6
:105190000266C5E90496C5E90666FEF78DF80028A3
:1051A00018BFFCF799F8E564AC6341F2FC2508F1FF
:1051B0004800C2F200054021C5E9000705F10800DA
:1051C00080E842024FF40030C5E908062846C5E9E8
:1051D0000566EE61FEF770F8002818BFFCF77CF852
:1051E000A564AC6305B0BDE8F08F00002DE9F04385
:1051F00083B01E4615460F460446FEF739FA94F86A
:1052000051108146012909D1002F4FF0010018BF2C
:10521000002D0FD103B0BDE8F08300BF6068B0F58A
:10522000827F0DD1A06800284FF0020008BF04293A
:10523000F0D1E9E7002EEDD094F85000012803D119
:10524000022003B0BDE8F083012084F8500094F8F8
:105250005100002104281CBF052084F8510061651D
:10526000A563E687A6872763E6862068A68621646D
:1052700061640168490603D4016841F0400101609E
:105280006168731EE268B1FA81F1B3FA83F3DDF865
:10529000288049095B09B2F5006F41EA030165D135
:1052A00031B137F8021BC1602763E08E0138E08618
:1052B000012518F1010032D102E000BFFEF7D8F954
:1052C000E08E18B9E08F002800F0B880206881686F
:1052D00089070CD5E18E51B1012D08D1216B002534
:1052E00031F8022BC2602163E18E0139E1868168C9
:1052F000C907E3D0E18F0029E0D0C068A16B012588
:1053000021F8020BA163E08F0138E087D6E700BFE8
:10531000FEF7AEF9A0EB0900404580F0A580E08ED5
:1053200018B9E08F002800F089802068816889071B
:105330000CD5E18E51B1012D08D1216B002531F83A
:10534000022BC2602163E18E0139E1868168C907C1
:10535000DED0E18F0029DBD0C068A16B012521F8E8
:10536000020BA163E08F0138E087D1E739B13978CA
:105370000173206B01302063E08E0138E086012547
:1053800018F1010032D101E0FEF772F9E08E10B998
:10539000E08F002852D02068816889070ED5E18E01
:1053A00061B1012D0AD1216B002509780173216BB0
:1053B000206801312163E18E0139E1868168C907E6
:1053C000E2D0E18F0029DFD0C068A16B0125087011
:1053D000A06B0130A063E08F0138E087D4E700BF05
:1053E000FEF746F9A0EB090040453DD2E08E08B932
:1053F000E08F18B32068816889070ED5E18E61B10E
:10540000012D0AD1216B002509780173216B2068D9
:1054100001312163E18E0139E1868168C907DFD05E
:10542000E18F0029DCD0C068A16B01250870A06B5A
:105430000130A063E08F0138E087D1E720460221E8
:1054400001224346CDF8009002F080FFB0B1606DBC
:1054500040F02000606520206065002084F8500046
:10546000012003B0BDE8F083012084F85100002042
:1054700084F85000032003B0BDE8F08340F28400BC
:10548000C2F20000006849F68171C1F25E61A0FBC2
:105490000101480D4FF47A71484302906068B0F5FD
:1054A000827F21D12046802100224346CDF8009002
:1054B00002F04CFF0028CAD1A06838B90020019042
:1054C0002068C1680191806801900198012084F8EA
:1054D0005100002084F85000606D002818BF0120A2
:1054E00003B0BDE8F08300BF02980028E4D0029822
:1054F00001380290206880680006DDD502980028F7
:10550000DAD0029801380290206880680006D3D56E
:1055100002980028D0D00298013802902068806854
:105520000006C9D502980028C6D00298013802901A
:10553000206880680006D7D4BEE7000070470000EE
:105540007047000010B590F83C20012A4FF002028D
:1055500051D080F83D200268D2F804E0D2F808C0AB
:105560000C682EF07003234341F2FF74C4F2000470
:10557000A24253600EDC40F2FF73C4F200039A4271
:1055800016DCB2F1804F2BD040F20043C4F200038E
:1055900024E000BF40F2FF33C4F201039A4213DC5F
:1055A00041F60003C4F200039A4219D0002313E02D
:1055B00040F60003C4F200039A4211D040F60043C3
:1055C000C4F200030AE000BF44F20003C4F2010386
:1055D0009A4205D040F20043C4F201039A4204D13A
:1055E00049682CF08003194391600121002280F862
:1055F0003D1080F83C20104610BD0000002804BF7C
:105600000120704710B5044690F83D0028B90020ED
:1056100084F83C00204600F01FF8022084F83D008A
:105620002068211D03F096FC012084F8460084F8D0
:105630003E0084F83F0084F8400084F8410084F87C
:10564000420084F8430084F8440084F8450084F85C
:105650003D00002010BD000081B0006844F2004110
:10566000C4F20101884201D001B0704700200090CF
:1056700043F64400C4F20200016841F400310160C5
:10568000006800F400300090009801B070470000FE
:1056900090F83D1001291CBF01207047022180F8BD
:1056A0003D10006841F2FF72C168C4F200029042EE
:1056B00041F00101C1600DDC40F2FF71C4F2000154
:1056C000884215DCB0F1804F2AD040F20041C4F28C
:1056D000000123E040F2FF31C4F20101884213DCF3
:1056E00041F60001C4F20001884219D0002113E004
:1056F00040F60001C4F20001884211D040F600419A
:10570000C4F200010AE000BF44F20001C4F201014A
:10571000884205D040F20041C4F20101884206D11E
:10572000816801F00701062904BF00207047016865
:1057300041F0010101600020704700007047000047
:1057400070B504460068C5680669B10716D515F03E
:10575000020113D06FF002010161012121778069FC
:10576000800703D02046FFF7E9FF05E0204600F060
:105770008FF8204600F000FA00202077700719D536
:1057800015F0040016D020686FF0040101610221B9
:105790002177806910F4407F04D02046FFF7CEFFC8
:1057A00006E000BF204600F073F8204600F0E4F960
:1057B00000202077300717D515F0080014D0206896
:1057C0006FF00801016104212177C069800703D0CF
:1057D0002046FFF7B3FF05E0204600F059F82046C9
:1057E00000F0CAF900202077F00619D515F0100056
:1057F00016D020686FF01001016108212177C0697F
:1058000010F4407F04D02046FFF798FF06E000BF69
:10581000204600F03DF8204600F0AEF90020207749
:10582000F00718BF15F0010002D1300609D412E0CC
:1058300020686FF001010161204600F09FF93006F9
:1058400009D515F0800006D020686FF08001016155
:105850002046FFF773FE700609D515F0400006D00C
:1058600020686FF040010161204600F08FF9B0061A
:1058700058BF70BD15F0200008D021686FF02002DD
:1058800020460A61BDE87040FFF75ABE70BD0000B7
:10589000704700002DE9F04390F83C30012B04BF25
:1058A0000220BDE8F0834FEAB202032A00F2FC8036
:1058B000DFE802F0023E7EBE036840F200471C6A49
:1058C0001A6A24F0020422F001021A621A46D3F87E
:1058D00004E052F818CF8E6843F48065C4F20107E3
:1058E000BD4244EA060405D1CE6824F00C0426F03B
:1058F000040634430E68BD4207D1D1E905572EF4A2
:10590000407E45EA0E0545EA070E2CF07307374343
:10591000C3F804E09F614F6809695F631C629F6977
:1059200047F008079F619F6927F004079F61B1E076
:10593000036840F200481C6A1A6A24F0200422F02E
:1059400010021A621A46D3F804C052F818EF8F6892
:1059500043F48065C4F20108454544EA071407D1C1
:10596000CF686FF0400624F0C00406EA07163443FF
:10597000D1F80090454506D1D1E905562CF4406791
:105980002E4347EA860C2EF4E64747EA0927C3F878
:1059900004C09F614F6809699F631C629F6947F457
:1059A00000679F619F6927F480679F6171E000BF76
:1059B000036840F200481C6A1A6A24F4007422F456
:1059C00080721A621A46D3F804C052F81CEF8F682E
:1059D00043F48065C4F20108454544EA072408D130
:1059E000CF6840F2FF463F0224F4406427EA0606EF
:1059F0003443D1F80090454506D1D1E905562CF441
:105A000040572E4347EA061C2EF0730747EA090762
:105A1000C3F804C0DF614F680969DF631C62DF6996
:105A200047F00807DF61DF6927F00407DF6131E035
:105A3000036840F20045D3F820C01A6A43F4806737
:105A400022F480521A621A465C6852F81CEFD1F8B0
:105A500000808E68C4F20105AF4204D14D6924F480
:105A6000804444EA85142CF4005747EA06372EF4A4
:105A7000E64646EA08265C60DE614E6809691E64F7
:105A80001F62DF6947F40067DF61DF6927F4806721
:105A9000DF6109021368194311600021002280F8B8
:105AA0003C200846BDE8F0830121002280F83C201C
:105AB0000846BDE8F0830000002804BF01207047BD
:105AC00010B5044690F83D0028B9002084F83C0049
:105AD000204600F01FF8022084F83D002068211DB8
