:020000040800F2
:10000000088F002039020008816A0008055800089E
:100010007D6A0008AD0A0008899800080000000009
:100020000000000000000000000000004180000807
:100030006516000800000000316C0008758100089A
:10004000530200085302000853020008530200083C
:100050005302000853020008691600085302000802
:1000600053020008711600087916000853020008B0
:100070004D13000853020008530200085302000801
:1000800053020008530200085302000853020008FC
:10009000B10A000853020008530200088116000844
:1000A00053020008530200085302000853020008DC
:1000B000658200085302000853020008530200083A
:1000C00053020008530200085302000853020008BC
:1000D00053020008458600085302000851860008B4
:1000E000530200085302000853020008530200089C
:1000F000530200085302000853020008530200088C
:10010000530200085302000853020008530200087B
:10011000530200085302000853020008530200086B
:10012000530200085913000865130008351600082B
:10013000530200085302000853020008530200084B
:10014000BD0A00085302000853020008856A00082F
:10015000411600084D160008591600085D86000873
:10016000530200085302000853020008530200081B
:100170005302000853020008530200080000000068
:10018000530200085302000800F002F800F044F89F
:100190000AA090E8000C82448344AAF10107DA45E2
:1001A00001D100F039F8AFF2090EBAE80F0013F0F0
:1001B000010F18BFFB1A43F001031847E4F50000D4
:1001C00004F60000103A24BF78C878C1FAD8520764
:1001D00024BF30C830C144BF04680C6070470000C1
:1001E0000023002400250026103A28BF78C1FBD840
:1001F000520728BF30C148BF0B607047752900F017
:10020000DD80632900F04C82002070471FB50EF09E
:10021000B6FC1FBD10B510BD00F057FA1146FFF730
:10022000F5FF0AF0DFFA00F075FA03B4FFF7F2FF0A
:1002300003BC00F079FA00000948804709480047EC
:10024000FEE7FEE7FEE7FEE7FEE7FEE7FEE7FEE786
:10025000FEE7FEE704480549054A064B70470000E3
:10026000518200088901000808890020088F0020B9
:10027000088B0020088B002053EA020C00F06980F4
:100280002DE9F04B4FF00006002B1FBFB3FA83F5AA
:1002900003FA05F424FA05F65E4012BF1643B2FADB
:1002A00082F502FA05F4C5F120051EBF22FA05FC0D
:1002B00044EA0C04203556EA044C4FEA144418BFB3
:1002C000641C4FF000084FF00009904271EB030CE2
:1002D00039D3002919BFB1FA81F701FA07F6B0FA4C
:1002E00080F700FA07F6C7F120071EBF20FA07FCC7
:1002F00046EA0C062037B6FBF4FCA7EB0507103FD7
:1003000007F01F0BCBF120062CFA06F60CFA0BFBBC
:1003100044BFB3460026202FA4BF5E464FF0000B1B
:100320005BEA060C08BF4FF0010B19EB0B0948EB19
:100330000608ABFB027C06FB02CC0BFB03CCC01B0C
:1003400071EB0C01C1E70B46024641464846BDE849
:10035000F08B13B5084318BF4FF0FF300146AFF3E1
:100360000080BDE81C40704770B50C460546012A68
:1003700005D02878800600D5EA69002302E0012331
:1003800005E05B1C934202D2E05C0028F9D1A86929
:10039000E618C01AA861286A184428622846AFF3F4
:1003A000008004E0D5E9012114F8010B9047B44224
:1003B000F8D32846AFF3008070BD00002DE9F0416E
:1003C0000646002410687529314616A510D0AFF3F3
:1003D0000080002802DA404213A507E031688A074E
:1003E00001D512A502E0490704D511A5012401E0B9
:1003F000AFF3008000210A2206F1240709E0B0FBD8
:10040000F2FCB0FBF2F302FB1C00303078541846CB
:10041000491C0028F3D123462A463046BDE8F04166
:1004200000F0DBB8000000002D0000002B000000F1
:100430002000000010B5431C02E010F8011B71B150
:100440008107FAD14FF0013202C88C1A8C4314EAAA
:10045000C211F9D0C01A0A0603D0C01E10BDC01ABE
:1004600010BD0A0401D0801E10BD0902FCD0401E40
:1004700010BD032A40F2308010F0030C00F015800C
:1004800011F8013BBCF1020F624498BF11F801CB97
:1004900000F8013B38BF11F8013BA2F1040298BFFC
:1004A00000F801CB38BF00F8013B11F0030300F066
:1004B0002580083AC0F0088051F8043B083A51F80A
:1004C00004CBA0E80810F5E7121D5CBF51F8043B0F
:1004D00040F8043BAFF30080D20724BF11F8013B82
:1004E00011F801CB48BF11F8012B24BF00F8013BE4
:1004F00000F801CB48BF00F8012B704710B5203A37
:10050000C0F00B80B1E81850A0E81850B1E81850BE
:10051000A0E81850203ABFF4F5AF5FEA027C24BF90
:10052000B1E81850A0E8185044BF18C918C0BDE879
:1005300010405FEA827C24BF51F8043B40F8043B42
:1005400008BF7047D20728BF31F8023B48BF11F8F7
:10055000012B28BF20F8023B48BF00F8012B704751
:1005600002F0FF0343EA032242EA024200F002B82B
:100570004FF0000200B5134694469646203922BF3C
:10058000A0E80C50A0E80C50B1F12001BFF4F7AF87
:10059000090728BFA0E80C5048BF0CC05DF804EB69
:1005A000890028BF40F8042B08BF704748BF20F8D7
:1005B000022B11F0804F18BF00F8012B70477047D5
:1005C0007047704710B500F07BF8006810BD10B59B
:1005D000044600F075F8046010BD2DE9F0470D46A3
:1005E00099469246044600F124080168880604D51D
:1005F000E06921F01001216000E00120A84201DD46
:10060000471B00E00027A1697A1902EB0900081ACC
:10061000A0612078C00602D42046AFF300800026F7
:1006200008E0D4E901211AF806009047206A401C2E
:10063000761C20624E45F4DB2078C0060AD52046A1
:10064000AFF3008006E0D4E9012130209047206A12
:10065000401C2062381EA7F10107F4DC07E0D4E952
:10066000012118F805009047206A401C2062281ECE
:10067000A5F10105F3DC2046AFF3008020780006E9
:1006800002D50220BDE8F0870120FBE710B54369E1
:1006900013B1AFF3008001E0FFF766FE012010BD4B
:1006A000127800F124010A7000224A700122EDE75D
:1006B00011684FF0FF32E9E700487047B0000020B2
:1006C00000487047B000002070477546FFF7F4FF00
:1006D000AE4605006946534620F00700854618B02F
:1006E00020B5FFF7B7FDBDE820404FF000064FF002
:1006F00000074FF000084FF0000BAC46ACE8C00913
:10070000ACE8C009ACE8C009ACE8C00921F00701B9
:100710008D46704710B50446AFF300802046BDE813
:100720001040FFF782BD000001491820ABBEFEE774
:10073000260002000DF036B80DF0CAB809F0CCB9A9
:1007400000281CBF002101607047000000281EBF68
:100750000021C4F2B011016070470000B0EE401AF1
:10076000B1EEC00AB4EE400AF1EE10FA04D6B7EECC
:10077000001A81EE000A704780B5B0EE410A0DF014
:100780003AFABDE88040F2E709F0F0B90020C4F27F
:1007900002001021012202F083B800000020C4F200
:1007A00002001021002202F07BB800007047000018
:1007B00040F20040C4F202000121012202F070B8B0
:1007C00040F20040C4F202000121002202F068B8A9
:1007D000B0F9003040F2100CC2F2000C00EE103AFA
:1007E0009CED001AB8EEC00A21EE000A81ED000A65
:1007F000B0F902309CED001A00EE103AB8EEC00AD3
:1008000021EE000A81ED010AB0F9043000EE103A41
:10081000B8EEC00A21EE000A81ED020AC37981799F
:10082000007A1B0243EA0040084400EE100A9FEDE4
:10083000041AB8EE400A20EE010A82ED000A704761
:1008400000401C427047000009F0F6BF09F002BDED
:10085000B0F9002000EE102A40F21402C2F20002A9
:1008600092ED001AB8EEC00A21EE000A81ED000AEE
:10087000B0F9023092ED001A00EE103AB8EEC00A5C
:1008800021EE000A81ED010AB0F9040000EE100A21
:10089000B8EEC00A21EE000A81ED020A704700009E
:1008A00010B5FFF783FFFFF7CDFF09F043FA08B15A
:1008B000802402E009F0A0F9044609F02DFC00288C
:1008C0001CBF44F0400010BD09F0AAFB204310BD3E
:1008D0002DE9F04383B08146002090460E46CDE9D5
:1008E0000000FFF75BFF922000F0AAF8922000F0D2
:1008F000A7F86846451E06242F4600BF552000F085
:100900009FF8013C210607F8010FF7D1FFF73EFFE2
:10091000BDF90000BDF9021000EE100A40F210000F
:10092000C2F2000090ED001AB8EEC00ABDF9042032
:1009300021EE000A86ED000A00EE101A90ED001A72
:1009400002EE102AB8EEC00AB8EEC22A21EE000A62
:1009500021EE021A86ED010A86ED021AFFF730FF3A
:10096000802000F06DF808242E4600BF552000F0CE
:1009700067F8013C210606F8010FF7D1FFF718FFD1
:100980009DF800000F2825D1BDF90200BDF9041023
:1009900000EE100A40F21400C2F2000090ED001ABE
:1009A000B8EEC00ABDF9062021EE000A89ED000A62
:1009B00000EE101A90ED001A02EE102AB8EEC00AEE
:1009C000B8EEC22A21EE000A21EE021A89ED010AD0
:1009D00089ED021AFFF7E2FEA22000F031F8A22012
:1009E00000F02EF8022400BF552000F029F8013C49
:1009F000210605F8010FF7D1FFF7C8FE9DF80000AA
:100A00009DF80110C00040EA51114FF6000200238A
:100A1000CFF6FF72B3EB902F18BF114300EE101A00
:100A2000B8EEC00AB4EE001A20EE010AB3EE071ABF
:100A300030EE010A88ED000A03B0BDE8F083000043
:100A400080B582B08DF8070041F6BC004FF47A7C87
:100A5000C2F200000DF107010DF106020123CDF8ED
:100A600000C003F0CDFC9DF8060002B080BD000080
:100A700002784078D20042EA50104FF6000C002372
:100A8000CFF6FF7CB3EB922F18BF40EA0C0000EECC
:100A9000100AB8EEC00AB4EE001A20EE010AB3EE56
:100AA000071A30EE010A81ED000A7047FEE70000E8
:100AB00041F28C00C2F2000001F0C8B841F2B4006B
:100AC000C2F2000001F0C2B810B58AB00024CDE92E
:100AD000034403910821DDE90CECCDE907440791BB
:100AE000110A8DF80410190A8DF806104FEA1E211C
:100AF0008DF808104FEA1C218DF805208DF807307D
:100B00008DF80A1003A901AA09ABCDE905448DF8B7
:100B100009E08DF80BC000F049FF0AB010BD0000DD
:100B200080B58AB00022CDE9032203910821CDE9E6
:100B30000722CDE90522079103A901AA09AB8DED92
:100B4000010ACDED020A00F031FF0AB080BD0000BD
:100B50002DE9F04F81B02DED0E8B41F6F04A48F2B1
:100B60000000C2F2000AC4F20440CAF89C0042F23B
:100B70000000C4F29950CAF8500148F20000C4F2D3
:100B80001840CAF8040249F20000C4F29C50CAF8A6
:100B9000B80240F62850C2F2000090ED02CA9FED64
:100BA0007D0A90ED00EA2CEE000A9FED7B1A90ED95
:100BB00001DA30EE0E8A2CEE412A3EEE40AA2CEEEF
:100BC000010A18EE100A32EE4DBA30EE4D9A0DF0D1
:100BD00065FF02460B460DF0A9FC80461BEE100A8D
:100BE00089460DF05BFF02460B460DF09FFC064662
:100BF0000F464046494632463B460DF0D7FB41EC96
:100C0000100B0CF0BBFF51EC100B0DF09DFB47F6E9
:100C1000E474C2F2000460651AEE100A0DF03EFFA3
:100C200002460B460DF082FC32463B4683460D469B
:100C30000DF0BCFB41EC100B0CF0A0FF51EC100BC5
:100C40000DF082FBC4F8AC0019EE100A0DF026FF7F
:100C500002460B460DF06AFC06460F4658462946EA
:100C600032463B460DF0A2FB41EC100B0CF086FF28
:100C700051EC100B0DF068FBC4F8040140464946E6
:100C800032463B460DF092FB41EC100B0CF076FF28
:100C900051EC100B0DF058FBC4F85C010AF1A400F4
:100CA000B0EE4B0AF0EE480A08F0F0FD0AF5AC7021
:100CB000B0EE4B0AF0EE4A0A08F0E8FD0AF50370C0
:100CC000B0EE490AF0EE4A0A08F0E0FD0AF530708D
:100CD000B0EE490AF0EE480A08F0D8FDB5EE40EA59
:100CE000F1EE10FA12D1B5EE40DAF1EE10FA0DD1B4
:100CF000B5EE40CAF1EE10FA08D10020CAF8A400FF
:100D0000CAF85801CAF80C02CAF8C0029FED238A3B
:100D10009FED239A40F6DB770AF1A8055426C4F22A
:100D2000490705E05836B6F5DA7F05F1B4052CD051
:100D300035F8A60C15ED031A00EE100AB8EE400ABD
:100D400030EE410A80EE080A15ED011A30EE410A34
:100D500009F00EFDB0EEC01AB4EE491AF1EE10FA29
:100D600085ED000ADEDD10EE100A67F31E0001EECD
:100D7000100AA01930EE410A90ED001A85ED000A24
:100D8000B1EE410A80ED000ACCE7BDEC0E8B01B05C
:100D9000BDE8F08FADE2243F16D4433F83F9A2446F
:100DA000DB0FC93F002904BFFF2070474EF6E83C27
:100DB000421EFF20C0F6000C12F8013FC0B258409E
:100DC0001CF800000139F7D1704700004FF0000215
:100DD000F0B103291CD310B5B1F1010C0FD04EF6C0
:100DE000E83E4B42421EFF21C0F6000E12F8014FB2
:100DF000013361401EF801105C1CF7D100E0FF21B7
:100E000010F80C00081AB0FA80F04209BDE8104052
:100E10001046704700284FF6FF7218BF002911D006
:100E20004EF6E84C0138C0F6000C00BF10F8013F48
:100E3000013983EA0203DBB23CF8133092B283EA51
:100E40001222F3D190B27047B0B54FF0000248B310
:100E5000032927D3B1F1020C4FF6FF7212D04EF6E0
:100E6000E84E431EC0F6000E644600BF13F8015F53
:100E7000013C85EA0205EDB23EF8155092B285EAD2
:100E80001222F3D110F80C30D5B2AB421CBF0020B7
:100E9000B0BD084410F8010C91B2A0EB1120B0FADB
:100EA00080F042091046B0BDA0F20121072988BF99
:100EB00070472DE9F04381B04EF6B032C0F6000223
:100EC00052F8215017A252F821601EA213A052F826
:100ED000217024A2405C52F821802AA20B9C52F877
:100EE000219009F0D5F928883080208800BA000CBC
:100EF00028806088C0BA00EE100AB8EEC00A87EDFC
:100F0000000AA08800BA000CA8F80000A07989F8AF
:100F1000000001B0BDE8F043704700BF02010403C8
:100F200008060507E47F00203C800020EC800020BC
:100F3000948000200C1F0020A41D0020F01C002025
:100F4000581E0020E87F002040800020F080002014
:100F500098800020101F0020A81D0020F41C0020F5
:100F60005C1E0020EC7F002044800020F4800020E4
:100F70009C800020141F0020AC1D0020F81C0020C5
:100F8000601E0020EE7F002046800020F6800020BA
:100F90009E800020161F0020AE1D0020FA1C00209D
:100FA000621E0020000000002DE9F04F81B00446D1
:100FB00040F2023084420D466EDCB4F5987F00F0BA
:100FC000938040F20130844240F0AC8028886988E8
:100FD000C3BAAA8800EE103A40F60043C2F20003FA
:100FE000CFBAD6BA5B8940F6285B01EE107A02EEE2
:100FF000106AB8EEC00AC2F2000BB8EEC11AB8EE21
:10100000C22A312B8BED000A8BED011A8BED022ADF
:1010100037D840F28C13C2F200031B7803F0F003C0
:10102000402B2ED100BA000C09BA4FEA114A11BA6E
:1010300000B24FEA11490DF061FA9FED530B58ECE5
:10104000107B3A4643460DF071FA0DF07DF9CBF86E
:1010500000000FFA8AF00DF051FA3A4643460DF0BF
:1010600065FA0DF071F9CBF804000FFA89F00DF074
:1010700045FA3A4643460DF059FA0DF065F9CBF8BA
:101080000800E87900F001008BF85C00E879C0F313
:1010900040008BF85D0033E040F20330844227D0FB
:1010A000B4F5417F3ED195F900004FF0FF3111FAC0
:1010B00080F0042824D8DFE800F0033844505B00B7
:1010C000B5F8010040F6985100BA000CC2F20001D8
:1010D0000880E879B5F80320887110BAB5F80520C2
:1010E000000C48808A800BE028460AF039FE07E0B1
:1010F000686840F6144100BAC2F20001C1F8060067
:1011000040F20330844207D0B4F5417F0AD141F662
:10111000E940C2F2000003E041F6E840C2F20000FC
:101120000121017001B0BDE8F08FD5F801006968B8
:1011300040F69852C2F20002C2F80A10C2F8070044
:10114000DEE7D5F80100696840F69852C2F2000265
:10115000C2F81110C2F80E00D2E7D5F80100696894
:1011600040F69852C2F200029161C2F81500C7E73A
:10117000B5F8050040F69851C2F200010884D5F890
:101180000100C861BCE700BF333333333333E33F7F
:10119000B0B582B047F6E470C2F2000090ED0B0AE1
:1011A00090ED211A90ED4D3ABDEEC00A90ED372A30
:1011B00010EE102ABDEEC10A10EE103ABDEEC30AC1
:1011C00041F2B40510EE100ABDEEC20AC2F20005EB
:1011D00010EE104A009028464FF400710194FFF77A
:1011E00073FC01200AF07CFF41F6F040C2F20000DF
:1011F00090ED0B0A90ED381A90ED922A90ED653A39
:10120000BDEEC00ABDEEC22ABDEEC11A10EE100A34
:10121000BDEEC30A12EE102A11EE103A10EE104A7B
:101220000090284640F2FF110194FFF74DFC012089
:1012300002B0BDE8B0400AF053BF0000B0B582B0C4
:1012400041F2B404C2F20004002520464FF40071BC
:101250000022002300950195FFF736FC01200AF0DB
:101260003FFF204640F2FF11002200230095019528
:10127000FFF72AFC012002B0BDE8B0400AF030BF01
:101280002DE9F04381B02DED048B47F6E4709FED1E
:10129000200BC2F2000041F6F0499FED1F8A00F1D9
:1012A00054070024C2F2000955EC108B09EB040628
:1012B00096ED2A0A06F15400F0EE480A05F0E8FB24
:1012C00096ED010AD6ED1D0A06F10C0005F0E0FBD3
:1012D00017ED149AA7F1480657F8580B0DF0DEFBEE
:1012E00042462B460DF022F90DF02EF800EE900A42
:1012F0003046B0EE490A05F0CBFBB434B4F5347F88
:10130000D4D1BDEC048B01B0BDE8F08300BF00BFB9
:10131000E27A1448067801400000000005F0BAFCAB
:1013200040F62854C2F2000405E000BFFFF730FF8A
:1013300001200AF0D5FEFFF70BFCFFF7A1FF94F8A0
:101340005C000028F2D1FFF779FFF1E741F2642059
:10135000C2F2000000F098BF41F2C420C2F20000C7
:1013600000F092BF80B500F009F841F2E400C2F24B
:101370000000BDE8804000F087BF0000B0B541F636
:10138000BC00C2F20000C16C46F2A040C4F20200F0
:101390000968A0F1480246F29F059142C4F2020595
:1013A00002D950F89C3C11E046F25803C4F2020303
:1013B00003F16004A14202D9D3F8A83306E09942B0
:1013C00002D953F8543C01E053F8583CA9424FF07D
:1013D000200414DD46F23F45C4F20205A94223DC95
:1013E00046F2A005C4F20205A9422CD046F21045EF
:1013F000C4F20205A94237D046F228452EE046F253
:101400003F05C4F20205A94220DD46F24005C4F2C0
:101410000205A94217D046F27005C4F20205A9429E
:1014200022D046F2880519E046F24045C4F2020592
:10143000A94208D046F27045C4F20205A94213D071
:1014400046F288450AE04FF400140DE046F210051C
:10145000C4F20205A94207D046F22805C4F20205EB
:10146000A94278D14FF400642340002B00F0E080C3
:10147000914210D946F27042C4F20202914246D023
:1014800046F28842C4F20202914244D14FF4006213
:1014900040F8942C7EE046F25802C4F2020202F1B7
:1014A0006003994218D946F21042C4F202029142F6
:1014B00058D046F22842C4F20202914256D046F277
:1014C0004042C4F2020291420CBF4FF400114FF0AF
:1014D000006140F8981C5DE0914225D946F2700009
:1014E000C4F20200814246D046F28800C4F20200F3
:1014F000814244D046F2A000C4F2020081420CBFF7
:101500004FF400104FF0006042F84C0C42E02022F3
:1015100040F8942C3EE04FF00062814208BF4FF447
:10152000001240F8942C35E046F21000C4F202009C
:10153000814229D046F22800C4F20200814225D01F
:1015400046F24000C4F2020081420CBF4FF400108A
:101550004FF000601CE04FF00064814208BF4FF480
:10156000001481E7202140F8981C13E04FF400613B
:1015700040F8981C0EE0202042F84C0C0AE04FF492
:10158000006042F84C0C05E0202001E04FF40060C0
:1015900042F8500C40F6FA75C2F200052878002493
:1015A0008007C4F202040DD52878012100F0FD0067
:1015B00028702878012240F00400287004F580602B
:1015C00001F06EF940F6A140C2F2000001788907EF
:1015D0000CD50178012201F0FD010170017841F084
:1015E000040101702046102101F05AF940F6A04094
:1015F000C2F20000017889070CD50178012201F0C0
:10160000FD010170017841F00401017020461021B4
:1016100001F046F908F06AFF2878400758BFB0BDCE
:1016200043F61040C4F20100016841F0010101607D
:10163000B0BD000041F24410C2F2000000F024BE30
:1016400041F2A410C2F2000000F01EBE41F22430AC
:10165000C2F2000000F018BE41F20420C2F2000005
:1016600000F012BE70470000012001F03DB80000FC
:10167000082001F039B80000102001F035B8000052
:10168000202001F031B8000072B600BFFEE7000074
:10169000B0B581B00022009290F83C20012A01D11F
:1016A000022176E0D1F800E001221FFA8EFC80F8DA
:1016B0003C204FEA4C0212FA8EF30268BEF10A0F88
:1016C00032BF10321E3B0C32072415689C4025EABD
:1016D000040414608C68156804FA03F32B43136048
:1016E0004A68062A07D802EB82014A1F01681F23B5
:1016F00051F8344F0CE001680C2A02EB820203D847
:1017000051F8304F233A02E051F82C4F413A1F2351
:10171000934024EA03030B600D680CFA02F22A439B
:1017200042F204330A60C4F201030168A3F5417276
:10173000914208BFBEF1120F02D0914206D025E0BF
:101740001D6845F480051D6091421FD12EF00101F6
:1017500010291BD11968BEF1100F41F40001196066
:1017600014D140F21C01C2F2000109684DF68362F7
:10177000C4F21B32A1FB0212910C01EB8101490062
:101780000091009911B100990139F9E7002180F821
:101790003C10084601B0B0BD002804BF01207047CE
:1017A00010B50446006C30B9204600F09BF80020CC
:1017B000606484F83C00206CC0063AD4206C41F28E
:1017C00002118843023042F204312064C4F2010164
:1017D000086820F4403008600A6894E809101A4349
:1017E000D4F810E00A604168012321F4807141605F
:1017F0004168C0F6007341EA0E214160416821F062
:1018000040714160416841EA0C014160816821F406
:1018100000618160E168826811438160A16A826829
:10182000994222F070628260826804D122F04051B5
:101830000AE0012052E011438160816821F04051AB
:101840008160E16A826811438160816821F0020150
:1018500081608168227E94F8203041EA42018160F3
:10186000416883B141F40061416041684EF2000279
:1018700021F460414160616ACFF6FF72436802EB78
:101880004131194301E021F400614160C16A40F235
:10189000000C21F47001C162E2696169CFF6F07C4D
:1018A000C36A0CEB02521A43C262826822F40072CD
:1018B000826094F83020836843EA42228260826822
:1018C00022F480628260826842EA81218160002085
:1018D0006064216C012262F301012164002184F81B
:1018E0003C1010BD80B586B0006842F20022C4F200
:1018F000010200219042CDE90411CDE902110191CC
:1019000016D042F20001C4F20101884238D1002011
:10191000009043F64400C4F20200016841F4807173
:101920000160006800F480700090009806B080BDEF
:1019300043F644000091C4F20200026842F480625F
:101940000260026802F480620092009A009150F8EE
:10195000142C42F0200240F8142C50F8140C00F023
:101960002000009000984FF4806001900320CDE9A2
:10197000020141F20040C4F2020001A900F0C0FEE1
:1019800006B080BD90F82020013A012A04D80068F2
:1019900000F11402002004E000F1240201204FF4C1
:1019A00080211368194311607047000010B590F84A
:1019B00020E0D0F800C0AEF1010EBEF1010FDCF85E
:1019C00008E010D81EF0E05F13D0CEF3016E0120C6
:1019D00000FA0EF018608B688BB14868CC6844EA56
:1019E000C00003430FE000F1240101204FF48022E6
:1019F00023E000F1240101204FF400121DE00868EB
:101A0000CB6843EA40530CEB0E10C0F880310B69F1
:101A1000C0F88431097D012905D100F5C2710B6838
:101A200043F480730B605168C0F88C11126800F5A4
:101A3000C071C0F88821002001220B681A430A6097
:101A400010BD0000B0B590F82020013A012A2FD82F
:101A500046F20060C4F20000026842F00102026037
:101A6000026822F47C520260D1F814E0CC694A6A20
:101A70000368012C43EA022202600EF01F024FF0BD
:101A8000010303FA02F2C3696FEA020C23EA0203BC
:101A9000C36113D02CBBC36803EA0C03C360CB68DB
:101AA0008C8844EA034300EBCE0423640B4611E028
:101AB000416A41F4802141620120B0BDC3681343F3
:101AC000C3600B688C8844EA034300EBCE042364B4
:101AD00001F10C038C681B8843EA044300EBCE043D
:101AE000636443688D6943EA0204D1F810E0096A2F
:101AF000002D08BF03EA0C0444604369BEF1000FE7
:101B000043EA020408BF03EA0C040129446102D13C
:101B1000C1691143C161016821F001010160002028
:101B2000B0BD00007047000010B590F82040013CA7
:101B3000012C0AD8046871B12469A4070ED100F100
:101B4000240101204FF4001276E000F1240101206D
:101B50004FF4802270E0E468A40771D0046804EBBD
:101B6000011CDCF8B0410CF5D87E14F0040494603C
:101B7000DCF8B04119BFE4085460640D1460DEF86D
:101B800000400CF5DA7E04F00204D460DCF8B441C5
:101B900024075ABFDEF8004004F00F040824146143
:101BA000DEF800400029C4F307249461DEF8004009
:101BB0004FEA14445461DCF8B8211A70026802EB51
:101BC0000112D2F8B8214FEA12225A70026802EBD1
:101BD0000112D2F8B8214FEA12429A70026802EB61
:101BE0000112D2F8B8214FEA1262DA70026802EBF1
:101BF0000112D2F8BC211A71026802EB0112D2F86C
:101C0000BC214FEA12225A71026802EB0112D2F88B
:101C1000BC214FEA12429A71026802EB0112D2F81B
:101C2000BC214FEA1262DA71006814BF00F11001A2
:101C300000F10C01002020220B681A430A6010BD3D
:101C400000F1240101204FF40012F5E72DE9F04FD7
:101C500081B0044600684669D0F804908768D0F8DF
:101C60000CB0D0F810A0D0F81880F10703D10025EF
:101C700030071CD423E0F90710D00121BA07816096
:101C800009D4780700F1AA80380700F1B080204617
:101C900000F06EFA02E0204600F06CFA0025F8052C
:101CA00000F18480F80300F1AA80300707D51BF00B
:101CB000100004D0206845F400751021C160700741
:101CC00008D51BF0080005D020680821C160204617
:101CD00000F0E6F9B00706D52068C068800702D09A
:101CE000204600F0DFF9700607D51AF0100004D086
:101CF000206845F4806510210161B00608D51AF00E
:101D0000080005D0206808210161204600F0FCF998
:101D1000F00606D520680069800702D0204600F052
:101D2000F5F9B00308D519F0100005D0206810218E
:101D30004160204600F0ECF9F00308D519F00800E6
:101D400005D0206808214160204600F01DFA3004CB
:101D500040F18F805FEA497040F1888006F480701E
:101D600008EA102028435FEA8871014648BF41F025
:101D70000201B20558BF01465FEA48700D4648BFF0
:101D800045F00405700558BF0D4630056ED518F0B6
:101D900070006BD010380009052862D8DFE800F029
:101DA000035356595C5F45F008055AE020684FF42C
:101DB0008071BA0581600AD4780512D4380519D427
:101DC000204600F0D9F9F8037FF56FAF17E0204601
:101DD00000F0D4F9F8037FF568AF10E04FF4006528
:101DE0005DE705F50055F8037FF55FAF07E04FF4B9
:101DF000805554E705F58045F8037FF556AF206818
:101E00004FF48031BA0381600AD478030FD43803C9
:101E100013D4204600F0B4F930073FF548AF4EE741
:101E2000204600F0AFF930073FF541AF47E705F531
:101E3000004530073FF53BAF41E705F580353007FA
:101E40003FF535AF3BE745F010050AE045F02005CA
:101E500007E045F0400504E045F0800501E045F469
:101E600080752068816921F07001816120680421FA
:101E700041604DB1606A40EA05012046616201B0EF
:101E8000BDE8F04FFFF74EBE01B0BDE8F08F000097
:101E9000B0B5C8B1044690F8200010B9204600F053
:101EA00071F82068016841F00101016000F0FEFC5A
:101EB000054600BF20684168C90707D100F0F6FC5D
:101EC000401B0B28F6D312E00120B0BD016821F0C1
:101ED0000201016000F0EAFC054600BF206841688D
:101EE00089070DD500F0E2FC401B0B28F6D3606A91
:101EF000052140F400306062012084F82010B0BD5C
:101F0000217E0268012922F0800208BF803202602F
:101F1000617E0268012922F0400208BF403202605F
:101F2000A17E0268012922F0200208BF203202604F
:101F3000E17E0268012922F0100218BF103202600F
:101F4000217F0268012922F0080208BF08320260DE
:101F5000617F0268012922F0040208BF0432026096
:101F6000D4E901C2D4E9033561691A432A43114314
:101F7000ACF101021143C16100200121606284F8CB
:101F80002010B0BD10B586B0006846F60002C4F25D
:101F9000000200219042CDE90411CDE90211019126
:101FA00033D046F20041C4F20001884276D140F2BB
:101FB000C411C2F200010A6843F64000C4F20200F4
:101FC000531C0B6052B900210091016841F000716F
:101FD0000160016801F000710091009900210091F9
:101FE00050F8101C142441F0080140F8101C50F85F
:101FF000100C032100F008000090009840F200400F
:10200000C4F2020000F5006034E043F64000C4F280
:1020100002000091016841F080610160016801F0F7
:1020200080610091009940F2C411C2F200010A6877
:10203000531C0B6052B900210091016841F00071FE
:102040000160016801F00071009100990021009188
:1020500050F8101C402441F0020140F8101C50F8C8
:10206000100C602100F002000090009840F2004047
:10207000C4F2020001910221029100210391032187
:1020800004910921059101A900F03AFB20460521A0
:10209000002201F095F8204601F082F806B010BD4C
:1020A000704700002DE9F04184B040F6F44440F65A
:1020B000EC48C2F20004C2F2000800212246434666
:1020C0000546FFF731FD41F2B400C2F2000085423F
:1020D00007D194E8CF10CDF80C808DE8C010FEF742
:1020E000E3FE41F28C00C2F2000085421CBF04B046
:1020F000BDE8F081206840F6EC41C2F2000104B076
:10210000BDE8F041FEF750BF704700007047000087
:1021100070470000B0B5044690F8200001281DD19A
:10212000022084F820002068016821F0010101608C
:1021300000F0BCFB054600BF20684068C00713D014
:1021400000F0B4FB401B0B28F6D3606A40F400306B
:102150006062052084F820000120B0BD606A40F470
:10216000002060620120B0BD00206062B0BD0000B0
:102170007047000070470000704700007047000083
:10218000704700007047000070470000002804BF3F
:102190000120704710B50446407920B90020207115
:1021A000204600F005F801206071002010BD0000FD
:1021B00081B043F63001C4F202010068A1F5036268
:1021C000904201D001B0704700200090086840F4B0
:1021D00080500860086800F480500090009801B0BA
:1021E0007047000070B5866D044600F05FFB94F800
:1021F0003510022925D105462068216C026822F09D
:1022000016020260426922F08002426109B9A16CA3
:1022100019B1016821F008010160016821F0010194
:10222000016000BF20680068C0070ED000F03EFBD0
:10223000401B0628F6D320206065032084F8350073
:102240000CE080206065012008E0E06D3F2101FA8C
:1022500000F0B060012084F835000020002184F8EF
:10226000341070BD90F83510022909D1052180F88D
:1022700035100068016821F00101016000207047FD
:102280008021416501207047F0B581B004460020EF
:10229000009040F21C00C2F200000268D4E916600F
:1022A00048F2B51337680821C1F64E3381403942F0
:1022B000A2FB03250CD0226813685B0708D51368BE
:1022C00023F004031360B160616D41F001016165A9
:1022D00001218140394208D022685269120604D592
:1022E000B160616D41F002016165042181403942B4
:1022F00008D022681268920704D5B160616D41F080
:102300000401616510218140394215D020680268BE
:10231000120711D5B16002680168520306D4C905DD
:1023200006D4016821F00801016001E008033ED4F1
:10233000216C09B120468847E16D202000FA01F2A6
:102340003A4240D020680368DB063CD5B26094F87E
:1023500035300268052B1AD122F01602026042695C
:1023600022F080024261226C0AB9A26C1AB10268A2
:1023700022F0080202603F208840B060012084F80B
:102380003500216D002084F83400D9BB3FE001689E
:10239000520310D4C90512D4016821F01001016064
:1023A000012084F83500002084F8340007E0A16C97
:1023B0000029BFD1C0E7080301D4616C00E0E16BE4
:1023C00009B120468847606D08B3606DC00717D01B
:1023D000052084F835002068A90A026822F001026D
:1023E000026000BF009A01328A42009202D802685D
:1023F000D207F7D1012084F83500002084F834009A
:10240000E16C21B1204601B0BDE8F040084701B0C1
:10241000F0BD00002DE9F041044600F047FAC4B1D8
:102420000546022084F835000020216884F8340035
:10243000086820F00100086020680168C9070BD017
:1024400000F034FA401B0528F6D90321202203208E
:102450007AE00120BDE8F081016848F23F02CFF246
:102460001002D4E9013501EA020ED4E9032143EA5E
:102470000E032B43D4E9056C1A43D4E907781143C2
:10248000314341EA0702616A42EA0802042942EA4A
:102490000C0303D1D4E90B273A4313430360426989
:1024A000042922F0070241EA02012DD1D4E90A539E
:1024B00041EA050143B3BCF5005F08D0BCF1000F51
:1024C00012D1022D16D0012D07D09DB119E0032D98
:1024D00017D8DFE805F00B0F0B02A3F1C072B2FAB8
:1024E00082F252094AB90FE0032D02D2012222B929
:1024F0000AE006D1C3F3006232B10121402201207B
:1025000022E00022002AF8D100F0F8024AF6AB23BC
:10251000103ACAF6AA23A2FB03374EF62273416192
:102520003909C0F60003595C40F2FF3398435F2A33
:102530004FF03F0288BF0430C4E9160102FA01F1EE
:102540008160002201210020626584F83510BDE819
:10255000F081000070B590F834C0BCF1010F45D097
:102560004FF0010C80F834C0D0F858E090F835C036
:10257000BCF1010F37D14FF0020C80F835C04FF09D
:10258000000CC0F854C0D0F800C08468056CC06D61
:10259000DCF80060402C26F48026CCF80060CCF8F3
:1025A00004300B4604BF13460A463F2101FA00F0EF
:1025B000CCF80830CCF80C20CEF80800DCF800008D
:1025C00040F01600CCF800002DB1DCF8000040F01F
:1025D0000800CCF80000DCF8000040F00100CCF866
:1025E0000000002070BD002180F83410022070BD72
:1025F00010B501381F2800F27680DFE800F0107473
:1026000074747474745374747474747474367474E9
:10261000747474747474747474747474745F41F640
:102620000D30C2F20000012101700AF05BFC0128AC
:1026300059D040F2D010C2F2000040F2C01400683D
:10264000C2F20004214609F0C3FD2068002808BF3B
:1026500010BD4EF60450CEF200004FF080510160E4
:10266000BFF34F8FBFF36F8F3DE00A2007F010FEDE
:1026700040F6A140C2F20000017841F00101017072
:1026800040F6A040C2F20000017841F00101017063
:1026900041F60E30C2F20000007820B3BDE81040D1
:1026A00007F024BF0B2007F0F3FD41F67430C2F2AF
:1026B0000000017841F00101017010BD092007F010
:1026C000E7FD40F6FA70C2F20000017841F0010126
:1026D000017041F60E30C2F20000007818B1BDE87A
:1026E000104007F003BF10BD43F61441C4F20101CE
:1026F0000A68024214BF08607047FFF779BF000004
:102700002DE9F04F82B000F13E4241F6004502F162
:10271000FF77C4F2020508224FEAB726A84208BF95
:102720000722072E38BF4FEAB7224FF0010A0024D4
:1027300000274FF00009009209E000BF09F10109EC
:102740000237B9F1100F04F1040400F0A6800A6802
:102750000AFA09FC12EA0C08F0D0D1F804B00BF028
:10276000030AAAF10102012A12D882680323CE6863
:1027700003FA07FE22EA0E02BE403243826042683C
:10278000CBF3001622EA0C0206FA09F63243426045
:10279000BAF1030F1DD0C26803238D6803FA07F650
:1027A000B24305FA07F63243BAF1020FC26010D104
:1027B0006FF0030202EA59020244D2F820C004F08A
:1027C0001C050F230E69AB402CEA0303AE403343D4
:1027D0001362026803234E68BB409A4306F003036A
:1027E000BB401A4316F4403F4FF0010A0260A5D0E7
:1027F000002243F644030192C4F202031A6843F62E
:10280000004E42F480421A601A68C4F2010E02F4CB
:1028100080420192019A29F003024FF6084C72445B
:10282000CFF6FF7C52F80C3004F00C060F25B540B3
:10283000AB43009D05FA06F6334342F80C30DEF850
:1028400008204B6842EA080643F60C4CDD0258BFEC
:1028500022EA0806CEF80860C4F2010CDCF8002079
:102860009D0242EA080658BF22EA0806CCF800603A
:10287000DEF804209D0342EA080658BF22EA080653
:10288000CEF80460DEF80020DB0342EA080658BFF9
:1028900022EA0806CEF8006050E702B0BDE8F08FEB
:1028A000002A08BF090481617047000047F6CC7018
:1028B000C2F2000000687047F0B581B0B0B30446C2
:1028C00090F83D0028B9002084F83C00204600F034
:1028D0006BFB242084F83D002068016821F0010191
:1028E0000160016841F400410160016821F4004188
:1028F000016001F095FA48F28041C0F21E0140F6F5
:102900000012656888424FF00001C0F23D0248F2B3
:10291000A16C4FF0000338BF01219042C0F2010CBE
:1029200038BF0123654538BF0B4613B1012001B004
:10293000F0BD4DF68361C4F21B31A0FB011221688A
:102940004FEA924E4B684FF4967623F03F0343EAEA
:1029500092434B6044F6D3530F6A0EFB06F6C1F266
:102960006203A6FB033627F03F03B709654538BF6E
:10297000970C7A1C1A430A62CA6948F2A0674CF69F
:10298000FF73C0F20107BD4222EA030C0AD80138E6
:102990006A00B0FBF2F001306FF31F30042898BFDB
:1029A00004202BE0A368A0F1010E9BB1192068431D
:1029B000BEFBF0F00422013062F31F30000512D09C
:1029C0009BB119206843BEFBF0F00422013062F392
:1029D0001F3011E005EB4500BEFBF0F001306FF356
:1029E0001F300005ECD1012008E005EB4500BEFBDF
:1029F000F0F001306FF31F3040F4004040EA0C006B
:102A0000C8610868D4E9072320F0C00010431843C8
:102A10000860886848F2FF3204F10C0790438CCFBD
:102A200018431043A6698860C86820F0FF00384347
:102A30003043C860086840F0010008600020202191
:102A4000206484F83D10206384F83E0001B0F0BD9E
:102A50002DE9F04F83B0984692468B460446FFF727
:102A600025FF94F83D10202909D10546206880698A
:102A700010F0020007D194F83C00012828D1022070
:102A800003B0BDE8F08F012686EA500707E000BFDB
:102A90002068806910F0020086EA5007EBD0FFF74B
:102AA00005FF401B1A28F3D3206880698007EFD503
:102AB00000202021206384F83D1084F83E00216C22
:102AC00041F020012164F90784F83C00D7D0D2E717
:102AD0000121226884F83C101368DDE90D090C9986
:102AE000DB0703D1136843F001031360136823F479
:102AF00000631360222284F83D20402284F83E20A7
:102B00000022226461626085608D59462085002024
:102B1000CFF6FF70E062204652464346CDF8009063
:102B2000019502F071FE18B1012003B0BDE8F08FED
:102B3000208D022806D0012810D000BB0020029072
:102B4000206812E02068016821F48061016001685A
:102B500041F4006101600021029113E020680168E6
:102B600021F4806101600021029141690291816933
:102B700002910299016841F40071016007E00020B0
:102B80000290206841690291806902900298208D2C
:102B9000002800F008814FF0010B09F101074FF008
:102BA00000084FF0200A032811D802286AD0012813
:102BB0003AD02068406910F0040040F095808BEA1C
:102BC000900621E020684069400640F1FF802068BF
:102BD00050F8141F490639D40168C90600F1EA808B
:102BE000FFF764FEB9F1000FECD0401B4845EED969
:102BF000E8E720684069400767D52068406910F021
:102C000004008BEA90066FD1002FF6D0FFF74EFE3E
:102C1000B9F1000FEDD0401B4845EED9E9E7206837
:102C20004069400640F1D280206850F8141F4906E0
:102C300046D40168C90600F1BD80FFF737FEB9F13F
:102C4000000FECD0401B4845EED9E8E72068616AE8
:102C500000690870606A228D0130013A6062228545
:102C60002168638D013B63854B695B0740F1978069
:102C700092B2032A03D10A6822F480620A600969C9
:102C8000017083E02068406910F004006AD18BEA8B
:102C900090060AE020684069400754D520684069E2
:102CA00010F004008BEA90065CD1002FF6D0FFF7FD
:102CB000FDFDB9F1000FEDD0401B4845EED9E9E725
:102CC0002068616A0069087060E0C4F8308084F8A8
:102CD0003DA084F83E80206C40F020002064F00786
:102CE00084F83C807FF420AF2068616A026822F497
:102CF0008062026000690870606A21680130606269
:102D0000208D01382085608D01386085486910F07C
:102D1000040027D18BEA90060AE02068406940074A
:102D200011D52068406910F004008BEA900619D193
:102D3000002FF6D0FFF7BAFDB9F1000FEDD0401B20
:102D40004845EED9E9E7C4F8308084F83DA084F81E
:102D50003E80206C40F020002064F00784F83C8026
:102D60007FF4E2AE2068616A026842F40072026099
:102D700000690870606A2268411C6162218D013916
:102D80002185618D0139618511694170606A218DEC
:102D900001306062481E2085608D01386085208D7D
:102DA00000287FF400AF202084F83D00002084F844
:102DB0003E0017E06FF01001016000202021206329
:102DC00084F83D1084F83E00206C09E000202021AA
:102DD000206384F83D1084F83E00206C40F0200011
:102DE00020640120002184F83C1003B0BDE8F08F7E
:102DF0002DE9F04F83B0994692468B460446FFF783
:102E000055FD94F83D10202909D1054620688069B8
:102E100010F0020007D194F83C00012828D10220CC
:102E200003B0BDE8F08F012787EA500607E000BF36
:102E30002068806910F0020087EA5006EBD0FFF7A7
:102E400035FD401B1A28F3D3206880698007EFD531
:102E500000202021206384F83D1084F83E00216C7E
:102E600041F020012164F10784F83C00D7D0D2E77B
:102E70000121226884F83C101368DDE90D080C99E3
:102E8000DB0703D1136843F001031360136823F4D5
:102E900000631360212284F83D20402284F83E2004
:102EA0000022226461626085608D59462085002081
:102EB000CFF6FF70E062204652464B46CDF80080C8
:102EC000019502F0DBFD002869D1208DB8B308F12F
:102ED000010603E02068406900064BD5206850F8E1
:102EE000141F09060DD4016849053ED4002EF5D003
:102EF000FFF7DCFCB8F1000FECD0401B4045EDD9EA
:102F0000E8E7606A2168034613F8012B0A61228D05
:102F10006362531E2385678D013F67854F697F0775
:102F20000AD51B0408D0437802300B616062901E02
:102F30002085608D01386085208D0028CED1204607
:102F400041462A4602F092FE08BB2068016841F41F
:102F500000710160202084F83D00002084F83E00CC
:102F600084F83C0003B0BDE8F08F6FF4806101602D
:102F7000042000E0202000212022216384F83D204D
:102F800084F83E10226C1043206484F83C10206CBE
:102F9000042804D12068016841F400710160012017
:102FA00003B0BDE8F08F00002DE9F04786B045F68C
:102FB00000460068C4F200060025B0420595CDE940
:102FC00003550295019502D006B0BDE8F08743F69F
:102FD00030070095C4F20207386801AC40F00400E5
:102FE000386038684FF0120800F004000090009834
:102FF000009538684FF0030940F0010038603868E8
:103000004FF0040A00F00100009000984FF40070A7
:10301000019006F5D6302146CDE90285CDF8109015
:10302000CDF814A0FFF76CFB4FF48070CDE90108D8
:1030300003A880E8200606F5D2302146FFF760FBA2
:103040000095386940F400003861386900F40000E8
:103050000090009806B0BDE8F087000040F2A400A0
:1030600047F6CC71C2F20000C2F2000100780A6893
:10307000104408607047000080B543F60040C4F279
:103080000200016841F400710160016841F480614F
:103090000160016841F480710160032000F0BCF818
:1030A0000F2000F005F800F059F8002080BD000066
:1030B00070B586B0002543F640010195C4F20201C7
:1030C0000A68044642F001020A60096801A801F09A
:1030D000010101910199694600F07CFE049E002ED9
:1030E00018BF012600F09CFE4DF68361B040C4F28B
:1030F0001B31A0FB01014FF0FF3000EB914141F685
:103100005C10C2F200004FF0804240F2E733C0E9A9
:103110000021C0E902530561856101F0FDFA054611
:10312000C0B941F65C10C2F2000001F06BFB05462D
:1031300080B91C2000F034F80F2C0AD81C2021463E
:10314000002200F03DF840F2A800C2F20000046046
:1031500000E00125284606B070BD000082B00020C6
:1031600043F640010190C4F202014A6842F48042F1
:103170004A604A6802F480420192019A009008680D
:10318000002240F08050086008680F2100F0805055
:10319000009000986FF0010002B000F011B800003C
:1031A000002848BF704700F01F01012202FA01F118
:1031B0004EF200124009CEF2000242F82010704791
:1031C00010B54EF60C5CCEF2000CDCF80030C3F308
:1031D000022E8EF00704042C28BF0424BEF1030342
:1031E0004FF0FF3E0EFA04F438BF0023A14399408C
:1031F0000EFA03F39A43114300F1604200F00F030B
:10320000090102F56442043B6344002848BF03F10E
:103210000C02117010BD00004EF60C51CEF20001F0
:103220000A684FF6FF031A4060F30A2242F08060FA
:1032300040F0FD700860704770470000D0F8E0046F
:1032400005F076BB01EBC102D0F8E03400EB820060
:10325000026A184605F0D0BA01EBC102D0F8E0349A
:1032600000EB8200D0F86022184605F01FBB00007A
:10327000D0F8E00405F05EBBB0B50279044601F079
:103280000F00904284BF0120B0BD49B2B1F1FF3FB1
:1032900009DD00EBC00104EB810202F5157100238A
:1032A00082F8553207E000EBC00104EB81020123F4
:1032B00002F11401537594F894240025012A8D70AD
:1032C000087004BF0220B0BD2068012284F8942455
:1032D00006F014F8284684F89454B0BD70B506463C
:1032E00048B2B0F1FF3F01F00F0000EBC00107DD75
:1032F00006EB810404F51571002584F8555206E0AB
:1033000006EB810C01240CF114018CF815404D786A
:103310006FF3DF22002D08708A600B7118BF48839D
:10332000022B04BF0020487196F89404012804BFC2
:10333000022070BD3068012286F8942405F060FFF9
:10334000002086F8940470BD10B501F00F0404EB62
:10335000C40100EB810E4FF0000CCEF868C28EF86D
:1033600055C290F806C0CEF86022CEF86432BCF1A7
:10337000010F8EF8544208BFCEF8702200680EF597
:103380001571624606F000F8002010BDB0B5044685
:10339000007901F00F05854284BF0120B0BD48B21D
:1033A000B0F1FF3F09DD01EBC10004EB800000F547
:1033B0001571002280F8552207E005EBC50004EBEB
:1033C0008000012200F11401427594F89404012256
:1033D00001288A700D7004BF0220B0BD206884F8F7
:1033E000942405F0B3FF2DB92068A17904F29C4222
:1033F00005F056FF002084F89404B0BD80B501F0BC
:103400000F0C0CEBCC0100EB810E714601F814CFD0
:103410004FF0000CC1F814C04FF0010C81F801C04E
:1034200090F806C0CA60BCF1010F0B6108BFCEF86E
:1034300030200068624605F0A7FF002080BD000034
:103440002DE9F04F89B005680646284606F008F9D0
:1034500010B109B0BDE8F08F306806F02FF90028F0
:10346000F7D0D5F80808C0F30D213068C6F8D41499
:1034700006F024F9800704D53068416901F00201A3
:103480004161306805F50061039106F017F9C00647
:1034900004953CD53068816921F0100181612C6A66
:1034A000C4F34340062804F00F0519D0022828D1A0
:1034B00047F6F07014EA000823D005EBC50006EBD0
:1034C0008007D7F860124FEA18140498224606F0D5
:1034D000F9F8D7F8600200EB1810C7F8600207E0AF
:1034E000049806F29C41082206F0ECF8C4F30A1492
:1034F00005EBC50006EB8000D0F868122144C0F847
:1035000068123068816941F010018161049D306862
:10351000089606F0D3F8000340F1F180089800689F
:1035200006F0AAF8002800F0EA80064608984FF452
:10353000306800F29C4000244FF0000B07901BE025
:1035400005EB0800022181605FEA8A6042BF05EB5B
:103550000800202181605FEA8A4042BF05EB080035
:103560004FF4005181600BF1010B760808F120083F
:1035700004F1240400F0C380F007F4D008985FFA47
:103580008BF90068494606F091F88246C0075DD085
:1035900005EB080001218160089F386808EB0001F5
:1035A000036C8A68BF79012F29D1170735D4970694
:1035B00076D412F0280F49D143F20B07C4F65477A2
:1035C000BB4202D312F4004230D1089F002C07EB1B
:1035D0000402D2F8743209696FF3DF41A3EB0101F1
:1035E000C2F8681240F08980D2F86432002B00F0F3
:1035F0007F80D2F860020844C2F860027CE043F2A7
:103600000B07C4F65477FF37BB4212D110040DD418
:10361000900644BF2020886014E043F20B00C4F6FB
:103620005470834212D312F400400FD04FF4004084
:1036300037E03CB90899D1F8641219B9079A00210A
:1036400005F02EFE08984946FFF706FE5FEA0A706D
:103650002CD505EB080008218160089843F20B0285
:103660000068C4F65472056C40448168571EBD4220
:1036700005D911F400411CBF4FF400418160089846
:1036800000F0D6FABD42049D10D90898807901282F
:103690000CD10898079A0068012105F001FE05E0A9
:1036A000202088605FEA0A70D3D400BF5FEACA6056
:1036B00042BF05EB0800102181605FEA8A707FF548
:1036C00043AF6869000604D50399486840F48060F8
:1036D00048600898204490F8571201297FF430AFD1
:1036E000002180F857120898494600F06DFA27E744
:1036F000079A012105F0D4FD089F3846A3E7DDF8BD
:1037000020B0DBF8000005F0D9FF400340F1D58080
:10371000DBF8000005F0A8FF002800F0CE8082460C
:1037200005F5106002900BF29C400027019005E027
:103730005FEA5A0A07F1010700F0BF805FEACA702A
:10374000F6D0DBF80000F9B2079105F09DFF029E6C
:103750000446C00726D0039A07F00F00516B0123DF
:1037600003FA00F021EA0000506306EB4710836083
:103770009BF80600012811D107EBC7000BEB800076
:10378000D0E907121144016247B9406A30B9DBF849
:103790000000019A012105F083FD00BF07995846FA
:1037A000FFF750FD200742BF06EB4710082181605C
:1037B000E00642BF06EB471010218160600642BF61
:1037C00006EB471040218160A00715D528463946F1
:1037D00005F014FF07EBC7000BEB800010F8171F74
:1037E000012905D1002101700799584600F0E8F938
:1037F00006EB471002218160200699D507EBC70030
:103800000BEB8000814659F8241FC84658F8042F56
:1038100091428DD3DBF8006083465BF81C3F891A28
:10382000994238BF0B46069606EB4711D1F8182986
:10383000033392B2B2EB930F28D301F5106100F17C
:1038400020050591D8F80000D9F8001081421DD953
:10385000DBF80040089A081AA0422968967938BF18
:103860000446DDE90602A3B2009605F0EFFF2868E2
:10387000D8F80010204428600819C8F800000598FE
:10388000E11C806980B2B0EB910FDBD2D9F8000067
:10389000D8F80010DDF820B0049D88423FF648AF0C
:1038A000069B07F00F00D3F83418012202FA00F04B
:1038B00021EA0000C3F834083AE7DBF8000005F01D
:1038C000FDFE039CB0F1FF3F18DC606820F00100B2
:1038D00060609BF8CC04012807D100208BF8CC0451
:1038E00058460021FFF7A8FC02E0584600F084F992
:1038F000DBF80000416901F000414161DBF80000A4
:1039000005F0DCFE00050BD5A068C00702D05846C4
:1039100000F096F9DBF80000416901F400614161B3
:10392000DBF8000005F0CAFEC00453D56068102122
:1039300020F001006060DBF8000005F05FFE9BF8FE
:103940000400D0B105F510614FF67F328A600B6834
:10395000013823F400130B60C1F80822D1F80032BB
:1039600023F40013C1F80032D1F8003243F00063B1
:10397000C1F8003201F12001E8D1E06940F0011006
:10398000E0619BF80F0040B1D4F8840040F00B00D8
:10399000C4F8840004F1440006E0606942F22B019F
:1039A0000843606104F1100001680BF29C4241F091
:1039B0000B010160206820F4FE602060DBF800004D
:1039C0009BF8061005F06CFCDBF80000416901F47F
:1039D00080514161DBF8000005F070FE80041CD5C9
:1039E000DBF8000005F04CFCDBF8000005F02AFED7
:1039F000DBF800408BF8070000F00CFA9BF807207A
:103A00000146204605F096FE584600F0E1F8DBF846
:103A10000000416901F400514161DBF8000005F04C
:103A20004DFE000708D5584600F0EAF8DBF8000024
:103A3000416901F008014161DBF8000005F03EFE3C
:103A4000000629D50499886920F0800088619BF8D8
:103A50000400022820D3012440F27B2507E000BFA8
:103A60009BF804000134844205F1240514D21BF8AC
:103A700005000128F4D104F00F0000EBC0000BEBAF
:103A800080022006DBF8000002F1140158BF02F5A5
:103A9000157105F06FFDE3E7DBF8000005F00EFEA1
:103AA000C0022ED59BF80400022824D304980BF101
:103AB0003C0500F512640126012707E09BF804008D
:103AC00001372034874205F1240514D22068297873
:103AD0000129F3D1B0F1FF3FF0DC07F00F0000EB5C
:103AE000C0000BEB8001DBF80000143105F8016C1D
:103AF00005F040FDE2E7DBF80000416901F48011C8
:103B00004161DBF8000005F0D9FD800232D59BF859
:103B10000410049D022927D305F5326001390BF505
:103B20001F72012305E000BF2030013902F1240299
:103B30001AD007681678012EF6D1B7F1FF3FF3DCF3
:103B4000DBF8D46486EA1747FF07EDD102F8013CA1
:103B5000AF6947F08007AF616F693F06E4D403990E
:103B6000486840F400704860DBF80000416901F4E7
:103B700000114161DBF8000005F0A0FD400008D510
:103B80005846FFF75BFBDBF80000416901F080411C
:103B90004161DBF8000005F091FD40077FF559AC6D
:103BA000DBF800004468600702D55846FFF760FB69
:103BB000DBF8000041682143416009B0BDE8F08FA7
:103BC000D0F8E00404F0D8BED0F8E00404F0E8BE79
:103BD00010B5C179044621B1022918BFFDF754FD83
:103BE0000121D4F8E00404F061FFD4F8E004BDE85A
:103BF000104004F00FBF0000D0F8E00404F03EBF16
:103C0000D0F8E00404F044BF10B5044690F89404E2
:103C1000012804BF022010BD012084F894046174BF
:103C2000206805F075FD002084F8940410BD0000A4
:103C3000D0F8E02400F29C41104604F04DBF000093
:103C400010B50446D0F8E00404F088FF2068D0F8EE
:103C5000001E41F00101C0F8001EE07A002808BFF4
:103C600010BD4EF61050CEF20000016841F0060182
:103C7000016010BD2DE9F041002800F08B8043F673
:103C80000808C4F202080446D8F8F8030D4600F00C
:103C90000700884207D288F8F853D8F8F80300F0F4
:103CA0000700A84276D12068810717D5410705D5BE
:103CB000D8F8001041F4E051C8F80010010705D50C
:103CC000D8F8001041F46041C8F80010D8F800108E
:103CD000A26821F0F0011143C8F80010C0073FD1DD
:103CE000D8F8F80300F00700A84207D988F8F8537D
:103CF000D8F8F80300F00700A8424BD1206841072C
:103D000007D5D8F80010E26821F4E0511143C8F853
:103D10000010000708D5D8F80000216920F46040A1
:103D200040EAC100C8F8000000F0A2F8D8F800107E
:103D30004EF6D032C1F30311C0F60002515C40F2DE
:103D40001C0220FA01F140F2A800C2F20000006853
:103D5000C2F200021160FFF7ABF90020BDE8F0816C
:103D60006068811E022907D258F8081C89015CBFCF
:103D70000120BDE8F08110E0012807D158F8081CA7
:103D800089035CBF0120BDE8F08106E058F8081CFB
:103D9000890702D40120BDE8F081D8F8001021F095
:103DA00003010843C8F80000FEF780FD064641F213
:103DB000883700BFD8F80000616800F00C00B0EB55
:103DC000810F8DD0FEF772FD801BB842F2D903201F
:103DD000BDE8F0810F22026043F60802C4F202023D
:103DE000136803F003034360136803F0F003836078
:103DF000136803F4E053C360D2F800C04FF4E053FB
:103E000003EADC030361D2F8F80300F0070008605E
:103E10007047000040F21C00C2F2000000687047CA
:103E200040F21C0043F60801C2F20000C4F2020195
:103E3000006809684EF6E032C1F38221C0F6000244
:103E4000515CC8407047000040F21C0043F6080176
:103E5000C2F20000C4F20201006809684EF6E032C6
:103E6000C1F34231C0F60002515CC8407047000007
:103E700010B543F60404C4F20204606800F00C00BC
:103E800008280AD0042819BF42F20040C0F2F4000A
:103E900041F60030C0F2B70010BD206821682368E9
:103EA000490241F60031C0F2B70100F03F02C3F30E
:103EB00088105CBF42F20041C0F2F401A1FB000196
:103EC0000023FCF7D9F921680222C1F3014102EB7A
:103ED0004101B0FBF1F010BD2DE9F04182B00028A6
:103EE00000F0A1800446007843F60006C007C4F243
:103EF000020643D0B06800F00C00042805D13068F9
:103F000080033BD56068C8BB8DE0B06800F00C0052
:103F1000082802D170684002F1D46568B5F5A02F79
:103F20000AD0B5F5803F0BD0306820F48030306087
:103F3000306820F4802006E0306840F48020306053
:103F4000306840F480303060FEF7B0FC002D05464C
:103F500011D000BF3068800310D4FEF7A7FC401BCF
:103F60006428F7D920E100BFFEF7A0FC401B6428BD
:103F70004FF0030054D830688003F5D420788007D0
:103F80001AD5B06810F00C0F09D0B06800F00C0022
:103F9000082840F088807068400200F18480306812
:103FA000800702D5E06801283DD13068216920F002
:103FB000F80040EAC10030602078000737D420784C
:103FC00040074AD4A56955B3B06800F00C00082832
:103FD00040F09C80012D26D07068E16900F48002D9
:103FE0008A4220D1216A00F03F028A421BD147F663
:103FF000C071626A0140B1EB821F14D1A16A4FF611
:10400000FF73C903994300F44032A1F580318A421D
:1040100009D1E16A00F07060B0EB016F03D10020BC
:1040200002B0BDE8F081012002B0BDE8F081606916
:10403000002840F20000C4F2472056D00121C0F809
:10404000801EFEF733FC0546706F8007B7D4FEF77D
:104050002DFC401B0228F7D9A6E0306C10F08058E8
:104060000AD100200190306C40F080503064306CF8
:1040700000F080500190019847F20007C4F2000759
:104080003868C00524D4386840F480703860FEF782
:104090000DFC05463868C0051AD4FEF707FC401B26
:1040A0000228F7D980E0E068002851D00020C4F24F
:1040B000472001210160FEF7F9FB054630688007C3
:1040C0003FF573AFFEF7F2FB401B0228F6D96BE019
:1040D000A568052D50D0012D52D0306F20F0010081
:1040E0003067306F20F004004DE00021C0F8801EE2
:1040F000FEF7DCFB054600BF706F80077FF55FAF02
:10410000FEF7D4FB401B0228F6D94DE00027C4F28D
:10411000472700203866FEF7C9FB022D05460BD164
:104120003068800158D5FEF7C1FB401B02284FF0D4
:104130000300F5D974E700BF306880017FF56FAFE9
:10414000FEF7B4FB401B02284FF00300F4D967E7E9
:104150000020C4F2472000210160FEF7A7FB0546BE
:10416000306880077FF528AFFEF7A0FB401B0228D0
:104170004FF00300F4D953E7306F40F0040030678C
:10418000306F40F001003067FEF790FB002D0546D0
:1041900041F2883714D000BF306F800713D4FEF788
:1041A00085FB401BB842F7D9032002B0BDE8F0817F
:1041B000FEF77CFB401BB8424FF003003FF630AFE8
:1041C000306F8007F4D4B8F1000F7FF4FBAE306C91
:1041D00020F080503064F5E604F11C052FCD084333
:1041E00040EA8210D9034FF6FF729143A1F5803166
:1041F00040EA05600843706001203866FEF756FB10
:10420000044600BF306880013FF509AFFEF74EFB62
:10421000001B02284FF00300F4D901E770B538B154
:104220000446406A30B10020206104F1140007E028
:10423000012070BD6068B0F5827F03D004F11C00DE
:10424000002101600026A66294F8510020B92046A2
:1042500084F8506000F03CF8022084F8510094E8A3
:104260000F0001F48271056802F4044225F0400554
:104270000560114403F400622369114403F0020253
:104280006369114403F00102A369E569114403F471
:104290000072114405F03802256A114405F08002CD
:1042A000A56A114305F4005211430160626A0421BA
:1042B00001EA134102F0100211444160C16921F486
:1042C0000061C1610120666584F85100304670BD0F
:1042D0002DE9F04F87B0044643F200070068C4F2AE
:1042E00001070026B8420696CDE9046603960296B9
:1042F00002D007B0BDE8F08F43F630000196C4F25B
:104300000200416902AD41F480514161416946F2C8
:10431000404801F4805101910199019601684FF0E4
:10432000020941F00201016001684FF0030A01F047
:10433000020101910199019601684FF0050B41F0CE
:10434000010101600068294600F001000190019818
:104350001820029007F55440C4F20208CDE90396F4
:10436000CDF814A0CDF818B0FEF7CAF98020CDE939
:10437000020904A880E8400C07F550402946FEF7E2
:10438000BFF941F2E405C2F200054FF440304FF0AE
:10439000C0674FF48069C5E908062846C5E900876B
:1043A000C5E90266C5E90496C5E90666FEF732F876
:1043B000002818BFFDF768F9E564AC6341F24415C5
:1043C00008F11800C2F200054021C5E9000705F117
:1043D0000800002280E806024FF40030C5E9080218
:1043E0002846C5E90522EA61FEF714F8002818BF3F
:1043F000FDF74AF9A564AC6307B0BDE8F08F000093
:104400002DE9F04383B01E4615460F460446FEF7DD
:104410004DFA94F85110814601290DD06068B0F52D
:10442000827F15D1A06800284FF0020008BF042940
:1044300002D003B0BDE8F083002F4FF0010018BF99
:10444000002DF6D0002EF4D094F85000012803D1AE
:10445000022003B0BDE8F083012084F8500094F8F6
:104460005100002104281CBF052084F8510061651B
:10447000A563E687A6872763E6862068A68621646B
:1044800061640168490603D4016841F0400101609C
:104490006168731EE268B1FA81F1B3FA83F3DDF863
:1044A000288049095B09B2F5006F41EA030138D160
:1044B00031B137F8021BC1602763E08E0138E08616
:1044C000012608F1010500BFE08E10B9E08F002839
:1044D0006CD02068816889070CD5E18E51B1012E1E
:1044E00008D1216B002631F8022BC2602163E18ED6
:1044F0000139E1868168C9070AD0E18F41B1C068FE
:10450000A16B012621F8020BA163E08F0138E0873F
:10451000FEF7CCF9002DD7D0A0EB09004045D3D34E
:104520003AE039B139780173206B01302063E08EB5
:104530000138E086012608F1010500BFE08E08B9C8
:10454000E08F98B32068816889070DD5E18E59B155
:10455000012E09D1216B002609780173206B0130EF
:104560002063E08E0138E08620688168C9070BD09F
:10457000E18F49B1C068A16B01260870A06B0130C2
:10458000A063E08F0138E087FEF790F9002DD5D0C9
:10459000A0EB09004045D1D3012084F85100002050
:1045A00084F85000032003B0BDE8F08320460221C8
:1045B00001224346CDF8009003F0CCFC60B1606D61
:1045C00040F02000606520206065002084F85000E5
:1045D000012003B0BDE8F08340F21C00C2F20000ED
:1045E000006849F68171C1F25E61A0FB0101480DCE
:1045F0004FF47A71484302906068B0F5827F0AD127
:104600002046802100224346CDF8009003F0A2FC12
:104610000028D4D108E0029830B102980138029005
:10462000206880680006F6D4A06838B900200190A0
:104630002068C1680191806801900198012084F888
:104640005100002084F85000606D002818BF012040
:1046500003B0BDE8F0830000704700007047000021
:1046600010B590F83C20012A4FF0020252D00123ED
:1046700080F83C3080F83D200268D2F804E0D2F89F
:1046800008C00C682EF07003234341F2FF74C4F29B
:104690000004A24253600DDC40F2FF73C4F2000339
:1046A0009A4215DCB2F1804F29D040F20043C4F2A7
:1046B000000322E040F2FF33C4F201039A4212DC0D
:1046C00041F60003C4F200039A4218D0002312E01E
:1046D00040F60003C4F200039A4210D040F60043B3
:1046E000C4F2000309E044F20003C4F201039A4259
:1046F00005D040F20043C4F201039A4204D1496854
:104700002CF08003194391600121002280F83D10B4
:1047100080F83C20104610BD002804BF01207047DF
:1047200010B5044690F83D0028B9002084F83C00FC
:10473000204600F01FF8022084F83D002068211D6B
:1047400003F096FD012084F8460084F83E0084F8CA
:104750003F0084F8400084F8410084F8420084F867
:10476000430084F8440084F8450084F83D000020AC
:1047700010BD000083B0006844F20041C4F20101A2
:1047800088421CD040F60041C4F20001884227D084
:1047900040F60001C4F2000188421FD100200290BF
:1047A00043F64000C4F20200016841F004010160D8
:1047B000006800F004000290029803B070470020E7
:1047C000009043F64000C4F20200416841F4003119
:1047D0004160406800F400300090009803B07047DA
:1047E0000020019043F64000C4F20200016841F04D
:1047F00008010160006800F008000190019803B012
:104800007047000090F83D1001291CBF012070473F
:10481000022180F83D10006841F2FF72C168C4F2C5
:104820000002904241F00101C1600DDC40F2FF71D5
:10483000C4F20001884215DCB0F1804F29D040F26B
:104840000041C4F2000122E040F2FF31C4F2010154
:10485000884212DC41F60001C4F20001884218D0FF
:10486000002112E040F60001C4F20001884210D09D
:1048700040F60041C4F2000109E044F20001C4F234
:104880000101884205D040F20041C4F20101884292
:1048900006D1816801F00701062904BF0020704796
:1048A000016841F0010101600020704780B590F877
:1048B0003C20012A4FF0020200F0C280012380F860
:1048C0003C3080F83D20D0F800C04FF67772DCF81D
:1048D000083023EA0202CCF808200B684F2B28DCB2
:1048E0001F2B43DD202B44D0302B42D0402B40F0F7
:1048F000A980D1F804E0C968DCF82030DCF8202079
:1049000022F00102CCF82020DCF8182022F0F0027E
:1049100042EA011123F00A0242EA0E02CCF8181012
:10492000CCF82020DCF8081041F0470121F03001DC
:104930007DE06F2B25DDB3F5005F46D0B3F5805FDA
:1049400077D0702B7ED1D1E901E3C968DCF808206B
:1049500043EA0E0322F47F4243EA01211143CCF8DB
:104960000810DCF8081041F0770160E00BB1102B63
:1049700068D1DCF8081021F07001194341F00701FB
:1049800055E0502B34D0602B5CD1D1F804E0C968DD
:10499000DCF82030DCF8202022F01002CCF82020B7
:1049A000DCF8182022F4704242EA013123F0A00220
:1049B00042EA0E12CCF81810CCF82020DCF80810CF
:1049C00041F0670121F0100131E0D1E901E3C9684C
:1049D000DCF8082043EA0E0322F47F4243EA012177
:1049E0001143CCF80810DCF8081041F480411EE0B7
:1049F000D1F804E0C968DCF82030DCF8202022F08F
:104A00000102CCF82020DCF8182022F0F00242EA63
:104A1000011123F00A0242EA0E02CCF81810CCF879
:104A20002020DCF8081041F0570121F02001CCF8DB
:104A300008100022012180F83D10002180F83C1070
:104A4000104680BD0122F5E77047000070B50446AE
:104A50000068C5680669B10716D515F0020113D0C4
:104A60006FF002010161012121778069800703D085
:104A70002046FFF7E9FF05E0204600F0CFF9204689
:104A800000F03AFB00202077700718D515F00400DD
:104A900015D020686FF0040101610221217780693F
:104AA00010F4407F03D02046FFF7CEFF05E02046FC
:104AB00000F0B4F9204600F01FFB002020773007FB
:104AC00017D515F0080014D020686FF008010161B7
:104AD00004212177C069800703D02046FFF7B4FF87
:104AE00005E0204600F09AF9204600F005FB002082
:104AF0002077F00618D515F0100015D020686FF05B
:104B00001001016108212177C06910F4407F03D0B2
:104B10002046FFF799FF05E0204600F07FF9204688
:104B200000F0EAFA00202077F00718BF15F0010026
:104B300002D1300609D412E020686FF00101016152
:104B4000204600F0DBFA300609D515F0800006D0CB
:104B500020686FF0800101612046FFF77DFD70063F
:104B600009D515F0400006D020686FF040010161C2
:104B7000204600F0CBFAB00658BF70BD15F02000FB
:104B800008D021686FF0200220460A61BDE870401D
:104B9000FFF764BD70BD000080B586B0006844F2C8
:104BA0000042C4F2010200219042CDE90411CDE996
:104BB0000211019124D040F60041C4F20001884264
:104BC00036D040F60001C4F2000188424ED10020E8
:104BD000009043F63000C4F20200016841F0080181
:104BE00001600068022100F00800009000984FF476
:104BF000804001900020C4F2020000F540602CE0EB
:104C000043F630000091C4F20200016841F0020155
:104C100001600068032100F00200009000984FF44A
:104C2000807001900020C4F2020000F5806014E062
:104C30000020009043F63000C4F20200016841F009
:104C4000010101600068022100F00100009000985D
:104C5000072001900020C4F20200022202920022EA
:104C6000059101A9CDE90322FDF74AFD06B080BDFB
:104C7000F0B590F83C30012B04BF0220F0BD4FEAA4
:104C8000B2020123032A80F83C3000F2C180DFE841
:104C900002F0023366980268136A166A23F0020370
:104CA00026F001061662D2F804E0D2F818C08D682A
:104CB00040F2004642F48064C4F20106B44243EA82
:104CC000050305D1CD6823F00C0325F004052B4323
:104CD0000D68B44207D1D1E905462EF4407E44EA7E
:104CE0000E0444EA060E2CF073062E43C2F804E0CC
:104CF00096614968516389E0026840F20045136A91
:104D0000166A23F0200326F010061662D2F804E09B
:104D1000D2F818C08E6842F48064C4F20105AC4237
:104D200043EA061307D1CE686FF0400723F0C003B3
:104D300007EA061633430E68AC4206D1D1E90545B1
:104D40002EF44067254347EA850E2CF4E64747EAF0
:104D50000627C2F804E097614968916356E002684B
:104D600040F20045136A176A23F4007327F4807732
:104D70001762D2F804E0D2F81CC08E6842F4806456
:104D8000C4F20105AC4243EA062307D1CE6840F2E3
:104D9000FF47360223F44063BE4333430E68AC4200
:104DA00006D1D1E905452EF44057254347EA051EB3
:104DB0002CF073073743C2F804E0D7614968D16328
:104DC00024E0026840F20047D2F820C0136A42F49F
:104DD000806623F4805313625368D4690D68D1F858
:104DE00008E0C4F20107BE4204D14E6923F48043B7
:104DF00043EA861324F4E64646EA05265360D66164
:104E00002CF40057496847EA0E33116413620023FB
:104E1000002180F83C101846F0BD000070470000EB
:104E2000002804BF0120704710B5044690F83D00EB
:104E300028B9002084F83C00204600F01FF802202A
:104E400084F83D002068211D03F012FA012084F847
:104E5000460084F83E0084F83F0084F8400084F85F
:104E6000410084F8420084F8430084F8440084F848
:104E7000450084F83D00002010BD00007047000090
:104E80002DE9F04390F83C30012B04BF0220BDE82F
:104E9000F0834FEAB2020123032A80F83C3000F28B
:104EA000F580DFE802F0023E7DBD036840F2004776
:104EB0001C6A1A6A24F0020422F001021A621A46DD
:104EC000D3F804E052F818CF8E6843F48065C4F23A
:104ED0000107BD4244EA060405D1CE6824F00C0463
:104EE00026F0040634430E68BD4207D1D1E90557C8
:104EF0002EF4407E45EA0E0545EA070E2CF07307B6
:104F00003743C3F804E09F614F6809695F631C621F
:104F10009F6947F008079F619F6927F004079F6119
:104F2000B0E0036840F200481C6A1A6A24F02004CA
:104F300022F010021A621A46D3F804C052F818EF91
:104F40008F6843F48065C4F20108454544EA0714BC
:104F500007D1CF686FF0400624F0C00406EA0716B8
:104F60003443D1F80090454506D1D1E905562CF4DB
:104F700040672E4347EA860C2EF4E64747EA0927A6
:104F8000C3F804C09F614F6809699F631C629F69F1
:104F900047F400679F619F6927F480679F6170E015
:104FA000036840F200481C6A1A6A24F4007422F470
:104FB00080721A621A46D3F804C052F81CEF8F6848
:104FC00043F48065C4F20108454544EA072408D14A
:104FD000CF6840F2FF463F0224F4406427EA060609
:104FE0003443D1F80090454506D1D1E905562CF45B
:104FF00040572E4347EA061C2EF0730747EA09077D
:10500000C3F804C0DF614F680969DF631C62DF69B0
:1050100047F00807DF61DF6927F00407DF6131E04F
:10502000036840F20045D3F820C01A6A43F4806751
:1050300022F480521A621A465C6852F81CEFD1F8CA
:1050400000808E68C4F20105AF4204D14D6924F49A
:10505000804444EA85142CF4005747EA06372EF4BE
:10506000E64646EA08265C60DE614E6809691E6411
:105070001F62DF6947F40067DF61DF6927F480673B
:10508000DF6109021368194300231160002180F8D1
:105090003C101846BDE8F083002804BF012070478B
:1050A00010B5044690F83D0028B9002084F83C0073
:1050B000204600F01FF8022084F83D002068211DE2
:1050C00003F0D6F8012084F8460084F83E0084F806
:1050D0003F0084F8400084F8410084F8420084F8DE
:1050E000430084F8440084F8450084F83D00002023
:1050F00010BD000070470000704700000068B0F16C
:10510000804F18BF7047FDF7A9BF0000704700002F
:105110007047000070470000B0B582B004460068D8
:105120000168C368426901F02F05202D03F02005B6
:1051300006D12DB1204602B0BDE8B04003F0AAB9B7
:105140005FEA017C1EBF02F0010E03F4907212EBC5
:105150000E0253D1226B012A05D111F0100218BFA3
:1051600013F0100236D10A0622D513F080021FD0A8
:1051700094F8411021293FD1A168B1F5805F03D196
:105180002169002900F04D81216A4A1C22620978B8
:105190004160E18C01390A04E1842DD1C16821F01C
:1051A0008001C160C16841F04001C16002B0B0BD82
:1051B000490621D513F040011ED0C16821F04001FD
:1051C000C1602021204684F8411002B0BDE8B04003
:1051D00000F014BB00210191016801914168019127
:1051E00001994069400611D4A08DE18DE28D002A1D
:1051F00018BF884240F0E78002B0B0BDC80718BFB2
:1052000013F4807052D1480756D45CE0E06B01681B
:1052100049688AB2002A40D0A38D9A423DD2E185E6
:10522000C069B0F5807F30D0206850E8030F216856
:1052300020F4807041E80302002AF5D1206850E88C
:10524000050F216820F0010041E80502002AF5D190
:10525000206850E8050F216820F0400041E8050271
:10526000002AF5D1202084F842000020206300BFEE
:10527000206850E8030F216820F0100041E8030285
:10528000002AF5D1E06BFCF7ADFF02206063A08D32
:10529000E18D401A81B22046BEE0A18D9142ABD192
:1052A000C069B0F5807FA7D10222B3E0606C40F006
:1052B00001006064480706D5BEF1000F03D0606CA2
:1052C00040F002006064880706D5BEF1000F03D0ED
:1052D000606C40F004006064BCF1000F09D545EA41
:1052E0000E00B0FA80F0400903D1606C40F0080075
:1052F0006064606C00283FF47FAF11F0200018BF9D
:10530000002D02D0204603F0C5F820684069616C8A
:1053100000F0400001F00801401847D0206850E834
:10532000030F216820F4907041E80302002AF5D1B0
:10533000206850E8050F216820F0010041E80502CF
:10534000002AF5D1206B01280AD100BF206850E85F
:10535000030F216820F0100041E80302002AF5D174
:10536000202084F842000020206320684069400625
:1053700023D500BF206850E8050F216820F04000C9
:1053800041E80502002AF5D1E06BB0B148F29D3149
:10539000C0F600010165FCF765FF00283FF42CAF63
:1053A000E06B016D02B0BDE8B04008472046FFF752
:1053B000B1FE0020606402B0B0BD204602B0BDE87E
:1053C000B040FFF7A7BE401A216851E8031F2268CA
:1053D00021F4907142E80313002BF5D1216851E8C4
:1053E000051F226821F0010142E80513002BF5D1C9
:1053F000202184F842100021216300BF216851E878
:10540000031F226821F0100142E80313002BF5D19D
:10541000022281B22046626302B0BDE8B040FFF7CD
:1054200077BE216A31F8022B6FF35F22426021625E
:10543000AFE60000002804BF0120704710B5044605
:1054400090F8410028B9002084F84000204600F080
:1054500021F8242084F841002068C16821F400511B
:10546000C160204603F078F82068016921F490417A
:105470000161416921F02A014161C16841F4005193
:10548000C16000202021606484F8411084F842103B
:10549000606310BD2DE9F04F87B00446006844F604
:1054A0000001C4F2000100268842CDE90566CDE97D
:1054B0000366029600F0958041F20041C4F20101BA
:1054C000884200F0D98041F20001C4F20101884213
:1054D00040F04881002743F630000197C4F20200F3
:1054E0004169002541F0100141614169C4F20205A2
:1054F00001F01001019101990197016802AE41F09C
:1055000002010160016846F2280801F002010191E0
:105510000199019701684FF0020941F00101016012
:1055200000684FF0030A00F001000190019880200C
:1055300002904FF0070B05F580603146C4F2020877
:10554000CDE90397CDF814A0CDF818B0FDF7D8F841
:105550004FF40070CDE9020904A880E8800C2846C9
:105560003146FDF7CDF841F2A41508F58C60C2F282
:1055700000054FF0006685E8C1004FF400304FF49D
:105580008069C5E908072846C5E90379C5E90577B3
:10559000EF61FCF73FFF002818BFFCF775F8E563E3
:1055A000AC6341F2042508F59260C2F20005402187
:1055B000C5E9000605F1080080E882024FF440309A
:1055C000C5E908072846C5E90577EF61FCF722FF22
:1055D000002818BFFCF758F8A56305F13800252509
:1055E000B7E043F630000196C4F20200016941F4CD
:1055F00080210161016901F48021019101990196E5
:10560000016841F004010160006802A900F0040093
:10561000019001984FF4406002900220CDE903060A
:1056200003200590072006900020C4F2020000F538
:105630000060FDF765F841F2642546F22800C2F2E9
:105640000005C4F202004FF000614FF4806285E86B
:1056500043002846C5E90362C5E90566C5E9076652
:105660006E62FCF7D7FE002818BFFCF70DF8E56363
:1056700005F1380027256CE0002643F6300001963E
:10568000C4F20200416946F2280841F0200141615C
:105690004169C4F2020801F02001019101990196CB
:1056A000016841F040010160006802A900F040007B
:1056B000019001984FF4844002900220CDE9030646
:1056C00003200590082006900020C4F2020000F597
:1056D000C050FDF715F841F2C42508F58060C2F20C
:1056E00000054FF02067C5E900074FF400304FF484
:1056F0008069C5E908062846C5E90266C5E9049639
:10570000C5E90666FCF786FE002818BFFBF7BCFF5C
:10571000E563AC6341F2243508F58F60C2F2000501
:105720004021C5E9000705F1080080E842024FF476
:105730004030C5E908062846C5E90566EE61FCF774
:1057400069FE002818BFFBF79FFFA56305F138002D
:1057500047250460284605210022FDF731FD284633
:10576000FDF71EFD07B0BDE8F08F00007047000098
:10577000B0B5044690F8410020281CBF0220B0BDFF
:105780004FF00100C9B3002A134608BFB0BD4FF067
:10579000000C21202162A384E384C4F844C084F86F
:1057A0004100A06B48F24D4E48F28D452268C0F68C
:1057B000000EC0F60005C0E90FE548F2A935C0F6B5
:1057C00000050432C0E9135CFCF7C4FE30B11020C0
:1057D0006064202084F841000120B0BD20686FF093
:1057E00040010160206850E8050F216840F080000A
:1057F00041E80502002AF5D10020B0BD7047000045
:1058000070470000FEE700002DE9F04F83B004462A
:10581000006899460368904643F48062026002681B
:10582000DDF834A042F48072026040690C9E10F0F2
:1058300001008B462AD180F00105771C0BE000BFE8
:1058400020684069C00711D02068406910F001004D
:1058500080F001051AD1002FF6D0FDF727F8002EB1
:10586000EED0A0EB0A00B042EED9E9E700202021FB
:10587000206384F83D1084F83E00216C41F0200143
:105880002164E90784F83C0040F0B28020680BF006
:10589000FE070761416989072DD44169490515D47F
:1058A000751C00BF5DB1FDF701F81EB1A0EB0A0049
:1058B000B04204D920684069800740F1D480206854
:1058C0004169890717D441694905EBD5016841F45D
:1058D000007101606FF4806141610020202120632C
:1058E00084F83D1084F83E00216C41F004012164ED
:1058F00084F83C00B3E000200290206850F8141FA8
:105900000291416802910299016809061AD4751C36
:105910000AE000BF20684069000640F18B802068E3
:1059200050F8141F09060DD4016849056BD4002DE9
:10593000F5D0FCF7BBFF002EECD0A0EB0A00B04284
:10594000EDD9E7E72068B9F1010F21D04FEA18211E
:10595000016150F8141F090619D4751C09E000BF35
:1059600020684069000665D5206850F8141F0906B4
:105970000DD40168490546D4002DF5D0FCF796FFFB
:10598000002EEDD0A0EB0A00B042EDD9E8E7206888
:105990005FFA88F10161206850F8141F090618D4D5
:1059A000751C08E020684069000643D5206850F85F
:1059B000141F09060DD40168490524D4002DF5D023
:1059C000FCF774FF002EEDD0A0EB0A00B042EDD939
:1059D000E8E7206800220168334641F480710160E5
:1059E00020464FF00111CDF800A000F079F978B110
:1059F00020680068C00544BF4FF400702064032095
:105A000003B0BDE8F08F6FF480610160042012E004
:105A1000206847F0010101610221C0F20101204626
:105A20003246534600F0A6F9002818BF012003B003
:105A3000BDE8F08F202000212022216384F83D2042
:105A400084F83E10226C1043206484F83C10206CD3
:105A5000042804D12068016841F40071016001202C
:105A600003B0BDE8F08F00202021206384F83D10B2
:105A700084F83E00216C41F0200138E72DE9F04F19
:105A800081B00446006890460268DDF82CA042F41C
:105A90008072026040690A9E994610F001008B46B0
:105AA00034D180F00105771C0BE000BF206840690D
:105AB000C00711D02068406910F0010080F0010596
:105AC00024D1002FF6D0FCF7F1FE002EEED0A0EB93
:105AD0000A00B042EED9E9E700202021206384F8D3
