:020000040800F2
:10000000088F002065020008056C0008DD57000815
:10001000016C0008D50A000899980008000000004B
:10002000000000000000000000000000A1810008A6
:100030008D16000800000000B16D0008D582000890
:100040007F0200087F0200087F0200087F0200088C
:100050007F0200087F020008911600087F02000856
:100060007F02000899160008A11600087F02000808
:10007000751300087F0200087F0200087F02000855
:100080007F0200087F0200087F0200087F0200084C
:10009000D90A00087F0200087F020008A91600089C
:1000A0007F0200087F0200087F0200087F0200082C
:1000B000C58300087F0200087F0200087F02000855
:1000C0007F0200087F0200087F0200087F0200080C
:1000D0007F020008958700087F020008A1870008BA
:1000E0007F0200087F0200087F0200087F020008EC
:1000F0007F0200087F0200087F0200087F020008DC
:100100007F0200087F0200087F0200087F020008CB
:100110007F0200087F0200087F0200087F020008BB
:100120007F020008811300088D1300085D16000887
:100130007F0200087F0200087F0200087F0200089B
:10014000E50A00087F0200087F020008096C000829
:10015000691600087516000881160008AD870008AA
:100160007F0200087F0200087F0200087F0200086B
:100170007F0200087F0200087F02000800000000E4
:100180007F0200087F02000800F002F800F05AF831
:1001900014A696E8000CB244B344DA4501D100F04D
:1001A00051F8BAE80F000FA696E83000A5EB040559
:1001B00004EB0607AAEB0704A7F101074FEA1515A0
:1001C0004FEA3414A4F10104AC4201D300F03AF830
:1001D00013F0010F18BFFB1A43F0010300F001F800
:1001E000DBE7184798F40000B8F40000103A24BF89
:1001F00078C878C1FAD8520724BF30C830C144BF8C
:1002000004680C6070470000704700000023002461
:1002100000250026103A28BF78C1FBD8520728BF16
:1002200030C148BF0B607047752900F0DD8063293D
:1002300000F04C82002070471FB50EF00EFC1FBD71
:1002400010B510BD00F057FA1146FFF7F5FF0AF0A0
:1002500017FA00F075FA03B4FFF7F2FF03BC00F0E1
:1002600079FA00000948804709480047FEE7FEE7A1
:10027000FEE7FEE7FEE7FEE7FEE7FEE7FEE7FEE756
:1002800004480549054A064B70470000B183000841
:100290008901000808890020088F0020088B0020B1
:1002A000088B002053EA020C00F069802DE9F04B26
:1002B0004FF00006002B1FBFB3FA83F503FA05F4D5
:1002C00024FA05F65E4012BF1643B2FA82F502FA2E
:1002D00005F4C5F120051EBF22FA05FC44EA0C0412
:1002E000203556EA044C4FEA144418BF641C4FF002
:1002F00000084FF00009904271EB030C39D300293C
:1003000019BFB1FA81F701FA07F6B0FA80F700FADF
:1003100007F6C7F120071EBF20FA07FC46EA0C06C5
:100320002037B6FBF4FCA7EB0507103F07F01F0BC7
:10033000CBF120062CFA06F60CFA0BFB44BFB346B1
:100340000026202FA4BF5E464FF0000B5BEA060C90
:1003500008BF4FF0010B19EB0B0948EB0608ABFB8C
:10036000027C06FB02CC0BFB03CCC01B71EB0C0127
:10037000C1E70B46024641464846BDE8F08B13B53F
:10038000084318BF4FF0FF300146AFF30080BDE8CF
:100390001C40704770B50C460546012A05D02878E8
:1003A000800600D5EA69002302E0012305E05B1C1A
:1003B000934202D2E05C0028F9D1A869E618C01A7D
:1003C000A861286A184428622846AFF3008004E038
:1003D000D5E9012114F8010B9047B442F8D328461F
:1003E000AFF3008070BD00002DE9F0410646002407
:1003F00010687529314616A510D0AFF3008000288B
:1004000002DA404213A507E031688A0701D512A538
:1004100002E0490704D511A5012401E0AFF30080F3
:1004200000210A2206F1240709E0B0FBF2FCB0FB30
:10043000F2F302FB1C00303078541846491C0028A7
:10044000F3D123462A463046BDE8F04100F0DBB840
:10045000000000002D0000002B0000002000000024
:1004600010B5431C02E010F8011B71B18107FAD1ED
:100470004FF0013202C88C1A8C4314EAC211F9D031
:10048000C01A0A0603D0C01E10BDC01A10BD0A044F
:1004900001D0801E10BD0902FCD0401E10BD032AF1
:1004A00040F2308010F0030C00F0158011F8013B91
:1004B000BCF1020F624498BF11F801CB00F8013B78
:1004C00038BF11F8013BA2F1040298BF00F801CB3C
:1004D00038BF00F8013B11F0030300F02580083A13
:1004E000C0F0088051F8043B083A51F804CBA0E86A
:1004F0000810F5E7121D5CBF51F8043B40F8043BBF
:10050000AFF30080D20724BF11F8013B11F801CBF3
:1005100048BF11F8012B24BF00F8013B00F801CBC4
:1005200048BF00F8012B704710B5203AC0F00B808F
:10053000B1E81850A0E81850B1E81850A0E81850D9
:10054000203ABFF4F5AF5FEA027C24BFB1E818504F
:10055000A0E8185044BF18C918C0BDE810405FEAB1
:10056000827C24BF51F8043B40F8043B08BF70472D
:10057000D20728BF31F8023B48BF11F8012B28BF32
:1005800020F8023B48BF00F8012B704702F0FF0340
:1005900043EA032242EA024200F002B84FF00002AE
:1005A00000B5134694469646203922BFA0E80C5069
:1005B000A0E80C50B1F12001BFF4F7AF090728BF44
:1005C000A0E80C5048BF0CC05DF804EB890028BFC0
:1005D00040F8042B08BF704748BF20F8022B11F0E9
:1005E000804F18BF00F8012B704770477047704765
:1005F00010B500F07BF8006810BD10B5044600F09F
:1006000075F8046010BD2DE9F0470D4699469246F5
:10061000044600F124080168880604D5E06921F049
:100620001001216000E00120A84201DD471B00E02D
:100630000027A1697A1902EB0900081AA061207845
:10064000C00602D42046AFF30080002608E0D4E9BB
:1006500001211AF806009047206A401C761C20628F
:100660004E45F4DB2078C0060AD52046AFF3008063
:1006700006E0D4E9012130209047206A401C206226
:10068000381EA7F10107F4DC07E0D4E9012118F8CE
:1006900005009047206A401C2062281EA5F1010534
:1006A000F3DC2046AFF300802078000602D502205C
:1006B000BDE8F0870120FBE710B5436913B1AFF344
:1006C000008001E0FFF766FE012010BD127800F106
:1006D00024010A7000224A700122EDE711684FF0F0
:1006E000FF32E9E700487047B0000020004870473B
:1006F000B000002070477546FFF7F4FFAE460500D6
:100700006946534620F00700854618B020B5FFF72C
:10071000B7FDBDE820404FF000064FF000074FF056
:1007200000084FF0000BAC46ACE8C009ACE8C009CB
:10073000ACE8C009ACE8C00921F007018D4670475C
:1007400010B50446AFF300802046BDE81040FFF727
:1007500082BD000001491820ABBEFEE72600020062
:100760000CF08EBF0DF022B809F09CB900281CBF18
:10077000002101607047000000281EBF0021C4F264
:10078000B011016070470000B0EE401AB1EEC00A2F
:10079000B4EE400AF1EE10FA04D6B7EE001A81EE7C
:1007A000000A704780B5B0EE410A0DF092F9BDE83D
:1007B0008040F2E709F0C0B90020C4F20200102125
:1007C000012202F08FB800000020C4F202001021C4
:1007D000002202F087B800007047000040F200409D
:1007E000C4F202000121012202F07CB840F2004074
:1007F000C4F202000121002202F074B8B0F9003006
:1008000040F2100CC2F2000C00EE103A9CED001AFF
:10081000B8EEC00A21EE000A81ED000AB0F90230FC
:100820009CED001A00EE103AB8EEC00A21EE000A64
:1008300081ED010AB0F9043000EE103AB8EEC00ABA
:1008400021EE000A81ED020AC3798179007A1B0248
:1008500043EA0040084400EE100A9FED041AB8EE87
:10086000400A20EE010A82ED000A704700401C4257
:100870007047000009F02EBF09F0D0BCB0F900208D
:1008800000EE102A40F21402C2F2000292ED001AA9
:10089000B8EEC00A21EE000A81ED000AB0F902307C
:1008A00092ED001A00EE103AB8EEC00A21EE000AEE
:1008B00081ED010AB0F9040000EE100AB8EEC00A9A
:1008C00021EE000A81ED020A7047000010B5FFF723
:1008D00083FFFFF7CDFF09F013FA08B1802402E08F
:1008E00009F070F9044609F0FBFB00281CBF44F036
:1008F000400010BD09F078FB204310BD2DE9F04306
:1009000083B08146002090460E46CDE90000FFF7F7
:100910005BFF922000F0A8F8922000F0A5F868464E
:10092000451E06242F4600BF552000F09DF8013CCF
:10093000210607F8010FF7D1FFF73EFFBDF90000D0
:10094000BDF9021000EE100A40F21000C2F20000E1
:1009500090ED001AB8EEC00ABDF9042021EE000A9D
:1009600086ED000A00EE101A90ED001A02EE102A31
:10097000B8EEC00AB8EEC22A21EE000A21EE021A31
:1009800086ED010A86ED021AFFF730FF802000F0A5
:100990006BF808242E4600BF552000F065F8013C96
:1009A000210606F8010FF7D1FFF718FF9DF80000A8
:1009B0000F2825D1BDF90200BDF9041000EE100A80
:1009C00040F21400C2F2000090ED001AB8EEC00A26
:1009D000BDF9062021EE000A89ED000A00EE101A8A
:1009E00090ED001A02EE102AB8EEC00AB8EEC22A44
:1009F00021EE000A21EE021A89ED010A89ED021AA0
:100A0000FFF7E2FEA22000F02FF8A22000F02CF861
:100A1000022400BF552000F027F8013C210605F80C
:100A2000010FF7D1FFF7C8FE9DF900009DF80120E6
:100A3000C1B2C90041EA52114FF60002CFF6FF726F
:100A4000002848BF114300EE101AB8EEC00AB4EEF9
:100A5000001A20EE010AB3EE071A30EE010A88ED03
:100A6000000A03B0BDE8F08380B582B08DF80700BE
:100A700041F6BC004FF47A7CC2F200000DF1070190
:100A80000DF106020123CDF800C003F0A9FC9DF88A
:100A9000060002B080BD000090F900204078D3B27B
:100AA000DB0043EA50104FF60003CFF6FF73002A35
:100AB00048BF184300EE100AB8EEC00AB4EE001AA0
:100AC00020EE010AB3EE071A30EE010A81ED000AAA
:100AD00070470000FEE7000041F28C00C2F2000007
:100AE00001F0DCB841F2B400C2F2000001F0D6B867
:100AF00010B58AB00024CDE9034403910821DDE953
:100B00000CECCDE907440791110A8DF80410190A7D
:100B10008DF806104FEA1E218DF808104FEA1C21AF
:100B20008DF805208DF807308DF80A1003A901AA69
:100B300009ABCDE905448DF809E08DF80BC000F054
:100B400063FF0AB010BD000080B58AB00022CDE975
:100B5000032203910821CDE90722CDE9052207915F
:100B600003A901AA09AB8DED010ACDED020A00F03F
:100B70004BFF0AB080BD00002DE9F04F81B02DED94
:100B80000E8B41F6F04A48F20000C2F2000AC4F2AD
:100B90000440CAF89C0042F20000C4F29950CAF81E
:100BA000500148F20000C4F21840CAF8040249F2A9
:100BB0000000C4F29C50CAF8B80240F62850C2F2B5
:100BC000000090ED02CA9FED7D0A90ED00EA2CEE48
:100BD000000A9FED7B1A90ED01DA30EE0E8A2CEEC2
:100BE000412A3EEE40AA2CEE010A18EE100A32EE1F
:100BF0004DBA30EE4D9A0DF0BFFE02460B460DF099
:100C000003FC80461BEE100A89460DF0B5FE024635
:100C10000B460DF0F9FB06460F4640464946324664
:100C20003B460DF031FB41EC100B0CF015FF51EC85
:100C3000100B0DF0F7FA47F6E474C2F20004606599
:100C40001AEE100A0DF098FE02460B460DF0DCFB82
:100C500032463B4683460D460DF016FB41EC100B29
:100C60000CF0FAFE51EC100B0DF0DCFAC4F8AC00FD
:100C700019EE100A0DF080FE02460B460DF0C4FB83
:100C800006460F465846294632463B460DF0FCFACA
:100C900041EC100B0CF0E0FE51EC100B0DF0C2FA21
:100CA000C4F804014046494632463B460DF0ECFA92
:100CB00041EC100B0CF0D0FE51EC100B0DF0B2FA21
:100CC000C4F85C010AF1A400B0EE4B0AF0EE480A49
:100CD00008F0E4FD0AF5AC70B0EE4B0AF0EE4A0AFB
:100CE00008F0DCFD0AF50370B0EE490AF0EE4A0A9E
:100CF00008F0D4FD0AF53070B0EE490AF0EE480A6B
:100D000008F0CCFDB5EE40EAF1EE10FA12D1B5EEE6
:100D100040DAF1EE10FA0DD1B5EE40CAF1EE10FA5C
:100D200008D10020CAF8A400CAF85801CAF80C0279
:100D3000CAF8C0029FED238A9FED239A40F6DB7725
:100D40000AF1A8055426C4F2490705E05836B6F55D
:100D5000DA7F05F1B4052CD035F8A60C15ED031A91
:100D600000EE100AB8EE400A30EE410A80EE080AA2
:100D700015ED011A30EE410A09F048FCB0EEC01A38
:100D8000B4EE491AF1EE10FA85ED000ADEDD10EE40
:100D9000100A67F31E0001EE100AA01930EE410A96
:100DA00090ED001A85ED000AB1EE410A80ED000ACF
:100DB000CCE7BDEC0E8B01B0BDE8F08FADE2243F77
:100DC00016D4433F83F9A244DB0FC93F79B14EF6F5
:100DD000C42C421EFF20C0F6000C00BF12F8013FD9
:100DE000C0B258401CF800000139F7D17047FF200D
:100DF000704700004FF00002F0B103291CD3B1F19D
:100E0000010C12D010B54EF6C42E4B42421EFF21EB
:100E1000C0F6000E12F8014F013361401EF80110B8
:100E20005C1CF7D1BDE8104000E0FF2110F80C0079
:100E3000081AB0FA80F042091046704700284FF6B1
:100E4000FF7218BF002911D04EF6C43C0138C0F61D
:100E5000000C00BF10F8013F013983EA0203DBB246
:100E60003CF8133092B283EA1222F3D190B2704769
:100E70004FF0000260B303292AD3B0B5B1F1020CE0
:100E80004FF6FF7212D04EF6C43E431EC0F6000E5F
:100E9000644600BF13F8015F013C85EA0205EDB22C
:100EA0003EF8155092B285EA1222F3D110F80C30B8
:100EB000D5B2AB42BDE8B0401CBF0020704708442B
:100EC00010F8010C91B2A0EB1120B0FA80F04209A9
:100ED00010467047A0F20121072988BF70472DE90D
:100EE000F04381B04EF68C22C0F6000252F8215039
:100EF00019A252F8216020A215A052F8217026A252
:100F0000405C52F821402CA2DDF82C8052F8219050
:100F100009F0A2F928883080B8F8000000BA000C67
:100F20002880B8F80200C0BA00EE100AB8EEC00A75
:100F300087ED000AB8F8040000BA000C208098F889
:100F4000060089F8000001B0BDE8F043704700BF1B
:100F50000201040308060507E47F00203C8000200E
:100F6000EC800020948000200C1F0020A41D002095
:100F7000F01C0020581E0020E87F00204080002048
:100F8000F080002098800020101F0020A81D002065
:100F9000F41C00205C1E0020EC7F00204480002018
:100FA000F48000209C800020141F0020AC1D002035
:100FB000F81C0020601E0020EE7F002046800020EC
:100FC000F68000209E800020161F0020AE1D00200D
:100FD000FA1C0020621E00202DE9F04740F2023288
:100FE00090426FDCB0F5987F00F0908040F20132C3
:100FF000904240F0AD808D880A88EEBA4B8802EEB0
:10100000106A40F60046C2F20006D7BADCBA76890A
:1010100000EE107A40F6285701EE104AB8EEC00AEA
:10102000C2F20007B8EEC11AB8EEC22A312E87ED1F
:10103000000A87ED011A87ED022A38D840F28C1693
:10104000C2F20006367806F0F006402E2FD112BA12
:10105000120C1BBA12B21E0C2BBA804610464FEA75
:10106000134A89460DF0B8F99FED510B54EC105B13
:101070002A4623460DF0C8F90DF0D4F8386030B296
:101080000DF0AAF92A4623460DF0BEF90DF0CAF874
:1010900078600FFA8AF00DF09FF92A4623460DF08A
:1010A000B3F90DF0BFF8494602464046BA60CA7926
:1010B00002F0010287F85C20C979C1F3400187F88A
:1010C0005D1031E040F20332904225D0B0F5417F0F
:1010D0003ED10A78013A042A26D8DFE802F0035DFF
:1010E00046523B00B1F8012040F6985312BA120C58
:1010F000C2F200031A80B1F80520B1F803709A809B
:101100003ABAC979120C5A8099710DE00446084622
:101110000AF06AFD204607E0496840F6144209BA21
:10112000C2F20002C2F8061040F20331884209D030
:10113000B0F5417F18BFBDE8F08741F6E940C2F243
:10114000000003E041F6E840C2F200000121017016
:10115000BDE8F087B1F8052040F69853C2F20003CD
:101160001A84D1F80110D961DEE7D1F8012049686D
:1011700040F69853C2F20003C3F81110C3F80E20D2
:10118000D2E7D1F80120496840F69853C2F2000333
:101190009961C3F81520C7E7D1F80120496840F6E6
:1011A0009853C2F20003C3F80A10C3F80720BBE744
:1011B000333333333333E33F70B582B047F6E470F3
:1011C000C2F2000090ED0B0A90ED211A90ED4D3A1D
:1011D000BDEEC00A90ED372A10EE102ABDEEC10A0E
:1011E00010EE103ABDEEC30A41F2B40610EE104AFA
:1011F000BDEEC20AC2F2000610EE105A30464FF49D
:101200000071CDE90045FFF773FC01200AF0AEFE46
:1012100041F6F040C2F2000090ED0B0A90ED381A52
:1012200090ED922A90ED653ABDEEC00ABDEEC22A5D
:10123000BDEEC11A10EE105ABDEEC30A12EE102A0E
:1012400011EE103A10EE104A304640F2FF11CDE98F
:101250000054FFF74DFC012002B0BDE870400AF0D9
:1012600085BE0000B0B582B041F2B404C2F2000401
:10127000002520464FF400710022002300950195BF
:10128000FFF736FC01200AF071FE204640F2FF1104
:101290000022002300950195FFF72AFC012002B0EF
:1012A000BDE8B0400AF062BE2DE9F04381B02DEDFB
:1012B000048B47F6E4709FED200BC2F2000041F66C
:1012C000F0499FED1F8AA0F158070024C2F20009DF
:1012D00055EC108B09EB040696ED2A0A06F1540032
:1012E000F0EE480A05F096FC96ED010AD6ED1D0ACF
:1012F00006F10C0005F08EFCD7F8AC0097ED179ABC
:1013000007F164060DF038FB42462B460DF07CF8E1
:101310000CF088FF00EE900A3046B0EE490A05F066
:1013200079FCB434B4F5347F07F15807D2D1BDEC61
:10133000048B01B0BDE8F083E27A144806780140DE
:101340000000000005F066FD40F62854C2F20004DB
:1013500005E000BFFFF730FF01200AF007FEFFF7AE
:101360000BFCFFF7A1FF94F85C000028F2D1FFF717
:1013700079FFF1E741F26420C2F2000000F0ACBF57
:1013800041F2C420C2F2000000F0A6BF80B500F018
:1013900009F841F2E400C2F20000BDE8804000F02C
:1013A0009BBF0000B0B541F6BC00C2F20000C16CAA
:1013B00046F2A040C4F202000968A0F1480246F2D9
:1013C0009F059142C4F2020502D950F89C3C11E0FD
:1013D00046F25803C4F2020303F16004A14202D9A9
:1013E000D3F8A83306E0994202D953F8543C01E0FF
:1013F00053F8583CA9424FF0200414DD46F23F4513
:10140000C4F20205A94223DC46F2A005C4F202059B
:10141000A9422CD046F21045C4F20205A94237D0A9
:1014200046F228452EE046F23F05C4F20205A942E5
:1014300020DD46F24005C4F20205A94217D046F26B
:101440007005C4F20205A94222D046F2880519E0CF
:1014500046F24045C4F20205A94208D046F2704562
:10146000C4F20205A94213D046F288450AE04FF4BF
:1014700000140DE046F21005C4F20205A94207D09F
:1014800046F22805C4F20205A94261D14FF4006476
:101490002340002B00F0E080914210D946F27042C8
:1014A000C4F20202914246D046F28842C4F20202DD
:1014B000914244D14FF4006240F8942C7EE046F211
:1014C0005802C4F2020202F16003994218D946F2AE
:1014D0001042C4F2020291425DD046F22842C4F2A8
:1014E0000202914252D046F24042C4F202029142BC
:1014F0000CBF4FF400114FF0006140F8981C5DE004
:1015000091422CD946F27000C4F2020081424ED0C2
:1015100046F28800C4F20200814240D046F2A000A8
:10152000C4F2020081420CBF4FF400104FF0006083
:1015300042F84C0C42E0202240F8942C3EE04FF060
:101540000062814208BF4FF4001240F8942C35E04D
:101550004FF00064814208BF4FF4001498E746F250
:101560001000C4F20200814225D046F22800C4F2E5
:101570000200814218D046F24000C4F202008142CB
:101580000CBF4FF400104FF0006015E04FF4006105
:1015900040F8981C12E0202140F8981C0EE04FF40F
:1015A000006042F84C0C09E04FF4006004E0202099
:1015B00042F84C0C02E0202042F8500C40F6FA753C
:1015C000C2F20005287800248007C4F202040DD579
:1015D0002878012100F0FD0028702878012240F0D1
:1015E0000400287004F5806001F07CF940F6A14009
:1015F000C2F20000017889070CD50178012201F0C0
:10160000FD010170017841F00401017020461021B4
:1016100001F068F940F6A040C2F2000001788907A5
:101620000CD50178012201F0FD010170017841F033
:10163000040101702046102101F054F908F0A4FEC5
:101640002878400758BFB0BD43F61040C4F20100EF
:10165000016841F001010160B0BD000041F2441099
:10166000C2F2000000F038BE41F2A410C2F2000045
:1016700000F032BE41F22430C2F2000000F02CBE75
:1016800041F20420C2F2000000F026BE70470000C4
:10169000012001F051B80000082001F04DB8000011
:1016A000102001F049B80000202001F045B80000EA
:1016B00072B600BFFEE70000B0B581B00022009214
:1016C00090F83C20012A02D1022001B0B0BDD1F82F
:1016D00000E00122BEF10A0F80F83C200ED31FFA71
:1016E0008EF25200036812FA8EF21E3A4FF0070C87
:1016F00053F80C5F0CFA02F4A54308E003680EEB04
:101700004E02072553F8104F954024EA05051D6049
:101710008D6805FA02F21D682A431A604A68062A93
:101720000ED802EB82014A1F01681F2351F8345F73
:10173000934025EA03030B601FFA8EF3934014E0F5
:10174000016802EB82030C2A1FFA8EF203D851F8CB
:10175000304F233B02E051F82C4F413B1F259D4069
:1017600024EA050502FA03F30D600A6842F2043C1C
:101770001A430A60C4F2010C0168BEF1120FACF505
:10178000417308BF994205D1DCF8002042F4800281
:10179000CCF800202EF00102102A08BF994205D093
:1017A000002180F83C10002001B0B0BDDCF8001032
:1017B000BEF1100F41F40001CCF80010F0D140F25E
:1017C0001C01C2F2000109684DF68362C4F21B32AB
:1017D000A1FB0212910C01EB8101490000910099DB
:1017E0000029DDD000990139F8E70000002804BF86
:1017F0000120704710B5016C39B9044600F0A0F81B
:1018000020460021616484F83C10016CC9063AD47A
:10181000016C41F202129143023142F2043201643E
:10182000C4F20102116821F440311160136890E89C
:1018300012102343D0F810E013604A68012422F408
:1018400080724A604A68C0F6007442EA0E224A601A
:101850004A6822F040724A604A6842EA0C024A60D2
:101860008A6822F400628A60C2688B681A438A60C0
:10187000826A8B68A24223F070638B608B6804D10C
:1018800023F040520AE0012152E01A438A608A683C
:1018900022F040528A60C26A8B681A438A608A6862
:1018A00022F002028A608A68037E90F8204042EAB1
:1018B00043028A604A6884B142F400624A604A681E
:1018C0004EF2000322F460424A60426ACFF6FF7390
:1018D0004C6803EB4232224301E022F400624A608A
:1018E000CA6A40F2000C22F47002CA62C3694269FB
:1018F000CFF6F07CCC6A0CEB03532343CB628B68AE
:1019000023F400738B6090F830308C6844EA4323F2
:101910008B608B6823F480638B608B6843EA822240
:101920008A6000214164026C012363F301020264B6
:10193000002280F83C20BDE81040084670470000B7
:1019400080B586B0006842F20022C4F20102002194
:101950009042CDE90411CDE90211019116D042F275
:101960000001C4F20101884238D10020009043F602
:101970004400C4F20200016841F480710160006813
:1019800000F480700090009806B080BD43F64400DB
:101990000091C4F20200026842F4806202600268B0
:1019A00002F480620092009A009150F8142C42F0E8
:1019B000200240F8142C50F8140C00F02000009085
:1019C00000984FF4806001900320CDE9020141F2BC
:1019D0000040C4F2020001A900F0BAFE06B080BDCA
:1019E00090F82020013A012A04D8006800F114027E
:1019F000002004E000F1240201204FF4802113684C
:101A0000194311607047000010B590F820E0D0F83D
:101A100000C0AEF1010EBEF1010FDCF808E011D8F4
:101A20001EF0E05F14D0CEF301640120A0401860E6
:101A30008B689BB1D1F804E0C86840EACE0040EA68
:101A4000030E0FE000F1240301204FF4802121E078
:101A500000F1240301204FF400111BE00868CB685B
:101A600043EA405E0CF5C07000EB0413240140F81B
:101A700004E00C69184640F8044F097D012903D1A0
:101A8000016841F48071016050680121D8601068DC
:101A9000986000201A681143196010BD90F820204A
:101AA000013A012A30D8B0B546F20060C4F2000015
:101AB000026842F001020260026822F47C52026075
:101AC000D1F814E0CC694A6A0368012C43EA022287
:101AD00002600EF01F024FF0010303FA02F2C36925
:101AE0006FEA020C23EA0203C36113D02CBBC36864
:101AF00003EA0C03C360CB688C8844EA034300EB21
:101B0000CE0423640B4611E0416A41F48021416216
:101B100001207047C3681343C3600B688C8844EA94
:101B2000034300EBCE04236401F10C038C681B8893
:101B300043EA044300EBCE04636443688D6943EADF
:101B40000204D1F810E0096A002D08BF03EA0C0472
:101B500044604369BEF1000F43EA020408BF03EA90
:101B60000C040129446102D1C1691143C1610168BA
:101B700021F0010101600020B0BD000070470000AD
:101B8000B0B590F82040013C012C78D804680029B9
:101B90000CBFE4682469A40777D004684FEA011CED
:101BA00004F5D87555F80C4014F00404946055F809
:101BB0000CE005EB011C19BF4FEADE0555604FEA4A
:101BC0005E551560DCF80050E64605F00205D5606C
:101BD0005EF8044F24075ABFDEF8004004F00F04FB
:101BE00008241461DEF800400029C4F3072494613E
:101BF000DEF800504FEA15455561DCF808201A70F0
:101C0000026802EB0112D2F8B8214FEA12225A7090
:101C1000026802EB0112D2F8B8214FEA12429A7020
:101C2000026802EB0112D2F8B8214FEA1262DA70B0
:101C3000026802EB0112D2F8BC211A71026802EBB1
:101C40000112D2F8BC214FEA12225A71026802EB4B
:101C50000112D2F8BC214FEA12429A71026802EBDB
:101C60000112D2F8BC214FEA1262DA7100680CBF8F
:101C700000F10C0100F11001002020220AE000F127
:101C8000240101204FF4802204E000F1240101200E
:101C90004FF400120B681A430A60B0BD2DE9F04FF3
:101CA00081B0044600684669D0F804908768D0F88F
:101CB0000CB0D0F810A0D0F81880F10703D100259F
:101CC00030071CD423E0F90710D00121BA07816046
:101CD00009D4780700F1AA80380700F1B0802046C7
:101CE00000F06EFA02E0204600F06CFA0025F805DC
:101CF00000F18480F80300F1AA80300707D51BF0BB
:101D0000100004D0206845F400751021C1607007F0
:101D100008D51BF0080005D020680821C1602046C6
:101D200000F0E6F9B00706D52068C068800702D049
:101D3000204600F0DFF9700607D51AF0100004D035
:101D4000206845F4806510210161B00608D51AF0BD
:101D5000080005D0206808210161204600F0FCF948
:101D6000F00606D520680069800702D0204600F002
:101D7000F5F9B00308D519F0100005D0206810213E
:101D80004160204600F0ECF9F00308D519F0080096
:101D900005D0206808214160204600F01DFA30047B
:101DA00040F18F805FEA497040F1888006F48070CE
:101DB00008EA102028435FEA8871014648BF41F0D5
:101DC0000201B20558BF01465FEA48700D4648BFA0
:101DD00045F00405700558BF0D4630056ED518F066
:101DE00070006BD010380009052862D8DFE800F0D9
:101DF000035C5659535F45F008055AE020684FF4DC
:101E00008071BA0581600AD4780512D4380519D4D6
:101E1000204600F0D9F9F8037FF56FAF17E02046B0
:101E200000F0D4F9F8037FF568AF10E04FF40065D7
:101E30005DE705F50055F8037FF55FAF07E04FF468
:101E4000805554E705F58045F8037FF556AF2068C7
:101E50004FF48031BA0381600AD478030FD4380379
:101E600013D4204600F0B4F930073FF548AF4EE7F1
:101E7000204600F0AFF930073FF541AF47E705F5E1
:101E8000004530073FF53BAF41E705F580353007AA
:101E90003FF535AF3BE745F080050AE045F020050A
:101EA00007E045F0400504E045F0100501E045F489
:101EB00080752068816921F07001816120680421AA
:101EC00041604DB1606A40EA05012046616201B09F
:101ED000BDE8F04FFFF752BE01B0BDE8F08F000043
:101EE000002804BF01207047B0B5044690F82000D8
:101EF00010B9204600F06EF82068016841F0010139
:101F0000016000F0F5FC054620684168C90705D16D
:101F100000F0EEFC401B0B28F6D310E0016821F026
:101F20000201016000F0E4FC054600BF2068416842
:101F300089070DD500F0DCFC401B0B28F6D3606A46
:101F4000052140F400306062012084F82010B0BD0B
:101F5000217E0268012922F0800208BF80320260DF
:101F6000617E0268012922F0400208BF403202600F
:101F7000A17E0268012922F0200208BF20320260FF
:101F8000E17E0268012922F0100218BF10320260BF
:101F9000217F0268012922F0080208BF083202608E
:101FA000617F0268012922F0040208BF0432026046
:101FB000D4E901C2D4E9033561691A432A431143C4
:101FC000ACF101021143C16100200121606284F87B
:101FD0002010B0BD10B586B0006846F60002C4F20D
:101FE000000200219042CDE90411CDE902110191D6
:101FF00033D046F20041C4F20001884276D140F26B
:10200000C411C2F200010A6843F64000C4F20200A3
:10201000531C0B6052B900210091016841F000711E
:102020000160016801F000710091009900210091A8
:1020300050F8101C142441F0080140F8101C50F80E
:10204000100C032100F008000090009840F20040BE
:10205000C4F2020000F5006034E043F64000C4F230
:1020600002000091016841F080610160016801F0A7
:1020700080610091009940F2C411C2F200010A6827
:10208000531C0B6052B900210091016841F00071AE
:102090000160016801F00071009100990021009138
:1020A00050F8101C402441F0020140F8101C50F878
:1020B000100C602100F002000090009840F20040F7
:1020C000C4F2020001910221029100210391032137
:1020D00004910921059101A900F03AFB2046052150
:1020E000002201F083F8204601F06EF806B010BD22
:1020F000704700002DE9F04184B040F6F44440F60A
:10210000EC48C2F20004C2F2000800212246434615
:102110000546FFF735FD41F2B400C2F200008542EA
:1021200007D194E8CF10CDF80C808DE8C010FEF7F1
:10213000D1FE41F28C00C2F2000085421CBF04B007
:10214000BDE8F081206840F6EC41C2F2000104B025
:10215000BDE8F041FEF740BF704700007047000047
:1021600070470000B0B5044690F8200001281DD14A
:10217000022084F820002068016821F0010101603C
:1021800000F0B6FB054600BF20684068C00713D0CA
:1021900000F0AEFB401B0B28F6D3606A40F4003021
:1021A0006062052084F820000120B0BD606A40F420
:1021B000002060620120B0BD00206062B0BD000060
:1021C0007047000070470000704700007047000033
:1021D000704700007047000070470000002804BFEF
:1021E00001207047417941B910B5002101710446C1
:1021F00000F008F82046BDE81040012141710020A0
:102200007047000043F63001C4F202010068A1F5F6
:102210000362904218BF704781B0002000900868A8
:1022200040F480500860086800F4805000900098E6
:1022300001B0704770B5866D044600F059FB94F804
:102240003510022925D105462068216C026822F04C
:1022500016020260426922F08002426109B9A16C53
:1022600019B1016821F008010160016821F0010144
:10227000016000BF20680068C0070ED000F038FB86
:10228000401B0628F6D320206065032084F8350023
:102290000CE080206065012008E0E06D3F2101FA3C
:1022A00000F0B060012084F835000020002184F89F
:1022B000341070BD90F83510022909D1052180F83D
:1022C00035100068016821F00101016000207047AD
:1022D0008021416501207047F0B581B00021009157
:1022E00040F21C01C2F200010B68D0E9166148F20D
:1022F000B51537680822C1F64E358A403A42A3FB2D
:1023000005350CD003681C68640708D51C6824F0E8
:1023100004041C60B260426D42F001024265012279
:102320008A403A4208D003685B691B0604D5B26054
:10233000426D42F00202426504228A403A4208D0CD
:1023400003681B689B0704D5B260426D42F004022B
:10235000426510228A403A4216D001680B681B077A
:1023600012D5B2600B680A685B0306D4D20506D4A6
:102370000A6822F008020A6001E011033FD4016CF0
:1023800011B1044688472046C26D202101FA02F3AC
:102390003B4241D001680F68FF063DD5B36090F81D
:1023A00035700B68052F1AD123F016030B604B69AB
:1023B00023F080034B61036C0BB9836C1BB10B687A
:1023C00023F008030B603F219140B160012180F8A8
:1023D0003510016D002280F83420D9BB3EE00A6838
:1023E0005B0310D4D20512D40A6822F010020A60EE
:1023F000012180F83510002180F8341007E0816C4D
:102400000029BED1C0E7110301D4416C00E0C16BCB
:1024100011B1044688472046416DF9B1416DC907A5
:1024200016D0052180F835100168AA0A0B6823F040
:1024300001030B60009B01339342009302D80B68A9
:10244000DB07F7D1012180F83510002180F8341026
:10245000C16C19B101B0BDE8F040084701B0F0BD52
:102460002DE9F041044600F043FAC4B105460220CC
:1024700084F835000020216884F83400086820F0D2
:102480000100086020680168C9070BD000F030FA2D
:10249000401B0528F6D90321202203207AE00120E1
:1024A000BDE8F081016848F23F02CFF21002D4E9A2
:1024B000013501EA020ED4E9032143EA0E032B435E
:1024C000D4E9056C1A43D4E907781143314341EA52
:1024D0000702616A42EA0802042942EA0C0303D1B6
:1024E000D4E90B273A43134303604269042922F0DD
:1024F000070241EA02012DD1D4E90A5341EA05015C
:1025000043B3BCF5005F08D0BCF1000F12D1022D1F
:1025100016D0012D07D09DB119E0032D17D8DFE8A3
:1025200005F00B0F0B02A3F1C072B2FA82F252094E
:102530004AB90FE0032D02D2012222B90AE006D1E6
:10254000C3F3006232B101214022012022E00022C7
:10255000002AF8D100F0F8024AF6AB23103ACAF686
:10256000AA23A2FB03374EF6FE5341613909C0F698
:102570000003595C40F2FF3398435F2A4FF03F025B
:1025800088BF0430C4E9160102FA01F1816000221B
:1025900001210020626584F83510BDE8F08100005B
:1025A00090F834C0BCF1010F04BF0220704770B531
:1025B0004FF0010C80F834C0D0F858E090F835C0E6
:1025C000BCF1010F37D14FF0020C80F835C04FF04D
:1025D000000CC0F854C0D0F800C08468056CC06D11
:1025E000DCF80060402C26F48026CCF80060CCF8A3
:1025F00004300B4604BF13460A463F2101FA00F09F
:10260000CCF80830CCF80C20CEF80800DCF800003C
:1026100040F01600CCF800002DB1DCF8000040F0CE
:102620000800CCF80000DCF8000040F00100CCF815
:102630000000002070BD002180F83410022070BD21
:1026400010B501381F2800F27680DFE800F0107422
:102650007474747474537474747474747436747499
:10266000747474747474747474747474745F41F6F0
:102670000D30C2F20000012101700AF09DFB01281B
:1026800059D040F2D010C2F2000040F2C0140068ED
:10269000C2F20004214609F0E1FC2068002808BFCE
:1026A00010BD4EF60450CEF200004FF08051016094
:1026B000BFF34F8FBFF36F8F3DE00A2007F0CCFDD3
:1026C00040F6A140C2F20000017841F00101017022
:1026D00040F6A040C2F20000017841F00101017013
:1026E00041F60E30C2F20000007820B3BDE8104081
:1026F00007F04ABE0B2007F0AFFD41F67430C2F27E
:102700000000017841F00101017010BD092007F0BF
:10271000A3FD40F6FA70C2F20000017841F0010119
:10272000017041F60E30C2F20000007818B1BDE829
:10273000104007F029BE10BD43F61441C4F2010158
:102740000A68024214BF08607047FFF779BF0000B3
:102750002DE9F04F83B000F1200200F13E4741F631
:102760000045009207F1FF77C4F2020508224FEA04
:10277000B726A84208BF0722072E38BF4FEAB72264
:1027800000274FF0000A4FF0000801920AE000BF56
:1027900008F101080AF1020AB8F1100F07F1040765
:1027A00000F09D800D68012202FA08FC15EA0C0970
:1027B000EED04D68032205F0030BABF10106012EAC
:1027C00002FA0AFE10D88668CC6826EA0E0604FAD9
:1027D0000AF4344384604468C5F3001524EA0C0607
:1027E00005FA08F52E434660BBF1030F1BD0C668FF
:1027F0008D6826EA0E0605FA0AF52E43BBF1020F94
:10280000C66010D16FF00302009D02EA580655F829
:1028100006C007F01C040F220B69A2402CEA02023A
:10282000A3401A43AA5102684B6822EA0E0203F041
:10283000030606FA0AF6324313F4403F0260A7D0BB
:10284000002243F644030292C4F202031A6843F6DC
:10285000004442F480421A601A68C4F2010402F48F
:1028600080420292029A28F003024FF6084C22445A
:10287000CFF6FF7C52F80C3007F00C060F25B54060
:10288000AB43019D05FA06F6334342F80C30A268CB
:102890004B6842EA090643F60C4CDD0258BF22EAB7
:1028A0000906A660C4F2010CDCF800209D0242EA91
:1028B000090658BF22EA0906CCF8006062689D0349
:1028C00042EA090658BF22EA090666602268DB036D
:1028D00042EA090658BF22EA0906266058E703B013
:1028E000BDE8F08F002A08BF09048161704700002D
:1028F00047F6CC70C2F2000000687047002804BFA1
:1029000001207047F0B581B0044690F83D0028B929
:10291000002084F83C00204600F058FB242084F876
:102920003D002068016821F001010160016841F467
:1029300000410160016821F40041016001F054FA96
:10294000636848F2A16CC0F2010C40F60011C0F2BD
:102950003D0163453CBF48F28041C0F21E01884200
:1029600002D2012001B0F0BD4DF68361C4F21B31EB
:10297000A0FB01122168970CD1F804E04FF4967681
:102980002EF03F0545EA92454D60774348F63816EC
:102990000D6AC0F24106A7FB067625F03F076345A6
:1029A00038BF960C721C3A430A62CA6948F2A066A4
:1029B0004CF6FF77C0F20106B34222EA070C0AD8B0
:1029C00001385A00B0FBF2F001306FF31F300428D9
:1029D00098BF042020E0A2681927002A08BF032717
:1029E00001385F43B0FBF7F701373F0509D052B11B
:1029F00019225A43B0FBF2F00422013062F31F3077
:102A000008E0012008E003EB4302B0FBF2F00130E4
:102A10006FF31F3040F4004040EA0C00C8610868C2
:102A2000D4E9072320F0C0001043184308608868E9
:102A300048F2FF3204F10C0790438CCF1843104347
:102A4000A6698860C86820F0FF0038433043C8603A
:102A5000086840F00100086000202021206484F80C
:102A60003D10206384F83E0001B0F0BD2DE9F04F29
:102A700083B0984692468B460446FFF739FF94F898
:102A80003D10202909D105462068806910F0020018
:102A900007D194F83C00012828D1022003B0BDE8FA
:102AA000F08F012686EA500707E000BF20688069A2
:102AB00010F0020086EA5007EBD0FFF719FF401B29
:102AC0001A28F3D3206880698007EFD500202021E1
:102AD000206384F83D1084F83E00216C41F0200111
:102AE0002164F90784F83C00D3D1D6E7012122689C
:102AF00084F83C101368DDE90D090C99DB0703D15C
:102B0000136843F001031360136823F40063136038
:102B1000222284F83D20402284F83E2000222264B4
:102B200061626085608D594620850020CFF6FF7078
:102B3000E062204652464346CDE9009502F050FE41
:102B400018B1012003B0BDE8F08F208D022817D006
:102B5000012804D000BB00200290206806E0206815
:102B6000016821F4806101600021029141690291B4
:102B7000816902910299016841F40071016013E0DA
:102B80002068016821F480610160016841F40061FE
:102B900001600021029102E000200290206841695A
:102BA0000291806902900298218D002900F00C8129
:102BB0004FF0010B09F101074FF000084FF0200A18
:102BC0002068032950F8142F21D8022955D0012953
:102BD00070D151060ED52068616A00690870E6E080
:102BE00020684069400640F10281206850F8141FB7
:102BF0004906F0D40168C90600F1ED80FFF778FEC0
:102C0000B9F1000FECD0401B4845EED9E8E751067A
:102C100026D52068616A00690870606A228D0130DB
:102C2000013A606222852168638D013B63854B69AF
:102C30005B0740F1C58092B2032A03D10A6822F4EF
:102C400080620A6009690170B1E000BF20684069D4
:102C5000400640F1CC80206850F8141F4906D8D4B3
:102C60000168C90600F1B780FFF742FEB9F1000F15
:102C7000ECD0401B4845EED9E8E712F0040040F0E4
:102C800082808BEA90060AE02068406940076BD595
:102C90002068406910F004008BEA900673D1002F81
:102CA000F6D0FFF725FEB9F1000FEDD0401B4845E7
:102CB000EED9E9E712F0040027D18BEA90060AE08A
:102CC00020684069400711D52068406910F0040071
:102CD0008BEA900619D1002FF6D0FFF709FEB9F163
:102CE000000FEDD0401B4845EED9E9E7C4F830802D
:102CF00084F83DA084F83E80206C40F020002064E1
:102D0000F00784F83C807FF41CAF2068616A026899
:102D100022F48062026000690870606A21680130F4
:102D20006062208D01382085608D0138608548699A
:102D300010F0040027D18BEA90060AE02068406971
:102D4000400711D52068406910F004008BEA900616
:102D500019D1002FF6D0FFF7CBFDB9F1000FEDD060
:102D6000401B4845EED9E9E7C4F8308084F83DA01F
:102D700084F83E80206C40F020002064F00784F846
:102D80003C807FF4DEAE2068616A026842F4007223
:102D9000026000690870606A2268411C6162218DCE
:102DA00001392185618D0139618511694170606A40
:102DB000218D01306062481E2085608D013860855C
:102DC000218D00297FF4FCAE202084F83D000020F6
:102DD00084F83E0017E06FF0100101600020202110
:102DE000206384F83D1084F83E00206C09E0002048
:102DF0002021206384F83D1084F83E00206C40F0D0
:102E0000200020640120002184F83C1003B0BDE8BC
:102E1000F08F00002DE9F04F83B0994692468B4623
:102E20000446FFF765FD94F83D10202909D10546B9
:102E30002068806910F0020007D194F83C00012856
:102E400028D1022003B0BDE8F08F012787EA5006A1
:102E500007E000BF2068806910F0020087EA500692
:102E6000EBD0FFF745FD401B1A28F3D3206880699B
:102E70008007EFD500202021206384F83D1084F8DE
:102E80003E00216C41F020012164F10784F83C00F0
:102E9000D3D1D6E70121226884F83C101368DDE91C
:102EA0000D080C99DB0703D1136843F0010313608D
:102EB000136823F400631360212284F83D2040222C
:102EC00084F83E200022226461626085608D59464C
:102ED00020850020CFF6FF70E062204652464B4628
:102EE000CDE9008502F0B4FD00286AD1208DC0B381
:102EF00008F1010604E000BF2068406900064BD5D8
:102F0000206850F8141F09060DD4016849053ED405
:102F1000002EF5D0FFF7ECFCB8F1000FECD0401B11
:102F20004045EDD9E8E7606A2168034613F8012BB4
:102F30000A61228D6362531E2385678D013F678579
:102F40004F697F070AD51B0408D0437802300B6114
:102F50006062901E2085608D01386085208D00287C
:102F6000CED1204641462A4602F06AFE08BB2068C0
:102F7000016841F400710160202084F83D000020C8
:102F800084F83E0084F83C0003B0BDE8F08F6FF495
:102F900080610160042000E02020002120222163C4
:102FA00084F83D2084F83E10226C1043206484F89D
:102FB0003C10206C042804D12068016841F40071A1
:102FC0000160012003B0BDE8F08F00002DE9F0475B
:102FD00086B045F600460068C4F200060025B042FF
:102FE0000595CDE903550295019502D006B0BDE8DF
:102FF000F08743F630070095C4F20207386801AC49
:1030000040F00400386038684FF0120800F0040007
:1030100000900098009538684FF0030940F00100D7
:10302000386038684FF0040A00F001000090009802
:103030004FF40070019006F5D6302146CDE90285A7
:10304000CDF81090CDF814A0FFF782FB4FF48070FC
:10305000CDE9010803A880E8200606F5D230214614
:10306000FFF776FB0095386940F400003861386955
:1030700000F400000090009806B0BDE8F087000062
:1030800040F2A40047F6CC71C2F20000C2F2000187
:1030900000780A68104408607047000080B543F665
:1030A0000040C4F20200016841F40071016001684F
:1030B00041F480610160016841F480710160032086
:1030C00000F0C0F80F2000F005F800F05BF80020D9
:1030D00080BD000070B586B0002543F64001019523
:1030E000C4F202010A68044642F001020A6009685B
:1030F00001A801F0010101910199694600F04EFE1D
:10310000049E002E18BF012600F06EFE4DF683616E
:10311000B040C4F21B31A0FB01014FF0FF3000EBC7
:10312000914141F65C10C2F200004FF0804240F243
:10313000E733C0E90021C0E902530561856101F070
:10314000DDFA08B106B070BD41F65C10C2F20000B5
:1031500001F04AFB0028F5D105461C2000F034F8A8
:103160000F2C0CD81C202146002200F03FF840F222
:10317000A800C2F200000460284606B070BD01201D
:1031800006B070BD82B0002043F640010190C4F249
:1031900002014A6842F480424A604A6802F480426E
:1031A0000192019A00900868002240F08050086067
:1031B00008680F2100F08050009000986FF0010027
:1031C00002B000F013B80000002848BF704700F0BC
:1031D0001F01012202FA01F11C2202EAD0004EF284
:1031E0000012CEF2000281507047000010B54EF67A
:1031F0000C5CCEF2000CDCF80030C3F3022E8EF033
:103200000704042C28BF0424BEF103034FF0FF3E43
:103210000EFA04F438BF0023A14399400EFA03F3D9
:103220009A43114300F1604200F00F03090102F5D7
:103230006442043B6344002848BF03F10C02117050
:1032400010BD00004EF60C51CEF200010A684FF698
:10325000FF031A4060F30A2242F0806040F0FD70E4
:103260000860704770470000D0F8E00405F004BC27
:1032700001EBC102D0F8E03400EB8200026A18468C
:1032800005F060BB01EBC102D0F8E03400EB820036
:10329000D0F86022184605F0AFBB0000D0F8E0047B
:1032A00005F0ECBBB0B5037901F00F029A4284BF80
:1032B0000120B0BD4BB24FF41574002B48BF14244D
:1032C00000EB040E90F8944402EBC2034FEAD11CC9
:1032D0000EEB8301012C4FF0000481F801C08C70CB
:1032E0000EF8232004BF0220B0BD0268012380F83D
:1032F00094340546104606F017F8204685F89444A5
:10330000B0BD000070B54FFA81FC4FF4157EBCF1E2
:10331000000F01F00F0C48BF4FF0140E00EB0E042D
:103320000CEBCC05CE0904EB85016FF3DF224E7068
:1033300004F825C08A600B7118BFA1F81AC0022BCF
:1033400004BF00224A7190F89424012A04BF02208D
:1033500070BD0268012380F894340446104605F0DD
:1033600065FF002084F8940470BD000010B501F0E2
:103370000F0E0EEBCE0100EB81044FF0000CC4F8F1
:1033800068C284F855C290F806C004F51571C4F8F7
:103390006022C4F86432BCF1010F84F854E208BF23
:1033A000CA610068624606F005F8002010BD000002
:1033B000B0B5027901F00F0494424FF001022CD80D
:1033C0004BB24FF41575002B48BF14254FEAD11CA2
:1033D00048BF2146054401EBC10305EB830181F899
:1033E00001C090F894C48A70BCF1010F05F8234025
:1033F00004BF0220B0BD02680123054680F8943462
:10340000104605F0B9FF2CB92868A97905F29C424D
:1034100005F05CFF002285F894241046B0BD000042
:1034200001F00F0C0CEBCC0100EB810101F814CF83
:103430004FF0000C0B618379C1F814C04FF0010C00
:10344000CA60012B81F801C008BFCA6180B500685D
:103450001A4605F0AFFF002080BD00002DE9F04FB7
:1034600087B005688246284606F014F910B107B007
:10347000BDE8F08FDAF8000006F03AF90028F6D03F
:10348000D5F80808C0F30D21DAF80000CAF8D41402
:1034900006F02EF9800705D5DAF80000416901F041
:1034A00002014161DAF8000005F50061049106F0BF
:1034B0001FF9C006059536D5DAF80000816921F0BC
:1034C000100181612C6A04F00F0000EBC0000AEBD0
:1034D0008001C4F34340062801F5157511D0022878
:1034E0001AD147F6F07014EA000615D0E9683409DD
:1034F0000598224606F000F9E86800EB1610E8602F
:1035000007E005980AF29C41082206F0F5F8C4F39A
:103510000A14686920446861DAF80000816941F0A2
:1035200010018161059DDAF8000006F0E1F8000362
:1035300040F1EC80DAF8000006F0B8F8002800F05E
:10354000E58006460AF29C404FF4306800244FF0B4
:10355000000B06901AE000BF05EB08000221816015
:10356000B80642BF05EB080020218160B80442BFC5
:1035700005EB08004FF4005181600BF1010B760858
:1035800008F1200804F1240400F0C080F007F4D012
:10359000DAF800005FFA8BF9494606F0A1F8074611
:1035A000C0075FD005EB080001218160DAF8000058
:1035B00008EB0001036C8A689AF80650012D25D1AA
:1035C000150732D4950600F1998043F20B05C4F635
:1035D0005475AB42059D02D312F400422FD10AEB81
:1035E0000402D2F8743209696FF3DF41A3EB0101E1
:1035F000C2F8681294BBD2F86432002B00F08480C9
:10360000D2F860020844C2F8600227E043F20B05DA
:10361000C4F65475FF35AB4217D1059D10040ED486
:10362000900644BF2020886018E043F20B00C4F6E7
:103630005470059D834215D312F4004012D04FF40C
:103640000040886038070FD438E0059D34B9DAF8B7
:10365000641219B90021069A05F038FE5046494611
:10366000FFF710FE380729D505EB08000821816017
:10367000DAF8000043F20B02056C40448168C4F69E
:103680005472954205D311F400411CBF4FF4004120
:103690008160504600F0B0FA43F20B00C4F654705B
:1036A0008542059D0AD39AF80600012806D1DAF86A
:1036B0000000069A012105F009FE00BFF80642BF8E
:1036C00005EB080010218160B8077FF549AF6869F4
:1036D000000604D50499486840F4806048600AEB0D
:1036E000040090F8571201297FF436AF002180F8CA
:1036F00057125046494600F04BFA2DE720208860CB
:10370000059D3807B0D4D9E70121A4E7DAF8000015
:10371000CDF818A005F0ECFF400340F1D1800698E9
:10372000006805F0BBFF002800F0CA800646059837
:103730004FF0010B00F510670698002500F1140901
:1037400000F29C400190CDE9029704E0760805F173
:10375000010500F0B580F007F8D006985FFA85FA09
:103760000068514605F0AAFF0446C00726D0049A17
:1037700005F00F00516B0BFA00F021EA00005063D6
:1037800007EB4510C0F808B006988079012811D1E0
:1037900005EBC50009EB8000D0E902121144C160BD
:1037A00045B9006930B90698019A0068012105F011
:1037B0008DFD00BF06985146FFF75AFD200742BF16
:1037C00007EB451008218160E00642BF07EB45107A
:1037D00010218160600642BF07EB451040218160E7
:1037E000A00715D50598294605F022FF05EBC50071
:1037F00009EB800010F8031F012905D10021017099
:103800000698514600F0C0F907EB4510022181608F
:1038100020069BD505EBC50009EB8008D8E904100C
:10382000814293D3069A081A1468D8F80820904267
:1038300038BF024604EB4510D0F81819033289B29C
:10384000B1EB920F28D300F5106900BFD8E904202E
:10385000824221D9101A069AD8E902B197795845BF
:1038600038BF83461FFA8BF320465246009705F077
:10387000FFFFD8F80C00D8F814105844C8F80C0012
:1038800001EB0B00C8F81400D9F818000BF1030184
:1038900080B2B0EB910FD9D2D8E90401DDE90297EB
:1038A00088424FF0010B3FF651AF05F00F00D4F8FE
:1038B00034180BFA00F021EA0000C4F8340845E798
:1038C000069C206805F014FF059DB0F1FF3F18DC51
:1038D0000499486820F00100486094F8CC0401285D
:1038E00007D1002084F8CC0420460021FFF7BAFC61
:1038F00002E0204600F064F92068416901F00041CF
:103900004161206805F0F4FE00050BD5049880683D
:10391000C00702D0204600F077F92068416901F421
:1039200000614161206805F0E3FEC0044DD50499B3
:10393000486820F0010048602068102105F078FEFA
:103940002079D0B105F510614FF67F328A600B689F
:10395000013823F400130B60C1F80822D1F80032BB
:1039600023F40013C1F80032D1F8003243F00063B1
:10397000C1F8003201F12001E8D1049F8421F869E7
:10398000442240F00110F861E07B00284FF00B006A
:1039900008BF142108BF42F22B007B5808BF102239
:1039A00018437850B85840F00B00B850386804F20B
:1039B0009C4220F4FE6038602068A17905F086FC06
:1039C0002068416901F480514161206805F090FE52
:1039D000800416D5206805F069FC206805F04CFECF
:1039E0002568E07100F0FAF9E2790146284605F011
:1039F000B7FE204600F0D0F82068416901F400517C
:103A00004161206805F074FE000707D5204600F0EC
:103A1000DBF82068416901F008014161206805F088
:103A200067FE000627D50599886920F08000886127
:103A3000207902281FD304F5157804F11405012616
:103A400040F27B2706E000BF20790136864207F16D
:103A5000240710D2E05D0128F6D106F00F0000EB3C
:103A6000C0023006206805EB820158BF08EB8201D6
:103A700005F098FDE8E7206805F03AFEC0022CD575
:103A80002079022824D3059804F1140900F5126561
:103A900004F13B064FF00108012706E020790137C9
:103AA0002035874206F1240612D228687178012950
:103AB000F4D1B0F1FF3FF1DC07F00F0000EBC001E3
:103AC000206809EB810186F8008005F06BFDE5E7D1
:103AD0002068416901F480114161206805F008FE09
:103AE000800230D52179059D022927D305F5326062
:103AF000013904F51F72012305E000BF20300139B0
:103B000002F124021AD007681678012EF6D1B7F117
:103B1000FF3FF3DCD4F8D46486EA1747FF07EDD102
:103B200002F8013CAF6947F08007AF616F693F065B
:103B3000E4D40499486840F4007048602068416902
:103B400001F400114161206805F0D2FD400007D565
:103B50002046FFF789FB2068416901F080414161FF
:103B6000206805F0C5FD40077FF581AC20684568F9
:103B7000680702D52046FFF791FB2068416829437A
:103B8000416007B0BDE8F08FD0F8E00404F09EBFBC
:103B9000D0F8E00404F0B0BF10B5C179044621B1FB
:103BA000022901D0FDF784FD0121D4F8E00405F0DD
:103BB0002BF8D4F8E004BDE8104004F0D9BF0000B1
:103BC000D0F8E00405F006B8D0F8E00405F00CB831
:103BD00090F89424012A04BF0220704710B50122F6
:103BE00080F89424417402680446104605F0A6FD4E
:103BF000002084F8940410BDD0F8E02400F29C4129
:103C0000104605F017B8000010B50446D0F8E004DF
:103C100005F052F82068D0F8001E41F00101C0F80C
:103C2000001EE07A002808BF10BD4EF61050CEF2FC
:103C30000000016841F00601016010BD002804BFCA
:103C4000012070472DE9F04143F60808C4F202084C
:103C50000446D8F8F8030D4600F00700814207D962
:103C600088F8F853D8F8F80300F00700A84276D196
:103C70002068810717D5410705D5D8F8001041F411
:103C8000E051C8F80010010705D5D8F8001041F43C
:103C90006041C8F80010D8F80010A26821F0F001C7
:103CA0001143C8F80010C0073FD1D8F8F80300F05E
:103CB0000700854207D288F8F853D8F8F80300F0D7
:103CC0000700A8424BD12068410707D5D8F800105B
:103CD000E26821F4E0511143C8F80010000708D54C
:103CE000D8F80000216920F4604040EAC100C8F81B
:103CF000000000F0A1F8D8F800104EF6AC22C1F395
:103D00000311C0F60002515C40F21C0220FA01F1DE
:103D100040F2A800C2F200000068C2F20002116086
:103D2000FFF7D8F90020BDE8F0816068811E022904
:103D300007D258F8081C89015CBF0120BDE8F0815A
:103D400010E0012807D158F8081C89035CBF012046
:103D5000BDE8F08106E058F8081C890702D401206C
:103D6000BDE8F081D8F8001021F003010843C8F83D
:103D70000000FEF7BDFD064641F28837D8F8000086
:103D8000616800F00C00B0EB810F8ED0FEF7B0FD43
:103D9000801BB842F2D90320BDE8F0810F220260F7
:103DA00043F60802C4F20202136803F003034360FF
:103DB000136803F0F0038360136803F4E053C360F7
:103DC000D2F800C04FF4E05303EADC030361D2F8F9
:103DD000F80300F0070008607047000040F21C0084
:103DE000C2F200000068704740F21C0043F6080170
:103DF000C2F20000C4F20201006809684EF6BC225B
:103E0000C1F38221C0F60002515CC8407047000037
:103E100040F21C0043F60801C2F20000C4F20201A5
:103E2000006809684EF6BC22C1F34231C0F60002B8
:103E3000515CC8407047000010B543F60404C4F25A
:103E400002046168C1F3810142F20040C0F2F40053
:103E5000DFE801F00203080210BD41F60030C0F2B5
:103E6000B70010BD206821682368490241F600317F
:103E7000C0F2B70100F03F02C3F388105CBF42F20A
:103E80000041C0F2F401A1FB00010023FCF70AFA93
:103E900021680222C1F3014102EB4101B0FBF1F0C4
:103EA00010BD0000002804BF012070472DE9F0413B
:103EB00082B00446007843F60006C007C4F202064A
:103EC00049D0B06800F00C00042809D130688003A4
:103ED00041D5606800283ED1012002B0BDE8F081E4
:103EE000B06800F00C00082802D170684002EDD4E0
:103EF00065683068B5F5A02F05D0B5F5803F09D1CC
:103F000040F480300CE040F480203060306840F4B1
:103F1000803005E020F480303060306820F480206C
:103F20003060FEF7E5FC002D054611D030688003B7
:103F300011D4FEF7DDFC401B6428F7D928E100BF4F
:103F4000FEF7D6FC401B64284FF0030000F2E0802F
:103F500030688003F4D4207880071BD5B06810F057
:103F60000C0F09D0B06800F00C00082840F08580E4
:103F70007068400200F181803068800703D5E068F6
:103F8000012840F09A803068216920F0F80040EA6A
:103F9000C10030602078000734D42078400746D430
:103FA000A5695DB3B06800F00C00082840F09C8063
:103FB000012D00F082807068E16900F480028A427D
:103FC0007BD1216A00F03F028A4276D147F6C07168
:103FD000626A0140B1EB821F6FD1A16A4FF6FF7395
:103FE000C903994300F44032A1F580318A4264D17B
:103FF000E16A00F07060B0EB016F5ED1002002B0AA
:10400000BDE8F081606900285BD00020C4F2472041
:104010000121C0F8801EFEF76BFC0546706F80071B
:10402000BBD4FEF765FC401B0228F7D9B0E0306C2A
:104030005FEAC0080AD400200190306C40F0805044
:104040003064306C00F080500190019847F2000716
:10405000C4F200073868C00526D4386840F4807080
:104060003860FEF745FC05463868C0051CD4FEF7ED
:104070003FFC401B0228F7D98AE0E068002840F2A4
:104080000000C4F2472053D001210160FEF730FC4C
:10409000054600BF306880073FF575AFFEF728FC86
:1040A000401B0228F6D973E0A568306F052D51D06A
:1040B000012D56D140F0010059E0012002B0BDE8C9
:1040C000F0810020C4F247200021C0F8801EFEF7D6
:1040D0000FFC0546706F80077FF55FAFFEF708FCA9
:1040E000401B0228F6D953E00027C4F247270020DE
:1040F0003866FEF7FDFB022D05460DD130688001C4
:104100005DD5FEF7F5FB401B02284FF00300F5D903
:1041100002B0BDE8F08100BF306880017FF56EAF6E
:10412000FEF7E6FB401B02284FF00300F4D9EFE74F
:1041300000210160FEF7DCFB054600BF3068800708
:104140007FF528AFFEF7D4FB401B02284FF0030099
:10415000F4D9DDE740F004003067306F40F0010033
:1041600005E020F001003067306F20F00400306778
:10417000FEF7BEFB002D054641F2883713D000BF85
:10418000306F800712D4FEF7B3FB401BB842F7D95B
:10419000032002B0BDE8F081FEF7AAFB401BB84245
:1041A0004FF00300B4D8306F8007F5D4B8F1000F9A
:1041B0003FF5F6AE306C20F080503064F0E604F14C
:1041C0001C052FCD084340EA8210D9034FF6FF7239
:1041D0009143A1F5803140EA0560084370600120F9
:1041E0003866FEF785FB0446306880013FF506AF70
:1041F000FEF77EFB001B02284FF00300F4D987E78F
:1042000070B528B1416A29B100210161142106E08D
:10421000012070BD4168B1F5827F02D01C210022CF
:1042200042500026866290F8511029B980F85060FB
:10423000054600F03DF82846022180F8511090E82C
:104240002E0002F482720C6803F4044324F040044C
:104250000C601A4405F4006305691A4405F0020372
:1042600045691A4405F001038569C4691A4405F4D7
:1042700000731A4404F03803046A1A4404F08003FB
:10428000846A1A4304F400531A430A60436A0422FE
:1042900002EA154203F010031A444A60CA6922F484
:1042A0000062CA610121466580F85110304670BD38
:1042B0002DE9F04F87B0044643F200070068C4F2CE
:1042C00001070026B8420696CDE9046603960296D9
:1042D00002D007B0BDE8F08F43F630000196C4F27B
:1042E0000200416902AD41F480514161416946F2E9
:1042F000404801F4805101910199019601684FF005
:10430000020941F00201016001684FF0030A01F067
:10431000020101910199019601684FF0050B41F0EE
:10432000010101600068294600F001000190019838
:104330001820029007F55440C4F20208CDE9039614
:10434000CDF814A0CDF818B0FEF702FA8020CDE920
:10435000020904A880E8400C07F550402946FEF702
:10436000F7F941F2E405C2F200054FF440304FF096
:10437000C0674FF48069C5E908062846C5E900878B
:10438000C5E90266C5E90496C5E90666FEF768F860
:10439000002818BFFDF78CF9E564AC6341F24415C1
:1043A00008F11800C2F200054021C5E9000705F137
:1043B0000800002280E806024FF40030C5E9080238
:1043C0002846C5E90522EA61FEF74AF8002818BF29
:1043D000FDF76EF9A564AC6307B0BDE8F08F00008F
:1043E0002DE9F04383B01E4615460F460446FEF7FE
:1043F0007FFA94F851108146012908D1002F4FF01F
:10440000010018BF002D0ED103B0BDE8F083606835
:10441000B0F5827F0DD104294FF00200F4D1A168DC
:104420000029EBD0F0E7002EEED094F850000128E0
:1044300003D1022003B0BDE8F083012084F85000CE
:1044400094F85100002104281CBF052084F8510075
:104450006165A563E687A6872763E6862068A6864A
:10446000216461640168490603D4016841F0400198
:1044700001606168731EE268B1FA81F1B3FA83F3F7
:10448000DDF8288049095B09B2F5006F41EA0301B4
:1044900037D131B137F8021BC1602763E08E013894
:1044A000E086012608F10105E08E10B9E08F0028B2
:1044B0006CD02068816889070CD5E18E51B1012E3E
:1044C00008D1216B002631F8022BC2602163E18EF6
:1044D0000139E1868168C9070AD0E18F41B1C0681E
:1044E000A16B012621F8020BA163E08F0138E08760
:1044F000FEF7FEF9002DD7D0A0EB09004045D3D33D
:104500003AE039B139780173206B01302063E08ED5
:104510000138E086012608F1010500BFE08E08B9E8
:10452000E08F98B32068816889070DD5E18E59B175
:10453000012E09D1216B002609780173206B01300F
:104540002063E08E0138E08620688168C9070BD0BF
:10455000E18F49B1C068A16B01260870A06B0130E2
:10456000A063E08F0138E087FEF7C2F9002DD5D0B7
:10457000A0EB09004045D1D3012084F85100002070
:1045800084F85000032003B0BDE8F08320460221E8
:1045900001224346CDF8009003F090FD60B1606DBC
:1045A00040F02000606520206065002084F8500005
:1045B000012003B0BDE8F08340F21C00C2F200000D
:1045C000006849F68171C1F25E61A0FB0101480DEE
:1045D0004FF47A71484302906068B0F5827F0AD147
:1045E0002046802100224346CDF8009003F066FD6E
:1045F0000028D4D108E0029830B102980138029026
:10460000206880680006F6D4A06838B900200190C0
:104610002068C1680191806801900198012084F8A8
:104620005100002084F85000606D002818BF012060
:1046300003B0BDE8F0830000704700007047000041
:1046400090F83C20012A4FF0020255D010B501230A
:1046500080F83C3080F83D200268D2F804E0D2F8BF
:1046600008C00C682EF07003234341F2FF74C4F2BB
:104670000004A24253600DDC40F2FF73C4F2000359
:104680009A4215DCB2F1804F29D040F20043C4F2C7
:10469000000322E040F2FF33C4F201039A4212DC2D
:1046A00041F60003C4F200039A4218D0002312E03E
:1046B00040F60003C4F200039A4210D040F60043D3
:1046C000C4F2000309E044F20003C4F201039A4279
:1046D00005D040F20043C4F201039A4204D1496874
:1046E0002CF08003194391600121002280F83D10D5
:1046F00080F83C20BDE8104010467047002804BFF9
:104700000120704710B5044690F83D0028B90020FC
:1047100084F83C00204600F01FF8022084F83D0099
:104720002068211D03F054FE012084F8460084F81F
:104730003E0084F83F0084F8400084F8410084F88B
:10474000420084F8430084F8440084F8450084F86B
:104750003D00002010BD000083B0006844F200411D
:10476000C4F2010188422DD040F60041C4F200019C
:10477000884216D040F60001C4F20001884230D1D0
:104780000020029043F64000C4F20200016841F0AC
:1047900004010160006800F004000290029803B078
:1047A00070470020019043F64000C4F20200016807
:1047B00041F008010160006800F0080001900198D4
:1047C00003B070470020009043F64000C4F202009E
:1047D000416841F400314160406800F400300090CD
:1047E000009803B07047000090F83D1001291CBFED
:1047F00001207047022180F83D10006841F2FF72ED
:10480000C168C4F20002904241F00101C1600DDCB8
:1048100040F2FF71C4F20001884215DCB0F1804F14
:1048200029D040F20041C4F2000122E040F2FF3101
:10483000C4F20101884212DC41F60001C4F2000119
:10484000884218D0002112E040F60001C4F20001B5
:10485000884210D040F60041C4F2000109E044F261
:104860000001C4F20101884205D040F20041C4F2C7
:104870000101884206D1816801F00701062904BFC1
:1048800000207047016841F001010160002070477D
:1048900090F83C20012A4FF002026ED080B501232F
:1048A00080F83C3080F83D20D0F800C04FF6777299
:1048B000DCF8083023EA0202CCF808200B684F2B02
:1048C00028DC1F2B44DD202B45D0302B43D0402B40
:1048D00040F0AC80D1F804E0C968DCF82030DCF8A6
:1048E000202022F00102CCF82020DCF8182022F051
:1048F000F00242EA011123F00A0242EA0E02CCF869
:104900001810CCF82020DCF8081041F0470121F005
:10491000300127E06F2B32DDB3F5005F73D0B3F5C4
:10492000805F21D0702B40F08180D1E901E3C9681C
:10493000DCF8082043EA0E0322F47F4243EA012117
:104940001143CCF80810DCF8081041F0770109E0B9
:104950000BB1102B6AD1DCF8081021F0700119435B
:1049600041F00701CCF808100022012180F83D1029
:10497000002180F83C10BDE8804010467047502B65
:1049800021D0602B52D1D1F804E0C968DCF8203086
:10499000DCF8202022F01002CCF82020DCF81820CF
:1049A00022F4704242EA013123F0A00242EA0E12E0
:1049B000CCF81810CCF82020DCF8081041F0670182
:1049C00021F01001CEE7D1F804E0C968DCF820300E
:1049D000DCF8202022F00102CCF82020DCF818209E
:1049E00022F0F00242EA011123F00A0242EA0E022A
:1049F000CCF81810CCF82020DCF8081041F0570152
:104A000021F02001AEE7D1E901E3C968DCF8082014
:104A100043EA0E0322F47F4243EA01211143CCF81A
:104A20000810DCF8081041F480419BE701229CE764
:104A30007047000070B504460068C5680669B10794
:104A400016D515F0020113D06FF0020101610121AA
:104A500021778069800703D02046FFF7E9FF05E052
:104A6000204600F0CDF9204600F038FB00202077EA
:104A7000700718D515F0040015D020686FF00401F8
:104A8000016102212177806910F4407F03D0204624
:104A9000FFF7CEFF05E0204600F0B2F9204600F017
:104AA0001DFB00202077300717D515F0080014D023
:104AB00020686FF00801016104212177C069800737
:104AC00003D02046FFF7B4FF05E0204600F098F938
:104AD000204600F003FB00202077F00618D515F0E3
:104AE000100015D020686FF01001016108212177B6
:104AF000C06910F4407F03D02046FFF799FF05E01E
:104B0000204600F07DF9204600F0E8FA00202077EA
:104B1000F00718BF15F0010002D1300609D412E0E9
:104B200020686FF001010161204600F0D9FA3006DB
:104B300009D515F0800006D020686FF08001016172
:104B40002046FFF779FD700609D515F0400006D024
:104B500020686FF040010161204600F0C9FAB006FC
:104B600058BF70BD15F0200008D021686FF02002FA
:104B700020460A61BDE87040FFF760BD70BD0000CF
:104B800080B586B0006844F20042C4F20102002100
:104B90009042CDE90411CDE90211019138D040F6DF
:104BA0000041C4F2000188421DD040F60001C4F269
:104BB000000188424CD10020009043F63000C4F23E
:104BC000020001684FF4804241F008010160006872
:104BD000022100F00800009000980020C4F20200BA
:104BE00000F540602AE00020009043F63000C4F257
:104BF00002000168072241F0010101600068022102
:104C000000F00100009000980020C4F2020015E0BE
:104C100043F630000091C4F2020001684FF4807244
:104C200041F0020101600068032100F002000090E1
:104C300000980020C4F2020000F580600192022278
:104C400002920022059101A9CDE90322FDF780FD22
:104C500006B080BD90F83C30012B04BF02207047A5
:104C60004FEAB2020123032A80F83C3000F2C380ED
:104C7000F0B5DFE802F0028A3264026840F20045D3
:104C8000136A166A23F0020326F001061662D2F8B0
:104C900004E0D2F818C08E6842F48064C4F20105C2
:104CA000AC4243EA060305D1CE6823F00C0326F09C
:104CB000040633430E68AC4206D1D1E905472EF411
:104CC0004075254345EA070E2CF073073743C2F8B9
:104CD00004E097614968516389E0026840F2004549
:104CE000136A176A23F4007327F480771762D2F8E7
:104CF00004E0D2F81CC08E6842F48064C4F201055E
:104D0000AC4243EA062307D1CE6840F2FF473602A1
:104D100023F44063BE4333430E68AC4206D1D1E96D
:104D200005452EF44057254347EA051E2CF073072E
:104D30003743C2F804E0D7614968D16357E002689D
:104D400040F20047D2F820E0136A42F4806623F470
:104D5000805313625368D4690D68D1F808C0C4F257
:104D60000107BE4204D14E6923F4804343EA86130F
:104D700024F4E64646EA05265360D66149682EF4D7
:104D8000005747EA0C33116431E0026840F20045F5
:104D9000136A176A23F0200327F010071762D2F86E
:104DA00004E0D2F818C08E6842F48064C4F20105B1
:104DB000AC4243EA061307D1CE686FF0400723F0F8
:104DC000C00307EA061633430E68AC4206D1D1E9A8
:104DD00005452EF44067254347EA850E2CF4E64747
:104DE00047EA0627C2F804E09761496891631362B5
:104DF0000023BDE8F040002180F83C1018467047C1
:104E000070470000002804BF0120704710B5044619
:104E100090F83D0028B9002084F83C00204600F0BE
:104E20001FF8022084F83D002068211D03F0D0FA0D
:104E3000012084F8460084F83E0084F83F0084F89E
:104E4000400084F8410084F8420084F8430084F86C
:104E5000440084F8450084F83D00002010BD0000A7
:104E60007047000090F83C30012B04BF02207047CF
:104E70004FEAB2020123032A80F83C3000F2F880A6
:104E80002DE9F043DFE802F002AF3D7D036840F218
:104E900000461C6A1A6A24F0020422F001021A6217
:104EA0001A46D3F804C052F818EF8F6843F48065AF
:104EB000C4F20106B54244EA070405D1CF6824F0E4
:104EC0000C0427F004073C430F68B54206D1D1E932
:104ED00005582CF440762E4346EA080C2EF0730653
:104EE0003743C3F804C09F614F6809695F631C6260
:104EF0009F6947F008079F619F6927F004079F613A
:104F0000B0E0036840F200481C6A1A6A24F4007496
:104F100022F480721A621A46D3F804C052F81CEFC9
:104F20008F6843F48065C4F20108454544EA0724CC
:104F300008D1CF6840F2FF463F0224F4406427EADC
:104F400006063443D1F80090454506D1D1E905560F
:104F50002CF440572E4347EA061C2EF0730747EA0D
:104F60000907C3F804C0DF614F680969DF631C6289
:104F7000DF6947F00807DF61DF6927F00407DF61B9
:104F800070E0036840F20045D3F820C01A6A43F489
:104F9000806722F480521A621A465C6852F81C8FAD
:104FA000D1F800E08E68C4F20105AF4204D14D692A
:104FB00024F4804444EA85142CF4005747EA063769
:104FC00028F4E64646EA0E265C60DE614E68096912
:104FD0001E641F62DF6947F40067DF61DF6927F441
:104FE0008067DF613DE0036840F200481C6A1A6A8E
:104FF00024F0200422F010021A621A46D3F804C0EA
:1050000052F818EF8F6843F48065C4F201084545F3
:1050100044EA071407D1CF686FF0400624F0C004BB
:1050200006EA07163443D1F80090454506D1D1E988
:1050300005562CF440672E4347EA860C2EF4E647CB
:1050400047EA0927C3F804C09F614F6809699F6355
:105050001C629F6947F400679F619F6927F480671E
:105060009F6109021368194300231160BDE8F043F2
:10507000002180F83C10184670470000002804BF4B
:105080000120704710B5044690F83D0028B9002073
:1050900084F83C00204600F01FF8022084F83D0010
:1050A0002068211D03F094F9012084F8460084F85B
:1050B0003E0084F83F0084F8400084F8410084F802
:1050C000420084F8430084F8440084F8450084F8E2
:1050D0003D00002010BD0000704700007047000038
:1050E0000068B0F1804F18BF7047FDF7C9BF0000DE
:1050F000704700007047000070470000B0B582B0F4
:1051000001680A68CC684B6902F02F05202D04F075
:10511000200505D125B102B0BDE8B04003F06ABA60
:105120005FEA027C1EBF03F0010E04F4907313EBE0
:105130000E0340D1036BD50618D5012B16D114F000
:10514000100313D0002201920A6801924A6801926A
:10515000019A4969490647D4818DC28DC38D002BC0
:1051600018BF914240F01A8102B0B0BD13062AD593
:1051700014F0800327D090F84120212AF4D18268CE
:10518000B2F5805F03D10269002A00F03A81026A19
:10519000531C036212784A60C28C013A1304C28421
:1051A000E2D1C86820F08000C860C86840F04000C4
:1051B000C86002B0B0BDD10718BF14F4807167D1C8
:1051C00051076BD471E05206CED514F04002CBD01B
:1051D000CA6822F04002CA60202180F8411002B063
:1051E000BDE8B04000F0F6BAC26B116849688BB2F6
:1051F000002B42D0858DAB423FD2C185D169B1F53C
:10520000807F33D0016851E8031F026821F4807168
:1052100042E80313002BF5D1016851E8051F02682D
:1052200021F0010142E80513002BF5D1016851E896
:10523000051F026821F0400142E80513002BF5D15B
:10524000202180F842100021016300BF016851E86D
:10525000031F026821F0100142E80313002BF5D16F
:10526000C16B04460846FCF7E5FF20460221416376
:10527000818DC28D891A89B2B9E0818D99427FF4FE
:1052800073AFD269B2F5807F7FF46EAF0222ADE0DA
:10529000416C41F001014164510706D5BEF1000F98
:1052A00003D0416C41F002014164910706D5BEF183
:1052B000000F03D0416C41F004014164BCF1000FC8
:1052C00006D55EEA050103D0416C41F00801416456
:1052D000416C00293FF448AF910604D51DB1044646
:1052E00003F088F9204601684969426C01F04001E9
:1052F00002F0080289184AD0016851E8031F0268C9
:1053000021F4907142E80313002BF5D1016851E8B4
:10531000051F026821F0010142E80513002BF5D1B9
:10532000016B01290AD100BF016851E8031F02681F
:1053300021F0100142E80313002BF5D1202180F861
:1053400042100021016301684969490654D500BF34
:10535000016851E8051F026821F0400142E8051389
:10536000002BF5D1C16B002946D048F2FD42C0F6B2
:105370000002044608460A65FCF79CFF00283FF43B
:10538000F3AEE06B016D02B0BDE8B04008470446E3
:10539000FFF7B2FE0020606402B0B0BD891A00BF02
:1053A000026852E8032F036822F4907243E8032551
:1053B000002DF5D1026852E8052F036822F00102A2
:1053C00043E80525002DF5D1202280F84220002257
:1053D000026300BF026852E8032F036822F0100244
:1053E00043E80325002DF5D1022289B2426302B0C1
:1053F000BDE8B040FFF77EBE02B0BDE8B040FFF7A9
:105400007BBE026A32F8023B6FF35F234B6002629D
:10541000C2E60000002804BF0120704710B5044612
:1054200090F8410028B9002084F84000204600F0A0
:1054300021F8242084F841002068C16821F400513B
:10544000C160204603F036F92068016921F49041DB
:105450000161416921F02A014161C16841F40051B3
:10546000C16000202021606484F8411084F842105B
:10547000606310BD2DE9F04F87B00446006844F624
:105480000001C4F2000100268842CDE90566CDE99D
:105490000366029600F0FA8041F20041C4F2010175
:1054A000884200F0878041F20001C4F20101884285
:1054B00040F04081002743F630000197C4F202001B
:1054C0004169002541F0100141614169C4F20205C2
:1054D00001F01001019101990197016802AE41F0BC
:1054E00002010160016846F2280801F00201019101
:1054F0000199019701684FF0020941F00101016033
:1055000000684FF0030A00F001000190019880202C
:1055100002904FF0070B05F580603146C4F2020897
:10552000CDE90397CDF814A0CDF818B0FDF710F928
:105530004FF40070CDE9020904A880E8800C2846E9
:105540003146FDF705F941F2A41508F58C60C2F269
:1055500000054FF0006685E8C1004FF400304FF4BD
:105560008069C5E908072846C5E90379C5E90577D3
:10557000EF61FCF775FF002818BFFCF799F8E563A9
:10558000AC6341F2042508F59260C2F200054021A7
:10559000C5E9000605F1080080E882024FF44030BA
:1055A000C5E908072846C5E90577EF61FCF758FF0C
:1055B000252664E043F630000196C4F202004169FA
:1055C00046F2280841F0200141614169C4F2020815
:1055D00001F02001019101990196016841F040011B
:1055E0000160006802A900F04000019001984FF4AA
:1055F000844002900220CDE9030603200590082094
:1056000006900020C4F2020000F5C050FDF7A0F89B
:1056100041F2C42508F58060C2F200054FF0206712
:10562000C5E900074FF400304FF48069C5E908066A
:105630002846C5E90266C5E90496C5E90666FCF791
:105640000FFF002818BFFCF733F8E563AC6341F2A5
:10565000243508F58F60C2F200054021C5E9000736
:1056600005F1080080E842024FF44030C5E9080621
:105670002846C5E90566EE61FCF7F2FE47260028DC
:105680004FF038074CD0FCF713F849E043F63000F0
:105690000196C4F20200016941F4802101610169AF
:1056A00001F48021019101990196016841F0040102
:1056B0000160006802A900F00400019001984FF415
:1056C000406002900220CDE90306032005900720E8
:1056D00006900020C4F2020000F50060FDF738F8E3
:1056E00041F2642546F22800C2F20005C4F202002D
:1056F0004FF000614FF4806285E843002846C5E919
:105700000362C5E90566C5E907666E62FCF7A8FE97
:1057100000284FF027064FF03C0718BFFBF7C8FFE3
:10572000304605210022E551AC63FDF75FFD3046B0
:10573000FDF74AFD07B0BDE8F08F0000704700009C
:10574000B0B590F84140202C1CBF0220B0BD1346DC
:1057500000294FF0010218BF002B01D11046B0BD47
:105760004FF0000C212401628384C384C0F844C03C
:1057700080F8414002680446806B48F2AD5E48F212
:10578000ED55C0F6000EC0F60005C0E90FE548F281
:105790000955C0F600050432C0E9135CFCF700FFB0
:1057A00030B110206064202084F841000120B0BD99
:1057B00020686FF040010160206850E8050F216803
:1057C00040F0800041E80502002AF5D10022104691
:1057D000B0BD00007047000070470000FEE7000009
:1057E0002DE9F04F83B004460068DDF834B00C9E1C
:1057F0000768994647F4806707600768904647F452
:105800008073036040698A4610F001002AD180F05D
:105810000107751C0BE000BF20684069C00711D06C
:105820002068406910F0010080F001071AD1002DB6
:10583000F6D0FDF75DF8002EEED0A0EB0B00B042E5
:10584000EED9E9E700202021206384F83D1084F898
:105850003E00216C41F020012164F90784F83C00EE
:1058600040F0B78020680AF0FE0AC0F810A0416935
:1058700089072CD44169490514D4771C5FB1FDF721
:1058800037F81EB1A0EB0B00B04204D92068406984
:10589000800740F1D18020684169890717D44169A8
:1058A0004905EBD5016841F4007101606FF4806136
:1058B000416100202021206384F83D1084F83E00DF
:1058C000216C41F00401216484F83C00B0E0002028
:1058D0000290206850F8141F0291416802910299C9
:1058E000016809061AD4771C0AE000BF20684069E5
:1058F000000640F18880206850F8141F09060DD476
:105900000168490551D4002FF5D0FCF7F1FF002EB6
:10591000ECD0A0EB0B00B042EDD9E7E72068B9F17D
:10592000010F21D04FEA1821016150F8141F090618
:1059300019D4771C09E000BF20684069000662D5D1
:10594000206850F8141F09060DD4016849052CD4AD
:10595000002FF5D0FCF7CCFF002EEDD0A0EB0B0014
:10596000B042EDD9E8E720685FFA88F1016120686C
:1059700050F8141F09061DD4771C08E02068406900
:10598000000640D5206850F8141F090612D401689B
:1059900049050AD4002FF5D0FCF7AAFF002EEDD060
:1059A000A0EB0B00B042EDD9E8E76FF48061016035
:1059B000042029E0206800220168334641F4807108
:1059C000016020464FF00111CDF800B000F072F9EF
:1059D00050B120680068C00544BF4FF400702064D7
:1059E000032003B0BDE8F08F25684AF001070221CB
:1059F000C0F20101204632465B462F6103B0BDE88C
:105A0000F04F00F09BB9202000212022216384F870
:105A10003D2084F83E10226C1043206484F83C1032
:105A2000206C042804D12068016841F400710160F1
:105A3000012003B0BDE8F08F00202021206384F80E
:105A40003D1084F83E00216C41F020013BE700004E
:105A50002DE9F04F81B00446006890460268DDF8F9
:105A60002CA042F48072026040690A9E994610F0B0
:105A700001008B4634D180F00105771C0BE000BF9C
:105A800020684069C00711D02068406910F001000B
:105A900080F0010524D1002FF6D0FCF729FF002E5D
:105AA000EED0A0EB0A00B042EED9E9E700202021B9
:105AB000206384F83D1084F83E00216C41F0200101
:105AC0002164E90784F83C000AD020680068C0051A
:105AD00044BF4FF400702064032001B0BDE8F08F94
