:020000040800F2
:1000000090AA002095020008B98F0008E576000844
:10001000158F00087109000835EB0008000000008A
:10002000000000000000000000000000F1A7000830
:100030000D1800080000000021960008A9B500086E
:10004000AF020008AF020008AF020008AF020008CC
:10005000AF020008AF020008B9190008AF0200089B
:10006000AF020008C1190008C9190008AF02000852
:1000700011130008AF020008AF020008AF02000829
:10008000AF020008AF020008AF020008AF0200088C
:1000900075090008AF020008AF020008D119000876
:1000A000AF020008AF020008AF020008AF0200086C
:1000B00099B60008A5B60008AF020008AF02000814
:1000C000AF020008AF020008AF020008AF0200084C
:1000D000AF02000815BC0008AF020008DDBD000833
:1000E000AF020008AF020008AF020008AF0200082C
:1000F000AF020008AF020008AF020008AF0200081C
:10010000AF020008AF020008AF020008AF0200080B
:10011000AF020008AF020008AF020008AF020008FB
:10012000AF0200081D13000829130008DD1700089E
:10013000AF020008AF020008AF020008AF020008DB
:1001400081090008AF020008AF020008D992000838
:10015000E9170008F517000801180008D9BF0008C2
:10016000AF020008AF020008AF020008AF020008AB
:10017000AF020008AF020008AF0200080000000054
:10018000AF020008AF02000800F002F800F072F8B9
:1001900014A696E8000CB244B344DA4501D100F04D
:1001A00069F8BAE80F000FA696E83000A5EB040541
:1001B00004EB0607AAEB0704A7F101074FEA1515A0
:1001C0004FEA3414A4F10104AC4201D300F052F818
:1001D00013F0010F18BFFB1A43F0010300F001F800
:1001E000DBE7184734690100546901000A444FF005
:1001F000000C10F8013B13F0070408BF10F8014B86
:100200001D1108BF10F8015B641E05D010F8016BCA
:10021000641E01F8016BF9D113F0080F1EBF10F82E
:10022000014BAD1C0C1B09D16D1E58BF01F801CB51
:10023000FAD505E014F8016B01F8016B6D1EF9D5D4
:100240009142D6D37047000070470000002300247D
:1002500000250026103A28BF78C1FBD8520728BFD6
:1002600030C148BF0B6070471FB515F06CFD1FBD56
:1002700010B510BD00F083F91146FFF7F5FF10F03F
:1002800013FB00F0A1F903B4FFF7F2FF03BC00F089
:10029000A5F900000948804709480047FEE7FEE746
:1002A000FEE7FEE7FEE7FEE7FEE7FEE7FEE7FEE726
:1002B00004480549054A064B7047000085B600080A
:1002C0008901000890A4002090AA002090A6002098
:1002D00090A6002053EA020C00F069802DE9F04B53
:1002E0004FF00006002B1FBFB3FA83F503FA05F4A5
:1002F00024FA05F65E4012BF1643B2FA82F502FAFE
:1003000005F4C5F120051EBF22FA05FC44EA0C04E1
:10031000203556EA044C4FEA144418BF641C4FF0D1
:1003200000084FF00009904271EB030C39D300290B
:1003300019BFB1FA81F701FA07F6B0FA80F700FAAF
:1003400007F6C7F120071EBF20FA07FC46EA0C0695
:100350002037B6FBF4FCA7EB0507103F07F01F0B97
:10036000CBF120062CFA06F60CFA0BFB44BFB34681
:100370000026202FA4BF5E464FF0000B5BEA060C60
:1003800008BF4FF0010B19EB0B0948EB0608ABFB5C
:10039000027C06FB02CC0BFB03CCC01B71EB0C01F7
:1003A000C1E70B46024641464846BDE8F08B13B50F
:1003B000084318BF4FF0FF300146AFF30080BDE89F
:1003C0001C40704710B5431C02E010F8011B71B1CE
:1003D0008107FAD14FF0013202C88C1A8C4314EA1B
:1003E000C211F9D0C01A0A0603D0C01E10BDC01A2F
:1003F00010BD0A0401D0801E10BD0902FCD0401EB1
:1004000010BD032A40F2308010F0030C00F015807C
:1004100011F8013BBCF1020F624498BF11F801CB07
:1004200000F8013B38BF11F8013BA2F1040298BF6C
:1004300000F801CB38BF00F8013B11F0030300F0D6
:100440002580083AC0F0088051F8043B083A51F87A
:1004500004CBA0E80810F5E7121D5CBF51F8043B7F
:1004600040F8043BAFF30080D20724BF11F8013BF2
:1004700011F801CB48BF11F8012B24BF00F8013B54
:1004800000F801CB48BF00F8012B704710B5203AA7
:10049000C0F00B80B1E81850A0E81850B1E818502F
:1004A000A0E81850203ABFF4F5AF5FEA027C24BF01
:1004B000B1E81850A0E8185044BF18C918C0BDE8EA
:1004C00010405FEA827C24BF51F8043B40F8043BB3
:1004D00008BF7047D20728BF31F8023B48BF11F868
:1004E000012B28BF20F8023B48BF00F8012B7047C2
:1004F00002F0FF0343EA032242EA024200F002B89C
:100500004FF0000200B5134694469646203922BFAC
:10051000A0E80C50A0E80C50B1F12001BFF4F7AFF7
:10052000090728BFA0E80C5048BF0CC05DF804EBD9
:10053000890028BF40F8042B08BF704748BF20F847
:10054000022B11F0804F18BF00F8012B7047704745
:100550007047704710B500F00DF8006810BD10B579
:10056000044600F007F8046010BD00000048704722
:10057000E801002000487047E801002070477546F8
:10058000FFF7F4FFAE4605006946534620F007002A
:10059000854618B020B5FFF78BFEBDE820404FF030
:1005A00000064FF000074FF000084FF0000BAC467C
:1005B000ACE8C009ACE8C009ACE8C009ACE8C009C7
:1005C00021F007018D46704710B50446AFF3008057
:1005D0002046BDE81040FFF756BE00000149182034
:1005E000ABBEFEE72600020013F05CBD13F0F0BDC9
:1005F0000EF0DCBA00281CBF00210160704700002B
:1006000000281EBF0021C4F2B01101607047000035
:10061000B1EEC00AB7EE001A81EE000A7047000082
:100620000EF00EBB0020C4F202001021012203F0E4
:100630002DBD00000020C4F202001021002203F0B2
:1006400025BD00007047000040F20040C4F20200E7
:100650000121012203F01ABD40F20040C4F2020061
:100660000121002203F012BDB0F9003040F2180C55
:10067000C2F2000C00EE103A9CED001AB8EEC00A6F
:1006800021EE000A81ED000AB0F902309CED001A5B
:1006900000EE103AB8EEC00A21EE000A81ED010A20
:1006A000B0F9043000EE103AB8EEC00A21EE000AAC
:1006B00081ED020AC3798179007A1B0243EA004086
:1006C000084400EE100A9FED041AB8EE400A20EE2E
:1006D000010A82ED000A704700401C42704700008A
:1006E00010F050BA0FF052BBB0F9002000EE102A03
:1006F00040F21802C2F2000292ED011AB8EEC00AEE
:1007000021EE000A81ED000AB0F9023092ED011AE3
:1007100000EE103AB8EEC00A21EE000A81ED010A9F
:10072000B0F9040000EE100AB8EEC00A21EE000A8B
:1007300081ED020A7047000010B5FFF783FFFFF755
:10074000CDFF0EF013FC08B1802402E00EF0BEFADB
:1007500004460EF04FFF00281CBF44F0400010BDBF
:100760000EF03CFE204310BD2DE9F04F83B0029205
:100770000E460190FFF75EFF922000F0C3F8922032
:1007800000F0C0F8552000F0BDF88046552000F07C
:10079000B9F80546552000F0B5F88246552000F01E
:1007A000B1F80446552000F0ADF88346552000F01E
:1007B000A9F80746FFF736FF48EA052040F2180976
:1007C00000B2C2F2000900EE100A99ED001AB8EE6C
:1007D000C00A4AEA042021EE000A00B286ED000AAF
:1007E00000EE100A4BEA072000B299ED001A02EE63
:1007F000100AB8EEC00AB8EEC22A21EE000A21EEB5
:10080000021A86ED010A86ED021AFFF725FF802005
:1008100000F078F8552000F075F80646552000F0F5
:1008200071F8552000F06EF88246552000F06AF805
:100830000546552000F066F88346552000F062F822
:100840000446552000F05EF80746552000F05AF89F
:100850008046FFF7F9FE0F2E25D14AEA052000B2A7
:1008600000EE100A99ED011AB8EEC00A01994BEAA0
:10087000042021EE000A00B281ED000A00EE100A09
:1008800047EA082000B299ED011A02EE100AB8EE0C
:10089000C00AB8EEC22A21EE000A21EE021A81ED4A
:1008A000010A81ED021AFFF7C5FEA22000F02AF826
:1008B000A22000F027F8552000F024F8044646B2A4
:1008C000552000F01FF80546FFF7ACFEE00040EAB7
:1008D00055104FF60001CFF6FF71002E48BF0843B8
:1008E00000EE100AB8EEC00AB4EE001A20EE010ABB
:1008F000B3EE071A029830EE010A80ED000A03B049
:10090000BDE8F08F80B582B08DF8070043F29C609F
:100910004FF47A7CC2F200000DF107010DF10602DE
:100920000123CDF800C005F0ABFB9DF8060002B036
:1009300080BD000090F900204078D3B2DB0043EA8C
:1009400050104FF60003CFF6FF73002A48BF18433C
:1009500000EE100AB8EEC00AB4EE001A20EE010A4A
:10096000B3EE071A30EE010A81ED000A704700006D
:10097000FEE7000042F66C60C2F2000002F016BD15
:1009800042F69460C2F2000002F010BD10B58AB0C9
:100990000024CDE903140821DDE90CECCDE907447E
:1009A0000791110A8DF80410190A8DF806104FEA04
:1009B0001E218DF808104FEA1C218DF805208DF8B6
:1009C00007308DF80A1003A901AA09ABCDE9054447
:1009D0008DF809E08DF80BC002F078FB0AB010BD6D
:1009E00080B58AB04FF0000ECDE9031E0821DDF876
:1009F00030C0CDE907EE0791110A8DF80410190AED
:100A00008DF806104FEA1C618DF808104FEA1C4162
:100A10008DF809104FEA1C218DF805208DF807305C
:100A20008DF80A1003A901AA09ABCDE905EE8DF8EE
:100A30000BC002F04BFB0AB080BD00002DE9F04175
:100A40008AB00DF1480E0024DDF854C09EE8204124
:100A5000DDE91076CDE903140821CDE907440791BB
:100A60008DF804208DF8053003A901AA09ABCDE962
:100A700005448DF806708DF807608DF808508DF8E4
:100A800009808DF80AE08DF80BC002F01FFB0AB058
:100A9000BDE8F08180B58AB04FF6EC23CFF6FF7346
:100AA0009A42C8BF134640F2145201F5A071934216
:100AB000A8BF13460022039108210892CDE906221F
:100AC0000791A121CDE904228DF80410ADF808307A
:100AD00003A901AA09AB02F0F9FA0AB080BD00002F
:100AE00080B58AB001F5A071002203910821089217
:100AF000CDE9062207918821CDE904228DF8041062
:100B0000CDF80520029203A901AA09AB02F0DEFA92
:100B10000AB080BD002070470020704710B542F633
:100B20000034C2F2000441F6A441C2F200012046A2
:100B300000220BF0DBFD41F2A441C2F2000120468D
:100B40000BF0C6FD002010BD70B542F6003549F629
:100B50001C56C2F20005C2F200060C462846314679
:100B60000BF0B6FD28460BF08DFD20680121A6F89C
:100B70004000002086F8421070BD00000020704741
:100B800042F60032C2F20002D2F8BC22D2F814328D
:100B9000002B1CBF0120704710B542F60034C2F292
:100BA00000040A46014620460BF0A0FD2046BDE8A1
:100BB00010400BF01FBE000000284FF6FF7318BF57
:100BC000002901D198B27047B0B54A1E46F24005DF
:100BD00001F0030C032AC0F6010527D321F003011D
:100BE00010F8042B043982EA0302D2B235F812203D
:100BF00010F8034C82EA132383EA0403DBB235F8CE
:100C0000133010F8024C83EA122282EA0402D2B2B4
:100C100035F8122010F8014C82EA132383EA04030A
:100C2000DBB235F8133083EA1223D9D1BCF1000FBF
:100C30001BD001789AB25940C9B235F81110BCF1F5
:100C4000010F81EA122310D04278DBB25A4035F806
:100C500012E0BCF1020F8EEA112306D08078D9B2DF
:100C6000484035F8100080EA1E23BDE8B04098B235
:100C70007047000051B1B0B545F6407201F0030C69
:100C80000429C0F6010205D2FF211CE0FF21C8B2F1
:100C9000704700BF21F0030E0023FF2110F8044B22
:100CA000C9B2614010F8035C515C10F8024C694015
:100CB000515C10F8015C6140515C04336940515C47
:100CC0009CB27445EAD1BCF1000F10D00378BCF19E
:100CD000010F81EA0301515C09D04378BCF1020F96
:100CE00081EA0301515C02D080784840115CBDE884
:100CF000B040C8B270470000B0B582B040F20D31CC
:100D000088421DDC40F24111884200F0738040F2BD
:100D10000121884200F08A8040F20D31884240F083
:100D2000B78040F26C40C2F20000D0E9060140F208
:100D3000AC32C2F200021060516002B0B0BD00BF20
:100D4000A0F2016103292FD80FF20400DFE811F0AF
:100D50000400F400A200D80040F26C40C2F200008F
:100D6000018B09BA090CB1F5037F4180C0F25081B3
:100D7000A1F503710B2900F28B80DFE811F00D0063
:100D8000C50189008900F901D901D301F1010902E6
:100D90000102E101E90100BF807E40F24B31C2F265
:100DA0000001087002B0B0BD40F20E31884265D03B
:100DB00040F20F3188426BD140F26C40C2F2000029
:100DC000017E42F2E45301EB8102C2F2000303F818
:100DD0001210418B03EB420209BA838BC08B090CC2
:100DE000518019BA00BA090C000C9180D08002B071
:100DF000B0BD00BF40F26C40C2F20000B0F91C1060
:100E00009FEDA91A00EE101AB8EEC00A80EE010A92
:100E1000C18F428B8187C18BA0F84420C187417E5E
:100E200080F8461080ED100A02B0B0BD43F61021E4
:100E300040F26C43C2F20001C2F2000348881A8BF0
:100E4000088010BA5A8B000C4880D0BA00EE100A05
:100E5000988BB8EEC00A00BA000C0881987F81ED2B
:100E6000010A887208688A6810EE101A03F1040CEF
:100E7000CDF800C008F050F802B0B0BD40F26C40B0
:100E8000C2F20000806940F2AC31C2F20001886019
:100E900002B0B0BD40F26C40C2F20000018B6FF0B6
:100EA000C8030ABA110C03EB12420A2A418000F26D
:100EB0007180DFE812F00D00FB000B000B000B004F
:100EC00011010B000B000B000B00E100E0E700BF7D
:100ED00040F28851C2F200010A7BC37E90F81FC025
:100EE000808B03F0010302F0FB0200BA42EA8302A6
:100EF000000C0A73088181F800C002B0B0BD00BFC9
:100F000040F26C40C2F20000018B09BA090CB1F545
:100F1000997F418064D040F2311291424CD0CC296B
:100F2000B6D140F27C31827EC07EC2F200018A716D
:100F3000887002B0B0BD00BF40F26C40C2F2000049
:100F4000018B09BA090C0429418015DC032973D0EF
:100F500004299DD1418B40F2C66209BA838BC08BB4
:100F6000090CC2F20002D18019BA00BA090C000CB7
:100F70005181D08102B0B0BD05296FD0D1297FF455
:100F800087AFC06940F2603100BAC2F20001086068
:100F900002B0B0BD40F22F12914200F0AB80B1F52B
:100FA000987F7FF475AFC06940F2B83100BAC2F2E1
:100FB0000001486002B0B0BD40F2D871827EC2F23A
:100FC0000001C37E057F447FCA72827FC07F0B749D
:100FD0004D758C76CA7781F8240002B0B0BD00BF91
:100FE00040F2D871827EC2F20001C37E057F447F49
:100FF00081F82920827FC07F81F82E3081F833501C
:1010000081F8384081F84220887102B0B0BD00BF3D
:10101000012900F0C580652900F0DE80D0297FF429
:1010200037AF418B40F2903209BA808B090CC2F283
:10103000000211800DE000BF418B40F2C66209BA88
:10104000838B090CC2F20002118019BA090CC08B03
:10105000518000BA000C908002B0B0BD418B808BF3
:1010600009BA40F2C66200BA090CC2F20002000CD2
:10107000D181908102B0B0BD40F2885CC2F2000C18
:10108000827E9CF80CE0C37E02F001050EF0F804AD
:10109000017F44EA450503F00104254461F382051C
:1010A0008CF80C5005E000BF00007042827EC37EC9
:1010B000017F43EA022240F29853C2F200035A81B0
:1010C000427F807F42EA0121198140F2B831C2F2A9
:1010D0000001087202B0B0BDC17E407F01F00F0177
:1010E00041EA001040F24A31C2F20001087002B039
:1010F000B0BD00BFC06940F2B83100BAC2F2000111
:10110000086002B0B0BD00BF418BC06909BA40F2AF
:101110007032090CC2F2000200BA9180106002B075
:10112000B0BD00BFC06940F2B071C2F20001AEE6CE
:10113000C06940F2B071C2F20001486002B0B0BDB7
:10114000C06940F2B071C2F20001886102B0B0BD66
:10115000C06940F2B071C2F20001C86102B0B0BD16
:10116000C06940F2B071C2F20001C86002B0B0BD07
:10117000C06940F2B071C2F20001086002B0B0BDB7
:10118000C06940F2B071C2F20001486102B0B0BD66
:10119000C06940F2B071C2F20001086102B0B0BD96
:1011A00040F2A031C2F200010A78C37E02F00F02C1
:1011B00042EA0312838B0A701ABAC08B120CA1F890
:1011C000012000BA40F25331000CC2F20001A1F834
:1011D000010002B0B0BD00BFC06940F2583100BA92
:1011E000C2F20001086002B0B0BD000040F26C40E5
:1011F000C2F20000016A40F20222914220DC112971
:1012000044D0122962D0B1F5A17F63D1B0F91C108E
:101210009FED3E1A00EE101AB8EEC00A80EE010AE9
:10122000B0F84A10428BA0F84810C18BA0F85020AB
:10123000A0F84A10417E80F8521080ED130A7047E2
:1012400040F20722914227D0B1F5017F44D040F20D
:101250000322914218BF704743F61021C2F20001E9
:101260004A8B038B0A831ABA438B120C4A83DABA6D
:1012700000EE102A828B807F12BAB8EEC00A120CE0
:1012800081ED070A0A8481F822007047D0E906122E
:10129000C0E90212704700BFB0F85610028BA0F8E8
:1012A000541011BA428B090CA0F85610D1BA00EEB6
:1012B000101A818BB8EEC00A09BA090CA0F85C10AC
:1012C000817F80ED160A80F85E107047D0E9061223
:1012D000C0E90412704700BF43F61021C2F20001BA
:1012E000CA8C038B8A841ABA438B120CCA84DABA6A
:1012F00000EE102A828B807F12BAB8EEC00A120C60
:1013000081ED0A0A8A8581F82E007047000070423C
:1013100043F24400C2F2000002F074BB43F2A400A6
:10132000C2F2000002F06EBB80B500F009F842F690
:10133000C460C2F20000BDE8804002F063BB000060
:10134000B0B543F29C60C2F20000C16C46F2A0400E
:10135000C4F202000968A0F1480246F29F059142DA
:10136000C4F2020522D950F89C2CA9424FF0200368
:1013700064DD46F23F45C4F20205A94278DC46F23C
:10138000A005C4F20205A94200F08A8046F2104589
:10139000C4F20205A94200F0CC8046F22843C4F210
:1013A0000203994200F0C38080E100BF46F2580278
:1013B000C4F2020202F1600399421FD9D2F8A823B5
:1013C000A9424FF0200340F38F8046F23F45C4F21C
:1013D0000205A94200F3D08046F2A005C4F202053E
:1013E000A94200F0F18046F21045C4F20205A9427C
:1013F00000F0048146F22843FAE000BF914255D93B
:1014000052F854CCA9424FF0200455DC46F23F0577
:10141000C4F20205A94240F3F58046F24005C4F249
:101420000205A94200F0D68046F27005C4F202051A
:10143000A94200F0F58046F28805EBE046F23F0550
:10144000C4F20205A94265DD46F24005C4F2020578
:10145000A94225D046F27005C4F20205A94268D01F
:1014600046F28803C4F20203994214D01EE100BF81
:1014700046F24045C4F20205A94211D046F2704539
:10148000C4F20205A94254D046F28843C4F20203D2
:10149000994240F00B814FF4006313424CD13CE180
:1014A0004FF40013134247D137E100BF52F858CC34
:1014B000A9424FF02004A9DD46F23F45C4F20205DF
:1014C000A94271DC46F2A005C4F20205A94200F06F
:1014D000818046F21045C4F20205A94200F0A080C6
:1014E00046F2284596E000BF46F23F05C4F20205E9
:1014F000A94275DD46F24005C4F20205A94263D057
:1015000046F27005C4F20205A94277D046F288037C
:1015100040E000BF46F21005C4F20205A94208D01F
:1015200046F22803C4F20203994240F0BF804FF410
:101530000063134200F0F18046F27042C4F20202EE
:1015400091420BD046F28842C4F20202914209D184
:101550004FF4006240F8942CF1E000BF202240F8E4
:10156000942CECE04FF00062814208BF4FF400126F
:1015700040F8942CE3E000BF46F24045C4F2020577
:10158000A94221D046F27045C4F20205A94235D0E5
:1015900046F28843C4F20203994240F0A9804FF416
:1015A0000063134242D1B8E046F24045C4F202055E
:1015B000A9420FD046F27045C4F20205A9422FD0CD
:1015C00046F2884526E000BF4FF4001313422DD1A8
:1015D000A3E000BF4FF4001404EA0C0525BB9CE017
:1015E00046F21005C4F20205A94207D046F22803CC
:1015F000C4F2020399427BD14FF40063134215D128
:101600008BE000BF46F21005C4F20205A94207D0E4
:1016100046F22805C4F20205A94273D14FF40064D2
:1016200004EA0C05002D78D0994219D946F21042EF
:10163000C4F20202914235D046F22842C4F20202BC
:10164000914229D046F24042C4F2020291420CBFBC
:101650004FF400114FF0006140F8981C6FE000BF9C
:1016600091422DD946F27000C4F2020081425FD04F
:1016700046F28800C4F2020081424FD046F2A00038
:10168000C4F2020081420CBF4FF400104FF0006022
:1016900042F84C0C53E000BF4FF4006140F8981C36
:1016A0004DE000BF202140F8981C48E04FF0006357
:1016B000814208BF4FF4001313427FF43DAF2CE08A
:1016C00046F21000C4F20200814235D046F22800F2
:1016D000C4F20200814227D046F24000C4F2020068
:1016E00081420CBF4FF400104FF0006025E000BFB6
:1016F0004FF00063814208BF4FF40013134295D1AD
:101700000BE000BF4FF00064814208BF4FF40014AB
:1017100004EA0C05002D7FF487AFB0BD4FF40060E4
:1017200042F84C0C0BE000BF4FF4006005E000BF36
:10173000202042F84C0C02E0202042F8500C40F2ED
:101740003875C2F20005287800248007C4F202042C
:1017500022D46878800730D4A87880070CD5A87880
:10176000102100F0FD00A870A878012240F00400CC
:10177000A870204602F08AFC0EF09CFE28784007F4
:1017800058BFB0BD43F61040C4F20100016841F0FB
:1017900001010160B0BD00BF2878012100F0FD000B
:1017A00028702878012240F00400287004F5806039
:1017B00002F06CFC68788007CED56878102100F0C4
:1017C000FD0068706878012240F0040068702046CF
:1017D00002F05CFCA8788007C1D4CDE742F6247003
:1017E000C2F2000002F00EB942F68470C2F20000AC
:1017F00002F008B943F20410C2F2000002F002B98C
:1018000042F6E470C2F2000002F0FCB8704700003B
:1018100040F25460C2F200000078032888BF70478D
:10182000B0B542F22C54C2F20004DFE800F00345E8
:10183000113500BF94ED000ADFED580A002504F1D0
:101840001C00656084F8B45007F012FE77E000BF1A
:1018500040F24040C2F200000178022958D140F223
:101860009851C2F200014989B6EE082A00EE101A1A
:1018700040F28851C2F200010989B8EE400A01EE37
:10188000101AB8EE411A21EE021AB4EE401AF1EE27
:1018900010FA43DD008C04E040F2DE10C2F20000DA
:1018A00000784FF48771484300EE100AF8EE400AC2
:1018B000C4ED010A34E000BF40F24040C2F2000033
:1018C000007802283CD140F29850C2F200004089D2
:1018D0009FED332A00EE100A40F28850C2F2000059
:1018E0000089B8EE401A00EE100AB8EE400A20EE69
:1018F000022A94ED020AB4EE412AF1EE10FA23DD39
:101900009FED281A30EE011A84ED031A1EE000BF85
:101910000020DFED220A606002E000BFD4ED010A82
:1019200094ED000A002084F8B40004F11C0007F0D4
:101930009FFD94ED100ABDEEC00A10EE105AE5822C
:10194000BDE8B040704700BF94ED031A9FED162A22
:1019500030EE410AB4EE420A0120F1EE10FA84F8AA
:10196000B40003DD9FED131A09E000BF9FED0F1ACD
:10197000B4EE410AF1EE10FA03DA9FED0D1A30EEE3
:10198000010ADFED060AB1EE400A04F1680007F033
:101990006FFD94ED000AD4ED230AC6E700000000B5
:1019A0009A99593F000080C400008045000080C51E
:1019B00000000046000000C6012002F08BBA0000C3
:1019C000082002F087BA0000102002F083BA00005D
:1019D000202002F07FBA000072B600BFFEE70000D0
:1019E00070B52DED088B044690F8C00001280BD08F
:1019F000002871D194ED010AD4ED020A04F1280007
:101A000007F036FD61E000BF9FED378A94ED080ACC
:101A100004F17400F0EE480A07F064FC94ED030A48
:101A200094ED261A94ED082A31EE009AB0EEC2BA6F
:101A3000B2EE0E0AB4EE40BAF1EE10FAB1EE49AAD7
:101A400002DDB5EE001A15E01BEE100A14F0E0F806
:101A50009FED230B024656EC105B0B4628463146A1
:101A600013F0E8FF2A46334613F0BEFC13F0D6FB12
:101A700001EE100A9FED1D0A04F12800B4EE40BAF1
:101A8000F1EE10FAB8BFB0EE481A94ED010A61EE1B
:101A90000A0A07F0EDFCB0EEC90A4FF4AF70B5EEDC
:101AA000409AB6EE001A42F2F471F1EE10FABCBFA1
:101AB0004FF6A260CFF6FF70B4EE410AC2F2000109
:101AC000F1EE10FAD8BF0020086094ED130ABDEEC5
:101AD000C00A10EE100AE084BDEC088B70BD00BF98
:101AE0000000000000002E4000000000CDCCCC3DE6
:101AF0002DE9F04740F67800C2F2000040F28C7108
:101B000090ED070A9FED7C1A42F6B400C2F2000184
:101B1000C2F200000A6820EE010A90ED011A9FED62
:101B2000772A9FED773A426140F2A84221EE021AED
:101B300020EE030AC2F2000230EE010A91ED011A12
:101B4000D18948F21373591A80ED010A02EE101A76
:101B50009FED6C0AB8EEC22A82EE002A5188B1EEDF
:101B6000411A80ED061A01EE101AB8EE411A80ED06
:101B7000041A9FED651A138940F28047C2F20007EC
:101B80003F688384938A32EE022A22EE013AB4EE51
:101B9000413AF1EE10FAC0F8C870A0F8E83003DD61
:101BA0009FED5C3A09E000BF9FED584AB4EE443A1D
:101BB000F1EE10FA05DA9FED563A22EE012A32EEE6
:101BC000033A528B40F6BF239A1A02EE102A9FED79
:101BD000524AB8EEC22A82EE044A40F27842C2F279
:101BE000000280ED353A92ED002A80ED362A34EE7F
:101BF000044A24EE013AB4EE413AF1EE10FA03DD64
:101C00009FED443A09E000BF9FED405AB4EE453ADB
:101C1000F1EE10FA05DA9FED3E3A24EE011A31EEAC
:101C2000033A42F6B432511A01EE101AB8EEC11A54
:101C300081EE001A40F27C41C2F2000191ED000AEF
:101C4000B5EE402A80ED663AB1EE403AF1EE10FA78
:101C5000C8BFB0EE430A80ED630A9FED300A40F240
:101C60007441C2F20001096831EE012A22EE001A25
:101C7000B4EE401AF1EE10FAC0F89C1102DD9FEDAF
:101C80002A1A08E09FED263AB4EE431AF1EE10FA54
:101C900005DA9FED241A22EE000A30EE011A11EE49
:101CA000100A13F0B5FF42F2F87AC2F2000A804639
:101CB000DAF80800894613F0ABFF9FED0D0B57ECE7
:101CC000106B32463B4613F0B7FD04460D464046C6
:101CD000494632463B4613F0AFFD22462B4613F0F1
:101CE000CFFA13F09BFACAF80800BDE8F08700BFEE
:101CF000000000000000E03FE12E65423333333F37
:101D00009A99993E00FF7F4700003443000034C396
:101D10000000B4430000B4C300F8FF45DB0F4940A6
:101D2000DB0F49C0DB0FC940DB0FC9C02DE9F04F05
:101D300081B02DED048B40F2E054C2F200044FF06C
:101D4000814044F8380F0020C4F24840A3460021E7
:101D50004BF8300D0020C4F2C82144E90B0143F2D6
:101D60003331C4F20311A2464AF8241D49F69A11F0
:101D7000C4F2A111A14649F8181D0021C4F2202186
:101D800044E9050143F23331C4F2AB01A0464CF6FD
:101D9000CD4248F80C1D45F62941C3F6CC52C3F696
:101DA0000F4143F2333746F2666644E9021241F2CC
:101DB0006F2343F65811C4F23307C3F6E67644E9BD
:101DC0000820C3F68323C3F63441C4E90372C4E98F
:101DD0000506002246F26666C4E90131C4F28C327F
:101DE0004FF07C530027C4F20E1604F1240CC4F209
:101DF000A0178CE88C00C4E90C6040F2087243F232
:101E000033334CF6CD464CF28F25C2F20002C4F2B9
:101E1000630349F69A17C4F20C16C3F6F555C3F6D8
:101E2000197782E8A800C2E903604CF6CD4300268A
:101E3000C3F64C63C4F2483651610021C2E907364B
:101E4000C2E90A0642F6B406C4E90700A563C4F273
:101E50002F31174615464FF08240C2F2000645F872
:101E6000181F47F8240F3046BC21FEF749FB06F146
:101E7000C400BC21FEF744FB06F5C470BC21FEF78C
:101E80003FFB42F2F8709FED478AC2F200009FEDDF
:101E9000440A243000215A46F0EE480A07F0A8FB15
:101EA0009FED410ADFED410A06F12800002152466C
:101EB00007F09EFB9FED3E9A06F1740000214A4612
:101EC000B0EE490AF0EE480A07F092FB9FED390A9E
:101ED000DFED390A06F5D87000212A4607F088FBA5
:101EE0009FED360A06F5FE7000213A46F0EE480AEC
:101EF00007F07EFBDFED320A06F1EC0000214246DE
:101F0000B0EE490A07F074FB9FED2E0A06F59C70AF
:101F100000212246F0EE480A07F06AFB40F2A84092
:101F2000C2F20000408B9FED281A00EE100AB8EEB6
:101F3000400A9FED262A31EE400A80EE021A4FF247
:101F4000000042F2F8719FED220AC4F22B50C2F257
:101F50000001486041F20030C4F207700861084691
:101F600031EE011A21EE002AB4EE402AF1EE10FA09
:101F700002DD9FED1A2A08E09FED163AB4EE432ADF
:101F8000F1EE10FA05DA9FED142A21EE000A30EE88
:101F9000022A80ED052ABDEC048B01B0BDE8F08F6C
:101FA00000A08C45000000000000E1440000DC427D
:101FB0000080BB4400606A460000FA450000FA4316
:101FC0000000024300002F4400F02B4500F8FF45BD
:101FD00000003443000034C30000B4430000B4C325
:101FE000B0B52DED028BD0ED020AB6EE001AB0EEC0
:101FF000E00A044690F8C000B4EE410AF1EE10FA8F
:1020000004DA18B9012084F8C00001E0012879D170
:1020100040F2C430C2F2000094ED050A94ED071AB4
:10202000C07A31EE400A022884ED080A73D094ED9C
:10203000080ADFED930A04F1740007F019FA40F280
:102040002005C2F2000594ED031A94ED262A95EDC1
:10205000013A95ED004A23EE011A24EE422A94ED4E
:10206000010A32EE418A04F12800F0EE480A07F036
:10207000FFF994ED050A9FED831A9FED832A20EE68
:10208000011A20EE022A21EE001A9FED803A31EE6D
:10209000021A9FED762A31EE031A9FED753A20EE73
:1020A000022A20EE033A22EE000A9FED722A40F245
:1020B000E05030EE030AC2F2000030EE020AB1EE48
:1020C000412AB5EE408A80ED001A85ED040AF1EE52
:1020D00010FAC8BFB0EE421A9FED6D2AB0EEC83AB2
:1020E000B4EE423AF1EE10FA80ED011A22DD9FEDD6
:1020F000692AB4EE421AF1EE10FA22DC9FED662A4C
:102100002EE000BF40F2C431C2F20001C97A626918
:102110000229E26118D104F1280007F05FFA04F106
:10212000740007F05BFAB4F9261046F2A810814259
:1021300048DD51E0B3EE092AB4EE421AF1EE10FA8E
:102140000CDD80ED012A12E0002849D0B4F92610F8
:1021500046F2A810814235DD3EE000BFBBEE092A01
:10216000B4EE421AF1EE10FAB8BF80ED012A94EDF8
:10217000081A9FED4A2AB0EEC11AB4EE421AF1EEE7
:1021800010FA10DA9FED462A0021B4EE421AF1EE61
:1021900010FA416007DA94ED131A9FED422A21EEFE
:1021A000021A84ED131A94ED131A30EE410ABDEEB3
:1021B000C00A10EE100AE084B4F9261046F2A81006
:1021C000814209DC49F65760CFF6FF70814204DC9A
:1021D00049F65860CFF6FF70E084BDEC028BB0BDCD
:1021E00094ED010A04F1280007F042F994ED050A84
:1021F0009FED1E1A9FED1E2A20EE011A20EE022AE4
:1022000021EE000A9FED1B1A30EE020A40F2200078
:1022100030EE010AC2F2000080ED040A40F2E05004
:1022200094ED022AC2F2000090ED001AB5EE402AA9
:102230009FED112AB1EE413AF1EE10FAC8BFB0EEAF
:10224000431AB4EE421AF1EE10FA80ED011A03DDE2
:1022500080ED012AA7E700BF9FED082AB4EE421ADD
:10226000F1EE10FAB8BF80ED012A9CE7B7D180BD2E
:1022700036CD9BBE71BD48C300008C4200008CC2AD
:1022800000000000744694BC4182423F3B5F934291
:102290006666E63F0000C8420000C8C2CDCC4C3E96
:1022A0008FC2F53D6666663F2DE9F0412DED068B48
:1022B00090ED019A0446B5EE409AB0EE608AF1EED8
:1022C00010FA05D100209FED5A9AC4F28420606074
:1022D0009FED581A40F20008B4EE410AF1EE10FAF0
:1022E000A8BFB0EE410ABAEE0E1AB4EE418AF1EE82
:1022F00010FAD8BFB0EE418AB4EE480ACCF24838A2
:10230000F1EE10FAC4F8008026D142F2F87042F6DD
:10231000B404C2F200000021C2F2000480F82210CE
:1023200094F8840184F8C010E161C4F8088038B9D9
:10233000D4F8D800C4F8E00004F59C7007F04EF91A
:10234000012084F8840184ED388A84ED349ABDEC50
:10235000068BBDE8F08100BF42F6B407C2F2000769
:10236000D7F8D800B0EE40AA13F052FC054618EE9C
:10237000100A0E4613F04CFC9FED290B53EC102B6A
:1023800012F07EFF2A46334613F089FC30B997EDF0
:10239000320A9FED2D1A9FED2D2A14E01AEE100A35
:1023A00013F036FC9FED200B53EC102B12F068FF5E
:1023B0002A46334613F06CFC00BB97ED320A9FEDC2
:1023C000201A9FED202A20EE010A30EE029A84EDB9
:1023D000019A42F2F870C2F20000002180F8221047
:1023E00087F8C010F961C7F8088087F8841187ED75
:1023F000339ABDEC068BBDE8F08100BFB5EE409A84
:10240000F1EE10FA08DAB5EE409AF1EE10FAE0DCDF
:102410009FED0A9ADBE700BF9FED079AD7E700BF61
:10242000000000000000F03F000000000000F0BFCE
:1024300000008442000000429A992B429A992BC2D4
:10244000CDCC0C3F9999EDC1CDCCCC3E67661E42F8
:1024500084B042F69460C2F2000002210224FEF72A
:102460003FFBFFF763FC40F2C430C2F20000C472CD
:1024700064200FF01DFCFFF73BFB42F6B40BC2F2E9
:10248000000BDBF81400DBF8D8109FEDA50BDBF890
:102490009C21DFEDA5EADFEDA5FA9FEDA5CA40F28C
:1024A000A8439FEDA4DA9FEDA4EADFEDA48ADFED57
:1024B000A49ADFEDA4AADFEDA4BA9FEDA4AA9FED34
:1024C000A4BA9FEDA4FADFEDA4DADFEDA4CA9FED74
:1024D000A48A9FEDA49ACBF8E010CBF81C00C2F2BE
:1024E000000351EC100BCBF8A421CDE9021064E0FD
:1024F00042F66C60C2F20000012100220024FEF7C7
:10250000C9FA01200FF0D4FB42F69465C2F200052F
:10251000284602210022FEF7BDFA01200FF0C8FB79
:1025200028464FF4FF710022002300940194FEF727
:102530002DFA0BF59C7007F051F80BF1EC0007F049
:102540004DF8DBF8D800ABF8EA40CBF8E0000BF12F
:10255000740007F043F80BF1280007F03FF8DBF8B0
:102560001400ABF82640CBF81C000BF5FE7007F00A
:1025700035F80BF5D87007F031F8DBED673AABF8BA
:10258000AE41F0EE631ACBED693A20B202EE100ACA
:102590009BED630A9BED6A1ADBED730ADBED752A8E
:1025A0009BED883AB8EEC22A0CF0C6FA01200FF073
:1025B0007FFB40F2A843C2F2000340F67800C2F26B
:1025C000000090ED070A9BED011A20EE2E0AD88933
:1025D00021EE2F1A20EE0C0A48F2137130EE010A98
:1025E000081A8BED010A00EE100AB8EEC00A80EE60
:1025F0000D0A40F28C71C2F2000191ED011A588867
:10260000B1EE411A09688BED061A01EE100AB8EE18
:10261000411ACBF81410198940F280428BED041A4C
:1026200030EE000AC2F2000220EE0E1A1268ABF879
:102630002410998AB4EE4E1AF1EE10FACBF8C820A5
:10264000ABF8E81004DD20EE0E0A30EE281A08E0A0
:10265000B4EE481AF1EE10FABCBF20EE0E0A30EECE
:10266000091A598B40F6BF22511A00EE101AB8EE23
:10267000C00A80EE292A40F27841C2F200018BEDB7
:10268000351A91ED000A8BED360A32EE022A22EE5F
:102690000E1AB4EE4E1AF1EE10FA05DD22EE0E1A05
:1026A00031EE281A09E000BFB4EE481AF1EE10FA34
:1026B000BCBF22EE0E1A31EE091A42F6B431081AE6
:1026C00002EE100AB8EEC22A82EE0D2A40F27C40D9
:1026D000C2F200008BED661A90ED001AB5EE400ACA
:1026E000B1EE410AF1EE10FAC8BFB0EE401A8BED20
:1026F000631A40F27440C2F20000006832EE021A1F
:1027000021EE2A0AB4EE6A0AF1EE10FACBF89C0127
:102710002ADD21EE2A0A30EE2B0A30E000BF00BF8E
:10272000000000000000E03FE12E65423333333FFC
:102730009A99993E00FF7F47000034430000B4C3DC
:1027400000F8FF45DB0F4940DB0FC9C00080BB44E8
:1027500000000000000002430000FA44DB0F49C003
:10276000000034C30000B443B4EE6C0AF1EE10FA7A
:1027700005DA21EE2A0A9FED9F1A30EE010A10EECB
:10278000100A13F045FA42F2F87AC2F2000A04463F
:10279000DAF808000E4613F03BFADDF80C80DDF89D
:1027A000089042464B4613F047F807460D46204630
:1027B000314642464B4613F03FF83A462B4612F05C
:1027C0005FFD12F02BFD40F27062C2F20002117B3D
:1027D000527BCAF80800914200F0C580002962D1FE
:1027E0000BF12809484606F0F9FE0BF1740A504631
:1027F00006F0F4FE0BF5D874204606F0EFFE0BF55C
:10280000FE77384606F0EAFE0BF1EC06304606F09D
:10281000E5FE0BF59C78404606F0E0FE40F2E05500
:10282000C2F200059FED740ADFED740A05F114028F
:102830004846002106F0DCFE05F12002504600214A
:10284000B0EE4A0AF0EE4B0AA94606F0D1FE40F27D
:102850000875C2F200059FED6A0ADFED6A0A05F10C
:1028600018022046002106F0C3FE9FED670A05F11D
:10287000240238460021F0EE4B0A06F0B9FE09F1B9
:102880002C0230460021B0EE4A0AF0EE4F0A06F064
:10289000AFFE9FED5E0A09F1380240460021F0EEDE
:1028A0004B0A06F0A5FE40F25660C2F20000007826
:1028B000022858D10BF5D877384606F08FFE0BF575
:1028C000FE78404606F08AFE0BF1EC06304606F034
:1028D00085FE0BF59C74204606F080FE40F2E05524
:1028E000C2F200059FED440ADFED440A0BF1280017
:1028F00005F14402002106F07BFE0BF1740005F1A6
:1029000050020021B0EE4A0AF0EE4B0A06F070FECB
:102910009FED3F0ADFED3F0A05F15C0238460021DA
:1029200006F066FE9FED3C0ADFED3C0A05F1680209
:102930004046002106F05CFE40F20875C2F2000538
:10294000304600212A46B0EE6D0AF0EE4F0A06F03E
:102950004FFE05F10C0220460021B0EE6D0AF0EEAC
:102960004B0A06F045FE40F27061C2F20001087B9E
:1029700048730BF1C400FFF733FB0BF5C4715846E5
:1029800000F04EF840F2C430C2F20000C07A00F00D
:10299000FD0001287FF4ACADBBF9262042F66C6047
:1029A000BBF9EA40BBF9AE51C2F200000121FEF7CB
:1029B00071F801200FF07CF942F69466C2F200062D
:1029C000304602212246FEF765F801200FF070F92B
:1029D00030464FF4FF71002200230027CDE9005755
:1029E000FDF7D4FFDBED673ADBED691ABBF8AE41CA
:1029F000CBE500BFDB0FC9400000E1440000DC4232
:102A000000606A460000FA450000FA4300002F44C7
:102A1000000080460080A2440000A043000048431C
:102A200070B542F2F876C2F2000696F822200C4603
:102A3000022A054636D0012A1ED0002A18BF70BDD2
:102A4000D5ED020AB6EE001AB0EEE00AB4EE410A85
:102A50000021F1EE10FA85F8C1103DDA0122284676
:102A600000F8C02F50F8AC2CDFEDB50A40F8A42CCC
:102A700040F8B81C35E000BF94ED020A012085F84B
:102A8000C000B0EEC00AB6EE001A94F8C000B4EE72
:102A9000410AF1EE10FA67DA002865D1012084F8C6
:102AA000C00063E096ED020ADFEDA50A06F12400FE
:102AB00006F0DEFC94ED040A9FEDA22A96ED121AB0
:102AC000B4EE420AF1EE410AF1EE10FAC5ED020A47
:102AD0005CDD9FED9F1A62E0284610F8C01F0129B7
:102AE0001FD195ED050A95ED071A9FED962A31EE57
:102AF000400AB4EE420AF1EE10FA03DD9FED941A9B
:102B000009E000BF9FED901AB4EE410AF1EE10FA11
:102B100003DA9FED8E1A30EE010A002185ED080AD6
:102B2000E96094ED040A9FED871AB4EE410AF1EED4
:102B300010FA03DD9FED861A09E000BF9FED821AAF
:102B4000B4EE410AF1EE10FA03DA9FED801A30EE8E
:102B5000010A012184F8C0100078002184ED080AE0
:102B6000E16018BB37E000BF012844D194ED050AAD
:102B700094ED071A9FED732A31EE400AB4EE420A33
:102B8000F1EE10FA2ADD9FED721A30E09FED6E1A19
:102B9000B4EE410AF1EE10FA03DA9FED6C1A30EE52
:102BA000010A95F8C00084ED080AA0B1012840F0A0
:102BB000C18095ED080ADFED620A05F1740006F0A8
:102BC00057FC42F6B400C2F2000095ED260A90EDE3
:102BD000631A70EE410A95ED010AA0E09FED5A1AC2
:102BE000B4EE410AF1EE10FA03DA9FED581A30EE16
:102BF000010A84ED080A94ED040A9FED561AB0EE1E
:102C0000C02AB4EE412AF1EE10FA1DDA95F8C1009F
:102C100040BBB4EE410AF1EE10FA23DA9FED4E1AF2
:102C2000B4EE410AF1EE10FA1CDD95ED050A002024
:102C300084F8C1000120B0EE401A85ED070A85F83E
:102C4000C00085F8C10011E09FED3F1A0120B4EEED
:102C5000410AF1EE10FA84F8C10013DA9FED3C1A34
:102C600019E000BF95ED050A95ED071A9FED3B2A87
:102C700031EE400AB4EE420AF1EE10FA0EDD9FED9D
:102C8000321A14E09FED2F1AB4EE410AF1EE10FA59
:102C900024DD9FED2E1A31EE400A21E09FED301A1F
:102CA000B4EE410AF1EE10FA03DA9FED261A30EE87
:102CB000010A95F8C01085F8C20094F8C100B1EE81
:102CC000400A012985ED080A84F8C20015D089BBA5
:102CD00095ED010AD5ED020A21E000BFB1EE400AF0
:102CE000A5F8C000002085F8C20094F8C100B1EE3C
:102CF000400A85ED080A84F8C200DFED110A05F1EB
:102D0000740006F0B5FB42F6B400C2F2000095ED87
:102D1000261A90ED632A95ED010A71EE420A05F13B
:102D2000280006F0A5FB95ED130ABDEEC00A10EED3
:102D3000100AE8842046BDE87040FEF751BE00BF8F
:102D40000000000000003443000034C30000B4431E
:102D50000000B4C300008242000082C20000B442FE
:102D60000000B4C270B581B00022009290F83C20FF
:102D7000012A03D1022001B070BD00BFD1F800E0EC
:102D800001221FFA8EFC4FEA4C0380F83C200EEB28
:102D90004E0213FA8EF31024BEF1090F88BFA3F17F
:102DA0001E0288BF0C24036807251E59954026EA99
:102DB00005051D518D681E5905FA02F232431A515C
:102DC0004968062906D801EB81014A1F194651F8C6
:102DD000345F0EE00C2901EB810105D8A1F123023B
:102DE000194651F8305F04E0A1F14102194651F84B
:102DF0002C5F1F24944025EA04040C600CFA02F2B4
:102E00000C6842F2043CC4F2010C2243ACF541745C
:102E1000A3420A603ED1BEF1120F07D1DCF80010C8
:102E200041F48001CCF8001034E000BF2EF0010125
:102E300010292FD1DCF80010BEF1100F41F4000171
:102E4000CCF8001026D140F2BC01C2F200010968A2
:102E50004DF68362C4F21B32A1FB0212910C01EB0E
:102E60008101490000910099A1B1009901390091B7
:102E7000009979B1009901390091009951B10099F7
:102E800001390091009929B1009901390091009907
:102E90000029EAD1002180F83C10002001B070BD6B
:102EA000002804BF0120704710B5016C00293DD0F7
:102EB000016CC90645D4016C41F202129143023102
:102EC00042F204320164C4F20102116821F440317B
:102ED0001160136890E812102343D0F810E01360DB
:102EE0004A68012422F480724A604A68C0F600747D
:102EF00042EA0E224A604A6822F040724A604A68FA
:102F000042EA0C024A608A6822F400628A60C2685F
:102F10008B681A438A60826A8B68A24223F07063CE
:102F20008B608B6810D123F0405216E0044600F00D
:102F300065F820460021616484F83C10016CC906E4
:102F4000B9D5012153E000BF1A438A608A6822F094
:102F500040528A60C26A8B681A438A608A6822F08B
:102F600002028A608A68037E90F8204042EA4302A7
:102F70008A604A6884B142F400624A604A684EF24C
:102F8000000322F460424A60426ACFF6FF734C6845
:102F900003EB4232224301E022F400624A60CA6A33
:102FA00040F2000C22F47002CA62C3694269CFF693
:102FB000F07CCC6A0CEB03532343CB628B6823F485
:102FC00000738B6090F830308C6844EA43238B6048
:102FD0008B6823F480638B608B6843EA82228A606B
:102FE00000214164026C012363F3010202640022A8
:102FF00080F83C20BDE810400846704780B586B098
:10300000006842F20022C4F2010200219042CDE9A0
:103010000411CDE90211019116D042F20001C4F26F
:103020000101884238D10020009043F64400C4F2E8
:103030000200016841F480710160006800F4807052
:103040000090009806B080BD43F644000091C4F2A1
:103050000200026842F480620260026802F4806248
:103060000092009A009150F8142C42F0200240F88F
:10307000142C50F8140C00F02000009000984FF42D
:10308000806001900320CDE9020141F20040C4F2CA
:10309000020001A900F02AFF06B080BD90F82020B0
:1030A000013A012A08D8006800F1140200201368D0
:1030B00019431160704700BF00F1240201204FF452
:1030C00080211368194311607047000010B590F813
:1030D00020E0D0F800C0AEF1010EBEF1010FDCF827
:1030E00008E011D81EF0E05F18D0CEF30164012093
:1030F000A04018608B68DBB1D1F804E0C86840EAF2
:10310000CE0040EA030E17E000F1240301204FF443
:1031100080211A681143196010BD00BF00F124031B
:1031200001204FF400111A681143196010BD00BF4F
:103130000868CB6843EA405E0CF5C07000EB0413EE
:10314000240140F804E00C69184640F8044F097D5A
:10315000012903D1016841F48071016050680121A7
:10316000D8601068986000201A681143196010BD7B
:1031700090F82020013A012A30D8B0B546F200601C
:10318000C4F20000026842F001020260026822F408
:103190007C520260D1F814E0CC694A6A0368012CC1
:1031A00043EA022202600EF01F024FF0010303FA0D
:1031B00002F2C3696FEA020C23EA0203C36113D06F
:1031C0002CBBC36803EA0C03C360CB688C8844EA59
:1031D000034300EBCE0423640B4611E0416A41F443
:1031E0008021416201207047C3681343C3600B68AC
:1031F0008C8844EA034300EBCE04236401F10C0302
:103200008C681B8843EA044300EBCE046364436884
:103210008D6943EA0204D1F810E0096A002D08BF65
:1032200003EA0C0444604369BEF1000F43EA020460
:1032300008BF03EA0C040129446102D1C1691143AA
:10324000C161016821F0010101600020B0BD0000F2
:1032500070470000B0B590F82040013C012C7DD8AB
:10326000D0F800C000290CBFDCF80C40DCF810409E
:10327000A4077DD00CF5D8754FEA011C55F80C4019
:1032800014F00404946055F80CE005EB011C19BF20
:103290004FEADE0555604FEA5E551560DCF80050D8
:1032A000E64605F00205D5605EF8044F24075ABFD4
:1032B000DEF8004004F00F0408241461DEF800403A
:1032C0000029C4F307249461DEF800504FEA154545
:1032D0005561DCF808201A70026802EB0112D2F87E
:1032E000B8214FEA12225A70026802EB0112D2F89A
:1032F000B8214FEA12429A70026802EB0112D2F82A
:10330000B8214FEA1262DA70026802EB0112D2F8B9
:10331000BC211A71026802EB0112D2F8BC214FEAFB
:1033200012225A71026802EB0112D2F8BC214FEA54
:1033300012429A71026802EB0112D2F8BC214FEAE4
:103340001262DA7100680CBF00F10C0100F110018B
:10335000002020220B681A430A60B0BD00F124014E
:1033600001204FF480220B681A430A60B0BD00BFF1
:1033700000F1240101204FF400120B681A430A6087
:10338000B0BD000090F820100139012984BF002051
:1033900070470068816882688068C1F38061C2F309
:1033A000C0621144C0F30070084470472DE9F04F2B
:1033B00081B0044600684669D0F804908768D0F868
:1033C0000CB0D0F810A0D0F81880F10704D1002577
:1033D00030071DD424E000BFF90710D00121BA073F
:1033E000816009D4780700F1AF80380700F1B6801A
:1033F000204600F06FFA02E0204600F06DFA00254A
:10340000F80500F18780F80300F1B180300707D597
:103410001BF0100004D0206845F400751021C16035
:10342000700708D51BF0080005D020680821C1608E
:10343000204600F0F5F9B00706D52068C06880077F
:1034400002D0204600F0EEF9700607D51AF0100001
:1034500004D0206845F4806510210161B00608D5CC
:103460001AF0080005D0206808210161204600F00C
:10347000FDF9F00606D520680069800702D02046D5
:1034800000F0F6F9B00308D519F0100005D0206857
:1034900010214160204600F0EDF9F00308D519F045
:1034A000080005D0206808214160204600F01EFA7F
:1034B000300440F19B805FEA497040F1948006F44B
:1034C000807008EA102028435FEA8871014648BFEF
:1034D00041F00201B20558BF01465FEA48700D464F
:1034E00048BF45F00405700558BF0D46300540F152
:1034F0007A8018F0700000F07680103800090528F6
:103500006CD8DFE800F003655D61596945F0080596
:1035100064E000BF20684FF48071BA0581600BD46D
:10352000780515D438051DD4204600F0D7F9F803E6
:103530007FF56CAF1BE000BF204600F0D1F9F80327
:103540007FF564AF13E000BF4FF4006558E700BF9C
:1035500005F50055F8037FF559AF08E04FF48055A5
:103560004EE700BF05F58045F8037FF54FAF2068B3
:103570004FF48031BA0381600AD4780310D4380341
:1035800014D4204600F0AEF930073FF541AF47E7CD
:10359000204600F0A9F930073FF53AAF40E700BFF9
:1035A00005F5004530073FF533AF39E705F58035C0
:1035B00030073FF52DAF33E745F080050EE000BF43
:1035C00045F020050AE000BF45F0400506E000BFD9
:1035D00045F0100502E000BF45F480752068816960
:1035E00021F07001816120680421416055B1606A59
:1035F00040EA05012046616201B0BDE8F04FFFF7E7
:1036000027BE00BF01B0BDE8F08F0000002804BF56
:1036100001207047B0B5044690F8200010B920464C
:1036200000F06EF82068016841F00101016000F0CF
:1036300033FD054620684168C90705D100F02CFD1F
:10364000401B0B28F6D310E0016821F00201016055
:1036500000F022FD054600BF2068416889070DD5AE
:1036600000F01AFD401B0B28F6D3606A052140F4D8
:1036700000306062012084F82010B0BD217E026815
:10368000012922F0800208BF80320260617E026858
:10369000012922F0400208BF40320260A17E026888
:1036A000012922F0200208BF20320260E17E026878
:1036B000012922F0100218BF10320260217F026837
:1036C000012922F0080208BF08320260617F026807
:1036D000012922F0040208BF04320260D4E901C2C9
:1036E000D4E9033561691A432A431143ACF101025D
:1036F0001143C16100200121606284F82010B0BD37
:1037000010B586B0006846F60002C4F2000200213F
:103710009042CDE90411CDE90211019134D046F275
:103720000041C4F20001884277D140F6C001C2F2E4
:1037300000010A6843F64000C4F20200531C0B600B
:1037400052B900210091016841F0007101600168E7
:1037500001F00071009100990021009150F8101CB7
:10376000142441F0080140F8101C50F8100C0321FB
:1037700000F008000090009840F20040C4F20200FF
:1037800000F5006035E000BF43F64000C4F20200DF
:103790000091016841F080610160016801F0806181
:1037A0000091009940F6C001C2F200010A68531C62
:1037B0000B6052B900210091016841F00071016075
:1037C000016801F00071009100990021009150F80A
:1037D000101C402441F0020140F8101C50F8100C5D
:1037E000602100F002000090009840F20040C4F216
:1037F0000200019102210291002103910321049111
:103800000921059101A900F071FB20460521002244
:1038100000F0E4FF204600F0CFFF06B010BD00002E
:1038200070470000B0B540F26C45C2F2000505F1EA
:10383000200205F1180300210446FFF70BFD42F6B4
:103840006C60C2F2000084420AD042F69460C2F278
:103850000000844218BFB0BDBDE8B040FDF7C6BC53
:10386000286ABDE8B040FDF747BA00007047000085
:103870007047000070470000B0B5044690F8200083
:1038800001281DD1022084F820002068016821F061
:103890000101016000F000FC054600BF206840689F
:1038A000C00713D000F0F8FB401B0B28F6D3606A6A
:1038B00040F400306062052084F820000120B0BD93
:1038C000606A40F4002060620120B0BD00206062A8
:1038D000B0BD000070470000704700007047000056
:1038E00070470000704700007047000070470000FC
:1038F000002804BF01207047417919B101214171AD
:103900000020704710B500210171044600F008F84E
:103910002046BDE8104001214171002070470000A1
:1039200043F63001C4F202010068A1F5036290423F
:1039300018BF704781B000200090086840F48050A4
:103940000860086800F480500090009801B070474B
:1039500070B5866D044600F09FFB94F8351002297F
:1039600028D105462068216C026822F01602026008
:10397000426922F08002426109B9A16C19B1016863
:1039800021F008010160016821F00101016000BF20
:1039900020680068C00715D000F07EFB401B062899
:1039A000F6D320206065032084F83500002184F8D8
:1039B000341070BD802060650120002184F834102F
:1039C00070BD00BFE06D3F2101FA00F0B060012042
:1039D00084F835000020002184F8341070BD000008
:1039E00090F83510022909D1052180F835100068BA
:1039F000016821F0010101600020704780214165CC
:103A000001207047F0B581B00021009140F2BC0167
:103A1000C2F200010B68D0E9166148F2B5153768AB
:103A20000822C1F64E358A403A42A3FB05350CD038
:103A300003681C68640708D51C6824F004041C6033
:103A4000B260426D42F00102426501228A403A4270
:103A500008D003685B691B0604D5B260426D42F072
:103A60000202426504228A403A4208D003681B6879
:103A70009B0704D5B260426D42F0040242651022F9
:103A80008A403A4219D001680B681B0715D5B2600D
:103A90000B680A685B0309D4D20509D40A6822F0CE
:103AA00008020A60016C29B907E000BF110341D484
:103AB000016C11B1044688472046C26D202101FAED
:103AC00002F33B4243D001680F68FF063FD5B36065
:103AD00090F835700B68052F1CD123F016030B608E
:103AE0004B6923F080034B61036C0BB9836C1BB1F2
:103AF0000B6823F008030B603F219140B160012166
:103B000080F83510016D0022002980F8342054D14E
:103B100058E000BF0A685B0310D4D20512D40A68CB
:103B200022F010020A60012180F83510002180F88F
:103B3000341007E0816C0029BCD1BEE7110301D429
:103B4000416C00E0C16B11B1044688472046416DCD
:103B5000C1B3416DC9072ED0052180F83510016829
:103B6000AA0A0B6823F001030B60009B0133934208
:103B700000931AD80B68DB0717D0009B01339342E0
:103B8000009312D80B68DB070FD0009B01339342E0
:103B900000930AD80B68DB0707D0009B01339342E0
:103BA000009302D80B68DB07DFD1012180F83510C4
:103BB000002180F83410C16C21B101B0BDE8F040A3
:103BC000084700BF01B0F0BD2DE9F041044600F008
:103BD00063FAECB10546022084F835000020216824
:103BE00084F83400086820F0010008602168086843
:103BF000C00711D000F050FA401B0528F6D9032564
:103C000020230320636584F83550BDE8F08100BFB0
:103C10000120BDE8F08100BF086848F23F02CFF202
:103C20001002D4E9013500EA020C04F10C0898E80E
:103C3000C10143EA0C032B431843D4E9072E304358
:103C400038431043626A40EA0E00042A40EA08033F
:103C50001CD1206BD4E90A2E40EA0E0018430860FC
:103C60004869BEF1000F20F0030040EA020040F076
:103C7000040C11D0B8F5005F36D0B8F1000F45D173
:103C8000022A46D0012A3BD032B942E00B60486993
:103C900020F0070040EA020C01F0F8004AF6AB22DF
:103CA0001038CAF6AA22A0FB02231A0946F26A2398
:103CB000C1F814C0C0F601039A5C40F2FF335F28DC
:103CC0004FF03F0021EA030100FA02F088BF0431FF
:103CD000C4E916128860002301250020636584F87A
:103CE0003550BDE8F08100BF032AD5D80125402317
:103CF0000120DFE802F0030E030500BF82E700BFEA
:103D0000AEF1C070B0FA80F0400904E0032A04D399
:103D1000C2D1CEF300600028BED00125402301208F
:103D2000636584F83550BDE8F081000090F834C038
:103D3000BCF1010F04BF0220704770B54FF0010CB9
:103D400080F834C0D0F858E090F835C0BCF1010FCD
:103D500038D14FF0020C80F835C04FF0000CC0F89D
:103D600054C0D0F800C08468056CC06DDCF80060F9
:103D7000402C26F48026CCF80060CCF804300B46AA
:103D800004BF13460A463F2101FA00F0CCF8083080
:103D9000CCF80C20CEF80800DCF8000040F016004B
:103DA000CCF800002DB1DCF8000040F00800CCF8A1
:103DB0000000DCF8000040F00100CCF8000000201A
:103DC00070BD00BF002180F83410022070BD0000DB
:103DD000B0B5044600F060F9054640F21000C2F2AA
:103DE00000000078611C18BF044400BF00F054F9C3
:103DF000401BA042FAD3B0BD10B501381F2800F215
:103E00006780DFE800F01165656565656547656594
:103E10006565656565316565656565656565656586
:103E200065656565655300BF40F23874C2F20004F1
:103E3000012060710FF02EFD012849D0E06904F1E6
:103E400024010DF09BFF606A002808BF10BD4EF6EC
:103E50000450CEF200004FF080510160BFF34F8F4D
:103E6000BFF36F8F34E000BF09200BF0B9FF40F2C1
:103E70003870C2F20000417841F001014170817850
:103E800041F001018170007910B3BDE810400CF0E1
:103E900011BB00BF0A200BF0A3FF40F23870C2F242
:103EA0000000C17841F00101C17010BD08200BF085
:103EB00097FF40F23870C2F20000017841F0010132
:103EC0000170007920B1BDE810400CF0F3BA00BFDA
:103ED00010BD000043F61441C4F201010A68024219
:103EE00014BF08607047FFF787BF00002DE9F04F4F
:103EF00083B000F1200200F13E4741F600450092F8
:103F000007F1FF77C4F2020508224FEAB726A8425C
:103F100008BF072200254FF000084FF00009072EC8
:103F200038BF4FEAB72201920AE000BF09F1010948
:103F300008F10208B9F1100F05F1040500F0A280A4
:103F40000F68012202FA09FE17EA0E0AEED0D1F834
:103F500004C003220CF003077E1E02FA08F4012EAF
:103F60006FEA040B12D88468CE6804EA0B0406FAE0
:103F700008F634438460446824EA0E06CCF3001447
:103F800004FA09F42643466004E000BF032F01D180
:103F900003271EE0C6688C6806EA0B0604FA08F4DC
:103FA0002643022FC66014D16FF00302009E02EA7E
:103FB000590756F807C005F01C040F220B69A240F0
:103FC0002CEA0202A3401A43F251D1F804C00CF0CB
:103FD0000307026807FA08F302EA0B021A431CF40B
:103FE000403F0260A2D0002243F644030292C4F292
:103FF00002031A6843F6004442F480421A601A68C9
:10400000C4F2010402F480420292029A29F00302EF
:104010004FF6084C2244CFF6FF7C52F80C3005F0E6
:104020000C070F26BE40B343019E06FA07F73B4339
:1040300042F80C30A2684B6842EA0A0743F60C4C7F
:10404000DE0258BF22EA0A07A760C4F2010CDCF8BE
:1040500000209E0242EA0A0758BF22EA0A07CCF86B
:10406000007062689E0342EA0A0758BF22EA0A0704
:1040700067602268DB0342EA0A0758BF22EA0A07A0
:10408000276053E703B0BDE8F08F0000002A08BFA7
:10409000090481617047000049F6A050C2F2000097
:1040A00000687047002804BF01207047F0B581B058
:1040B000044690F83D0028B9002084F83C002046D2
:1040C00000F07CFA242084F83D002068016821F08B
:1040D00001010160016841F400410160016821F4BF
:1040E0000041016001F0A6FC636848F2A16CC0F2D7
:1040F000010C40F60011C0F23D0163453CBF48F29F
:104100008041C0F21E01884202D2012001B0F0BD00
:104110004DF68361C4F21B31A0FB01122168970C9C
:10412000D1F804E04FF496762EF03F0545EA92452B
:104130004D60774348F638160D6AC0F24106A7FB7A
:10414000067625F03F07634538BF960C721C3A434C
:104150000A62CA6948F2A0664CF6FF77C0F201060F
:10416000B34222EA07020BD801385B00B0FBF3F040
:1041700001306FF31F30042898BF04201BE000BFFC
:10418000A768013857B119277B43B0FBF3F0013022
:104190006FF31F3070B100F5804007E003EB43037D
:1041A000B0FBF3F001306FF31F3018B100F50040A1
:1041B00001E000BF01201043C8610868D4E907236B
:1041C00020F0C000104318430860886848F2FF32AE
:1041D00004F10C0790438CCF18431043A669886004
:1041E000C86820F0FF0038433043C860086840F0DA
:1041F0000100086000202021206484F83D10206325
:1042000084F83E0001B0F0BD2DE9F04784B0994636
:1042100016460F460446FFF73FFF94F83D1020294D
:1042200027D10546206800BF816989071CD5FFF7A3
:1042300033FF411B20681A29F6D381698907F3D51A
:1042400000202021206384F83D1084F83E00206C7B
:1042500004F13C0A40F020002064022000218AF88A
:10426000001004B0BDE8F087A2461AF83C1F0129EF
:1042700004D1022004B0BDE8F08700BF01228AF813
:1042800000200368DDE90D180C9ADB0703D10368F1
:1042900043F001030360036823F4006303602220FA
:1042A00084F83D00402084F83E00002020646262D3
:1042B0006185608D394620850020CFF6FF70E06271
:1042C000204632464B46CDE9008503F00DFA18B181
:1042D000012004B0BDE8F087208D08B3022813D078
:1042E000012835D121680A6822F480620A60002220
:1042F00003924A6903928A690392039A0A6842F414
:1043000000720A602CE000BF21680A6822F4806213
:104310000A600A6842F400620A60002203921AE00E
:1043200000200390206841690391816903910399FA
:10433000016841F400710160202084F83D000020F4
:1043400084F83E0000218AF8001004B0BDE8F08730
:104350000021039121684A690392896903910399B5
:104360000427C0F201070CE010690870606A218D13
:1043700001306062481E2085618D0139618501042C
:10438000DAD080B203280FD802284AD001282DD1D4
:10439000204641462A4603F045FC002898D1206873
:1043A000616A0069E1E700BF204641462A4603F002
:1043B00039FC00287FF48CAF2068616A00690870BE
:1043C000606A2268411C208D616201382085638DFE
:1043D000013B638553695B07D1D580B20328C3D104
:1043E000106820F480601060BEE700BF20463946A8
:1043F00000224346009503F0C3FA00287FF468AF1B
:104400002068616A026822F48062026000690870B4
:10441000606A218D01306062481E2085608D013800
:1044200060852046394600224346009503F0A8FAED
:1044300000287FF44DAF2068616A026842F4007280
:10444000026000690870606A2268411C6162218D07
:1044500001392185618D013961851169417085E7D7
:104460002DE9F04383B0994616460F460446FFF700
:1044700013FE94F83D10202924D10546206800BF82
:10448000816989071AD5FFF707FE411B20681A29A1
:10449000F6D381698907F3D500202021206384F8B1
:1044A0003D1084F83E00216C41F02001216484F825
:1044B0003C00022003B0BDE8F08300BF94F83C103C
:1044C000012903D1022003B0BDE8F083012284F862
:1044D0003C200368DDE90B180A9ADB0703D1036867
:1044E00043F001030360036823F4006303602120A9
:1044F00084F83D00402084F83E0000202064626281
:104500006185608D394620850020CFF6FF70E0621E
:10451000204632464B46CDE9008503F06FF918B1CD
:10452000012003B0BDE8F083208D98B920464146B4
:104530002A4603F0C7F988B3206C0428F0D120681C
:10454000016841F400710160012003B0BDE8F0830F
:104550000004EBD0204641462A4603F0ABFB00287E
:10456000EAD1616A2268084610F8013B1361238D85
:104570006062581E2085678D013F678557697F07F8
:10458000E6D50704E4D048781061881C6062981E64
:104590002085618D01396185DAE700BF20680168F7
:1045A00041F400710160202084F83D00002084F86F
:1045B0003E0084F83C0003B0BDE8F0832DE9F047ED
:1045C00086B045F600460068C4F200060025B042F9
:1045D0000595CDE903550295019503D006B0BDE8D8
:1045E000F08700BF43F630070095C4F20207386831
:1045F00001AC40F00400386038684FF0120800F059
:10460000040000900098009538684FF0030940F0CE
:104610000100386038684FF0040A00F00100009093
:1046200000984FF40070019006F5D6302146CDE990
:104630000285CDF81090CDF814A0FFF757FC4FF489
:104640008070CDE9010803A880E8200606F5D23085
:104650002146FFF74BFC0095386940F400003861B3
:10466000386900F400000090009806B0BDE8F087BB
:1046700040F2100049F6A051C2F20000C2F200015F
:1046800000780A68104408607047000080B543F65F
:104690000040C4F20200016841F400710160016849
:1046A00041F480610160016841F480710160032080
:1046B00000F0C0F80F2000F005F800F05BF80020D3
:1046C00080BD000070B586B0002543F6400101951D
:1046D000C4F202010A68044642F001020A60096855
:1046E00001A801F0010101910199694601F07CF9ED
:1046F000049E002E18BF012601F09CF94DF683613F
:10470000B040C4F21B31A0FB01014FF0FF3000EBC1
:10471000914143F28470C2F200004FF0804240F2B7
:10472000E733C0E90021C0E902530561856101F06A
:10473000A9FE08B106B070BD43F28470C2F2000059
:1047400001F024FF0028F5D11C2000F035F80F2CD3
:104750000CD81C202146002200F040F840F2140141
:104760000020C2F200010C6006B070BD012006B04E
:1047700070BD000082B0002043F640010190C4F2F9
:1047800002014A6842F480424A604A6802F4804268
:104790000192019A00900868002240F08050086061
:1047A00008680F2100F08050009000986FF0010021
:1047B00002B000F013B80000002848BF704700F0B6
:1047C0001F01012202FA01F11C2202EAD0004EF27E
:1047D0000012CEF2000281507047000010B54EF674
:1047E0000C5CCEF2000CDCF80030C3F3022E8EF02D
:1047F0000704042C28BF0424BEF103034FF0FF3E3E
:104800000EFA04F438BF0023A14399400EFA03F3D3
:104810009A43114300F00F0200F160430901043A8A
:1048200003F564436244002848BF02F10C03197089
:1048300010BD00004EF60C51CEF200010A684FF692
:10484000FF031A4060F30A2242F0806040F0FD70DE
:10485000086070477047000002680020516270478E
:104860002DE9F041D0F80080D8F8243091B1D8F883
:104870002870B1F1010C03EB17414FD05FFA8CF7B0
:1048800008F58273042F0CF0030E0BD200270024CE
:104890002BE000BF43EA02410020C8F82810BDE821
:1048A000F08100BF0CF0FC0508F1F406002400BF05
:1048B00056F8107F44F0020001EB174144F0010765
:1048C000FFB253F82770C0B253F8200001EB174134
:1048D00001EB104044F00301C9B253F82110043435
:1048E000E7B2AF4200EB1141E2D1BEF1000F15D0AB
:1048F00053F82700BEF1010F01EB10410ED0601CF0
:10490000C0B253F82000BEF1020F01EB104105D0F8
:10491000A01CC0B253F8200001EB104141EA024054
:1049200008EB8C01C1F804010020BDE8F081000013
:10493000D0F8E00408F094BA01EBC102D0F8E034FA
:1049400000EB8200026A184608F0EEB901EBC102E2
:10495000D0F8E03400EB8200D0F86022184608F06E
:1049600041BA0000D0F8E00408F07CBA10B54FFA64
:1049700081FC4FF4157201F00F0EBCF1000F48BF1F
:10498000142290F8944402440EEBCE034FEAD11C5B
:1049900002EB8301012C81F801C002F823E004BF7F
:1049A000022010BD0268012380F8943404461046AA
:1049B00009F056F8002084F8940410BDB0B50379CE
:1049C00001F00F029A4284BF0120B0BD4BB24FF4F8
:1049D0001574002B48BF142400EB040E90F8944487
:1049E00002EBC2034FEAD11C0EEB8301012C4FF006
:1049F000000481F801C08C700EF8232004BF02204F
:104A0000B0BD0268012380F894340546104609F0D1
:104A10001BFB204685F89444B0BD000001F00F0157
:104A200001EBC10100EB8100D0F868027047000083
:104A300010B54FFA81FE01F00F0CBEF1000F6FF3BD
:104A4000DF220CEBCC010DD400EB810E00240EF51F
:104A500015718EF855428EF854C2CEF85C228EF84D
:104A6000583209E000EB810101F814CF01244C70A9
:104A70008A600B71A1F81AC0022B04BF00224A7190
:104A800090F89424012A04BF022010BD026801237B
:104A900080F894340446104608F054FE002084F850
:104AA000940410BD10B501F00F0E0EEBCE0100EB1B
:104AB00081044FF0000CC4F868C284F855C290F825
:104AC00006C004F51571C4F86022C4F86432BCF164
:104AD000010F84F854E208BFCA610068624609F019
:104AE000FDFA002010BD0000B0B5027901F00F04FE
:104AF00094424FF001022CD84BB24FF41575002BA5
:104B000048BF14254FEAD11C48BF2146054401EB9C
:104B1000C10305EB830181F801C090F894C48A7049
:104B2000BCF1010F05F8234004BF0220B0BD0268AC
:104B30000123054680F89434104609F0AFFA2CB9E9
:104B40002868A97905F29C4209F050FA002285F8FC
:104B500094241046B0BD000001F00F0C0CEBCC010A
:104B600000EB810101F814CF4FF0000C0B61837949
:104B7000C1F814C04FF0010CCA60012B81F801C0CC
:104B800008BFCA6180B500681A4609F0A7FA00207C
:104B900080BD00002DE9F04F87B0056882462846A9
:104BA00009F0B8FC10B107B0BDE8F08FDAF80000EA
:104BB00009F0DEFC0028F6D0D5F80808C0F30D2176
:104BC000DAF80000CAF8D41409F0D2FC0146DAF889
:104BD0000000890703D5416901F00201416105F533
:104BE0000061049109F0C4FC0146DAF80000C9062E
:104BF000059535D5816921F0100181612C6A04F099
:104C00000F0000EBC0000AEB8001C4F3434006280C
:104C100001F5157512D002281BD147F6F07014EA81
:104C2000000616D0E96834090598224609F0A4FC6C
:104C3000E86800EB1610E86008E000BF05980AF28B
:104C40009C41082209F098FCC4F30A1468692044C6
:104C50006861DAF80000816941F010018161059D09
:104C600009F086FC000340F1F180DAF8000009F059
:104C70005DFC002800F0EA8006460AF29C404FF4F2
:104C8000306800244FF0000B069019E005EB080097
:104C900002218160B80642BF05EB08002021816037
:104CA000B80442BF05EB08004FF4005181600BF1DE
:104CB000010B760808F1200804F1240400F0C680F6
:104CC000F007F4D0DAF800005FFA8BF9494609F0F2
:104CD00047FC0746C00760D005EB08000121816052
:104CE000DAF8000008EB0001036C8A689AF80650B5
:104CF000012D25D1150733D4950600F19F8043F28D
:104D00000B05C4F65475AB42059D02D312F4004264
:104D100030D10AEB0402D2F8743209696FF3DF4133
:104D2000A3EB0101C2F868129CBBD2F86432002BDD
:104D300000F08A80D2F860020844C2F8600228E0DD
:104D400043F20B05C4F65475FF35AB4218D1059DEF
:104D500010040FD4900644BF2020886019E000BFE3
:104D600043F20B00C4F65470059D834215D312F430
:104D7000004012D04FF40040886038070FD43DE067
:104D8000059D34B9DAF8641219B90021069A09F0C0
:104D90002DF950464946FFF7D9FD38072ED505EBCA
:104DA000080008218160DAF8000043F20B02056C6C
:104DB00040448168C4F6547295420BD311F400410B
:104DC00008D04FF400418160504600F019FD059D68
:104DD0000AE000BF504600F013FD43F20B00C4F69A
:104DE00054708542059D09D39AF80600012805D123
:104DF000DAF80000069A012109F0F8F8F80642BF37
:104E000005EB080010218160B8077FF543AF6869A2
:104E1000000604D50499486840F4806048600AEBB5
:104E2000040090F8571201297FF430AF002180F878
:104E300057125046494600F031FB27E72020886092
:104E4000059D3807ABD4D9E701219FE7DAF80000C8
:104E5000CDF818A009F08CFB400340F1D3800698F0
:104E6000006809F05BFB002800F0CC80064606983D
:104E700005F5106900F1140100F29C400027039130
:104E80000190CDF8089004E0760807F1010700F0E2
:104E9000B980F007F8D006985FFA87FA00685146A3
:104EA00009F04CFB0446C00726D0049A07F00F0017
:104EB000516B012303FA00F021EA0000506309EB73
:104EC0004710836006988079012811D1039907EB78
:104ED000C70001EB8000D0E902121144C1603FB964
:104EE000006928B90698019A0068012109F07EF846
:104EF00006985146FFF720FD200742BF09EB4710F7
:104F000008218160E00642BF09EB47101021816053
:104F1000600642BF09EB471040218160A00716D50B
:104F20002846394609F088FA039907EBC70001EBD8
:104F3000800010F8031F012905D100210170069897
:104F4000514600F0A7FA09EB4710022181602006C4
:104F50009AD5039907EBC70001EB8008D8E9042034
:104F6000824291D30699D8F808300C68111A9942F8
:104F700038BF0B4604EB4711D1F818C903F1030EF3
:104F80001FFA8CF3B3EB9E0F2DD301F5106900BF10
:104F9000D8F81020824224D9101A069AD8E902B112
:104FA0009579584538BF83461FFA8BF32046524601
:104FB0000095059D09F088FDD8F80C00D8F814106C
:104FC0005844C8F80C0001EB0B00C8F81400D9F8DD
:104FD00018100BF1030289B2B1EB920FD8D2D8F8B6
:104FE0001020DDF8089082423FF64EAF07F00F0028
:104FF000D4F83418012202FA00F021EA0000C4F8C3
:10500000340841E7DDF81890D9F8000009F0B0FA4B
:10501000002821D4D9F8000009F0AAFA00053AD4F2
:10502000D9F8000009F0A4FAC00445D504994868ED
:1050300020F001004860D9F80000102109F0FCF9C7
:1050400099F80400010600F0EC80C1B2042900F0D8
:10505000030035D200219AE00499486820F001004D
:10506000486099F8CC04012808D1002089F8CC04C4
:1050700048460021FFF7EEFB03E000BF484600F082
:10508000A3FBD9F80000416901F00041416109F03A
:105090006FFA0005C4D504988068C00702D048465E
:1050A00000F0D6FBD9F80000416901F400614161CC
:1050B00009F05EFAC004B9D4D9F80000DDE000BF01
:1050C0006FF0600202EA411200234FF67F370021A1
:1050D000EE18C6F80879D6F80059803325F4001583
:1050E000C6F80059C6F8087BD6F8005B9A4225F44A
:1050F0000015C6F8005BD6F8005B01F1040145F02D
:105100000065C6F8005BC6F82879D6F8205925F462
:105110000015C6F82059C6F8287BD6F8205B25F480
:105120000015C6F8205BD6F8205B45F00065C6F890
:10513000205BC6F84879D6F8405925F40015C6F822
:105140004059C6F8487BD6F8405B25F40015C6F8F0
:10515000405BD6F8405B45F00065C6F8405BC6F89A
:105160006879D6F8605925F40015C6F86059C6F874
:10517000687BD6F8605B25F40015C6F8605BD6F84E
:10518000605B45F00065C6F8605B059DA0D1002816
:1051900047D005F5106202EB41134FF67F374E0101
:1051A0009F609559059B25F4001503F530639551D3
:1051B00003EB4115AF609D59012825F400159D5161
:1051C0009D5945F000659D512BD04E1C02EB4614B5
:1051D0007501A760545903EB461624F4001454518A
:1051E000B7605F59022827F400175F515F5947F0F5
:1051F00000675F5115D0881C02EB40174FF67F36D1
:105200004101BE60575803EB401027F40017575078
:105210008660585820F400105850585840F00060EC
:105220005850049F8421F869442240F00110F8612D
:1052300099F80F0000284FF00B0008BF142108BF99
:1052400042F22B007B5808BF102218437850B85800
:1052500040F00B00B850386809F29C4220F4FE6020
:105260003860D9F8000099F8061008F0BFFED9F8A8
:105270000000416901F48051416109F079F901466A
:10528000D9F8000089041AD508F09EFAD9F8000070
:1052900009F032F9D9F8004089F8070000F0C4FBA2
:1052A00099F807200146204609F082FB484600F0A5
:1052B00075FAD9F80000416901F40051416109F023
:1052C00057F9000706D4D9F8000009F051F9000693
:1052D0000DD437E0484600F07BFAD9F80000416968
:1052E00001F00801416109F043F900062AD505994A
:1052F000886920F08000886199F80400022821D391
:1053000009F5157409F11405012640F27B2704E024
:105310000136864207F1240714D219F80710012933
:10532000F6D106F00F0000EBC0023006D9F80000FD
:1053300005EB820158BF04EB820108F0EDFF99F8FC
:105340000400E5E7D9F8000009F012F9C0024BD4D7
:10535000D9F8000009F00CF9059D80027CD599F878
:105360000410022926D305F53260013909F51F72B0
:10537000012304E02030013902F124021AD0076829
:105380001678012EF6D1B7F1FF3FF3DCD9F8D464DB
:1053900086EA1747FF07EDD102F8013CAF6947F0F5
:1053A0008007AF616F693F06E4D40499486840F410
:1053B00000704860D9F80000416901F400114161B2
:1053C00009F0D6F840004DD54846FFF7B1FAD9F8B4
:1053D0000000416901F08041416109F0C9F84007CE
:1053E0007FF5E1AB45E000BF99F80400022827D320
:1053F000059909F1140401F5126509F13B064FF016
:105400000108012706E000BF01372035874206F179
:10541000240615D229687278012AF5D1B1F1FF3F2F
:10542000F2DC07F00F0000EBC001D9F8000004EB3C
:10543000810186F8008008F06FFF99F80400E3E727
:10544000D9F80000416901F48011416109F090F838
:10545000059D80023FF583AFD9F8000009F088F878
:105460004000B1D4D9F8000009F082F840077FF578
:105470009AABD9F800004468610704D54846FFF7A5
:1054800071FAD9F8000041682143416007B0BDE8D6
:10549000F08F0000D0F8E00407F048BDD0F8E00439
:1054A00007F05ABD002804BF01207047F0B581B055
:1054B0000446056890F8950428B9002084F89404FF
:1054C000204600F027F90320B5F1A04F84F8950499
:1054D00004BF0020A071206808F080FD94E80F0050
:1054E000267C009608F080F9002840F000812068B2
:1054F000002109F097F8002840F0F98094F804E0C2
:10550000BEF1000F00F0EC800EF0030CBEF1040FB2
:105510004FF0000240D30EF0FC03A4F190000321F1
:10552000012500BFCE1E80F8A460A0F8BE608E1ECC
:1055300080F8C860A0F8E2604E1E80F8EC60A0F829
:10554000066180F81011A0F82A110E1D013180F8B3
:10555000A55080F8A820C0E92B22C0F8B42080F81C
:10556000C95080F8CC20C0E93422C0F8D82080F897
:10557000ED5080F8F020C0E93D22C0F8FC2080F812
:10558000115180F81421C0E94622C0F82021903042
:1055900099423146C6D1F21EBCF1000F31D004F160
:1055A000140002EBC20100EB8105012300F8212069
:1055B0000021BCF1010F6B706A832971C5E90211EA
:1055C00029611ED0551C05EBC50600EB8607BCF112
:1055D000020F7B7000F826507D833971C7E90211F4
:1055E00039610ED0911C01EBC10200EB8203012551
:1055F00000F8221000205D7059831871C3E9020081
:105600001861BEF1000F6BD0BEF1040F4FF0000225
:1056100036D30EF0FC000321234600BFCF1E83F8D3
:1056200054728F1E83F878724F1E83F8C0120D1DBE
:10563000013183F8552283F85822C3E99722C3F831
:10564000642283F8792283F87C22C3E9A022C3F87C
:10565000882283F89D2283F89C7283F8A022C3E9F4
:10566000A922C3F8AC2283F8C12283F8C422C3E97B
:10567000B222C3F8D022903381422946CED1EA1E0D
:10568000BCF1000F2CD004F5157002EBC20300EB47
:1056900083070021BCF1010F797000F823203971D4
:1056A000C7E9021139611BD0531C03EBC30700EBA0
:1056B0008706BCF1020F717000F827303171C6E91E
:1056C000021131610CD0911C01EBC10200EB82038D
:1056D00000275F7000F822101F71C3E902771F6175
:1056E00094E80F00277C009708F01CFA30B10220E4
:1056F00084F89504012001B0F0BD00BF0020607463
:10570000012084F89504206808F0FCF9002001B01D
:10571000F0BD0000B0B586B000680024B0F1A04F25
:105720000594CDE903440294019401D006B0B0BDC4
:1057300043F630050094C4F20205286801A940F040
:1057400001002860286800F00100009000984FF4E4
:10575000C05001900220CDE90204032004900A20E9
:1057600005900020C4F20200FEF7C0FB6868052126
:1057700040F08000686000946869002240F4804036
:105780006861686900F48040009000984320FFF74A
:1057900025F84320FFF710F806B0B0BD10B5044659
:1057A000C07928B1022801D0FCF716F9012100E0E8
:1057B0000021D4F8E00407F057FCD4F8E004BDE879
:1057C000104007F005BC0000D0F8E00407F032BC40
:1057D000D0F8E00407F038BC90F89424012A04BF04
:1057E0000220704710B5012280F8942441740268A9
:1057F0000446104609F0CAF8002084F8940410BD4D
:10580000D0F8E02400F29C41104607F043BC0000B1
:1058100010B5044690F89404012804BF022010BD7E
:105820002068012184F89414C168490606D5617B7B
:10583000012903D1816B41F48031816308F0F4FDCB
:10584000206808F04FF9002084F8940410BD00008F
:1058500010B50446D0F8E00407F072FC2068D0F8D8
:10586000001E41F00101C0F8001EE07A002808BFC8
:1058700010BD4EF61050CEF20000016841F0060156
:10588000016010BD002804BF012070472DE9F041E0
:1058900043F60808C4F202080446D8F8F8030D4697
:1058A00000F00700814207D988F8F853D8F8F803C8
:1058B00000F00700A84277D12068810717D541077B
:1058C00005D5D8F8001041F4E051C8F800100107E0
:1058D00005D5D8F8001041F46041C8F80010D8F898
:1058E0000010A26821F0F0011143C8F80010C007B1
:1058F00040D1D8F8F80300F00700854207D288F8B5
:10590000F853D8F8F80300F00700A8424CD12068FB
:10591000410707D5D8F80010E26821F4E05111439F
:10592000C8F80010000708D5D8F80000216920F455
:10593000604040EAC100C8F8000000F0A3F8D8F8C1
:10594000001045F62872C1F30311C0F60102515C44
:1059500040F2BC0220FA01F140F21400C2F2000051
:105960000068C2F200021160FEF7ACFE0020BDE844
:10597000F08100BF6068811E022907D258F8081C18
:1059800089015CBF0120BDE8F08111E0012807D149
:1059900058F8081C89035CBF0120BDE8F08107E0CE
:1059A00058F8081C890703D40120BDE8F08100BF26
:1059B000D8F8001021F003010843C8F80000FEF7F2
:1059C0006BFB064641F28837D8F80000616800F0AA
:1059D0000C00B0EB810F8CD0FEF75EFB801BB84251
:1059E000F2D90320BDE8F0810F22026043F60802DD
:1059F000C4F20202136803F003034360136803F068
:105A0000F0038360136803F4E053C360D2F800C06E
:105A10004FF4E05303EADC030361D2F8F80300F02B
:105A2000070008607047000040F2BC00C2F20000AE
:105A30000068704740F2BC0043F60801C2F2000063
:105A4000C4F202010068096845F63872C1F3822188
:105A5000C0F60102515CC8407047000040F2BC0033
:105A600043F60801C2F20000C4F2020100680968AE
:105A700045F63872C1F34231C0F60102515CC840AC
:105A80007047000010B543F60404C4F202046168D4
:105A9000C1F3810142F20040C0F2F400DFE801F0FE
:105AA00002040A0210BD00BF41F60030C0F2B70088
:105AB00010BD00BF206821682368490241F600310B
:105AC000C0F2B70100F03F02C3F388105CBF42F29E
:105AD0000041C0F2F401A1FB00010023FAF7FAFB38
